:100000000C9415030C943D030C943D030C943D0398
:100010000C943D030C943D030C943D030C943D0360
:100020000C943D030C943D030C943D030C943D0350
:100030000C943D030C94D7110C943D030C943D0398
:100040000C943C160C943D030C947F0A0C94590AB2
:100050000C943D030C943D030C943D030C943D0320
:100060000C94190F0C943D0300000000240027009D
:100070002A0000000008000201000003040700003D
:1000800000000000000000000000003E5B4F5B3EEF
:100090003E6B4F6B3E1C3E7C3E1C183C7E3C181C4D
:1000A000577D571C1C5E7F5E1C00183C1800FFE744
:1000B000C3E7FF0018241800FFE7DBE7FF30483AEA
:1000C000060E2629792926407F050507407F05254C
:1000D0003F5A3CE73C5A7F3E1C1C08081C1C3E7FD4
:1000E00014227F22145F5F005F5F06097F017F009B
:1000F0006689956A606060606094A2FFA2940804BB
:100100007E040810207E201008082A1C08081C2ADB
:1001100008081E101010100C1E0C1E0C30383E3833
:1001200030060E3E0E06000000000000005F0000DA
:100130000007000700147F147F14242A7F2A12234B
:100140001308646236495620500008070300001C5B
:100150002241000041221C002A1C7F1C2A08083E64
:100160000808008070300008080808080000606077
:100170000020100804023E5149453E00427F4000E5
:1001800072494949462141494D331814127F1027BD
:10019000454545393C4A494931412111090736490C
:1001A000494936464949291E0000140000004034E0
:1001B00000000008142241141414141400412214E5
:1001C0000802015909063E415D594E7C1211127C0C
:1001D0007F494949363E414141227F4141413E7F6D
:1001E000494949417F090909013E414151737F084D
:1001F00008087F00417F41002040413F017F0814F3
:1002000022417F404040407F021C027F7F04081053
:100210007F3E4141413E7F090909063E4151215E31
:100220007F09192946264949493203017F01033FC5
:100230004040403F1F2040201F3F4038403F631454
:1002400008146303047804036159494D43007F4156
:1002500041410204081020004141417F0402010293
:1002600004404040404000030708002054547840B8
:100270007F284444383844444428384444287F384C
:100280005454541800087E090218A4A49C787F08CE
:1002900004047800447D40002040403D007F102849
:1002A000440000417F40007C047804787C0804040A
:1002B000783844444438FC1824241818242418FCA2
:1002C0007C08040408485454542404043F44243C47
:1002D0004040207C1C2040201C3C4030403C4428B6
:1002E0001028444C9090907C4464544C4400083650
:1002F00041000000770000004136080002010204BE
:10030000023C2623263C1EA1A161123A4040207ADD
:100310003854545559215555794122545478422125
:100320005554784020545579400C1E52721239555C
:100330005555593954545459395554545800004559
:100340007C410002457D420001457C407D12111236
:100350007DF0282528F07C545545002054547C54C9
:100360007C0A097F4932494949323A4444443A3285
:100370004A4848303A4141217A3A42402078009D2B
:10038000A0A07D3D4242423D3D4040403D3C24FFD7
:100390002424487E4943662B2FFC2F2BFF0929F686
:1003A00020C0887E090320545479410000447D41D7
:1003B0003048484A32384040227A007A0A0A727D30
:1003C0000D19317D2629292F28262929292630484B
:1003D0004D4020380808080808080808382F10C8B9
:1003E000ACBA2F102834FA00007B000008142A143D
:1003F0002222142A14085500550055AA55AA55AAB8
:10040000FF55FF55FF000000FF00101010FF001403
:100410001414FF001010FF00FF1010F010F014145F
:1004200014FC001414F700FF0000FF00FF1414F484
:1004300004FC141417101F10101F101F1414141F85
:1004400000101010F0000000001F101010101F10FE
:10045000101010F010000000FF10101010101010FD
:100460001010FF10000000FF140000FF00FF00004C
:100470001F10170000FC04F414141710171414F4C0
:1004800004F40000FF00F714141414141414F700FB
:10049000F7141414171410101F101F141414F4144C
:1004A0001010F010F000001F101F0000001F1400BB
:1004B0000000FC140000F010F01010FF10FF1414E6
:1004C00014FF141010101F00000000F010FFFFFFB9
:1004D000FFFFF0F0F0F0F0FFFFFF0000000000FF72
:1004E000FF0F0F0F0F0F3844443844FC4A4A4A3478
:1004F0007E02020606027E027E026355494163388F
:1005000044443C04407E201E2006027E020299A53F
:10051000E7A5991C2A492A1C4C7201724C304A4D9D
:100520004D303048784830BC625A463D3E494949D2
:10053000007E0101017E2A2A2A2A2A44445F44447B
:1005400040514A444040444A51400000FF0103E00A
:1005500080FF000008086B6B083612362436060F41
:10056000090F06000018180000001010003040FFAE
:100570000101001F01011E00191D1712003C3C3C27
:100580003C0000000000010204081020408001022D
:1005900004081020010204081020000000002500BB
:1005A00028002B00040404040404040402020202D0
:1005B0000202030303030303EF03038002CF0300DC
:1005C000C130ED0464031281E803850078CB05395E
:1005D0002C003402F70120EA020000C00123C1010F
:1005E00010C5023E28C701863601483701003A018E
:1005F00055B1020018B603088227F2010026010156
:10060000E00F0F312B0C0E084EF1370710030E09C7
:1006100000E10F000E1403110731C148080F0C311F
:10062000360F1180298000003A2111241FBECFEF20
:10063000D8E0DEBFCDBF12E0A0E0B1E0EAE3F6E42F
:1006400002C005900D92A637B107D9F725E0A6E7BD
:10065000B2E001C01D92A83CB207E1F713E0C5E18A
:10066000D3E004C02197FE010E941023C431D107BA
:10067000C9F70E94B9170C941B230C940000CF9269
:10068000DF92EF92FF920F931F93CF93DF936C0152
:100690007A018B01C0E0D0E0CE15DF0581F0D801F2
:1006A0006D918D01D601ED91FC910190F081E02DCD
:1006B000C6010995892B11F02196EECF7E01C70165
:1006C000DF91CF911F910F91FF90EF90DF90CF902E
:1006D0000895FC01538D448D252F30E0842F90E048
:1006E000821B930B541710F0CF960895019708952D
:1006F000FC01918D828D981761F0828DDF01A80F2A
:10070000B11D5D968C91928D9F5F9F73928F90E04B
:1007100008958FEF9FEF0895FC01918D828D9817BA
:1007200031F0828DE80FF11D858D90E008958FEFF7
:100730009FEF0895FC01918D228D892F90E0805CC0
:100740009F4F821B91098F7399270895FC01848D17
:10075000DF01A80FB11DA35ABF4F2C91848D90E0EB
:1007600001968F739927848FA689B7892C93A089C6
:10077000B1898C91837080648C93938D848D981350
:1007800006C00288F389E02D80818F7D80830895E3
:10079000EF92FF920F931F93CF93DF93EC0181E0D1
:1007A000888F9B8D8C8D981305C0E889F98980818D
:1007B00085FD26C0F62E0B8D10E00F5F1F4F0F73C7
:1007C0001127E02E8C8DE8120CC00FB607FCFACF73
:1007D000E889F989808185FFF5CFCE010E94A603C3
:1007E000F1CF8B8DFE01E80FF11DE35AFF4FF08230
:1007F0009FB7F8940B8FEA89FB89808180620AC0D9
:100800009FB7F894EE89FF896083E889F989808130
:100810008370806480839FBF81E090E0DF91CF91FF
:100820001F910F91FF90EF900895CF93DF93EC010C
:10083000888D8823C9F0EA89FB89808185FD05C000
:10084000A889B9898C9186FD0FC00FB607FCF5CF3A
:10085000808185FFF2CFA889B9898C9185FFEDCF82
:10086000CE010E94A603E7CFDF91CF9108952F928A
:100870003F924F925F926F927F928F929F92AF9230
:10088000BF92CF92DF92EF92FF920F931F93CF937D
:10089000DF9300D000D000D0CDB7DEB76C015B0194
:1008A0005E834D832801370181E090E04C01841A7A
:1008B000950ACA01919581959109AC01440F551F84
:1008C0005A834983180153E0250E311CEE24E3942A
:1008D000F12C822F81708B8322702C83C7010197AA
:1008E0004D815E81841795070CF064C097FC0BC0A6
:1008F000415051095E834D8389819A8102969A8382
:100900008983880E991EC701880F991F0196880E4A
:10091000991E9B81992309F12D813E81220F331F5E
:100920002F5F3F4F240D351D8301A5018D819E81D1
:10093000481B590BB6016E0D7F1D8CE793E00E949A
:1009400043139101A5014E195F096D817E816C0DE4
:100950007D1D8CE793E00E9443139C81911107C099
:100960009FEFE91AF90A22E0220E311CB7CF2D8140
:100970003E81220F331F2F5F3F4F240D351D830112
:10098000A5018D819E81481B590BB6016E197F0907
:100990008CE793E00E9443139101A5014E195F0972
:1009A000B6018D819E81681B790B8CE793E00E94D4
:1009B0004313D6CF26960FB6F894DEBF0FBECDBF39
:1009C000DF91CF911F910F91FF90EF90DF90CF902B
:1009D000BF90AF909F908F907F906F905F904F905F
:1009E0003F902F9008950E9416238F929F92AF926E
:1009F000BF92CF92DF92EF92FF920F931F93CF930C
:100A0000DF935C01EB016A018CE793E00E9416150D
:100A1000450185E0880E911C76010AE010E026E190
:100A200030E0AE01B4018CE793E00E94B116259648
:100A30000FEF1FEF21E045E050E0BE01C5014A96EF
:100A40000E94370422E045E050E0BE01C4010E944C
:100A500037048CE793E0DF91CF911F910F91FF90C6
:100A6000EF90DF90CF90BF90AF909F908F900C94BD
:100A70005713AF92BF92CF92DF92EF92FF920F93F4
:100A80001F93CF93DF936C015B01EA0179018CE73F
:100A900093E00E9416159E01220F331F2F5F3F4FD8
:100AA000A5014C1B5D0B8701B6018CE793E00E940A
:100AB000431300E010E023E0AE01B501C6010E943F
:100AC00037048CE793E0DF91CF911F910F91FF9056
:100AD000EF90DF90CF90BF90AF900C94571300979A
:100AE00069F0FC0101900020E9F73197AF01481B44
:100AF000590BBC018CE793E00C943F0380E090E03D
:100B00000895CF93DF930E946F05EC0189E192E095
:100B10000E946F058C0F9D1FDF91CF9108958F92DA
:100B20009F92AF92BF92CF92DF92EF92FF920F937C
:100B30001F93CF93DF93CDB7DEB7A1970FB6F8948D
:100B4000DEBF0FBECDBF6B017C0197FF2BC06DE2F6
:100B50008CE793E00E9441158C0122273327A901DD
:100B60002C193D094E095F0919A2CE0181967C011D
:100B70009AE0892E912CA12CB12CCA01B901A501B2
:100B800094010E94A822605DF70162937F01211504
:100B900031054105510589F7CF010E946F05800F8E
:100BA000911F1DC09B01AC0119A28E010F5D1F4F4B
:100BB0008AE0C82ED12CE12CF12CCA01B901A70181
:100BC00096010E94A822605DF80162938F012115B1
:100BD00031054105510589F7CF010E946F05A196A6
:100BE0000FB6F894DEBF0FBECDBFDF91CF911F913E
:100BF0000F91FF90EF90DF90CF90BF90AF909F90BC
:100C00008F900895282F3091D202313208F04AC0D7
:100C10008091AE028111FCCF9091D10242E04093CD
:100C2000AE022093AD022FEF2093AC021092AB02E4
:100C30003093AA02E1EBF2E0AAE8B2E020E032173A
:100C400021F041914D932F5FFACF109289022091AC
:100C50008902990F922B909389029091880291308A
:100C600061F410928802909189029093BB00909158
:100C7000BC0093FDF8CF95EC01C095EE9093BC00BD
:100C80009091AE029230E1F39091AC029F3F79F0E7
:100C90008091AC02803241F08091AC02803331F01F
:100CA00084E005C081E003C082E001C083E01092CF
:100CB000B0021092D2021092AF0208952F923F928A
:100CC0004F925F926F927F928F929F92AF92BF925C
:100CD000CF92DF92EF92FF920F931F93CF93DF9308
:100CE000CDB7DEB7AC970FB6F894DEBF0FBECDBF61
:100CF0009CA78BA74B015A0139011701DE8ACD8AC7
:100D0000261737075CF4E616F706BCF4962F892DF4
:100D10004901EBA4FCA45CA74BA707C0E216F306AD
:100D20000CF0ABC1962D872D75012814390484F081
:100D300058013101292E382E13C08B2DABA4BCA431
:100D40004BA78CA77801872D3B01822E982E08C0D7
:100D50003401ABA4BCA44101292E382E0BA71CA73B
:100D60008CE793E00E9416158214930451F52BA58D
:100D70003CA5A216B3065CF09BA58CA52A153B05E5
:100D800014F49A2D8B2DABA4BCA49BA78CA7EA14BA
:100D9000FB0444F04BA55CA54E155F0514F4FCA6BE
:100DA000EBA675012BA53CA52E193F092F5F3F4FE0
:100DB0000D891E89A401B7018CE793E00E943013CE
:100DC00040C1C5016BA57CA5861B970B9301281913
:100DD0003909D701A61BB70BBE83AD83A101481902
:100DE00059095A874987B7016A197B097E876D8738
:100DF000D101A619B709B88FAF8B23016214730410
:100E000019F0B1E04B1A51086401198A1A8A1B8A39
:100E10001C8A19821A821B821C82A901330F660B5D
:100E2000770B4B8F5C8F6D8F7E8F29853A85032ED4
:100E3000000C440B550B2F8F38A349A35AA3AC01C8
:100E4000990F660B770B4BA35CA36DA37EA36D81FB
:100E50007E81072E000C880B990B6FA378A789A7BA
:100E60009AA74C145D040CF454C069817A818B817B
:100E70009C812B8D3C8D4D8D5E8D0E947622EBA446
:100E8000FCA4E20EF31E69897A898B899C892F8DD7
:100E900038A149A15AA10E9476228BA59CA5280FB2
:100EA000391F49815A816B817C818BA19CA1ADA1A5
:100EB000BEA1480F591F6A1F7B1F49835A836B834A
:100EC0007C8349895A896B897C898FA198A5A9A5BA
:100ED000BAA5480F591F6A1F7B1F498B5A8B6B8B12
:100EE0007C8B2E153F052CF49E2D8F2D7901292FFB
:100EF000382F2E193F092F5F3F4F0D891E89A601FC
:100F0000B7018CE793E00E9430139FEFC91AD90A0A
:100F1000A8CFC60186199709AD85BE858A9F200195
:100F20008B9F500C9A9F500C1124052C000C6608C6
:100F300077089601281939094D815E81249FC001E7
:100F4000259F900D349F900D11249C01990F440B07
:100F5000550B29833A834B835C834F89588D052E2B
:100F6000000C660B770B4F8B588F698F7A8F6985D2
:100F70007A85072E000C880B990B69877A878B87F7
:100F80009C87CD01092E000CAA0BBB0B8D879E8779
:100F9000AF87B88B2D813E81032E000C440B550B7F
:100FA0002D833E834F8358872C143D040CF449C095
:100FB000C301B2012F89388D498D5A8D0E94762246
:100FC0007501E20EF31E69817A818B819C812985EE
:100FD0003A854B855C850E9476226BA57CA5260F01
:100FE000371F8D859E85AF85B889480E591E6A1EAC
:100FF0007B1E49815A816B817C818D819E81AF816D
:10100000B885480F591F6A1F7B1F49835A836B831A
:101010007C832E153F052CF49E2D8F2D7901292FD1
:10102000382F2E193F092F5F3F4F0D891E89A601CA
:10103000B7018CE793E00E9430139FEFC91AD90AD9
:10104000B3CF8CE793E0AC960FB6F894DEBF0FBE3B
:10105000CDBFDF91CF911F910F91FF90EF90DF9067
:10106000CF90BF90AF909F908F907F906F905F9048
:101070004F903F902F900C945713780171CE2F9280
:101080003F924F925F926F927F928F929F92AF9218
:10109000BF92CF92DF92EF92FF920F931F93CF9365
:1010A000DF93CDB7DEB76B970FB6F894DEBF0FBEF8
:1010B000CDBF9B8F8A8F5B011A01D22E1F830E83B7
:1010C0003701C982DC0158962D913C915997211521
:1010D000310509F0E6C018968D919C911997681713
:1010E00079070CF0CDC11A968D919C911B974817EA
:1010F00059070CF0C5C18C2C912CFB0126E0C29E37
:10110000E00DF11D1124FB87EA871E161F060CF067
:10111000B7C1A40183E0440F551F8A95E1F75D87AD
:101120004C87CA01820D931D181619060CF0A8C130
:1011300057968C91811104C05FEA5D1508F4D39431
:10114000AA8DBB8DED91FC9111970284F385E02D62
:10115000CD010995B5E0DB9EC0011124F50135965E
:10116000FF87EE87BB82AA8225019C012A193B09D1
:10117000398B288BA101485F5F4F5B8B4A8BE889D5
:10118000F989E40DF51DEA57FF4F54915887610125
:101190003D822C82888580FF13C0AA8DBB8DED9186
:1011A000FC91B981B13031F40484F585E02D2E81B4
:1011B0003F8116C00684F785E02DEE80FF801AC0BF
:1011C000EE81FF81E615F705F1F0AA8DBB8DED915B
:1011D000FC91B981B13051F40484F585E02D93017F
:1011E000A601B2018A8D9B8D09950DC00684F785F5
:1011F000E02D7301840194014C815D816A817B81C2
:101200008A8D9B8D0995E885E695E887FFEFCF1AD3
:10121000DF0A2C813D81280D391D3D832C834A89AD
:101220005B89C416D50609F0B5CF5FEF451A550A9C
:101230008A819B81880D991D9B838A83AE85BF859A
:101240004A165B0609F09BCFEE81FF81E615F70594
:1012500009F4F4C0EA8DFB8DA081B181F981F130F0
:1012600079F4B5016B5F7F4F5096ED91FC915197EA
:10127000830128E030E0A1018A8D9B8D0995DEC0B5
:101280006A857B85681979091E96ED91FC911F97F7
:1012900073010C851D859401A1018A8D9B8D099593
:1012A000CDC0F9013496E491DE1AF90132968591A8
:1012B0009491B7E0DB9E800D911D1124F9012591D9
:1012C00034913B8B2A8BFC01259134912901FC013F
:1012D0003296C490319634913E873296149131966D
:1012E000D4904981423058F0612E012E000C7708CD
:1012F0008D2D0D2C000C990B9987888704C01986B9
:101300001886612C712CAA8DBB8DED91FC911197E3
:101310000284F385E02DCD010995B9818B2E912CA6
:10132000689CC001699C900D789C900D1124FC0173
:10133000EA0DFB1DFD87EC871A82712C612CE12FD1
:10134000110FFF0B95012E0F3F1F3B872A87AC0C17
:10135000B11CA5014E0F5F1F5F8B4E8BC1018D0D20
:10136000911DD7FC9A95998F888F9E85691608F0F4
:1013700065C0862D90E048855985480F591F489DC6
:101380009001499D300D589D300D1124D101A20FBF
:10139000B31FB98BA88BEC85FD85FD83EC83AA84F4
:1013A000BB84DA80FA85DF1A288D398D280F391F22
:1013B0003D8B2C8B8D2D8A0D4E895F89A416B50629
:1013C000C1F1877041F4C2010196EA89FB89E40DFD
:1013D000F51D74902C0177FE21C0AA8DBB8DED9177
:1013E000FC91B981B13061F40484F585E02D2E8142
:1013F0003F814C895D89B5018A8D9B8D09950EC011
:101400000684F785E02DEE80FF80840194014889F1
:1014100059896C817D818A8D9B8D0995770CEFEFC1
:10142000AE1ABE0A2C813D81280D391D3D832C83C7
:10143000C1CF3A813C0D3A83639497CFAA8DBB8D7F
:10144000ED91FC9111970688F789E02DCD016B96FF
:101450000FB6F894DEBF0FBECDBFDF91CF911F91C5
:101460000F91FF90EF90DF90CF90BF90AF909F9043
:101470008F907F906F905F904F903F902F90099446
:101480006B960FB6F894DEBF0FBECDBFDF91CF9144
:101490001F910F91FF90EF90DF90CF90BF90AF9092
:1014A0009F908F907F906F905F904F903F902F9084
:1014B00008951F920F920FB60F9211242F933F930E
:1014C0004F935F936F937F938F939F93AF93BF934C
:1014D000EF93FF9383ED92E00E94A603FF91EF91BB
:1014E000BF91AF919F918F917F916F915F914F913C
:1014F0003F912F910F900FBE0F901F9018951F9244
:101500000F920FB60F9211242F938F939F93EF9307
:10151000FF93E091E302F091E4028081E091E9021F
:10152000F091EA0282FD12C090818091EC028F5FFF
:101530008F732091ED02821751F0E091EC02F0E000
:10154000ED52FD4F958F8093EC0201C08081FF9199
:10155000EF919F918F912F910F900FBE0F901F9041
:10156000189590E0FC01EE58FF4F2491FC01EA57DA
:10157000FA4F3491FC01EC55FA4FE491EE2309F453
:101580003CC0222339F1233091F038F42130A9F006
:10159000223001F584B58F7D12C0273091F02830BC
:1015A000A1F02430B9F4809180008F7D03C0809138
:1015B00080008F77809380000DC084B58F7784BDC5
:1015C00009C08091B0008F7703C08091B0008F7DFB
:1015D0008093B000F0E0EE0FFF1FE656FA4FA591A2
:1015E000B4919FB7F894611104C08C913095382361
:1015F00002C0EC913E2B3C939FBF0895CF93DF93A5
:1016000090E0FC01EA57FA4F2491FC01EC55FA4FA7
:101610008491882361F190E0880F991FFC01E859BB
:10162000FF4FC591D491FC01E656FA4FA591B491B4
:10163000611109C09FB7F89488812095822388831F
:10164000EC912E230BC0623061F49FB7F89488812F
:10165000322F309583238883EC912E2B2C939FBFC0
:1016600006C08FB7F894E8812E2B28838FBFDF91B7
:10167000CF9108958F929F92AF92BF92CF92DF92B7
:10168000EF92FF926B017C010E9417164B015C01E7
:10169000C114D104E104F104F1F00E941716DC0139
:1016A000CB0188199909AA09BB09883E9340A10575
:1016B000B10570F321E0C21AD108E108F10888EE03
:1016C000880E83E0981EA11CB11CC114D104E10452
:1016D000F10419F7DDCFFF90EF90DF90CF90BF902E
:1016E000AF909F908F9008950895EF92FF920F937F
:1016F0001F93DC01ED91FC9100A0F1A1E02D099573
:101700001F910F91FF90EF9008950F931F93DC01AD
:10171000ED91FC91068CF78DE02D09951F910F91AD
:1017200008950F931F93DC01ED91FC91048CF58DCE
:10173000E02D09951F910F910895DC01ED91FC9129
:101740000084F185E02D09942F923F924F925F9291
:101750006F927F928F929F92AF92BF92CF92DF92C1
:10176000EF92FF920F931F93CF93DF9300D000D09F
:1017700000D0CDB7DEB72C017E836D836A0159019D
:10178000C801FC82EB824801841A950A97FE03C0C7
:1017900091948194910835012D813E81621A730ADA
:1017A00077FE03C0719461947108681479045CF445
:1017B0003A2D2B2D5C01832F922F3D812E81DE82CD
:1017C000CD82C32ED22EAD81BE81AA16BB065CF49B
:1017D0003C2D2D2D6C01832F922F3D812E81BE82B9
:1017E000AD82A32EB22E85012D813E81021B130BEB
:1017F0001C012C183D0837FE03C031942194310898
:10180000780117FF03C03FEFE31AF30AF594E7945A
:10181000C816D9062CF08FEF9FEF9A83898304C0F6
:10182000A1E0B0E0BA83A9832D813E81A216B30660
:1018300024F1D201ED91FC910484F585E02D2B81FA
:101840003C816814790424F44D815E81B60103C0A3
:10185000A6016D817E81C2010995E218F308F7FEA9
:1018600006C029813A81C20ED31EE00EF11E8D8181
:101870009E8101969E838D83D7CF26960FB6F894CE
:10188000DEBF0FBECDBFDF91CF911F910F91FF90B3
:10189000EF90DF90CF90BF90AF909F908F907F9010
:1018A0006F905F904F903F902F90089585ED8093BB
:1018B000BC008091BC0084FDFCCF1092AE02089564
:1018C00040919B05262F30E0240F311D2132310538
:1018D000DCF42091AE022430C9F4FC0180E090E0F9
:1018E000861758F430919B052191DC01A558BA4F19
:1018F000A30FB11D2C930196F3CF80919B05680F28
:1019000060939B0580E0089581E0089582E008954A
:1019100008950895E091740580917305E81730F4F7
:10192000F0E0ED5AFA4F808190E008958FEF9FEF3D
:1019300008959091740580917305981750F4E92FDC
:10194000F0E0ED5AFA4F208130E09F5F90937405EC
:1019500002C02FEF3FEFC90108958091730590E019
:1019600020917405821B91090895CF92DF92EF9226
:10197000FF920F931F93CF93DF937C01CB018A01DA
:101980002091AF02222389F0EB016B01C40ED51E1A
:10199000CC15DD0569F06991D701ED91FC910190BD
:1019A000F081E02DC7010995F3CF642F0E94600CF0
:1019B000C801DF91CF911F910F91FF90EF90DF90C1
:1019C000CF900895CF93DF931F92CDB7DEB7698391
:1019D0002091AF022223D1F02091D202203240F098
:1019E00021E030E0FC013383228380E090E015C0E9
:1019F0008091B002E82FF0E0EF54FD4F9981908381
:101A00008F5F8093B0028093D20205C061E0CE0167
:101A100001960E94600C81E090E00F90DF91CF91E1
:101A20000895089580E090E008951F93CF93DF9389
:101A3000EC01162FE881F9810284F385E02D0995E8
:101A4000111102C060E201C061E2CE010E9486175E
:101A5000E881F9810688F789E02DCE01DF91CF91E9
:101A60001F9109948F929F92AF92BF92CF92DF9273
:101A7000EF92FF920F931F93CF93DF93EC014901F5
:101A800081E0881A9108860E971EC401A0E0B0E09C
:101A90004B01A12CB12C540199248824882A992A1D
:101AA000AA2ABB2A680181E0C81AD108C40ED51E33
:101AB000C601A0E0B0E06A01E12CF12C7601DD2442
:101AC000CC24C82AD92AEA2AFB2A6AE2CE010E943B
:101AD000861729A16B2D77278827992727FF18C0FC
:101AE0006EBD0DB407FEFDCFC501AA27BB278EBD75
:101AF0000DB407FEFDCFBB27AB2D9A2D892D8EBDD2
:101B00000DB407FEFDCF8EBC0DB407FEFDCF14C093
:101B1000CE010E948616B50188279927CE010E9422
:101B2000861699278B2D7A2D692DCE010E94861657
:101B3000682DCE010E9486166BE2CE010E948617A8
:101B400029A16F2D77278827992727FF18C06EBDF9
:101B50000DB407FEFDCFC701AA27BB278EBD0DB46C
:101B600007FEFDCFBB27AF2D9E2D8D2D8EBD0DB455
:101B700007FEFDCFCEBC0DB407FEFDCF14C0CE01D5
:101B80000E948616B70188279927CE010E948616E3
:101B900099278F2D7E2D6D2DCE010E9486166C2DDE
:101BA000CE010E9486166CE2CE01DF91CF911F918B
:101BB0000F91FF90EF90DF90CF90BF90AF909F90EC
:101BC0008F900C9486171F93CF93DF93EC01637073
:101BD0006D8B6230C1F0633001F1613051F080EF04
:101BE00090E09987888780E491E09B878A8718E452
:101BF0001DC080E491E09987888780EF90E09B8703
:101C00008A8718E213C080EF90E09987888780E484
:101C100091E09B878A8718E809C080E491E0998762
:101C2000888780EF90E09B878A8718EEE881F981AA
:101C30000284F385E02DCE01099566E3CE010E9472
:101C40008617612FCE010E948616E881F9810688E9
:101C5000F789E02DCE01DF91CF911F910994BF92BA
:101C6000CF92DF92EF92FF920F931F93CF93DF9368
:101C7000EC01411551056105710521F440E052E187
:101C80006AE770E04A8F5B8F6C8F7D8F8E8D87FD4A
:101C900007C061E00E94FE0A61E08E8D0E94B10AD9
:101CA00061E08F8D0E94FE0A60E08F8D0E94B10A74
:101CB00089A187FD19C061E08AA10E94FE0A60E047
:101CC0008AA10E94B10A61E089A10E94FE0A61E036
:101CD00089A10E94B10A8BA187FD03C060E00E9428
:101CE000FE0A89A187FF33C01FB7F8948091BE0513
:101CF000811127C0EEEAF5E08491E0E9F5E09491E6
:101D0000E82FF0E0EE0FFF1FE859FF4FA591B491C7
:101D1000EC91E92321F461E08AE00E94B10A61E0DC
:101D20008AE00E94FE0A8CB580618CBD8CB580640F
:101D30008CBD61E08DE00E94FE0A61E08BE00E94B4
:101D4000FE0A8091BE058F5F8093BE051FBF88A1EC
:101D500087FD21C061E00E94FE0A61E088A10E9427
:101D6000B10A64E670E080E090E00E943A0B60E027
:101D700088A10E94B10A64E670E080E090E00E94D1
:101D80003A0B61E088A10E94B10A68EC70E080E043
:101D900090E00E943A0BE881F9810284F385E02DFE
:101DA000CE01099508EB15E078018FEFE81AF80AE3
:101DB000F8016491662321F1CE010E9486170E5F1F
:101DC0001F4FF701E490FE2DFF77BF2E6801FF2E15
:101DD000FA948FEFF81649F0F6016491CE010E9453
:101DE0008616FFEFCF1ADF0AF3CF0B0D111DE7FEAA
:101DF000DBCF68E770E080E090E00E943A0BD4CF40
:101E0000E881F9810688F789E02DCE01099580EFF8
:101E100090E09987888780E491E09B878A87DF91AB
:101E2000CF911F910F91FF90EF90DF90CF90BF90D7
:101E300008951F920F920FB60F9211242F933F9384
:101E40004F935F936F937F938F939F93AF93BF93C2
:101E5000EF93FF938091B900887F803609F49CC08E
:101E600068F5883209F45BC090F4803109F454C0FD
:101E700038F4882309F4F6C0883009F44DC0F6C060
:101E8000883109F44CC0803209F45DC0EFC0803461
:101E900009F468C048F4803309F455C0883309F068
:101EA000E5C08093AC02D8C0803509F44FC08835B6
:101EB00009F45DC0883409F0D9C0D6C0883909F466
:101EC000C7C0A8F4883709F467C038F4883609F425
:101ED00063C0803709F460C0C9C0883809F4B8C04D
:101EE000803909F45FC0803809F0C0C05BC0803B16
:101EF00009F486C038F4803A09F466C0883A09F4D7
:101F00007FC0B4C0803C09F4A7C0883C09F4A4C0D9
:101F1000883B09F48AC0AAC08091890210C09091C0
:101F2000AB028091AA02981770F5E091AB0281E0B4
:101F30008E0F8093AB02F0E0E657FD4F80818093D7
:101F4000BB0085EC86C08093AC028EC0E091AB02F2
:101F500081E08E0F8093AB028091BB00F0E0E657EA
:101F6000FD4F80839091AB028091AA026EC0E091F8
:101F7000AB0281E08E0F8093AB028091BB00F0E05A
:101F8000E657FD4F80838091AD0281116DC081E0E5
:101F90008093880284EA61C083E08093AE0210924D
:101FA000BD05CFCF8091BD05803208F051C0E091D2
:101FB000BD0581E08E0F8093BD058091BB00F0E0F0
:101FC000E356FA4F8083BDCF85EC8093BC0010921E
:101FD000AE028091BD05803230F4E091BD05F0E0A5
:101FE000E356FA4F10826091BD0570E0E0917705ED
:101FF000F09178058DE995E009951092BD0536C000
:1020000084E08093AE0210929C0510929B05E091B3
:102010007505F0917605099580919B05811105C0A4
:1020200081E080939B0510927B05E0919C0581E007
:102030008E0F80939C05F0E0E558FA4F80818093E5
:10204000BB0090919C0580919B05981708F479CF6F
:1020500085E88093BC000AC085EC8093BC00109298
:10206000AE0204C01092AC020E94560CFF91EF9198
:10207000BF91AF919F918F917F916F915F914F91A0
:102080003F912F910F900FBE0F901F901895809148
:1020900052058095817090E008952F923F924F9263
:1020A0005F926F927F928F929F92AF92BF92CF92E8
:1020B000DF92EF92FF920F931F93CF93DF9300D0A5
:1020C00000D000D0CDB7DEB77E836D835A0120915A
:1020D0001A0130911B018D38910534F0213E3105F4
:1020E0007CF42C5F3F4F08C08A3591054CF42031B9
:1020F000310534F02450310930931B0120931A012B
:1021000095014AE050E06D817E8180911A019091A5
:102110001B010E9439056D817E8165507109809196
:102120001A0190911B01A50140970E94F50460914E
:102130001A0170911B018D809E802BE0821A9108FC
:102140009B012C5F3F4F64507109E12CF12C8401FD
:10215000A4018CE793E00E94D51380911A0190911D
:102160001B01AD80BE8036E0A31AB108AC01495016
:102170005109C12CD12C74018A019501B401049735
:102180000E945E068D819E8109979A838983609162
:102190001A0170911B016E507109E12CF12C04E0C1
:1021A00010E026E030E0AC018CE793E00E9474126E
:1021B00080911A0190911B012D813E81225031099D
:1021C0003C832B83AC014051510975018A01B50153
:1021D0000D970E945E0660911A0170911B01625179
:1021E0007109E12CF12C0DE010E024E030E0A501B4
:1021F0008CE793E00E94741280911A0190911B0168
:102200002D803E8032E0230E311CAC01405151093B
:102210006D807E8026E0620E711C73018A0191013F
:10222000B3010D970E945E064D805E8035E0430E3F
:10223000511C60911A0170911B016E507109E12CC3
:10224000F12C04E010E026E030E0A2018CE793E0FE
:102250000E94741280911A0190911B01AC014950A7
:1022600051092D813E81255F3F4F3E832D837901AA
:102270008A019301B70104970E945E0660911A01DA
:1022800070911B019B012C5F3F4F64507109E12C41
:10229000F12C0D811E81A8018CE793E00E94D513DB
:1022A00040911A0150911B01CA0109964C5F5F4F82
:1022B000ED80FE808C019701B3010E945E06609163
:1022C0001A0170911B01685F7F4FE12CF12C04E033
:1022D00010E026E030E0A2018CE793E00E94741247
:1022E00080911A0190911B01AC01405F5F4F730117
:1022F0008A019101B3010D960E945E0660911A0158
:1023000070911B01605F7F4FE12CF12C0DE010E01C
:1023100024E030E0A5018CE793E00E9474128091E4
:102320001A0190911B01AC01405F5F4F75018A015A
:102330002B813C81B5010D960E945E0660911A01C9
:1023400070911B01685F7F4FE12CF12C04E010E0DD
:1023500026E030E049815A818CE793E00E947412B4
:1023600080911A0190911B01AC01475F5F4F74018E
:102370008A019501B40104960E945E0626960FB666
:10238000F894DEBF0FBECDBFDF91CF911F910F91AB
:10239000FF90EF90DF90CF90BF90AF909F908F9085
:1023A0007F906F905F904F903F902F9008951F9275
:1023B0000F920FB60F9211242F933F938F939F93F9
:1023C00080914B0590914C059093850080938400FB
:1023D0008091790590917A05019690937A05809382
:1023E0007905209118013091190128173907E4F473
:1023F0008091490590914A05019690934A058093F2
:1024000049058091470590914805019749F48091CD
:1024100045059091460501969093460580934505A4
:1024200010927A05109279059F918F913F912F918B
:102430000F900FBE0F901F901895AF92BF92CF9242
:10244000DF92EF92FF920F931F93CF93DF93CDE72D
:10245000D4E085EBA82E83E0B82E99E1C92ED12CCB
:1024600000EF10E00E9466227E01B6010E94D92290
:102470004996899399930E946622F70120813181C0
:10248000B801621B730B0E94D922F50181939193CD
:102490005F01F5E0C734DF0729F7DF91CF911F9186
:1024A0000F91FF90EF90DF90CF90BF90AF90089585
:1024B000EF92FF920F931F93CF93DF938C01EB0169
:1024C0007A019A014AE050E00E943905BE01655048
:1024D0007109A701C8014097DF91CF911F910F911A
:1024E000FF90EF900C94F5048F929F92AF92BF9261
:1024F000CF92DF92EF92FF920F931F93CF93DF93D0
:10250000EC016B015A014901E881F9810284F385EC
:10251000E02D0995E881F9810684F785E02D940185
:10252000A501B601CE010995E881F9810688F789F0
:10253000E02DCE01DF91CF911F910F91FF90EF9091
:10254000DF90CF90BF90AF909F908F900994AF9203
:10255000BF92CF92DF92EF92FF920F931F93CF9390
:10256000DF93EC017B016A015901E881F981028462
:10257000F385E02D0995E881F9810288F389E02D42
:102580009501A601B701CE010995E881F981068878
:10259000F789E02DCE01DF91CF911F910F91FF9030
:1025A000EF90DF90CF90BF90AF900994AF92BF9221
:1025B000CF92DF92EF92FF920F931F93CF93DF930F
:1025C000EC017B016A015901E881F9810284F385FC
:1025D000E02D0995E881F9810088F189E02D9501C8
:1025E000A601B701CE010995E881F9810688F7892E
:1025F000E02DCE01DF91CF911F910F91FF90EF90D1
:10260000DF90CF90BF90AF900994CF92DF92EF927E
:10261000FF920F931F93CF93DF93EC018B017A010D
:102620006901E881F9810284F385E02D0995E8814B
:10263000F9810484F585E02D9601A701B801CE014A
:102640000995E881F9810688F789E02DCE01DF91AF
:10265000CF911F910F91FF90EF90DF90CF90099451
:10266000EF92FF920F931F93DC01ED91FC91068492
:10267000F785E02D780101E010E009951F910F9199
:10268000FF90EF900895EF92FF920F931F93DC015C
:10269000ED91FC910684F785E02D7801890121E018
:1026A00030E009951F910F91FF90EF900895FC0184
:1026B00091A904A4F5A5E02D8081892B808308953C
:1026C0000895FC016370658B848195812681378133
:1026D000613039F0633029F0918780873387228712
:1026E0000895318720879387828708956F927F921C
:1026F0008F929F92AF92BF92CF92DF92EF92FF9212
:102700000F931F93CF93DF93EC014B015A016901A3
:102710003801E881F9810284F385E02D0995E8818B
:10272000F9810288F389E02D87019601A501B401A2
:10273000CE010995A501460D571D41505109E8816B
:10274000F9810288F389E02D9601B401CE01099543
:10275000E881F9810088F189E02D9301A501B40198
:10276000CE010995C80CD91CB60161507109E881E8
:10277000F9810088F189E02D9301A501CE01099529
:10278000E881F9810688F789E02DCE01DF91CF91AC
:102790001F910F91FF90EF90DF90CF90BF90AF907F
:1027A0009F908F907F906F9009948F929F92AF929D
:1027B000BF92CF92DF92EF92FF920F931F93CF932E
:1027C000DF934C016B015A01E901DC01ED91FC91B1
:1027D0006217730781F40417150724F48B2D580131
:1027E000042F182F0A191B0998012F5F3F4F048CE3
:1027F000F58DE02D12C04017510709F52617370750
:1028000024F48D2D6901C62FD82F9E012C193D0966
:102810002F5F3F4F068CF78DE02D8701A501B60194
:10282000C4010995DF91CF911F910F91FF90EF9017
:10283000DF90CF90BF90AF909F908F9008950284CB
:10284000F385E02D0995D401ED91FC910488F5897B
:10285000E02D9E01A501B601C4010995D401ED91B9
:10286000FC910688F789E02DC401DF91CF911F917B
:102870000F91FF90EF90DF90CF90BF90AF909F901F
:102880008F900994EF92FF920F931F93DC011A9699
:102890000D911C911B9718962D913C911997ED91D4
:1028A000FC9100A0F1A1E02D7B0140E050E060E050
:1028B00070E009951F910F91FF90EF9008954F924E
:1028C0005F926F927F928F929F92AF92BF92CF92C0
:1028D000DF92EF92FF920F931F93CF93DF936C01E0
:1028E0002B015A0139014801DC01ED91FC91028470
:1028F000F385E02D0995E201640C751CD601ED917C
:10290000FC91C615D7055CF40088F189E02D87019C
:102910009401A501BE01C60109952196EFCF068855
:10292000F789E02DC601DF91CF911F910F91FF90A4
:10293000EF90DF90CF90BF90AF909F908F907F905F
:102940006F905F904F9009948F929F92AF92BF9239
:10295000CF92DF92EF92FF920F931F93CF93DF936B
:10296000EC015B014A016901E881F9810284F38588
:10297000E02D099595012C0D3D1D21503109E8816F
:10298000F9810488F589E02D78018401A401B5015D
:10299000CE010995E881F9810688F789E02DCE01FD
:1029A000DF91CF911F910F91FF90EF90DF90CF902B
:1029B000BF90AF909F908F9009948F929F92AF920B
:1029C000BF92CF92DF92EF92FF920F931F93CF931C
:1029D000DF93EC015B014A0169017801E881F9812B
:1029E0000284F385E02D0995C80CD91C860101509D
:1029F0001109E881F9810488F589E02D9501A40188
:102A0000B501CE010995E881F9810688F789E02DA5
:102A1000CE01DF91CF911F910F91FF90EF90DF904A
:102A2000CF90BF90AF909F908F900994FC0181A1AF
:102A300087FF1EC0428D538D648D758D80E092E1BD
:102A4000AAE7B0E020E0481759076A077B0740F47F
:102A5000B695A795979587952F5F2630A1F727E024
:102A600091E09227892F806A869591708CBD9DBDDB
:102A700081A904A4F5A5E02D908180958923808308
:102A80000895AF92BF92CF92EF92FF920F931F9350
:102A9000CF93DF93EC01262F888D998D009709F055
:102AA00040C06A3059F41D861C862C898E859F850E
:102AB00038E0239F800D911D112441C06D3009F431
:102AC000AAC08E898823C1F03C898C859D8546E00B
:102AD000349F800D911D1124488559854817590749
:102AE0005CF41D861C868E859F8548E0349F800D92
:102AF000911D11249F878E87EA88FB880889198990
:102B00004E855F856C857D85CC88CE010E943F080F
:102B10002C898C859D8536E0239F800D911D112485
:102B200042C06A3079F41D861C862C89FC013696D9
:102B3000E4918E859F852E9F800D911D11249F8786
:102B40008E8769C06D3009F466C0FC0134963491FB
:102B5000631708F460C03196E491E61708F45BC08F
:102B6000FC01329665917491422F50E0431B51094C
:102B700037E0349F5001359FB00C1124A60EB71ECC
:102B8000F501329634913196E491332311F0E1113D
:102B90000DC0F5013496E4912C898C859D85E29FCA
:102BA000800D911D11249D878C8735C0F5013596C8
:102BB00044915E89552311F16C89E32FF0E0E40F15
:102BC000F11D47FDFA956E9FD0016F9FB00D112446
:102BD0004C855D854A0F5B1FE885F985E417F5078D
:102BE0006CF41D861C86FC013696E4918E859F85CB
:102BF0006E9F800D911D11249F878E87EA88FB8828
:102C0000088919894E855F856C857D85CC88CE01C4
:102C10000E943F08BECF81E090E0DF91CF911F91ED
:102C20000F91FF90EF90CF90BF90AF9008953FB776
:102C3000F8948091C4059091C505A091C605B09106
:102C4000C70526B5A89B05C02F3F19F00196A11D09
:102C5000B11D3FBFBA2FA92F982F8827820F911D32
:102C6000A11DB11DBC01CD0142E0660F771F881F79
:102C7000991F4A95D1F708951F920F920FB60F92A0
:102C800011242F933F938F939F93AF93BF93809182
:102C9000C0059091C105A091C205B091C3053091C6
:102CA000BF0523E0230F2D3720F40196A11DB11D90
:102CB00005C026E8230F0296A11DB11D2093BF0574
:102CC0008093C0059093C105A093C205B093C3053E
:102CD0008091C4059091C505A091C605B091C70526
:102CE0000196A11DB11D8093C4059093C505A093C5
:102CF000C605B093C705BF91AF919F918F913F914A
:102D00002F910F900FBE0F901F901895FC0181A17D
:102D100087FF05C06EBD0DB407FEFDCF089588E0A6
:102D200090E020E8A4A1B5A1362F322321F046A5DA
:102D30003C91342B04C036A54C91309534233C9300
:102D400030A9A0A5B1A54C91309534233C9340A95E
:102D5000A0A5B1A53C91342B3C932695019711F782
:102D600008954F925F926F927F928F929F92AF924F
:102D7000BF92CF92DF92EF92FF920F931F93CF9368
:102D8000DF93EC016B0159014801288539856217F1
:102D900073070CF067C08A859B85481759070CF0AC
:102DA00061C08B010A0D1B1DF8013197DA01A80DD6
:102DB000B91DBD0161507109F7FD54C077FD52C0C6
:102DC000D7FE03C05801C12CD12C57FF03C04D01C1
:102DD00040E050E0E217F3071CF05901AC18BD08C1
:102DE000681779071CF04C01841A950A9501D401E3
:102DF0000E94ED223B01582E492EE881F98102A460
:102E0000F3A5E02D8401B601CE0109954301A52C5F
:102E1000B42C89A187FF13C081149104A104B104CB
:102E200009F1FEBC0DB407FEFDCFEEBC0DB407FEEC
:102E3000FDCF81E0881A9108A108B108EDCF811477
:102E40009104A104B10471F06F2DCE010E94861689
:102E50006E2DCE010E94861681E0881A9108A10885
:102E6000B108EDCFDF91CF911F910F91FF90EF90BF
:102E7000DF90CF90BF90AF909F908F907F906F909A
:102E80005F904F900895EF92FF920F931F93CF930F
:102E9000DF93EC0177FD33C0888599856817790742
:102EA00074F557FD2CC08A859B85481759073CF55A
:102EB000E32EF22EE881F98102A4F3A5E02D01E0D2
:102EC00010E021E030E0CE01099589A187FF09C01B
:102ED000EEBC0DB407FEFDCFFEBC0DB407FEFDCF6A
:102EE0000EC06E2DCE010E9486166F2DCE01DF9191
:102EF000CF911F910F91FF90EF900C948616DF9168
:102F0000CF911F910F91FF90EF900895CF93DF9392
:102F1000EC018AA9EAA5FBA590818095892380838D
:102F2000CE010E9486169AA9EAA5FBA58081892B6D
:102F30008083DF91CF9108951F93CF93DF93EC01AE
:102F4000162FE881F9810284F385E02D099511237C
:102F500011F06BA901C06CA9CE010E948617E8810F
:102F6000F9810688F789E02DCE01DF91CF911F917D
:102F70000994F89410928000109281008EEE95E8EA
:102F800090934C0580934B0590938500809384002B
:102F90008091810084608093810080916F008160C6
:102FA00080936F007894789484B5826084BD84B5F2
:102FB000816084BD85B5826085BD85B5816085BD34
:102FC00080916E00816080936E00109281008091EC
:102FD0008100826080938100809181008160809374
:102FE0008100809180008160809380008091B10099
:102FF00084608093B1008091B00081608093B000C4
:1030000080917A00846080937A0080917A00826057
:1030100080937A0080917A00816080937A00809119
:103020007A00806880937A001092C10040E050E0FE
:10303000BA018CE793E00E942F0E60E070E08CE70D
:1030400093E00E94421487B18C6087B94298439AFA
:1030500064E670E080E090E00E943A0B1092740504
:10306000109273051092B0021092D2021092AE022A
:10307000C1E0C093AD021092880261E082E10E943B
:10308000B10A61E083E10E94B10A8091B9008E7FAC
:103090008093B9008091B9008D7F8093B90088E456
:1030A0008093B80085E48093BC0088E89CE090930E
:1030B00076058093750589E89CE090937805809368
:1030C0007705C093AF0282E58093D1021092B002DF
:1030D0001092D20260E480E793E00E94E20C60E08C
:1030E00080E793E00E94E20C81E00E940206E091FA
:1030F000E302F091E40282E08083E091DF02F0914C
:10310000E0021082E091E102F091E2028FEC808314
:103110001092EB02E091E702F091E80286E08083F2
:10312000E091E502F091E602808180618083E09188
:10313000E502F091E602808188608083E091E502FB
:10314000F091E602808180688083E091E502F09151
:10315000E60280818F7D80830E941D1262E3A62E8D
:10316000B12C78E2472E512CCFEFDFEF56E4252E1D
:10317000312C42E8842E912C8091AE028111FCCF3B
:1031800021E02093AE022093AD028FEF8093AC023A
:103190001092AB0285E08093AA022093890280916D
:1031A0008902846A8093890280918802813061F467
:1031B00010928802809189028093BB008091BC00AC
:1031C00083FDF8CF85EC01C085EE8093BC00809133
:1031D000AE028130E1F38091AB02863018F4909119
:1031E000AB0201C096E0EAE8F2E0A3E5B5E080E0DA
:1031F000891721F021912D938F5FFACF10927405DA
:10320000809373050DE415E037E1D32E909173059B
:1032100080917405981751F080E793E00E94990C13
:103220008D25895EF80181938F01F0CFF1E0F09355
:10323000AF0282E58093D1021092B0021092D202C6
:1032400060E080E793E00E94E20C81E00E940206C9
:1032500080914E0590E09093170180931601809124
:103260004D0590E0909387028093860223E0D22E52
:1032700000EA10E08091160190911701892B09F066
:103280005DC08091860290918702892B09F056C01B
:103290008091520581FD52C00E944710019709F0AC
:1032A0004DC01092850210928402B0928903A092C0
:1032B000880350928B0340928A03D0938F03C0936C
:1032C0008E03D0938D03C0938C03D092900384E53A
:1032D00092E00E948105B0928903A0928803309207
:1032E0008B0320928A038BE592E00E948105B092C5
:1032F0008903A092880384E690E090938B038093E7
:103300008A0383E692E00E948105B0928903A0922D
:10331000880390928B0380928A038CE692E00E944D
:103320008105B0928903A092880310938B030093C8
:103330008A0380E792E00E9481059CCF80918402FD
:1033400090918502892B61F481E090E09093850251
:103350008093840260E070E08CE793E00E94421466
:10336000209114013091150180910001909101018B
:103370002817390709F447C060E070E08CE793E054
:103380000E944214809114019091150181309105A1
:1033900091F510924A051092490510924605109237
:1033A000450510927D0210927C0210927F021092CD
:1033B0007E02109248051092470590930F0180936A
:1033C0000E01B0920D01A0920C0185E090E0909367
:1033D0001901809318018AE090E09093090180938D
:1033E00008011092790210927802109277021092DE
:1033F00076020E941D128091140190911501909304
:1034000001018093000180911401909115010197B1
:1034100009F0CEC18EE190E09093890380938803F8
:1034200050928B0340928A03D0938F03C0938E03F4
:10343000D0938D03C0938C0313E01093900384E723
:1034400091E00E9481058DE490E090938903809340
:10345000880330928B0320928A03D0938F03C0930A
:103460008E03D0938D03C0938C03109390038FE74A
:1034700091E00E9481058AE590E090938903809312
:10348000880390928B0380928A03D0938F03C0931A
:103490008E03D0938D03C0938C0312E0109390039E
:1034A00085E891E00E94810581E490E09093890392
:1034B0008093880386E990E090938B0380938A033E
:1034C000D0938F03C0938E03D0938D03C0938C034E
:1034D000109390038BE891E00E94810587E490E0CF
:1034E00090938903809388038BEA90E090938B03F9
:1034F00080938A03D0938F03C0938E03D0938D0360
:10350000C0938C031093900385E991E00E9481059C
:1035100030928903209288038FEB90E090938B0385
:1035200080938A03D0938F03C0938E03D0938D032F
:10353000C0938C03109390038EE991E00E94810563
:103540008FE190E0909311018093100140E058EFDB
:1035500063E171E082E390E00E9458124091100113
:10356000509111016BEE70E084EB90E00E945812D4
:103570008091040190910501209102013091030195
:103580008217930709F458C0019789F4C12CD12CF4
:1035900098E8E92EF12C07E310E02DE830E04DE249
:1035A00050E063E870E08DE290E00E945E0680915A
:1035B000040190910501029789F4C12CD12C8CE96A
:1035C000E82EF12C07E310E021EA30E04DE250E074
:1035D00067E970E08DE290E00E945E068091040150
:1035E00090910501039789F4C12CD12C00EBE02EBA
:1035F000F12C07E310E025EB30E04DE250E06BEA00
:1036000070E08DE290E00E945E068091040190914E
:103610000501049789F4C12CD12C14ECE12EF12C76
:1036200007E310E029EC30E04DE250E06FEB70E092
:103630008DE290E00E945E0680910201909103016C
:103640000197E9F4A0EECA2EA7E0DA2EB8E8EB2E37
:10365000F12C07E310E02DE830E04DE250E063E8A4
:1036600070E08DE290E00E945E060E944710019794
:1036700031F482E090E090931501809314018091E1
:103680000201909103010297E9F4E0EECE2EE7E00B
:10369000DE2EFCE9EF2EF12C07E310E021EA30E00A
:1036A0004DE250E067E970E08DE290E00E945E0636
:1036B0000E944710019731F483E090E09093150148
:1036C0008093140180910201909103010397E9F422
:1036D00060EEC62E67E0D62E70EBE72EF12C07E3E6
:1036E00010E025EB30E04DE250E06BEA70E08DE257
:1036F00090E00E945E060E944710019731F484E03A
:1037000090E09093150180931401809102019091B3
:1037100003010497E9F440EEC42E47E0D42E54ECA4
:10372000E52EF12C07E310E029EC30E04DE250E00B
:103730006FEB70E08DE290E00E945E060E94471001
:10374000019731F486E090E0909315018093140185
:1037500080910201909103019093050180930401EF
:103760002FEF80E792E0215080409040E1F700C0C9
:1037700000008091160190911701813A91054CF05B
:103780008091020190910301823091058CF00197A4
:103790000BC08035910564F4809102019091030182
:1037A000843091052CF401969093030180930201DB
:1037B0008091140190911501029709F0DAC24091AD
:1037C00010015091110163E171E0809186029091A6
:1037D00087020E944D1080910E0190910F0181335C
:1037E000910509F460C0880F991FFC01E358FB4F55
:1037F000C080D180FC01EB54FC4F6080718040910F
:10380000490550914A054C195D093AEBE32E36ED16
:10381000F32E86019601B3018CE793E00E947412A7
:1038200000910801109109014091490550914A0504
:103830004C195D09401B510BE12CF12C9601B30191
:103840008CE793E00E947412E6EBCE1AEEEFDE0AEC
:103850008091490590914A05C816D90624F5209112
:103860004505309146058091060190910701821728
:103870009307CCF480910E0190910F0101969093E3
:103880000F0180930E010AE010E022E330E040E0F7
:1038900050E068EC70E08CE793E00E9474121092A4
:1038A0004A051092490580910C0190910D01880FF5
:1038B000991FFC01E358FB4FC080D180FC01EB5401
:1038C000FC4F608071808091490590914A05803A53
:1038D000910534F081E090E090934805809347058E
:1038E0008091470590914805019709F05CC040918F
:1038F000450550914605EE24EA9417E0F12E860125
:103900009601B3018CE793E00E94741200910801C4
:10391000109109014091450550914605401B510BFE
:10392000E12CF12C9601B3018CE793E00E94741214
:10393000F6EBCF1AFEEFDF0A809145059091460520
:10394000C816D90684F52091490530914A05809121
:10395000060190910701821793072CF580910C01C5
:1039600090910D01019690930D0180930C010AE056
:1039700010E022E330E040E050E068EC70E08CE7DB
:1039800093E00E94741210924605109245050E9421
:10399000662264E170E00E94D9228C549F4F90937C
:1039A00007018093060180910C0190910D018436EE
:1039B0009105A1F410920F0110920E01B0920D0129
:1039C000A0920C0180917A0290917B028C599F4FBA
:1039D00090937B0280937A020E941D1280917E0256
:1039E00090917F0289319105ECF124E030E0309331
:1039F0001901209318012FE030E030930901209342
:103A0000080121E030E030930B0120930A0182335A
:103A1000910544F143E050E050931901409318019F
:103A200041E150E050930901409308018B34910526
:103A3000CCF042E050E0509319014093180144E16A
:103A400050E050930901409308018D37910554F0DF
:103A500030931901209318012EE130E030930901D1
:103A6000209308012091780230917902232B09F0EC
:103A7000F5C020910E0130910F01220F331FF90183
:103A8000EB54FC4F40815181F901E358FB4FA08179
:103A9000B181A40FB51F20911A0130911B0189013A
:103AA0000F501109A017B1071CF1B9016E5071092F
:103AB00046175707ECF46091490570914A05695023
:103AC000714065317105A0F461E070E07093790296
:103AD00060937802909377028093760260917C02E3
:103AE00070917D026F5F7F4F70937D0260937C02C7
:103AF000B901625F7F4F6A177B0714F5D9011F96E2
:103B0000A417B507ECF04091490550914A0549507A
:103B1000514045315105A0F441E050E05093790205
:103B200040937802909377028093760240917C02D2
:103B300050917D024F5F5F4F50937D0240937C0216
:103B400040910C0150910D01440F551FDA01AB5407
:103B5000BC4F0D90BC91A02D43585B4FFA014081A2
:103B600051814A0F5B1F401751070CF453C0F901F4
:103B70003E97AE17BF070CF04DC0E0914505F091A0
:103B80004605E950F140759708F044C0E1E0F0E0E7
:103B9000F0937902E0937802909377028093760213
:103BA000E0917C02F0917D023196F0937D02E093EA
:103BB0007C02641775078CF1E12CF12C0AE010E00F
:103BC00020EA30E040E050E060E070E08CE793E015
:103BD0000E947412D0931101C093100120917602BB
:103BE0003091770280910A0190910B01820F931F0F
:103BF00020917E0230917F0282179307B4F51092D4
:103C00007902109278028FE190E0909311018093F5
:103C100010012BC0641775070CF5215F3F4F2A1761
:103C20003B07E4F02091450530914605295031408D
:103C30002531310598F421E030E03093790220936A
:103C40007802909377028093760280917C02909123
:103C50007D02019690937D0280937C028091780290
:103C600090917902019709F4A7CF109289031092DD
:103C7000880310928B0310928A03D0938F03C09312
:103C80008E03D0938D03C0938C03F1E0F0939003E7
:103C900081E492E00E946F0508E210E0FAE0DF2E76
:103CA000209112013091130180917C0290917D024C
:103CB000281B390BD29EC001D39E900D11248796EC
:103CC000801791077CF0003A110561F020E038EF91
:103CD00043E050E064E070E0C8010E943905065FEF
:103CE0001F4FDECF80EA90E0909389038093880392
:103CF00010928B0310928A0387EA91E00E946F056D
:103D000060910C0170910D016253710980910E0157
:103D100090910F01680F791F80917A0290917B0238
:103D2000680F791F70937F0260937E02072E000C4C
:103D3000880B990B0E948F058091120190911301BD
:103D400020917C0230917D02821B930B181619067C
:103D500034F085E090E090931501809314018091F8
:103D6000520581FD06C081E090E09093150180939B
:103D700014018091140190911501039719F58EE1BA
:103D800090E0909389038093880350928B03409234
:103D90008A03D0938F03C0938E03D0938D03C09377
:103DA0008C0383E0809390038FEA91E00E94810569
:103DB0008091520581FD06C081E090E0909315014D
:103DC000809314018091140190911501049709F0DA
:103DD000BFC00EE110E01093890300938803509256
:103DE0008B0340928A03D0938F03C0938E03D093AA
:103DF0008D03C0938C0383E0809390038AEB91E062
:103E00000E948105109389030093880380E590E068
:103E100090938B0380938A03D0938F03C0938E0378
:103E2000D0938D03C0938C03E2E0DE2ED0929003FA
:103E300083EC91E00E94810510938903009388032D
:103E400084E690E090938B0380938A03D0938F0352
:103E5000C0938E03D0938D03C0938C03D0929003B4
:103E600085ED91E00E9481051093890300938803FA
:103E700088E790E090938B0380938A0340E058EFAB
:103E800060EA70E080918602909187020E944D1056
:103E9000D0938F03C0938E03D0938D03C0938C0374
:103EA000D092900384EE91E00E94810510938903E3
:103EB000009388038EEB90E090938B0380938A03AA
:103EC000D0938F03C0938E03D0938D03C0938C0344
:103ED000D09290038AEE91E00E94810510938903AD
:103EE0000093880382ED90E090938B0380938A0384
:103EF000D0938F03C0938E03D0938D03C0938C0314
:103F0000D092900388EF91E00E948105109389037D
:103F10000093880386EE90E090938B0380938A034E
:103F2000D0938F03C0938E03D0938D03C0938C03E3
:103F3000D092900384E092E00E9481058091520526
:103F400081FD06C081E090E09093150180931401FB
:103F50008091140190911501059709F051C050927C
:103F600089034092880330928B0320928A03D09376
:103F70008F03C0938E03D0938D03C0938C0383E093
:103F8000809390038FE092E00E9481053092890334
:103F90002092880380EA90E090938B0380938A03B9
:103FA00082E08093900387EA91E00E946F05609120
:103FB0007E0270917F02072E000C880B990B0E94E5
:103FC0008F0589E192E00E946F05909289038092AB
:103FD00088038CE291E090938B0380938A0391E0B5
:103FE000909390038CE192E00E94810580915205AC
:103FF00081FD06C081E090E090931501809314014B
:104000008091140190911501069709F0B5C80EE151
:1040100010E01093890300938803E8E2F0E0F09346
:104020008B03E0938A038FEF9FEF90938F0380932E
:104030008E0390938D0380938C0383E08093900391
:104040008FE292E00E948105109389030093880318
:1040500080E590E090938B0380938A0382E08093C5
:10406000900388E392E00E948105109389030093F6
:104070008803E4E6F0E0F0938B03E0938A0387E49F
:1040800092E00E9481058091860290918702813A98
:1040900091053CF081E090E090938302809382024E
:1040A00007C08634910524F4109283021092820294
:1040B000809182029091830282309105F9F4CC24A0
:1040C000CA94DC2C78E8E72EF12C00E510E02DE80E
:1040D00030E04AE550E063E870E08AE590E00E9455
:1040E0005E0606E910E02DE830E04CE850E063E8B9
:1040F00070E08CE890E00E945E0668C08130910517
:1041000079F5CC24CA94DC2C48E8E42EF12C00E5A7
:1041100010E02DE830E04AE550E063E870E08AE521
:1041200090E00E945E0650EEC52E57E0D52E06E9BF
:1041300010E02DE830E04CE850E063E870E08CE8F7
:1041400090E00E945E060E9447106C010197F1F515
:104150008091800290918102892B09F46DC036C054
:10416000892BA1F580EEC82E87E0D82E98E8E92E9D
:10417000F12C00E510E02DE830E04AE550E063E87E
:1041800070E08AE590E00E945E06CC24CA94DC2CA4
:1041900006E910E02DE830E04CE850E063E870E01C
:1041A0008CE890E00E945E060E9447106C01019727
:1041B00069F480911201909113018130910531F0E1
:1041C0002091800230918102232BE1F189E690E079
:1041D000909389038093880383E890E090938B0306
:1041E00080938A036091120170911301072E000CD5
:1041F000880B990B0E948F0589E192E00E946F0560
:104200000E944710892B21F41092810210928002A3
:104210008091520581FF02C00C94B91882E090E0B1
:10422000909383028093820281E090E09093150145
:10423000809314010C94B61880911201909113018F
:10424000019601C001979093130180931201E12C14
:10425000F12C0FE010E022E330E043E850E06FE59E
:1042600070E08CE793E00E947412D0928102C092B9
:104270008002ACCFE3EDF2E01382128288EE93E08D
:10428000A0E0B0E084839583A683B78324E231E085
:104290003183208325EC30E03587248724EC30E01F
:1042A0003787268720EC30E0318B208B21EC30E003
:1042B000338B228B22EC30E0358B248B26EC30E0E4
:1042C000378B268B118E128E138E148EE0E7F3E05F
:1042D0001382128284839583A683B78386E391E059
:1042E00091838083ACE7B3E013961C921E921297E1
:1042F00020EF30E015963C932E93149780E491E0E4
:1043000017969C938E93169719963C932E93189715
:104310001B969C938E931A9755961C9255971D96B3
:104320001C921E921C971F961C921E921E9781E053
:1043300054968C9354972FEF3FEF53963C932E93C4
:10434000529751963C932E93509756968C9356972E
:1043500057961C92579759961C921E925897D3962F
:104360001C92D397D4961C92D497D6961C921E92E8
:10437000D597D8961C921E92D7978AE05E968C931A
:104380005E9789E05F968C935F978FEF90968C9302
:10439000909791968C93919792968C9392979396EF
:1043A0008C9393975A961D921D921D921C925D9725
:1043B00099961C921E929897D0961C92D09795969B
:1043C0001C921E9294979E961C929E9797961C9272
:1043D0001E9296979F961C929F97EDEAF5E0E491C6
:1043E000F0E0EE0FFF1FE656FA4F859194919B96F1
:1043F0009C938E939A97EFE8F5E0E491D296EC9334
:10440000D297EEEAF5E0E491F0E0EE0FFF1FE656FA
:10441000FA4F859194919D969C938E939C97E0E999
:10442000F5E0E491D196EC93D19788E491E08D93F7
:104430009C9308958F929F92AF92BF92CF92DF92FA
:10444000EF92FF92CF93DF93EC01688179818A81AB
:104450009B81611571058105910521F464E279ED77
:104460008BE597E02DE133EF41E050E00E947622AA
:1044700049015A019B01AC01A7EAB1E40E949522CF
:104480006B017C01ACEEB4EFA50194010E94A32264
:10449000DC01CB018C0D9D1DAE1DBF1DB7FF03C000
:1044A0000197A109B04888839983AA83BB839F772A
:1044B000DF91CF91FF90EF90DF90CF90BF90AF90C2
:1044C0009F908F9008950E941A2208958CE191E0A8
:1044D0000E941A220895A0E0B0E080931C019093FE
:1044E0001D01A0931E01B0931F010895052E97FB97
:1044F0001EF400940E948D2257FD07D00E94A8222E
:1045000007FC03D04EF40C948D22509540953095C5
:1045100021953F4F4F4F5F4F08959095809570952F
:1045200061957F4F8F4F9F4F08950E94CA22A59F8C
:10453000900DB49F900DA49F800D911D112408959E
:10454000B7FF0C9495220E949522821B930B08952D
:10455000A1E21A2EAA1BBB1BFD010DC0AA1FBB1F87
:10456000EE1FFF1FA217B307E407F50720F0A21BF9
:10457000B30BE40BF50B661F771F881F991F1A9466
:1045800069F760957095809590959B01AC01BD0190
:10459000CF010895A29FB001B39FC001A39F700DEA
:1045A000811D1124911DB29F700D811D1124911D3B
:1045B000089597FB072E16F4009407D077FD09D0D5
:1045C0000E94FC2207FC05D03EF4909581959F4FF8
:1045D0000895709561957F4F08950E94CA223323F4
:1045E00012F48A1B9B0B0C94F7220E94CA22B7FF7D
:1045F0000895821B930B0895AA1BBB1B51E107C0B2
:10460000AA1FBB1FA617B70710F0A61BB70B881F62
:10461000991F5A95A9F780959095BC01CD010895F1
:10462000EE0FFF1F0590F491E02D099481E090E0DA
:0A463000F8940C941B23F894FFCFBC
:10463A00010001000200B4000A000100320001007A
:10464A001F000300010013010500730001000000B0
:10465A0000000000C8033F03690315049A037803A6
:10466A008C0300000000E20CB50C120D740BAD0CAB
:10467A00990C8A0C0000000041153F03120D110D20
:10468A00051316154317B11643133013A40B57130A
:10469A00E30D150DD612A71274124214D513761310
:1046AA002F0E320D45736361706520746865004290
:1046BA004C4F434B005374617274004869676873C6
:1046CA00636F726500436F6E74726F6C730053652B
:1046DA007474696E67730073636F72653A20004879
:1046EA0049474853434F52455300434F4E54524F44
:1046FA004C53004D6F766520746865206A6F797334
:10470A007469636B00746F20676F206C6566742030
:10471A00616E640072696768740050726573732011
:10472A004320746F20676F006261636B20746F208F
:10473A0074686500686F6D6573637265656E0047BE
:10474A00414D45204F564552000D0A00707265735F
:10475A0073206320746F20676F206261636B00535C
:10476A00455454494E475300486F77206D616E791E
:10477A00206C6976657300646F20796F75207761A4
:10478A006E743F00504C4541534500434F4E4E45D1
:10479A004354004E554E434855434B00414E440046
:0647AA0052455345540086
:00000001FF
