:100000000C9415030C943D030C943D030C943D0398
:100010000C943D030C943D030C943D030C943D0360
:100020000C943D030C943D030C943D030C943D0350
:100030000C943D030C941D120C943D030C943D0351
:100040000C94760B0C943D030C94810A0C945B0A7F
:100050000C943D030C943D030C943D030C943D0320
:100060000C94650F0C943D03000000002400270051
:100070002A0000000008000201000003040700003D
:1000800000000000000000000000003E5B4F5B3EEF
:100090003E6B4F6B3E1C3E7C3E1C183C7E3C181C4D
:1000A000577D571C1C5E7F5E1C00183C1800FFE744
:1000B000C3E7FF0018241800FFE7DBE7FF30483AEA
:1000C000060E2629792926407F050507407F05254C
:1000D0003F5A3CE73C5A7F3E1C1C08081C1C3E7FD4
:1000E00014227F22145F5F005F5F06097F017F009B
:1000F0006689956A606060606094A2FFA2940804BB
:100100007E040810207E201008082A1C08081C2ADB
:1001100008081E101010100C1E0C1E0C30383E3833
:1001200030060E3E0E06000000000000005F0000DA
:100130000007000700147F147F14242A7F2A12234B
:100140001308646236495620500008070300001C5B
:100150002241000041221C002A1C7F1C2A08083E64
:100160000808008070300008080808080000606077
:100170000020100804023E5149453E00427F4000E5
:1001800072494949462141494D331814127F1027BD
:10019000454545393C4A494931412111090736490C
:1001A000494936464949291E0000140000004034E0
:1001B00000000008142241141414141400412214E5
:1001C0000802015909063E415D594E7C1211127C0C
:1001D0007F494949363E414141227F4141413E7F6D
:1001E000494949417F090909013E414151737F084D
:1001F00008087F00417F41002040413F017F0814F3
:1002000022417F404040407F021C027F7F04081053
:100210007F3E4141413E7F090909063E4151215E31
:100220007F09192946264949493203017F01033FC5
:100230004040403F1F2040201F3F4038403F631454
:1002400008146303047804036159494D43007F4156
:1002500041410204081020004141417F0402010293
:1002600004404040404000030708002054547840B8
:100270007F284444383844444428384444287F384C
:100280005454541800087E090218A4A49C787F08CE
:1002900004047800447D40002040403D007F102849
:1002A000440000417F40007C047804787C0804040A
:1002B000783844444438FC1824241818242418FCA2
:1002C0007C08040408485454542404043F44243C47
:1002D0004040207C1C2040201C3C4030403C4428B6
:1002E0001028444C9090907C4464544C4400083650
:1002F00041000000770000004136080002010204BE
:10030000023C2623263C1EA1A161123A4040207ADD
:100310003854545559215555794122545478422125
:100320005554784020545579400C1E52721239555C
:100330005555593954545459395554545800004559
:100340007C410002457D420001457C407D12111236
:100350007DF0282528F07C545545002054547C54C9
:100360007C0A097F4932494949323A4444443A3285
:100370004A4848303A4141217A3A42402078009D2B
:10038000A0A07D3D4242423D3D4040403D3C24FFD7
:100390002424487E4943662B2FFC2F2BFF0929F686
:1003A00020C0887E090320545479410000447D41D7
:1003B0003048484A32384040227A007A0A0A727D30
:1003C0000D19317D2629292F28262929292630484B
:1003D0004D4020380808080808080808382F10C8B9
:1003E000ACBA2F102834FA00007B000008142A143D
:1003F0002222142A14085500550055AA55AA55AAB8
:10040000FF55FF55FF000000FF00101010FF001403
:100410001414FF001010FF00FF1010F010F014145F
:1004200014FC001414F700FF0000FF00FF1414F484
:1004300004FC141417101F10101F101F1414141F85
:1004400000101010F0000000001F101010101F10FE
:10045000101010F010000000FF10101010101010FD
:100460001010FF10000000FF140000FF00FF00004C
:100470001F10170000FC04F414141710171414F4C0
:1004800004F40000FF00F714141414141414F700FB
:10049000F7141414171410101F101F141414F4144C
:1004A0001010F010F000001F101F0000001F1400BB
:1004B0000000FC140000F010F01010FF10FF1414E6
:1004C00014FF141010101F00000000F010FFFFFFB9
:1004D000FFFFF0F0F0F0F0FFFFFF0000000000FF72
:1004E000FF0F0F0F0F0F3844443844FC4A4A4A3478
:1004F0007E02020606027E027E026355494163388F
:1005000044443C04407E201E2006027E020299A53F
:10051000E7A5991C2A492A1C4C7201724C304A4D9D
:100520004D303048784830BC625A463D3E494949D2
:10053000007E0101017E2A2A2A2A2A44445F44447B
:1005400040514A444040444A51400000FF0103E00A
:1005500080FF000008086B6B083612362436060F41
:10056000090F06000018180000001010003040FFAE
:100570000101001F01011E00191D1712003C3C3C27
:100580003C0000000000010204081020408001022D
:1005900004081020010204081020000000002500BB
:1005A00028002B00040404040404040402020202D0
:1005B0000202030303030303EF03038002CF0300DC
:1005C000C130ED0464031281E803850078CB05395E
:1005D0002C003402F70120EA020000C00123C1010F
:1005E00010C5023E28C701863601483701003A018E
:1005F00055B1020018B603088227F2010026010156
:10060000E00F0F312B0C0E084EF1370710030E09C7
:1006100000E10F000E1403110731C148080F0C311F
:10062000360F1180298000000C1F11241FBECFEF50
:10063000D8E0DEBFCDBF12E0A0E0B1E0EEEDF1E426
:1006400002C005900D92AA32B107D9F725E0AAE2BF
:10065000B2E001C01D92A437B207E1F713E0C5E193
:10066000D3E004C02197FE010E94E220C431D107EB
:10067000C9F70E9440170C94ED200C940000CF9213
:10068000DF92EF92FF920F931F93CF93DF936C0152
:100690007A018B01C0E0D0E0CE15DF0581F0D801F2
:1006A0006D918D01D601ED91FC910190F081E02DCD
:1006B000C6010995892B11F02196EECF7E01C70165
:1006C000DF91CF911F910F91FF90EF90DF90CF902E
:1006D0000895FC01538D448D252F30E0842F90E048
:1006E000821B930B541710F0CF960895019708952D
:1006F000FC01918D828D981761F0828DDF01A80F2A
:10070000B11D5D968C91928D9F5F9F73928F90E04B
:1007100008958FEF9FEF0895FC01918D828D9817BA
:1007200031F0828DE80FF11D858D90E008958FEFF7
:100730009FEF0895FC01918D228D892F90E0805CC0
:100740009F4F821B91098F7399270895FC01848D17
:10075000DF01A80FB11DA35ABF4F2C91848D90E0EB
:1007600001968F739927848FA689B7892C93A089C6
:10077000B1898C91837080648C93938D848D981350
:1007800006C00288F389E02D80818F7D80830895E3
:10079000EF92FF920F931F93CF93DF93EC0181E0D1
:1007A000888F9B8D8C8D981305C0E889F98980818D
:1007B00085FD26C0F62E0B8D10E00F5F1F4F0F73C7
:1007C0001127E02E8C8DE8120CC00FB607FCFACF73
:1007D000E889F989808185FFF5CFCE010E94A603C3
:1007E000F1CF8B8DFE01E80FF11DE35AFF4FF08230
:1007F0009FB7F8940B8FEA89FB89808180620AC0D9
:100800009FB7F894EE89FF896083E889F989808130
:100810008370806480839FBF81E090E0DF91CF91FF
:100820001F910F91FF90EF900895CF93DF93EC010C
:10083000888D8823C9F0EA89FB89808185FD05C000
:10084000A889B9898C9186FD0FC00FB607FCF5CF3A
:10085000808185FFF2CFA889B9898C9185FFEDCF82
:10086000CE010E94A603E7CFDF91CF9108953FB755
:10087000F89480916C0390916D03A0916E03B091F8
:100880006F0326B5A89B05C02F3F19F00196A11D47
:10089000B11D3FBFBA2FA92F982F8827820F911D16
:1008A000A11DB11DBC01CD0142E0660F771F881F5D
:1008B000991F4A95D1F708958F929F92AF92BF9258
:1008C000CF92DF92EF92FF920F931F93CF93DF931C
:1008D000EC016B015A014901E881F9810284F38539
:1008E000E02D0995E881F9810684F785E02D9401D2
:1008F000A501B601CE010995E881F9810688F7893D
:10090000E02DCE01DF91CF911F910F91FF90EF90DD
:10091000DF90CF90BF90AF909F908F9009942F92CF
:100920003F924F925F926F927F928F929F92AF927F
:10093000BF92CF92DF92EF92FF920F931F93CF93CC
:10094000DF9300D000D000D0CDB7DEB76C015B01E3
:100950005E834D832801370181E090E04C01841AC9
:10096000950ACA01919581959109AC01440F551FD3
:100970005A834983180153E0250E311CEE24E39479
:10098000F12C822F81708B8322702C83C7010197F9
:100990004D815E81841795070CF064C097FC0BC0F5
:1009A000415051095E834D8389819A8102969A83D1
:1009B0008983880E991EC701880F991F0196880E9A
:1009C000991E9B81992309F12D813E81220F331FAE
:1009D0002F5F3F4F240D351D8301A5018D819E8121
:1009E000481B590BB6016E0D7F1D8EE293E00E94ED
:1009F00056139101A5014E195F096D817E816C0D21
:100A00007D1D8EE293E00E9456139C81911107C0D8
:100A10009FEFE91AF90A22E0220E311CB7CF2D818F
:100A20003E81220F331F2F5F3F4F240D351D830161
:100A3000A5018D819E81481B590BB6016E197F0956
:100A40008EE293E00E9456139101A5014E195F09B1
:100A5000B6018D819E81681B790B8EE293E00E9426
:100A60005613D6CF26960FB6F894DEBF0FBECDBF75
:100A7000DF91CF911F910F91FF90EF90DF90CF907A
:100A8000BF90AF909F908F907F906F905F904F90AE
:100A90003F902F9008950E94E8201F93CF93DF93FB
:100AA000EC01162FE881F9810284F385E02D099588
:100AB000112311F06BA901C06CA9CE010E942A1765
:100AC000E881F9810688F789E02DCE01DF91CF9189
:100AD0001F9109948F929F92AF92BF92CF92DF9213
:100AE000EF92FF920F931F93CF93DF935C01EB0183
:100AF0006A018EE293E00E942915450185E0880E87
:100B0000911C76010AE010E026E130E0AE01B4016C
:100B10008EE293E00E94551625960FEF1FEF21E01D
:100B200045E050E0BE01C5014A960E948F0422E0D4
:100B300045E050E0BE01C4010E948F048EE293E0C4
:100B4000DF91CF911F910F91FF90EF90DF90CF90A9
:100B5000BF90AF909F908F900C946A13AF92BF920A
:100B6000CF92DF92EF92FF920F931F93CF93DF9379
:100B70006C015B01EA0179018EE293E00E94291584
:100B80009E01220F331F2F5F3F4FA5014C1B5D0BB2
:100B90008701B6018EE293E00E94561300E010E058
:100BA00023E0AE01B501C6010E948F048EE293E0FE
:100BB000DF91CF911F910F91FF90EF90DF90CF9039
:100BC000BF90AF900C946A13009769F0FC010190FC
:100BD0000020E9F73197AF01481B590BBC018EE2A9
:100BE00093E00C943F0380E090E00895CF93DF936F
:100BF0000E94E405EC0186E292E00E94E4058C0F7D
:100C00009D1FDF91CF910895282F309184023132BA
:100C100008F04AC0809160028111FCCF909183025C
:100C200042E04093600220935F022FEF20935E0228
:100C300010925D0230935C02E3E6F2E0ACE3B2E0D6
:100C400020E0321721F041914D932F5FFACF10929F
:100C50003B0220913B02990F922B90933B02909183
:100C60003A02913061F410923A0290913B029093D3
:100C7000BB009091BC0093FDF8CF95EC01C095EEC0
:100C80009093BC00909160029230E1F390915E02EB
:100C90009F3F79F080915E02803241F080915E0248
:100CA000803331F084E005C081E003C082E001C000
:100CB00083E0109262021092840210926102089501
:100CC0002F923F924F925F926F927F928F929F925C
:100CD000AF92BF92CF92DF92EF92FF920F931F934A
:100CE000CF93DF93CDB7DEB7AC970FB6F894DEBFE6
:100CF0000FBECDBF9CA78BA74B015A01390117012D
:100D0000DE8ACD8A261737075CF4E616F706BCF4B0
:100D1000962F892D4901EBA4FCA45CA74BA707C023
:100D2000E216F3060CF0ABC1962D872D7501281441
:100D3000390484F058013101292E382E13C08B2D2F
:100D4000ABA4BCA44BA78CA77801872D3B01822EB6
:100D5000982E08C03401ABA4BCA44101292E382E22
:100D60000BA71CA78EE293E00E942915821493041E
:100D700051F52BA53CA5A216B3065CF09BA58CA54E
:100D80002A153B0514F49A2D8B2DABA4BCA49BA76C
:100D90008CA7EA14FB0444F04BA55CA54E155F0537
:100DA00014F4FCA6EBA675012BA53CA52E193F0952
:100DB0002F5F3F4F0D891E89A401B7018EE293E09A
:100DC0000E94431340C1C5016BA57CA5861B970BF0
:100DD000930128193909D701A61BB70BBE83AD8330
:100DE000A101481959095A874987B7016A197B092E
:100DF0007E876D87D101A619B709B88FAF8B230104
:100E00006214730419F0B1E04B1A51086401198A95
:100E10001A8A1B8A1C8A19821A821B821C82A901C7
:100E2000330F660B770B4B8F5C8F6D8F7E8F298511
:100E30003A85032E000C440B550B2F8F38A349A382
:100E40005AA3AC01990F660B770B4BA35CA36DA360
:100E50007EA36D817E81072E000C880B990B6FA3FA
:100E600078A789A79AA74C145D040CF454C0698133
:100E70007A818B819C812B8D3C8D4D8D5E8D0E9466
:100E80004820EBA4FCA4E20EF31E69897A898B89C1
:100E90009C892F8D38A149A15AA10E9448208BA579
:100EA0009CA5280F391F49815A816B817C818BA1B8
:100EB0009CA1ADA1BEA1480F591F6A1F7B1F49838A
:100EC0005A836B837C8349895A896B897C898FA17A
:100ED00098A5A9A5BAA5480F591F6A1F7B1F498B62
:100EE0005A8B6B8B7C8B2E153F052CF49E2D8F2DF2
:100EF0007901292F382F2E193F092F5F3F4F0D8978
:100F00001E89A601B7018EE293E00E9443139FEF72
:100F1000C91AD90AA8CFC60186199709AD85BE8519
:100F20008A9F20018B9F500C9A9F500C1124052CF6
:100F3000000C660877089601281939094D815E81F1
:100F4000249FC001259F900D349F900D11249C017A
:100F5000990F440B550B29833A834B835C834F894C
:100F6000588D052E000C660B770B4F8B588F698FB1
:100F70007A8F69857A85072E000C880B990B698713
:100F80007A878B879C87CD01092E000CAA0BBB0B9F
:100F90008D879E87AF87B88B2D813E81032E000CF5
:100FA000440B550B2D833E834F8358872C143D04EF
:100FB0000CF449C0C301B2012F89388D498D5A8D77
:100FC0000E9448207501E20EF31E69817A818B81AF
:100FD0009C8129853A854B855C850E9448206BA5BC
:100FE0007CA5260F371F8D859E85AF85B889480E55
:100FF000591E6A1E7B1E49815A816B817C818D81BD
:101000009E81AF81B885480F591F6A1F7B1F498396
:101010005A836B837C832E153F052CF49E2D8F2DD8
:101020007901292F382F2E193F092F5F3F4F0D8946
:101030001E89A601B7018EE293E00E9443139FEF41
:10104000C91AD90AB3CF8EE293E0AC960FB6F894E2
:10105000DEBF0FBECDBFDF91CF911F910F91FF90EB
:10106000EF90DF90CF90BF90AF909F908F907F9048
:101070006F905F904F903F902F900C946A1378017F
:1010800071CE2F923F924F925F926F927F928F928A
:101090009F92AF92BF92CF92DF92EF92FF920F9307
:1010A0001F93CF93DF93CDB7DEB76B970FB6F8944E
:1010B000DEBF0FBECDBF9B8F8A8F5B011A01D22E80
:1010C0001F830E833701C982DC0158962D913C9114
:1010D00059972115310509F0E6C018968D919C911C
:1010E0001997681779070CF0CDC11A968D919C91CC
:1010F0001B97481759070CF0C5C18C2C912CFB018C
:1011000026E0C29EE00DF11D1124FB87EA871E1622
:101110001F060CF0B7C1A40183E0440F551F8A9548
:10112000E1F75D874C87CA01820D931D18161906D9
:101130000CF0A8C157968C91811104C05FEA5D152F
:1011400008F4D394AA8DBB8DED91FC911197028484
:10115000F385E02DCD010995B5E0DB9EC00111249A
:10116000F5013596FF87EE87BB82AA8225019C0197
:101170002A193B09398B288BA101485F5F4F5B8B94
:101180004A8BE889F989E40DF51DEA57FF4F549120
:10119000588761013D822C82888580FF13C0AA8D0B
:1011A000BB8DED91FC91B981B13031F40484F585AA
:1011B000E02D2E813F8116C00684F785E02DEE805C
:1011C000FF801AC0EE81FF81E615F705F1F0AA8DC8
:1011D000BB8DED91FC91B981B13051F40484F5855A
:1011E000E02D9301A601B2018A8D9B8D09950DC05A
:1011F0000684F785E02D7301840194014C815D81A3
:101200006A817B818A8D9B8D0995E885E695E887C3
:10121000FFEFCF1ADF0A2C813D81280D391D3D8358
:101220002C834A895B89C416D50609F0B5CF5FEFD8
:10123000451A550A8A819B81880D991D9B838A8353
:10124000AE85BF854A165B0609F09BCFEE81FF8114
:10125000E615F70509F4F4C0EA8DFB8DA081B18194
:10126000F981F13079F4B5016B5F7F4F5096ED91C4
:10127000FC915197830128E030E0A1018A8D9B8D7C
:101280000995DEC06A857B85681979091E96ED91FE
:10129000FC911F9773010C851D859401A1018A8D16
:1012A0009B8D0995CDC0F9013496E491DE1AF901C0
:1012B000329685919491B7E0DB9E800D911D1124AB
:1012C000F901259134913B8B2A8BFC0125913491B6
:1012D0002901FC013296C490319634913E873296B2
:1012E00014913196D4904981423058F0612E012EEC
:1012F000000C77088D2D0D2C000C990B9987888791
:1013000004C019861886612C712CAA8DBB8DED91B5
:10131000FC9111970284F385E02DCD010995B981E7
:101320008B2E912C689CC001699C900D789C900D2F
:101330001124FC01EA0DFB1DFD87EC871A82712C3C
:10134000612CE12F110FFF0B95012E0F3F1F3B87E3
:101350002A87AC0CB11CA5014E0F5F1F5F8B4E8B13
:10136000C1018D0D911DD7FC9A95998F888F9E850F
:10137000691608F065C0862D90E048855985480FAC
:10138000591F489D9001499D300D589D300D1124E5
:10139000D101A20FB31FB98BA88BEC85FD85FD830E
:1013A000EC83AA84BB84DA80FA85DF1A288D398D14
:1013B000280F391F3D8B2C8B8D2D8A0D4E895F890F
:1013C000A416B506C1F1877041F4C2010196EA89FD
:1013D000FB89E40DF51D74902C0177FE21C0AA8DC8
:1013E000BB8DED91FC91B981B13061F40484F58538
:1013F000E02D2E813F814C895D89B5018A8D9B8DC1
:1014000009950EC00684F785E02DEE80FF808401EB
:101410009401488959896C817D818A8D9B8D0995BC
:10142000770CEFEFAE1ABE0A2C813D81280D391DD5
:101430003D832C83C1CF3A813C0D3A83639497CF8F
:10144000AA8DBB8DED91FC9111970688F789E02D4F
:10145000CD016B960FB6F894DEBF0FBECDBFDF9106
:10146000CF911F910F91FF90EF90DF90CF90BF90A1
:10147000AF909F908F907F906F905F904F903F9034
:101480002F9009946B960FB6F894DEBF0FBECDBFB8
:10149000DF91CF911F910F91FF90EF90DF90CF9050
:1014A000BF90AF909F908F907F906F905F904F9084
:1014B0003F902F9008951F920F920FB60F92112414
:1014C0002F933F934F935F936F937F938F939F934C
:1014D000AF93BF93EF93FF9385E892E00E94A6033A
:1014E000FF91EF91BF91AF919F918F917F916F91FC
:1014F0005F914F913F912F910F900FBE0F901F90D2
:1015000018951F920F920FB60F9211242F938F935D
:101510009F93EF93FF93E0919502F0919602808163
:10152000E0919B02F0919C0282FD12C0908180911B
:101530009E028F5F8F7320919F02821751F0E0917E
:101540009E02F0E0EB57FD4F958F80939E0201C005
:101550008081FF91EF919F918F912F910F900FBEFE
:101560000F901F90189590E0FC01EE58FF4F2491CA
:10157000FC01EA57FA4F3491FC01EC55FA4FE49123
:10158000EE2309F43CC0222339F1233091F038F4E2
:101590002130A9F0223001F584B58F7D12C02730AB
:1015A00091F02830A1F02430B9F4809180008F7D33
:1015B00003C0809180008F77809380000DC084B538
:1015C0008F7784BD09C08091B0008F7703C0809170
:1015D000B0008F7D8093B000F0E0EE0FFF1FE65665
:1015E000FA4FA591B4919FB7F894611104C08C9102
:1015F0003095382302C0EC913E2B3C939FBF089559
:10160000CF93DF9390E0FC01EA57FA4F2491FC015D
:10161000EC55FA4F8491882361F190E0880F991F6F
:10162000FC01E859FF4FC591D491FC01E656FA4FF1
:10163000A591B491611109C09FB7F8948881209554
:1016400082238883EC912E230BC0623061F49FB714
:10165000F8948881322F309583238883EC912E2B48
:101660002C939FBF06C08FB7F894E8812E2B288358
:101670008FBFDF91CF9108958F929F92AF92BF92CB
:10168000CF92DF92EF92FF926B017C010E943704B0
:101690004B015C01C114D104E104F104F1F00E949A
:1016A0003704DC01CB0188199909AA09BB09883ED6
:1016B0009340A105B10570F321E0C21AD108E108F9
:1016C000F10888EE880E83E0981EA11CB11CC1149D
:1016D000D104E104F10419F7DDCFFF90EF90DF9022
:1016E000CF90BF90AF909F908F9008951F920F92D0
:1016F0000FB60F9211242F933F938F939F93AF9325
:10170000BF938091680390916903A0916A03B0919F
:101710006B033091670323E0230F2D3720F40196EC
:10172000A11DB11D05C026E8230F0296A11DB11D04
:10173000209367038093680390936903A0936A03DF
:10174000B0936B0380916C0390916D03A0916E0335
:10175000B0916F030196A11DB11D80936C0390930E
:101760006D03A0936E03B0936F03BF91AF919F91F0
:101770008F913F912F910F900FBE0F901F90189552
:101780000895EF92FF920F931F93DC01ED91FC916E
:1017900000A0F1A1E02D09951F910F91FF90EF900E
:1017A00008950F931F93DC01ED91FC91068CF78D4A
:1017B000E02D09951F910F9108950F931F93DC0160
:1017C000ED91FC91048CF58DE02D09951F910F9101
:1017D0000895DC01ED91FC910084F185E02D0994E0
:1017E0002F923F924F925F926F927F928F929F9231
:1017F000AF92BF92CF92DF92EF92FF920F931F931F
:10180000CF93DF9300D000D000D0CDB7DEB72C014E
:101810007E836D836A015901C801FC82EB82480115
:10182000841A950A97FE03C091948194910835011A
:101830002D813E81621A730A77FE03C07194619410
:101840007108681479045CF43A2D2B2D5C01832F08
:10185000922F3D812E81DE82CD82C32ED22EAD818C
:10186000BE81AA16BB065CF43C2D2D2D6C01832F86
:10187000922F3D812E81BE82AD82A32EB22E850194
:101880002D813E81021B130B1C012C183D0837FED5
:1018900003C0319421943108780117FF03C03FEF52
:1018A000E31AF30AF594E794C816D9062CF08FEFE3
:1018B0009FEF9A83898304C0A1E0B0E0BA83A98333
:1018C0002D813E81A216B30624F1D201ED91FC9147
:1018D0000484F585E02D2B813C816814790424F47F
:1018E0004D815E81B60103C0A6016D817E81C2017A
:1018F0000995E218F308F7FE06C029813A81C20E65
:10190000D31EE00EF11E8D819E8101969E838D83F4
:10191000D7CF26960FB6F894DEBF0FBECDBFDF91AE
:10192000CF911F910F91FF90EF90DF90CF90BF90DC
:10193000AF909F908F907F906F905F904F903F906F
:101940002F90089585ED8093BC008091BC0084FDAC
:10195000FCCF10926002089540915005262F30E090
:10196000240F311D21323105DCF420916002243036
:10197000C9F4FC0180E090E0861758F430915005DE
:101980002191DC01A05DBA4FA30FB11D2C930196EC
:10199000F3CF80915005680F6093500580E0089563
:1019A00081E0089582E0089508950895E091290561
:1019B00080912805E81730F4F0E0E85FFA4F808165
:1019C00090E008958FEF9FEF089590912905809101
:1019D0002805981750F4E92FF0E0E85FFA4F2081CE
:1019E00030E09F5F9093290502C02FEF3FEFC901C0
:1019F00008958091280590E020912905821B910986
:101A00000895CF92DF92EF92FF920F931F93CF939F
:101A1000DF937C01CB018A0120916102222389F0AE
:101A2000EB016B01C40ED51ECC15DD0569F0699183
:101A3000D701ED91FC910190F081E02DC70109954E
:101A4000F3CF642F0E94AC0CC801DF91CF911F919E
:101A50000F91FF90EF90DF90CF900895CF93DF9399
:101A60001F92CDB7DEB76983209161022223D1F0A6
:101A700020918402203240F021E030E0FC013383E9
:101A8000228380E090E015C080916202E82FF0E0B0
:101A9000ED59FD4F998190838F5F8093620280930F
:101AA000840205C061E0CE0101960E94AC0C81E089
:101AB00090E00F90DF91CF910895089580E090E03D
:101AC00008951F93CF93DF93EC01162FE881F981DE
:101AD0000284F385E02D0995111102C060E201C076
:101AE00061E2CE010E942A17E881F9810688F78910
:101AF000E02DCE01DF91CF911F9109948F929F929B
:101B0000AF92BF92CF92DF92EF92FF920F931F930B
:101B1000CF93DF93EC01490181E0881A9108860E8A
:101B2000971EC401A0E0B0E04B01A12CB12C5401E0
:101B300099248824882A992AAA2ABB2A680181E044
:101B4000C81AD108C40ED51EC601A0E0B0E06A01D3
:101B5000E12CF12C7601DD24CC24C82AD92AEA2AEA
:101B6000FB2A6AE2CE010E942A1729A16B2D772752
:101B70008827992727FF18C06EBD0DB407FEFDCF3B
:101B8000C501AA27BB278EBD0DB407FEFDCFBB271D
:101B9000AB2D9A2D892D8EBD0DB407FEFDCF8EBCC9
:101BA0000DB407FEFDCF14C0CE010E942A16B50168
:101BB00088279927CE010E942A1699278B2D7A2DE6
:101BC000692DCE010E942A16682DCE010E942A1688
:101BD0006BE2CE010E942A1729A16F2D7727882753
:101BE000992727FF18C06EBD0DB407FEFDCFC701B2
:101BF000AA27BB278EBD0DB407FEFDCFBB27AF2D97
:101C00009E2D8D2D8EBD0DB407FEFDCFCEBC0DB427
:101C100007FEFDCF14C0CE010E942A16B701882707
:101C20009927CE010E942A1699278F2D7E2D6D2D82
:101C3000CE010E942A166C2DCE010E942A166CE25B
:101C4000CE01DF91CF911F910F91FF90EF90DF9028
:101C5000CF90BF90AF909F908F900C942A171F93B6
:101C6000CF93DF93EC0163706D8B6230C1F0633012
:101C700001F1613051F080EF90E09987888780E42E
:101C800091E09B878A8718E41DC080E491E09987E2
:101C9000888780EF90E09B878A8718E213C080EFE7
:101CA00090E09987888780E491E09B878A8718E88D
:101CB00009C080E491E09987888780EF90E09B8756
:101CC0008A8718EEE881F9810284F385E02DCE0140
:101CD000099566E3CE010E942A17612FCE010E946A
:101CE0002A16E881F9810688F789E02DCE01DF9177
:101CF000CF911F910994BF92CF92DF92EF92FF9202
:101D00000F931F93CF93DF93EC01411551056105AC
:101D1000710521F440E052E16AE770E04A8F5B8F81
:101D20006C8F7D8F8E8D87FD07C061E00E94000B58
:101D300061E08E8D0E94B30A61E08F8D0E94000BDE
:101D400060E08F8D0E94B30A89A187FD19C061E010
:101D50008AA10E94000B60E08AA10E94B30A61E0A0
:101D600089A10E94000B61E089A10E94B30A8BA1A6
:101D700087FD03C060E00E94000B89A187FF33C08C
:101D80001FB7F89480917305811127C0EEEAF5E042
:101D90008491E0E9F5E09491E82FF0E0EE0FFF1F69
:101DA000E859FF4FA591B491EC91E92321F461E04A
:101DB0008AE00E94B30A61E08AE00E94000B8CB5C1
:101DC00080618CBD8CB580648CBD61E08DE00E942B
:101DD000000B61E08BE00E94000B809173058F5F28
:101DE000809373051FBF88A187FD21C061E00E9419
:101DF000000B61E088A10E94B30A64E670E080E015
:101E000090E00E943C0B60E088A10E94B30A64E667
:101E100070E080E090E00E943C0B61E088A10E94AD
:101E2000B30A68EC70E080E090E00E943C0BE8812F
:101E3000F9810284F385E02DCE01099508EB15E0C8
:101E400078018FEFE81AF80AF8016491662321F10E
:101E5000CE010E942A170E5F1F4FF701E490FE2D5E
:101E6000FF77BF2E6801FF2EFA948FEFF81649F026
:101E7000F6016491CE010E942A16FFEFCF1ADF0A05
:101E8000F3CF0B0D111DE7FEDBCF68E770E080E0BC
:101E900090E00E943C0BD4CFE881F9810688F78955
:101EA000E02DCE01099580EF90E09987888780E446
:101EB00091E09B878A87DF91CF911F910F91FF90CF
:101EC000EF90DF90CF90BF9008951F920F920FB6C2
:101ED0000F9211242F933F934F935F936F937F93B0
:101EE0008F939F93AF93BF93EF93FF938091B9002C
:101EF000887F803609F49CC068F5883209F45BC09D
:101F000090F4803109F454C038F4882309F4F6C001
:101F1000883009F44DC0F6C0883109F44CC08032D5
:101F200009F45DC0EFC0803409F468C048F4803320
:101F300009F455C0883309F0E5C080935E02D8C02B
:101F4000803509F44FC0883509F45DC0883409F044
:101F5000D9C0D6C0883909F4C7C0A8F4883709F4B5
:101F600067C038F4883609F463C0803709F460C06C
:101F7000C9C0883809F4B8C0803909F45FC0803816
:101F800009F0C0C05BC0803B09F486C038F4803AD9
:101F900009F466C0883A09F47FC0B4C0803C09F4F3
:101FA000A7C0883C09F4A4C0883B09F48AC0AAC031
:101FB00080913B0210C090915D0280915C02981765
:101FC00070F5E0915D0281E08E0F80935D02F0E09C
:101FD000E45CFD4F80818093BB0085EC86C08093DC
:101FE0005E028EC0E0915D0281E08E0F80935D0203
:101FF0008091BB00F0E0E45CFD4F808390915D0236
:1020000080915C026EC0E0915D0281E08E0F809352
:102010005D028091BB00F0E0E45CFD4F8083809125
:102020005F0281116DC081E080933A0284EA61C051
:1020300083E08093600210927205CFCF8091720589
:10204000803208F051C0E091720581E08E0F8093DC
:1020500072058091BB00F0E0EE5AFA4F8083BDCF4D
:1020600085EC8093BC0010926002809172058032F2
:1020700030F4E0917205F0E0EE5AFA4F1082609170
:10208000720570E0E0912C05F0912D0582E595E058
:1020900009951092720536C084E080936002109218
:1020A000510510925005E0912A05F0912B050995F4
:1020B00080915005811105C081E0809350051092F8
:1020C0003005E091510581E08E0F80935105F0E0DD
:1020D000E05DFA4F80818093BB0090915105809123
:1020E0005005981708F479CF85E88093BC000AC0A2
:1020F00085EC8093BC001092600204C010925E02D6
:102100000E94A20CFF91EF91BF91AF919F918F918F
:102110007F916F915F914F913F912F910F900FBEE3
:102120000F901F9018952F923F924F925F926F924F
:102130007F928F929F92AF92BF92CF92DF92EF9257
:10214000FF920F931F93CF93DF9300D000D000D066
:10215000CDB7DEB77E836D835A0120911601309191
:1021600017018D38910534F0213E31057CF42C5F48
:102170003F4F08C08A3591054CF42031310534F0C9
:1021800024503109309317012093160195014AE03C
:1021900050E06D817E8180911601909117010E941F
:1021A000AE056D817E816550710980911601909117
:1021B0001701A50140970E946A0560911601709170
:1021C00017018D809E802BE0821A91089B012C5F65
:1021D0003F4F64507109E12CF12C8401A4018EE27F
:1021E00093E00E94E8138091160190911701AD8051
:1021F000BE8036E0A31AB108AC0149505109C12C88
:10220000D12C74018A019501B40104970E946006E3
:102210008D819E8109979A838983609116017091BF
:1022200017016E507109E12CF12C04E010E026E05A
:1022300030E0AC018EE293E00E945C0480911601D4
:10224000909117012D813E81225031093C832B83CF
:10225000AC014051510975018A01B5010D970E94E9
:102260006006609116017091170162517109E12CAD
:10227000F12C0DE010E024E030E0A5018EE293E0C7
:102280000E945C0480911601909117012D803E8080
:1022900032E0230E311CAC01405151096D807E802B
:1022A00026E0620E711C73018A019101B3010D9742
:1022B0000E9460064D805E8035E0430E511C6091A7
:1022C0001601709117016E507109E12CF12C04E098
:1022D00010E026E030E0A2018EE293E00E945C0470
:1022E0008091160190911701AC01495051092D813F
:1022F0003E81255F3F4F3E832D8379018A01930103
:10230000B70104970E946006609116017091170151
:102310009B012C5F3F4F64507109E12CF12C0D8122
:102320001E81A8018EE293E00E94E81340911601FD
:1023300050911701CA0109964C5F5F4FED80FE80F6
:102340008C019701B3010E946006609116017091A3
:102350001701685F7F4FE12CF12C04E010E026E0CC
:1023600030E0A2018EE293E00E945C0480911601AD
:1023700090911701AC01405F5F4F73018A01910199
:10238000B3010D960E9460066091160170911701CD
:10239000605F7F4FE12CF12C0DE010E024E030E095
:1023A000A5018EE293E00E945C0480911601909159
:1023B0001701AC01405F5F4F75018A012B813C81A1
:1023C000B5010D960E94600660911601709117018B
:1023D000685F7F4FE12CF12C04E010E026E030E054
:1023E00049815A818EE293E00E945C04809116013B
:1023F00090911701AC01475F5F4F74018A0195010D
:10240000B40104960E94600626960FB6F894DEBFCB
:102410000FBECDBFDF91CF911F910F91FF90EF9035
:10242000DF90CF90BF90AF909F908F907F906F90F4
:102430005F904F903F902F9008951F920F920FB68C
:102440000F9211242F933F938F939F9380910605B2
:1024500090910705909385008093840080912E05CC
:1024600090912F05019690932F0580932E05209132
:1024700014013091150128173907E4F480910405FF
:102480009091050501969093050580930405809130
:10249000020590910305019749F480910005909100
:1024A00001050196909301058093000510922F0578
:1024B00010922E059F918F913F912F910F900FBEFB
:1024C0000F901F901895AF92BF92CF92DF92EF922C
:1024D000FF920F931F93CF93DF93C8E3D4E080E77D
:1024E000A82E83E0B82E99E1C92ED12C00EF10E080
:1024F0000E9438207E01B6010E94AB204996899344
:1025000099930E943820F70120813181B801621B24
:10251000730B0E94AB20F501819391935F01F5E06D
:10252000C230DF0729F7DF91CF911F910F91FF9004
:10253000EF90DF90CF90BF90AF900895EF92FF9211
:102540000F931F93CF93DF938C01EB017A019A01D4
:102550004AE050E00E94AE05BE0165507109A70136
:10256000C8014097DF91CF911F910F91FF90EF909D
:102570000C946A05AF92BF92CF92DF92EF92FF92D6
:102580000F931F93CF93DF93EC017B016A015901F5
:10259000E881F9810284F385E02D0995E881F981CC
:1025A0000288F389E02D9501A601B701CE010995B6
:1025B000E881F9810688F789E02DCE01DF91CF917E
:1025C0001F910F91FF90EF90DF90CF90BF90AF9051
:1025D0000994AF92BF92CF92DF92EF92FF920F9346
:1025E0001F93CF93DF93EC017B016A015901E881CE
:1025F000F9810284F385E02D0995E881F98100884D
:10260000F189E02D9501A601B701CE010995E88178
:10261000F9810688F789E02DCE01DF91CF911F91D6
:102620000F91FF90EF90DF90CF90BF90AF90099403
:10263000CF92DF92EF92FF920F931F93CF93DF938E
:10264000EC018B017A016901E881F9810284F3854B
:10265000E02D0995E881F9810484F585E02D960146
:10266000A701B801CE010995E881F9810688F789AB
:10267000E02DCE01DF91CF911F910F91FF90EF9050
:10268000DF90CF900994EF92FF920F931F93DC019C
:10269000ED91FC910684F785E02D780101E010E0D2
:1026A00009951F910F91FF90EF900895EF92FF927F
:1026B0000F931F93DC01ED91FC910684F785E02DCB
:1026C0007801890121E030E009951F910F91FF9079
:1026D000EF900895FC0191A904A4F5A5E02D808157
:1026E000892B808308950895FC016370658B848134
:1026F000958126813781613039F0633029F09187E7
:102700008087338722870895318720879387828740
:1027100008956F927F928F929F92AF92BF92CF92C5
:10272000DF92EF92FF920F931F93CF93DF93EC0111
:102730004B015A0169013801E881F9810284F3856E
:10274000E02D0995E881F9810288F389E02D870160
:102750009601A501B401CE010995A501460D571DAD
:1027600041505109E881F9810288F389E02D9601F1
:10277000B401CE010995E881F9810088F189E02D45
:102780009301A501B401CE010995C80CD91CB6016D
:1027900061507109E881F9810088F189E02D930188
:1027A000A501CE010995E881F9810688F789E02D18
:1027B000CE01DF91CF911F910F91FF90EF90DF90AD
:1027C000CF90BF90AF909F908F907F906F90099423
:1027D0008F929F92AF92BF92CF92DF92EF92FF9231
:1027E0000F931F93CF93DF934C016B015A01E901C3
:1027F000DC01ED91FC916217730781F40417150752
:1028000024F48B2D5801042F182F0A191B09980145
:102810002F5F3F4F048CF58DE02D12C040175107FC
:1028200009F52617370724F48D2D6901C62FD82FF7
:102830009E012C193D092F5F3F4F068CF78DE02D2F
:102840008701A501B601C4010995DF91CF911F91C0
:102850000F91FF90EF90DF90CF90BF90AF909F903F
:102860008F9008950284F385E02D0995D401ED91B0
:10287000FC910488F589E02D9E01A501B601C401F3
:102880000995D401ED91FC910688F789E02DC401EA
:10289000DF91CF911F910F91FF90EF90DF90CF903C
:1028A000BF90AF909F908F900994EF92FF920F93FB
:1028B0001F93DC011A960D911C911B9718962D9170
:1028C0003C911997ED91FC9100A0F1A1E02D7B01C5
:1028D00040E050E060E070E009951F910F91FF909B
:1028E000EF9008954F925F926F927F928F929F9296
:1028F000AF92BF92CF92DF92EF92FF920F931F930E
:10290000CF93DF936C012B015A0139014801DC019F
:10291000ED91FC910284F385E02D0995E201640CB0
:10292000751CD601ED91FC91C615D7055CF40088A5
:10293000F189E02D87019401A501BE01C601099529
:102940002196EFCF0688F789E02DC601DF91CF9160
:102950001F910F91FF90EF90DF90CF90BF90AF90BD
:102960009F908F907F906F905F904F9009948F927F
:102970009F92AF92BF92CF92DF92EF92FF920F930E
:102980001F93CF93DF93EC015B014A016901E8815A
:10299000F9810284F385E02D099595012C0D3D1DEB
:1029A00021503109E881F9810488F589E02D780109
:1029B0008401A401B501CE010995E881F981068859
:1029C000F789E02DCE01DF91CF911F910F91FF90FC
:1029D000EF90DF90CF90BF90AF909F908F90099431
:1029E0008F929F92AF92BF92CF92DF92EF92FF921F
:1029F0000F931F93CF93DF93EC015B014A016901B1
:102A00007801E881F9810284F385E02D0995C80CED
:102A1000D91C860101501109E881F9810488F589E2
:102A2000E02D9501A401B501CE010995E881F98158
:102A30000688F789E02DCE01DF91CF911F910F918C
:102A4000FF90EF90DF90CF90BF90AF909F908F90CE
:102A50000994FC0181A187FF1EC0428D538D648DB6
:102A6000758D80E092E1AAE7B0E020E048175907B1
:102A70006A077B0740F4B695A795979587952F5FD2
:102A80002630A1F727E091E09227892F806A86956A
:102A900091708CBD9DBD81A904A4F5A5E02D908108
:102AA0008095892380830895AF92BF92CF92EF9251
:102AB000FF920F931F93CF93DF93EC01262F888D06
:102AC000998D009709F040C06A3059F41D861C8624
:102AD0002C898E859F8538E0239F800D911D1124C0
:102AE00041C06D3009F4AAC08E898823C1F03C89A9
:102AF0008C859D8546E0349F800D911D112448856D
:102B00005985481759075CF41D861C868E859F855C
:102B100048E0349F800D911D11249F878E87EA889D
:102B2000FB88088919894E855F856C857D85CC88F1
:102B3000CE010E9441082C898C859D8536E0239F1B
:102B4000800D911D112442C06A3079F41D861C86C7
:102B50002C89FC013696E4918E859F852E9F800DF1
:102B6000911D11249F878E8769C06D3009F466C05E
:102B7000FC0134963491631708F460C03196E491F7
:102B8000E61708F45BC0FC01329665917491422F00
:102B900050E0431B510937E0349F5001359FB00C82
:102BA0001124A60EB71EF501329634913196E491A8
:102BB000332311F0E1110DC0F5013496E4912C8915
:102BC0008C859D85E29F800D911D11249D878C87AA
:102BD00035C0F501359644915E89552311F16C8914
:102BE000E32FF0E0E40FF11D47FDFA956E9FD00151
:102BF0006F9FB00D11244C855D854A0F5B1FE885E2
:102C0000F985E417F5076CF41D861C86FC013696E1
:102C1000E4918E859F856E9F800D911D11249F8765
:102C20008E87EA88FB88088919894E855F856C85BF
:102C30007D85CC88CE010E944108BECF81E090E026
:102C4000DF91CF911F910F91FF90EF90CF90BF90A8
:102C5000AF900895FC0181A187FF05C06EBD0DB442
:102C600007FEFDCF089588E090E020E8A4A1B5A17B
:102C7000362F322321F046A53C91342B04C036A5D3
:102C80004C91309534233C9330A9A0A5B1A54C912B
:102C9000309534233C9340A9A0A5B1A53C91342B99
:102CA0003C932695019711F708954F925F926F928A
:102CB0007F928F929F92AF92BF92CF92DF92EF92CC
:102CC000FF920F931F93CF93DF93EC016B01590198
:102CD000480128853985621773070CF067C08A851B
:102CE0009B85481759070CF061C08B010A0D1B1D0D
:102CF000F8013197DA01A80DB91DBD0161507109C4
:102D0000F7FD54C077FD52C0D7FE03C05801C12C57
:102D1000D12C57FF03C04D0140E050E0E217F3070C
:102D20001CF05901AC18BD08681779071CF04C015C
:102D3000841A950A9501D4010E94BF203B01582EA8
:102D4000492EE881F98102A4F3A5E02D8401B601A2
:102D5000CE0109954301A52CB42C89A187FF13C08E
:102D600081149104A104B10409F1FEBC0DB407FE65
:102D7000FDCFEEBC0DB407FEFDCF81E0881A9108AF
:102D8000A108B108EDCF81149104A104B10471F040
:102D90006F2DCE010E942A166E2DCE010E942A169A
:102DA00081E0881A9108A108B108EDCFDF91CF9199
:102DB0001F910F91FF90EF90DF90CF90BF90AF9059
:102DC0009F908F907F906F905F904F900895EF92BB
:102DD000FF920F931F93CF93DF93EC0177FD33C0E6
:102DE000888599856817790774F557FD2CC08A8501
:102DF0009B85481759073CF5E32EF22EE881F981AF
:102E000002A4F3A5E02D01E010E021E030E0CE01C6
:102E1000099589A187FF09C0EEBC0DB407FEFDCF5F
:102E2000FEBC0DB407FEFDCF0EC06E2DCE010E947C
:102E30002A166F2DCE01DF91CF911F910F91FF9038
:102E4000EF900C942A16DF91CF911F910F91FF9074
:102E5000EF900895CF93DF93EC018AA9EAA5FBA533
:102E60009081809589238083CE010E942A169AA999
:102E7000EAA5FBA58081892B8083DF91CF910895FE
:102E8000CF93DF93CDB7DEB7A1970FB6F894DEBF2F
:102E90000FBECDBFF89410928000109281008EEE8C
:102EA00095E890930705809306059093850080939D
:102EB00084008091810084608093810080916F0004
:102EC000816080936F007894789484B5826084BD2B
:102ED00084B5816084BD85B5826085BD85B581601E
:102EE00085BD80916E00816080936E00109281009C
:102EF0008091810082608093810080918100816057
:102F00008093810080918000816080938000809117
:102F1000B10084608093B1008091B00081608093A3
:102F2000B00080917A00846080937A0080917A006A
:102F3000826080937A0080917A00816080937A0029
:102F400080917A00806880937A001092C10040E0FE
:102F500050E0BA018EE293E00E947B0E60E070E0E8
:102F60008EE293E00E94551487B18C6087B9429835
:102F7000439A64E670E080E090E00E943C0B10927F
:102F80002905109228051092620210928402109274
:102F9000600211E010935F0210923A0261E082E158
:102FA0000E94B30A61E083E10E94B30A8091B900F4
:102FB0008E7F8093B9008091B9008D7F8093B90096
:102FC00088E48093B80085E48093BC0084ED9CE0A5
:102FD00090932B0580932A0585ED9CE090932D0519
:102FE00080932C051093610282E5809383021092F6
:102FF00062021092840260E482E293E00E942E0D4D
:1030000060E082E293E00E942E0D81E00E940406BF
:10301000E0919502F091960282E08083E091910226
:10302000F09192021082E0919302F09194028FEC61
:10303000808310929D02E0919902F0919A0286E0BD
:103040008083E0919702F091980280818061808373
:10305000E0919702F0919802808188608083E091EE
:103060009702F0919802808180688083E0919702B6
:10307000F091980280818F7D80830E9463122224C8
:103080002394312CEEE14E2E512CF8E28F2E912C10
:10309000AA24AA94BA2C809160028111FCCF21E06D
:1030A0002093600220935F028FEF80935E02109264
:1030B0005D0285E080935C0220933B0280913B029D
:1030C000846A80933B0280913A02813061F41092CD
:1030D0003A0280913B028093BB008091BC0083FD4B
:1030E000F8CF85EC01C085EE8093BC008091600232
:1030F0008130E1F380915D02863018F490915D0299
:1031000001C096E0ECE3F2E0A8E0B5E080E08917CA
:1031100021F021912D938F5FFACF10922905809392
:10312000280504E312E0909128058091290598175D
:1031300059F082E293E00E94E50C97E18927895ECD
:10314000F80181938F01EFCFF1E0F093610282E506
:1031500080938302109262021092840260E082E205
:1031600093E00E942E0D81E00E94040680913502BA
:1031700090E090931301809312018091340290E0CB
:10318000909333028093320220911001309111010B
:10319000809100019091010128173907D1F160E079
:1031A00070E08EE293E00E9455148091100190919E
:1031B0001101029731F08091000190910101029775
:1031C00001F5109205051092040510920105109268
:1031D0000005109231021092300210922D021092CE
:1031E0002C02109203051092020530920F012092DA
:1031F0000E0182E390E090930D0180930C010E94F8
:1032000063128091100190911101909301018093BC
:1032100000018091100190911101019709F076C190
:1032200050923B0340923A0390923D0380923C03BC
:10323000B0924103A0924003B0923F03A0923E039C
:1032400013E01093420380E791E00E94F605EDE45D
:10325000F0E0F0933B03E0933A0386E490E0909330
:103260003D0380933C03B0924103A0924003B0928F
:103270003F03A0923E03109342038BE791E00E942C
:10328000F6058AE590E090933B0380933A0382E849
:1032900090E090933D0380933C03B0924103A09251
:1032A0004003B0923F03A0923E0312E0109342030A
:1032B00081E891E00E94F60581E490E090933B0361
:1032C00080933A0386E990E090933D0380933C031A
:1032D000B0924103A0924003B0923F03A0923E03FC
:1032E0001093420387E891E00E94F60587E490E09E
:1032F00090933B0380933A038BEA90E090933D03D5
:1033000080933C03B0924103A0924003B0923F03EC
:10331000A0923E031093420381E991E00E94F605DA
:1033200040E058EF63E171E082E390E00E949E127A
:103330004FE150E06BEE70E084EB90E00E949E1253
:1033400080910401909105012091020130910301C7
:103350008217930709F441C0019789F4C12CD12C3D
:1033600068E8E62EF12C07E310E02DE830E04DE2AE
:1033700050E063E870E08DE290E00E94600680918A
:10338000040190910501029789F4C12CD12C5CE9CC
:10339000E52EF12C07E310E021EA30E04DE250E0A9
:1033A00067E970E08DE290E00E9460068091040180
:1033B00090910501039789F4C12CD12C40EBE42EA8
:1033C000F12C07E310E025EB30E04DE250E06BEA32
:1033D00070E08DE290E00E94600680910201909181
:1033E00003010197E9F420EEC22E27E0D22E38E83F
:1033F000E32EF12C07E310E02DE830E04DE250E041
:1034000063E870E08DE290E00E94600680913902EE
:1034100080FD06C082E090E090931101809310013E
:1034200080910201909103010297E9F480EEC82E89
:1034300087E0D82E9CE9E92EF12C07E310E021EA81
:1034400030E04DE250E067E970E08DE290E00E94EC
:1034500060068091390280FD06C083E090E0909381
:103460001101809310018091020190910301039753
:10347000E9F410EEC12E17E0D12E00EBE02EF12C76
:1034800007E310E025EB30E04DE250E06BEA70E03E
:103490008DE290E00E9460068091390280FD06C0B6
:1034A00084E090E0909311018093100180910201DB
:1034B0009091030190930501809304019FEFE0E751
:1034C000F2E09150E040F040E1F700C00000809150
:1034D000120190911301813A91054CF08091020103
:1034E00090910301823091058CF001970BC08035DB
:1034F000910564F48091020190910301833091055C
:103500002CF40196909303018093020180911001A5
:1035100090911101029709F059C34FE150E063E126
:1035200071E080913202909133020E949310809159
:103530000E0190910F018133910509F460C0880F4D
:10354000991FFC01E85CFB4FC080D180FC01E05971
:10355000FC4F6080718040910405509105054C1925
:103560005D09BAEBEB2EB6EDFB2E86019601B30199
:103570008EE293E00E945C04009108011091090121
:1035800040910405509105054C195D09401B510BF4
:10359000E12CF12C9601B3018EE293E00E945C04D1
:1035A00026EBC21A2EEFD20A8091040590910505F0
:1035B000C816D90624F520910005309101058091A7
:1035C00006019091070182179307CCF480910E01B8
:1035D00090910F01019690930F0180930E010AE0E4
:1035E00010E022E330E040E050E068EC70E08EE272
:1035F00093E00E945C0410920505109204058091EE
:103600000C0190910D01880F991FFC01E85CFB4FA4
:10361000C080D180FC01E059FC4F608071808091B6
:10362000040590910505803A910524F03092030538
:10363000209202058091020590910305019709F0FF
:103640005CC04091000550910105EE24EA94E7E04A
:10365000FE2E86019601B3018EE293E00E945C0487
:103660000091080110910901409100055091010558
:10367000401B510BE12CF12C9601B3018EE293E03B
:103680000E945C0486EBC81A8EEFD80A8091000570
:1036900090910105C816D90684F520910405309152
:1036A00005058091060190910701821793072CF57B
:1036B00080910C0190910D01019690930D018093E2
:1036C0000C010AE010E022E330E040E050E068EC5A
:1036D00070E08EE293E00E945C041092010510926B
:1036E00000050E94382064E170E00E94AB208C54F9
:1036F0009F4F909307018093060180910C01909158
:103700000D0184369105B1F410920F0110920E0153
:10371000E2E3F0E0F0930D01E0930C0180912E02C2
:1037200090912F028C599F4F90932F0280932E02DD
:103730000E94631280912C0290912D028931910593
:10374000BCF124E030E030931501209314012FE008
:1037500030E030930901209308018233910544F150
:1037600023E030E0309315012093140121E130E093
:1037700030930901209308018B349105CCF022E0AD
:1037800030E0309315012093140124E130E03093B0
:103790000901209308018D37910554F030921501ED
:1037A0002092140189E190E090930901809308012F
:1037B00080910A0190910B01019709F03CC1809121
:1037C0000E0190910F01880F991FFC01E059FC4FE9
:1037D000408151812091160130911701FC01E85C74
:1037E000FB4F80819181840F951FB9016F50710942
:1037F00086179707D4F12E50310942175307ACF5BD
:10380000809104059091050589509140459768F590
:103810008091300290913102019690933102809311
:103820003002E12CF12C0AE010E026E430E040E028
:1038300050E060E070E08EE293E00E945C044AEBAE
:1038400056ED63E171E080913202909133020E9463
:10385000931010920B0110920A018091040590912F
:10386000050590932B0280932A0220911601309136
:10387000170180910E0190910F01880F991FFC0193
:10388000E059FC4F40815181B901625F7F4FFC01DB
:10389000E85CFB4F80819181840F951F6817790741
:1038A00084F5215F3F4F241735075CF180910405B3
:1038B0009091050589509140459718F58091300207
:1038C0009091310201969093310280933002E12C65
:1038D000F12C0AE010E026E430E040E050E060E047
:1038E00070E08EE293E00E945C0410920B01109253
:1038F0000A01809104059091050590932B02809315
:103900002A0280910C0190910D01880F991FFC01F2
:10391000E059FC4F408151812091160130911701EF
:10392000FC01E85CFB4F80819181840F951FB901F8
:103930006F5071098617970784F12E50310942178D
:1039400053075CF5809100059091010589509140E5
:10395000459718F58091300290913102019690932D
:10396000310280933002E12CF12C0AE010E026E4D1
:1039700030E040E050E060E070E08EE293E00E94D2
:103980005C0410920B0110920A0180910405909141
:10399000050590932B0280932A0220911601309105
:1039A000170180910C0190910D01880F991FFC0166
:1039B000E059FC4F40815181B901625F7F4FFC01AA
:1039C000E85CFB4F80819181840F951F6817790710
:1039D0000CF042C0215F3F4F24173507ECF1809176
:1039E000000590910105895091404597A8F5809177
:1039F000300290913102019690933102809330020F
:103A0000E12CF12C0AE010E026E430E040E050E048
:103A100060E070E08EE293E00E945C0410920B0183
:103A200010920A01809104059091050590932B0254
:103A300080932A0211C08091040590910505845657
:103A4000910920912A0230912B022817390724F47A
:103A500030920B0120920A0110923B0310923A031C
:103A600010923D0310923C03B0924103A092400398
:103A7000B0923F03A0923E03F1E0F09342038AE943
:103A800091E00E94E40508E210E083E0E82EF12CCA
:103A90009AE0D92E80913002909131029701281B33
:103AA000390BD29EC001D39E900D112487968017AA
:103AB000910764F020E038EF43E050E064E070E00C
:103AC000C8010E94AE05065F1F4FE4CF80EA90E078
:103AD00090933B0380933A0310923D0310923C0372
:103AE00081EA91E00E94E405C0900C01D0900D01A4
:103AF00022E3C21AD10880910E0190910F01C80EE5
:103B0000D91E80912E0290912F02C80ED91ED092FC
:103B10002D02C0922C020D2C000CEE08FF08F7FEBF
:103B200022C06DE28EE293E00E94541522273327D3
:103B3000A9012C193D094E095F0919A2CE018196F0
:103B40007C01CA01B9012AE030E040E050E00E9467
:103B50007A20605DF70162937F01211531054105EF
:103B6000510579F717C0A701960119A2CE018196D8
:103B70007C01CA01B9012AE030E040E050E00E9437
:103B80007A20605DF70162937F01211531054105BF
:103B9000510579F7C7010E94E40520913002309168
:103BA000310283E090E0821B930B1816190634F063
:103BB00085E090E09093110180931001809139028B
:103BC00081FD04C0309211012092100180911001FA
:103BD000909111010397F9F450923B0340923A03FC
:103BE00090923D0380923C03B0924103A092400327
:103BF000B0923F03A0923E0383E08093420389EAA0
:103C000091E00E94F6058091390281FD04C0309256
:103C100011012092100180911001909111010497DF
:103C200009F0BAC050923B0340923A0390923D0390
:103C300080923C03B0924103A0924003B0923F03B4
:103C4000A0923E0383E08093420384EB91E00E94C4
:103C5000F60550923B0340923A0380E590E0909342
:103C60003D0380933C03B0924103A0924003B09285
:103C70003F03A0923E0312E0109342038DEB91E0CC
:103C80000E94F60550923B0340923A0384E690E08E
:103C900090933D0380933C03B0924103A092400374
:103CA000B0923F03A0923E03109342038FEC91E049
:103CB0000E94F60550923B0340923A0388E790E059
:103CC00090933D0380933C0340E058EF60EA70E03E
:103CD00080913202909133020E949310B09241037E
:103CE000A0924003B0923F03A0923E031093420380
:103CF0008EED91E00E94F60550923B0340923A030C
:103D00008EEB90E090933D0380933C03B09241038F
:103D1000A0924003B0923F03A0923E03109342034F
:103D200084EE91E00E94F60550923B0340923A03E4
:103D300082ED90E090933D0380933C03B092410369
:103D4000A0924003B0923F03A0923E03109342031F
:103D500082EF91E00E94F60550923B0340923A03B5
:103D600086EE90E090933D0380933C03B092410334
:103D7000A0924003B0923F03A0923E0310934203EF
:103D80008EEF91E00E94F6058091390281FD04C01A
:103D90003092110120921001809110019091110137
:103DA000059709F078C990923B0380923A0386E424
:103DB00090E090933D0380933C038FEF9FEF9093AF
:103DC00041038093400390933F0380933E0383E03D
:103DD0008093420389E092E00E94F60582E390E03E
:103DE00090933B0380933A038CE291E090933D03E0
:103DF00080933C0381E08093420383E192E00E9440
:103E0000F6058091390281FD43C9E1E0F0E0F093CD
:103E10001101E093100136C9E5E8F2E01382128245
:103E200088EE93E0A0E0B0E084839583A683B78317
:103E300020E231E03183208325EC30E03587248790
:103E400024EC30E03787268720EC30E0318B208B64
:103E500021EC30E0338B228B22EC30E0358B248B4D
:103E600026EC30E0378B268B118E128E138E148E3B
:103E7000E2E2F3E01382128284839583A683B78300
:103E800082E391E091838083AEE2B3E013961C92CB
:103E90001E92129720EF30E015963C932E931497C4
:103EA00080E491E017969C938E93169719963C9315
:103EB0002E9318971B969C938E931A9755961C9247
:103EC00055971D961C921E921C971F961C921E922F
:103ED0001E9781E054968C9354972FEF3FEF5396A3
:103EE0003C932E93529751963C932E93509756960F
:103EF0008C93569757961C92579759961C921E92E0
:103F00005897D3961C92D397D4961C92D497D69652
:103F10001C921E92D597D8961C921E92D7978AE033
:103F20005E968C935E9789E05F968C935F978FEF98
:103F300090968C93909791968C93919792968C9360
:103F4000929793968C9393975A961D921D921D92D9
:103F50001C925D9799961C921E929897D0961C92EF
:103F6000D09795961C921E9294979E961C929E971F
:103F700097961C921E9296979F961C929F97EDEA99
:103F8000F5E0E491F0E0EE0FFF1FE656FA4F859161
:103F900094919B969C938E939A97EFE8F5E0E49129
:103FA000D296EC93D297EEEAF5E0E491F0E0EE0FD2
:103FB000FF1FE656FA4F859194919D969C938E93A0
:103FC0009C97E0E9F5E0E491D196EC93D19784E4F5
:103FD00091E08D939C9308958F929F92AF92BF92A0
:103FE000CF92DF92EF92FF92CF93DF93EC01688143
:103FF00079818A819B81611571058105910521F483
:1040000064E279ED8BE597E02DE133EF41E050E09C
:104010000E94482049015A019B01AC01A7EAB1E482
:104020000E9467206B017C01ACEEB4EFA501940106
:104030000E947520DC01CB018C0D9D1DAE1DBF1DA6
:10404000B7FF03C00197A109B04888839983AA8369
:10405000BB839F77DF91CF91FF90EF90DF90CF9060
:10406000BF90AF909F908F9008950E94EC1F08958D
:1040700088E191E00E94EC1F0895A0E0B0E08093F9
:10408000180190931901A0931A01B0931B01089590
:10409000052E97FB1EF400940E945F2057FD07D069
:1040A0000E947A2007FC03D04EF40C945F205095B8
:1040B0004095309521953F4F4F4F5F4F0895909514
:1040C0008095709561957F4F8F4F9F4F08950E9407
:1040D0009C20A59F900DB49F900DA49F800D911DD5
:1040E00011240895B7FF0C9467200E946720821B5B
:1040F000930B0895A1E21A2EAA1BBB1BFD010DC054
:10410000AA1FBB1FEE1FFF1FA217B307E407F50787
:1041100020F0A21BB30BE40BF50B661F771F881F63
:10412000991F1A9469F760957095809590959B01F9
:10413000AC01BD01CF010895A29FB001B39FC001A2
:10414000A39F700D811D1124911DB29F700D811DC3
:104150001124911D089597FB072E16F4009407D0A3
:1041600077FD09D00E94CE2007FC05D03EF4909543
:1041700081959F4F0895709561957F4F08950E9496
:104180009C20332312F48A1B9B0B0C94C9200E94A1
:104190009C20B7FF0895821B930B0895AA1BBB1B9D
:1041A00051E107C0AA1FBB1FA617B70710F0A61B37
:1041B000B70B881F991F5A95A9F780959095BC0158
:1041C000CD010895EE0FFF1F0590F491E02D0994A5
:0E41D00081E090E0F8940C94ED20F894FFCF7D
:1041DE00010001000200B4000A00010032000100DB
:1041EE000100130105007300010000000000000033
:1041FE00C8033F03690315049A0378038C03000078
:10420E0000002E0D010D5E0DC00BF90CE50CD60C49
:10421E000000000054153F035E0D5D0D18132915A7
:10422E00E716551656134313F00B6A132F0E610D36
:10423E00E912BA125C045514E81389137B0E7E0D35
:10424E004573636170652074686500424C4F434B43
:10425E00005374617274004869676873636F7265A6
:10426E0000436F6E74726F6C73006C6576656E735F
:10427E000073636F72653A20004849474853434FB5
:10428E0052455300434F4E54524F4C53004D6F7690
:10429E006520746865206A6F79737469636B007446
:1042AE006F20676F206C65667420616E64007269A2
:1042BE00676874005072657373204320746F2067B3
:1042CE006F006261636B20746F2074686500686FA5
:1042DE006D6573637265656E0047414D45204F569F
:1042EE004552007072657373206320746F20676F80
:0A42FE00206261636B000D0A0000EE
:00000001FF
