:100000000C9415030C943D030C943D030C943D0398
:100010000C943D030C943D030C943D030C943D0360
:100020000C943D030C943D030C943D030C943D0350
:100030000C943D030C9483110C943D030C943D03EC
:100040000C945E160C943D030C949B0A0C94750A58
:100050000C943D030C943D030C943D030C943D0320
:100060000C94BF0E0C943D03000000080002010038
:100070000003040700000000000000000000000072
:10008000003E5B4F5B3E3E6B4F6B3E1C3E7C3E1C1E
:10009000183C7E3C181C577D571C1C5E7F5E1C0064
:1000A000183C1800FFE7C3E7FF0018241800FFE71B
:1000B000DBE7FF30483A060E2629792926407F05DE
:1000C0000507407F05253F5A3CE73C5A7F3E1C1CF4
:1000D00008081C1C3E7F14227F22145F5F005F5FB4
:1000E00006097F017F006689956A606060606094A0
:1000F000A2FFA29408047E040810207E20100808A5
:100100002A1C08081C2A08081E101010100C1E0CAF
:100110001E0C30383E3830060E3E0E060000000041
:100120000000005F00000007000700147F147F1428
:10013000242A7F2A1223130864623649562050006D
:1001400008070300001C2241000041221C002A1C59
:100150007F1C2A08083E0808008070300008080844
:100160000808000060600020100804023E51494564
:100170003E00427F400072494949462141494D3382
:100180001814127F1027454545393C4A49493141E9
:10019000211109073649494936464949291E0000B7
:1001A000140000004034000000081422411414140C
:1001B0001414004122140802015909063E415D59F8
:1001C0004E7C1211127C7F494949363E4141412201
:1001D0007F4141413E7F494949417F090909013E2B
:1001E000414151737F0808087F00417F4100204052
:1001F000413F017F081422417F404040407F021C64
:10020000027F7F0408107F3E4141413E7F0909097A
:10021000063E4151215E7F09192946264949493246
:1002200003017F01033F4040403F1F2040201F3F0C
:100230004038403F63140814630304780403615991
:10024000494D43007F4141410204081020004141D3
:10025000417F04020102044040404040000307087F
:100260000020545478407F2844443838444444287B
:10027000384444287F385454541800087E09021822
:10028000A4A49C787F0804047800447D40002040AA
:10029000403D007F1028440000417F40007C0478EE
:1002A00004787C080404783844444438FC18242436
:1002B0001818242418FC7C080404084854545424B6
:1002C00004043F44243C4040207C1C2040201C3C33
:1002D0004030403C44281028444C9090907C44642A
:1002E000544C4400083641000000770000004136BD
:1002F000080002010204023C2623263C1EA1A16143
:10030000123A4040207A3854545559215555794174
:100310002254547842215554784020545579400C49
:100320001E5272123955555559395454545939552C
:100330005454580000457C410002457D420001456F
:100340007C407D1211127DF0282528F07C54554503
:10035000002054547C547C0A097F4932494949326F
:100360003A4444443A324A4848303A4141217A3A80
:1003700042402078009DA0A07D3D4242423D3D404C
:1003800040403D3C24FF2424487E4943662B2FFCFB
:100390002F2BFF0929F620C0887E090320545479A9
:1003A000410000447D413048484A32384040227A7A
:1003B000007A0A0A727D0D19317D2629292F2826F7
:1003C0002929292630484D402038080808080808FF
:1003D0000808382F10C8ACBA2F102834FA00007B58
:1003E000000008142A142222142A1408550055006B
:1003F00055AA55AA55AAFF55FF55FF000000FF005A
:10040000101010FF00141414FF001010FF00FF1054
:1004100010F010F0141414FC001414F700FF000086
:10042000FF00FF1414F404FC141417101F10101F05
:10043000101F1414141F00101010F0000000001FF3
:10044000101010101F10101010F010000000FF10FE
:100450001010101010101010FF10000000FF1400FA
:1004600000FF00FF00001F10170000FC04F414142C
:100470001710171414F404F40000FF00F7141414F8
:1004800014141414F700F7141414171410101F1078
:100490001F141414F4141010F010F000001F101F9B
:1004A0000000001F14000000FC140000F010F01009
:1004B00010FF10FF141414FF141010101F00000080
:1004C00000F010FFFFFFFFFFF0F0F0F0F0FFFFFF84
:1004D0000000000000FFFF0F0F0F0F0F38444438DB
:1004E00044FC4A4A4A347E02020606027E027E022A
:1004F00063554941633844443C04407E201E200635
:10050000027E020299A5E7A5991C2A492A1C4C7271
:1005100001724C304A4D4D303048784830BC625AF8
:10052000463D3E494949007E0101017E2A2A2A2A88
:100530002A44445F444440514A444040444A514064
:100540000000FF0103E080FF000008086B6B083625
:1005500012362436060F090F060000181800000096
:100560001010003040FF0101001F01011E00191D85
:100570001712003C3C3C3C00000000000102040853
:1005800010204080010204081020010204081020FD
:1005900000000000250028002B00040404040404CB
:1005A0000404020202020202030303030303EF0333
:1005B000038002CF0300C130ED0464031281E8031D
:1005C000850078CB05392C003402F70120EA0200BF
:1005D00000C00123C10110C5023E28C701863601B3
:1005E000483701003A0155B1020018B603088227C6
:1005F000F20100260101E00F0F312B0C0E084EF125
:10060000370710030E0900E10F000E140311073124
:10061000C148080F0C31360F1180298000000000FE
:1006200000240027002A0000E02211241FBECFEF83
:10063000D8E0DEBFCDBF12E0A0E0B1E0E6E8F9E42B
:1006400002C005900D92A63EB107D9F726E0A6EEAE
:10065000B2E001C01D92AD33B207E1F713E0C5E18E
:10066000D3E004C02197FE010E94B624C431D10713
:10067000C9F70E94DB170C94C1240C940000CF92A0
:10068000DF92EF92FF920F931F93CF93DF936C0152
:100690007A018B01C0E0D0E0CE15DF0581F0D801F2
:1006A0006D918D01D601ED91FC910190F081E02DCD
:1006B000C6010995892B11F02196EECF7E01C70165
:1006C000DF91CF911F910F91FF90EF90DF90CF902E
:1006D0000895FC01538D448D252F30E0842F90E048
:1006E000821B930B541710F0CF960895019708952D
:1006F000FC01918D828D981761F0828DDF01A80F2A
:10070000B11D5D968C91928D9F5F9F73928F90E04B
:1007100008958FEF9FEF0895FC01918D828D9817BA
:1007200031F0828DE80FF11D858D90E008958FEFF7
:100730009FEF0895FC01918D228D892F90E0805CC0
:100740009F4F821B91098F7399270895FC01848D17
:10075000DF01A80FB11DA35ABF4F2C91848D90E0EB
:1007600001968F739927848FA689B7892C93A089C6
:10077000B1898C91837080648C93938D848D981350
:1007800006C00288F389E02D80818F7D80830895E3
:10079000EF92FF920F931F93CF93DF93EC0181E0D1
:1007A000888F9B8D8C8D981305C0E889F98980818D
:1007B00085FD26C0F62E0B8D10E00F5F1F4F0F73C7
:1007C0001127E02E8C8DE8120CC00FB607FCFACF73
:1007D000E889F989808185FFF5CFCE010E94A603C3
:1007E000F1CF8B8DFE01E80FF11DE35AFF4FF08230
:1007F0009FB7F8940B8FEA89FB89808180620AC0D9
:100800009FB7F894EE89FF896083E889F989808130
:100810008370806480839FBF81E090E0DF91CF91FF
:100820001F910F91FF90EF900895CF93DF93EC010C
:10083000888D8823C9F0EA89FB89808185FD05C000
:10084000A889B9898C9186FD0FC00FB607FCF5CF3A
:10085000808185FFF2CFA889B9898C9185FFEDCF82
:10086000CE010E94A603E7CFDF91CF9108952F928A
:100870003F924F925F926F927F928F929F92AF9230
:10088000BF92CF92DF92EF92FF920F931F93CF937D
:10089000DF9300D000D000D0CDB7DEB76C015B0194
:1008A0005E834D832801370181E090E04C01841A7A
:1008B000950ACA01919581959109AC01440F551F84
:1008C0005A834983180153E0250E311CEE24E3942A
:1008D000F12C822F81708B8322702C83C7010197AA
:1008E0004D815E81841795070CF064C097FC0BC0A6
:1008F000415051095E834D8389819A8102969A8382
:100900008983880E991EC701880F991F0196880E4A
:10091000991E9B81992309F12D813E81220F331F5E
:100920002F5F3F4F240D351D8301A5018D819E81D1
:10093000481B590BB6016E0D7F1D83EF93E00E949B
:1009400014139101A5014E195F096D817E816C0D13
:100950007D1D83EF93E00E9414139C81911107C0C9
:100960009FEFE91AF90A22E0220E311CB7CF2D8140
:100970003E81220F331F2F5F3F4F240D351D830112
:10098000A5018D819E81481B590BB6016E197F0907
:1009900083EF93E00E9414139101A5014E195F09A2
:1009A000B6018D819E81681B790B83EF93E00E94D5
:1009B0001413D6CF26960FB6F894DEBF0FBECDBF68
:1009C000DF91CF911F910F91FF90EF90DF90CF902B
:1009D000BF90AF909F908F907F906F905F904F905F
:1009E0003F902F900895009769F0FC01019000203E
:1009F000E9F73197AF01481B590BBC0183EF93E036
:100A00000C943F0380E090E008950E94BC248F92F4
:100A10009F92AF92BF92CF92DF92EF92FF920F938D
:100A20001F93CF93DF935C01EB016A0183EF93E0A7
:100A30000E94E714450185E0880E911C76010AE0CA
:100A400010E026E130E0AE01B40183EF93E00E94B4
:100A5000D31625960FEF1FEF21E045E050E0BE01D1
:100A6000C5014A960E94370422E045E050E0BE01ED
:100A7000C4010E94370483EF93E0DF91CF911F916F
:100A80000F91FF90EF90DF90CF90BF90AF909F902D
:100A90008F900C942813AF92BF92CF92DF92EF9277
:100AA000FF920F931F93CF93DF936C015B01EA01D9
:100AB000790183EF93E00E94E7149E01220F331F18
:100AC0002F5F3F4FA5014C1B5D0B8701B60183EFE4
:100AD00093E00E94141300E010E023E0AE01B501A2
:100AE000C6010E94370483EF93E0DF91CF911F91FD
:100AF0000F91FF90EF90DF90CF90BF90AF900C944C
:100B00002813CF93DF930E94F304EC0182EE92E06E
:100B10000E94F3048C0F9D1FDF91CF9108958F9257
:100B20009F92AF92BF920F931F93CF93DF93CDB756
:100B3000DEB7A1970FB6F894DEBF0FBECDBF19A2E6
:100B4000423008F44AE08E010F5D1F4F842E912C35
:100B5000A12CB12CA50194010E944E24E62FB901CD
:100B6000CA0101501109EA3014F4E05D01C0E95CEA
:100B7000D801EC93232B242B252B61F7C8010E946D
:100B8000F304A1960FB6F894DEBF0FBECDBFDF9180
:100B9000CF911F910F91BF90AF909F908F9008952C
:100BA000CF92DF92EF92FF92CF93DF936B017C01A4
:100BB0006DE283EF93E00E941215EC016627772720
:100BC000CB016C197D098E099F094AE00E948F05AF
:100BD0008C0F9D1FDF91CF91FF90EF90DF90CF9012
:100BE00008950C94F304282F30914903313208F012
:100BF0004AC0809125038111FCCF9091480342E0C7
:100C000040932503209324032FEF20932303109276
:100C1000220330932103E8E2F3E0A1E0B3E020E017
:100C2000321721F041914D932F5FFACF10920003BC
:100C300020910003990F922B909300039091FF0253
:100C4000913061F41092FF02909100039093BB00E9
:100C50009091BC0093FDF8CF95EC01C095EE909378
:100C6000BC00909125039230E1F3909123039F3FC4
:100C700079F080912303803241F080912303803307
:100C800031F084E005C081E003C082E001C083E070
:100C900010922703109249031092260308952F9271
:100CA0003F924F925F926F927F928F929F92AF92FC
:100CB000BF92CF92DF92EF92FF920F931F93CF9349
:100CC000DF93CDB7DEB7AC970FB6F894DEBF0FBE9B
:100CD000CDBF9CA78BA74B015A0139011701DE8AB2
:100CE000CD8A261737075CF4E616F706BCF4962F74
:100CF000892D4901EBA4FCA45CA74BA707C0E21611
:100D0000F3060CF0ABC1962D872D7501281439041C
:100D100084F058013101292E382E13C08B2DABA43D
:100D2000BCA44BA78CA77801872D3B01822E982E5F
:100D300008C03401ABA4BCA44101292E382E0BA756
:100D40001CA783EF93E00E94E7148214930451F5EB
:100D50002BA53CA5A216B3065CF09BA58CA52A1575
:100D60003B0514F49A2D8B2DABA4BCA49BA78CA798
:100D7000EA14FB0444F04BA55CA54E155F0514F482
:100D8000FCA6EBA675012BA53CA52E193F092F5FEC
:100D90003F4F0D891E89A401B70183EF93E00E94A4
:100DA000011340C1C5016BA57CA5861B970B930160
:100DB00028193909D701A61BB70BBE83AD83A10142
:100DC000481959095A874987B7016A197B097E87EB
:100DD0006D87D101A619B709B88FAF8B23016214B3
:100DE000730419F0B1E04B1A51086401198A1A8A88
:100DF0001B8A1C8A19821A821B821C82A901330F4A
:100E0000660B770B4B8F5C8F6D8F7E8F29853A85B4
:100E1000032E000C440B550B2F8F38A349A35AA364
:100E2000AC01990F660B770B4BA35CA36DA37EA35C
:100E30006D817E81072E000C880B990B6FA378A71C
:100E400089A79AA74C145D040CF454C069817A8177
:100E50008B819C812B8D3C8D4D8D5E8D0E941C2441
:100E6000EBA4FCA4E20EF31E69897A898B899C8924
:100E70002F8D38A149A15AA10E941C248BA59CA5A5
:100E8000280F391F49815A816B817C818BA19CA1DC
:100E9000ADA1BEA1480F591F6A1F7B1F49835A830A
:100EA0006B837C8349895A896B897C898FA198A53A
:100EB000A9A5BAA5480F591F6A1F7B1F498B5A8BDA
:100EC0006B8B7C8B2E153F052CF49E2D8F2D79017D
:100ED000292F382F2E193F092F5F3F4F0D891E896B
:100EE000A601B70183EF93E00E9401139FEFC91A97
:100EF000D90AA8CFC60186199709AD85BE858A9FF4
:100F000020018B9F500C9A9F500C1124052C000C33
:100F1000660877089601281939094D815E81249F5A
:100F2000C001259F900D349F900D11249C01990FB5
:100F3000440B550B29833A834B835C834F89588D2F
:100F4000052E000C660B770B4F8B588F698F7A8FAD
:100F500069857A85072E000C880B990B69877A873B
:100F60008B879C87CD01092E000CAA0BBB0B8D87AC
:100F70009E87AF87B88B2D813E81032E000C440BDA
:100F8000550B2D833E834F8358872C143D040CF45E
:100F900049C0C301B2012F89388D498D5A8D0E94F5
:100FA0001C247501E20EF31E69817A818B819C817C
:100FB00029853A854B855C850E941C246BA57CA500
:100FC000260F371F8D859E85AF85B889480E591E1F
:100FD0006A1E7B1E49815A816B817C818D819E8135
:100FE000AF81B885480F591F6A1F7B1F49835A83F9
:100FF0006B837C832E153F052CF49E2D8F2D79015C
:10100000292F382F2E193F092F5F3F4F0D891E8939
:10101000A601B70183EF93E00E9401139FEFC91A65
:10102000D90AB3CF83EF93E0AC960FB6F894DEBF46
:101030000FBECDBFDF91CF911F910F91FF90EF9029
:10104000DF90CF90BF90AF909F908F907F906F90E8
:101050005F904F903F902F900C942813780171CEA1
:10106000CF93DF93BC01990F880B990B97FF03C0B7
:101070000E94D00503C04AE00E948F05EC0182EE79
:1010800092E00E94F3048C0F9D1FDF91CF91089591
:10109000CF93DF93682F70E080E090E04AE00E94F9
:1010A0008F05EC0182EE92E00E94F3048C0F9D1FED
:1010B000DF91CF9108952F923F924F925F926F925E
:1010C0007F928F929F92AF92BF92CF92DF92EF92D8
:1010D000FF920F931F93CF93DF93CDB7DEB76B973C
:1010E0000FB6F894DEBF0FBECDBF9B8F8A8F5B011A
:1010F0001A01D22E1F830E833701C982DC01589654
:101100002D913C9159972115310509F0E6C01896AB
:101110008D919C911997681779070CF0CDC11A969B
:101120008D919C911B97481759070CF0C5C18C2CC9
:10113000912CFB0126E0C29EE00DF11D1124FB87DE
:10114000EA871E161F060CF0B7C1A40183E0440F06
:10115000551F8A95E1F75D874C87CA01820D931D63
:10116000181619060CF0A8C157968C91811104C06D
:101170005FEA5D1508F4D394AA8DBB8DED91FC91C7
:1011800011970284F385E02DCD010995B5E0DB9E32
:10119000C0011124F5013596FF87EE87BB82AA8234
:1011A00025019C012A193B09398B288BA101485F35
:1011B0005F4F5B8B4A8BE889F989E40DF51DE45894
:1011C000FF4F5491588761013D822C82888580FFB2
:1011D00013C0AA8DBB8DED91FC91B981B13031F472
:1011E0000484F585E02D2E813F8116C00684F785A5
:1011F000E02DEE80FF801AC0EE81FF81E615F70535
:10120000F1F0AA8DBB8DED91FC91B981B13051F413
:101210000484F585E02D9301A601B2018A8D9B8D92
:1012200009950DC00684F785E02D730184019401B2
:101230004C815D816A817B818A8D9B8D0995E885D2
:10124000E695E887FFEFCF1ADF0A2C813D81280D54
:10125000391D3D832C834A895B89C416D50609F064
:10126000B5CF5FEF451A550A8A819B81880D991D7C
:101270009B838A83AE85BF854A165B0609F09BCFA8
:10128000EE81FF81E615F70509F4F4C0EA8DFB8DC8
:10129000A081B181F981F13079F4B5016B5F7F4FA5
:1012A0005096ED91FC915197830128E030E0A10127
:1012B0008A8D9B8D0995DEC06A857B8568197909C1
:1012C0001E96ED91FC911F9773010C851D8594016D
:1012D000A1018A8D9B8D0995CDC0F9013496E491C9
:1012E000DE1AF901329685919491B7E0DB9E800D6C
:1012F000911D1124F901259134913B8B2A8BFC011E
:10130000259134912901FC013296C4903196349193
:101310003E87329614913196D4904981423058F0EC
:10132000612E012E000C77088D2D0D2C000C990BD1
:101330009987888704C019861886612C712CAA8D1C
:10134000BB8DED91FC9111970284F385E02DCD01C9
:101350000995B9818B2E912C689CC001699C900DD8
:10136000789C900D1124FC01EA0DFB1DFD87EC8794
:101370001A82712C612CE12F110FFF0B95012E0F9A
:101380003F1F3B872A87AC0CB11CA5014E0F5F1F86
:101390005F8B4E8BC1018D0D911DD7FC9A95998F56
:1013A000888F9E85691608F065C0862D90E0488577
:1013B0005985480F591F489D9001499D300D589DF2
:1013C000300D1124D101A20FB31FB98BA88BEC856E
:1013D000FD85FD83EC83AA84BB84DA80FA85DF1A5D
:1013E000288D398D280F391F3D8B2C8B8D2D8A0D23
:1013F0004E895F89A416B506C1F1877041F4C20118
:101400000196EA89FB89E40DF51D74902C0177FEA5
:1014100021C0AA8DBB8DED91FC91B981B13061F4F1
:101420000484F585E02D2E813F814C895D89B501CD
:101430008A8D9B8D09950EC00684F785E02DEE8080
:10144000FF8084019401488959896C817D818A8D4E
:101450009B8D0995770CEFEFAE1ABE0A2C813D816A
:10146000280D391D3D832C83C1CF3A813C0D3A8331
:10147000639497CFAA8DBB8DED91FC91119706884F
:10148000F789E02DCD016B960FB6F894DEBF0FBE45
:10149000CDBFDF91CF911F910F91FF90EF90DF9023
:1014A000CF90BF90AF909F908F907F906F905F9004
:1014B0004F903F902F9009946B960FB6F894DEBF33
:1014C0000FBECDBFDF91CF911F910F91FF90EF9095
:1014D000DF90CF90BF90AF909F908F907F906F9054
:1014E0005F904F903F902F9008951F920F920FB6EC
:1014F0000F9211242F933F934F935F936F937F939A
:101500008F939F93AF93BF93EF93FF938AE493E0FE
:101510000E94A603FF91EF91BF91AF919F918F9190
:101520007F916F915F914F913F912F910F900FBEDF
:101530000F901F9018951F920F920FB60F921124C3
:101540002F938F939F93EF93FF93E0915A03F09122
:101550005B038081E0916003F091610382FD12C022
:101560009081809163038F5F8F7320916403821752
:1015700051F0E0916303F0E0E65BFC4F958F8093C0
:10158000630301C08081FF91EF919F918F912F9113
:101590000F900FBE0F901F90189590E0FC01E85936
:1015A000FF4F2491FC01E458FA4F3491FC01E656B8
:1015B000FA4FE491EE2309F43CC0222339F12330A1
:1015C00091F038F42130A9F0223001F584B58F7DF7
:1015D00012C0273091F02830A1F02430B9F4809166
:1015E00080008F7D03C0809180008F778093800082
:1015F0000DC084B58F7784BD09C08091B0008F770E
:1016000003C08091B0008F7D8093B000F0E0EE0FBA
:10161000FF1FE057FA4FA591B4919FB7F89461115D
:1016200004C08C913095382302C0EC913E2B3C9342
:101630009FBF08950895EF92FF920F931F93DC01CF
:10164000ED91FC9100A0F1A1E02D09951F910F9162
:10165000FF90EF9008950F931F93DC01ED91FC91A3
:10166000068CF78DE02D09951F910F9108950F932A
:101670001F93DC01ED91FC91048CF58DE02D099513
:101680001F910F910895DC01ED91FC910084F1858B
:10169000E02D09942F923F924F925F926F927F922A
:1016A0008F929F92AF92BF92CF92DF92EF92FF9272
:1016B0000F931F93CF93DF9300D000D000D0CDB70E
:1016C000DEB72C017E836D836A015901C801FC825B
:1016D000EB824801841A950A97FE03C09194819485
:1016E000910835012D813E81621A730A77FE03C08D
:1016F000719461947108681479045CF43A2D2B2D6F
:101700005C01832F922F3D812E81DE82CD82C32EFC
:10171000D22EAD81BE81AA16BB065CF43C2D2D2DC8
:101720006C01832F922F3D812E81BE82AD82A32E2C
:10173000B22E85012D813E81021B130B1C012C183A
:101740003D0837FE03C0319421943108780117FF1A
:1017500003C03FEFE31AF30AF594E794C816D906DD
:101760002CF08FEF9FEF9A83898304C0A1E0B0E053
:10177000BA83A9832D813E81A216B30624F1D2013A
:10178000ED91FC910484F585E02D2B813C8168145A
:10179000790424F44D815E81B60103C0A6016D81F8
:1017A0007E81C2010995E218F308F7FE06C029817F
:1017B0003A81C20ED31EE00EF11E8D819E810196EC
:1017C0009E838D83D7CF26960FB6F894DEBF0FBECB
:1017D000CDBFDF91CF911F910F91FF90EF90DF90E0
:1017E000CF90BF90AF909F908F907F906F905F90C1
:1017F0004F903F902F90089585ED8093BC0080918D
:10180000BC0084FDFCCF1092250308954091100682
:10181000262F30E0240F311D21323105DCF42091D8
:1018200025032430C9F4FC0180E090E0861758F4C9
:10183000309110062191DC01A051BA4FA30FB11DC8
:101840002C930196F3CF80911006680F60931006D9
:1018500080E0089581E0089582E008950895089554
:10186000E091E9058091E805E81730F4F0E0E853ED
:10187000FA4F808190E008958FEF9FEF0895909147
:10188000E9058091E805981750F4E92FF0E0E85356
:10189000FA4F208130E09F5F9093E90502C02FEF5F
:1018A0003FEFC90108958091E80590E02091E90596
:1018B000821B91090895CF92DF92EF92FF920F93CE
:1018C0001F93CF93DF937C01CB018A0120912603E4
:1018D000222389F0EB016B01C40ED51ECC15DD056A
:1018E00069F06991D701ED91FC910190F081E02DB3
:1018F000C7010995F3CF642F0E94060CC801DF9140
:10190000CF911F910F91FF90EF90DF90CF900895AE
:10191000CF93DF931F92CDB7DEB769832091260363
:101920002223D1F020914903203240F021E030E021
:10193000FC013383228380E090E015C0809127036F
:10194000E82FF0E0E85DFC4F998190838F5F8093F2
:1019500027038093490305C061E0CE0101960E94F0
:10196000060C81E090E00F90DF91CF9108950895EB
:1019700080E090E008951F93CF93DF93EC01162F42
:10198000E881F9810284F385E02D0995111102C0E7
:1019900060E201C061E2CE010E94A817E881F981EE
:1019A0000688F789E02DCE01DF91CF911F91099430
:1019B0008F929F92AF92BF92CF92DF92EF92FF925F
:1019C0000F931F93CF93DF93EC01490181E0881AB5
:1019D0009108860E971EC401A0E0B0E04B01A12C37
:1019E000B12C540199248824882A992AAA2ABB2A2E
:1019F000680181E0C81AD108C40ED51EC601A0E056
:101A0000B0E06A01E12CF12C7601DD24CC24C82A57
:101A1000D92AEA2AFB2A6AE2CE010E94A81729A144
:101A20006B2D77278827992727FF18C06EBD0DB427
:101A300007FEFDCFC501AA27BB278EBD0DB407FE4B
:101A4000FDCFBB27AB2D9A2D892D8EBD0DB407FE82
:101A5000FDCF8EBC0DB407FEFDCF14C0CE010E9499
:101A6000A816B50188279927CE010E94A8169927A4
:101A70008B2D7A2D692DCE010E94A816682DCE01DE
:101A80000E94A8166BE2CE010E94A81729A16F2D13
:101A900077278827992727FF18C06EBD0DB407FE4A
:101AA000FDCFC701AA27BB278EBD0DB407FEFDCF12
:101AB000BB27AF2D9E2D8D2D8EBD0DB407FEFDCF06
:101AC000CEBC0DB407FEFDCF14C0CE010E94A816F7
:101AD000B70188279927CE010E94A81699278F2D34
:101AE0007E2D6D2DCE010E94A8166C2DCE010E9478
:101AF000A8166CE2CE01DF91CF911F910F91FF905C
:101B0000EF90DF90CF90BF90AF909F908F900C940C
:101B1000A8171F93CF93DF93EC0163706D8B623036
:101B2000C1F0633001F1613051F080EF90E09987AE
:101B3000888780E491E09B878A8718E41DC080E451
:101B400091E09987888780EF90E09B878A8718E2E9
:101B500013C080EF90E09987888780E491E09B87AD
:101B60008A8718E809C080E491E09987888780EF28
:101B700090E09B878A8718EEE881F9810284F385DB
:101B8000E02DCE01099566E3CE010E94A817612FD2
:101B9000CE010E94A816E881F9810688F789E02D18
:101BA000CE01DF91CF911F910994BF92CF92DF9226
:101BB000EF92FF920F931F93CF93DF93EC014115A8
:101BC00051056105710521F440E052E16AE770E0DA
:101BD0004A8F5B8F6C8F7D8F8E8D87FD07C061E094
:101BE0000E94E81561E08E8D0E94CD0A61E08F8D24
:101BF0000E94E81560E08F8D0E94CD0A89A187FDC3
:101C000019C061E08AA10E94E81560E08AA10E94E3
:101C1000CD0A61E089A10E94E81561E089A10E94D6
:101C2000CD0A8BA187FD03C060E00E94E81589A161
:101C300087FF33C01FB7F89480913306811127C006
:101C4000E4EAF5E08491E6E8F5E09491E82FF0E02D
:101C5000EE0FFF1FE35EF94FA591B491EC91E923DC
:101C600021F461E08AE00E94CD0A61E08AE00E94EE
:101C7000E8158CB580618CBD8CB580648CBD61E04D
:101C80008DE00E94E81561E08BE00E94E8158091EC
:101C900033068F5F809333061FBF88A187FD21C065
:101CA00061E00E94E81561E088A10E94CD0A64E627
:101CB00070E080E090E00E94241660E088A10E941D
:101CC000CD0A64E670E080E090E00E94241661E0B6
:101CD00088A10E94CD0A68EC70E080E090E00E944C
:101CE0002416E881F9810284F385E02DCE0109955F
:101CF0000EEA15E078018FEFE81AF80AF80164910E
:101D0000662321F1CE010E94A8170E5F1F4FF70135
:101D1000E490FE2DFF77BF2E6801FF2EFA948FEF1F
:101D2000F81649F0F6016491CE010E94A816FFEF63
:101D3000CF1ADF0AF3CF0B0D111DE7FEDBCF68E7EB
:101D400070E080E090E00E942416D4CFE881F98111
:101D50000688F789E02DCE01099580EF90E09987FC
:101D6000888780E491E09B878A87DF91CF911F91DC
:101D70000F91FF90EF90DF90CF90BF9008951F924A
:101D80000F920FB60F9211242F933F934F935F93AF
:101D90006F937F938F939F93AF93BF93EF93FF9333
:101DA0008091B900887F803609F49CC068F588323C
:101DB00009F45BC090F4803109F454C038F48823EE
:101DC00009F4F6C0883009F44DC0F6C0883109F432
:101DD0004CC0803209F45DC0EFC0803409F468C0A3
:101DE00048F4803309F455C0883309F0E5C0809386
:101DF0002303D8C0803509F44FC0883509F45DC08D
:101E0000883409F0D9C0D6C0883909F4C7C0A8F40D
:101E1000883709F467C038F4883609F463C080371E
:101E200009F460C0C9C0883809F4B8C0803909F421
:101E30005FC0803809F0C0C05BC0803B09F486C039
:101E400038F4803A09F466C0883A09F47FC0B4C017
:101E5000803C09F4A7C0883C09F4A4C0883B09F47D
:101E60008AC0AAC08091000310C090912203809183
:101E70002103981770F5E091220381E08E0F809383
:101E80002203F0E0EF5FFC4F80818093BB0085EC84
:101E900086C0809323038EC0E091220381E08E0FE1
:101EA000809322038091BB00F0E0EF5FFC4F8083C2
:101EB00090912203809121036EC0E091220381E082
:101EC0008E0F809322038091BB00F0E0EF5FFC4F08
:101ED00080838091240381116DC081E08093FF0293
:101EE00084EA61C083E08093250310923206CFCF4D
:101EF00080913206803208F051C0E091320681E0D4
:101F00008E0F809332068091BB00F0E0EE5EF94FB9
:101F10008083BDCF85EC8093BC0010922503809117
:101F20003206803230F4E0913206F0E0EE5EF94F96
:101F300010826091320670E0E091EC05F091ED05C1
:101F400082E196E009951092320636C084E08093D3
:101F500025031092110610921006E091EA05F09107
:101F6000EB05099580911006811105C081E08093F1
:101F700010061092F005E091110681E08E0F80931B
:101F80001106F0E0E051FA4F80818093BB00909100
:101F9000110680911006981708F479CF85E8809390
:101FA000BC000AC085EC8093BC001092250304C0DD
:101FB000109223030E94FC0BFF91EF91BF91AF9110
:101FC0009F918F917F916F915F914F913F912F9151
:101FD0000F900FBE0F901F9018958091C7058095A8
:101FE000817090E00895F999FECF92BD81BDF89A75
:101FF00080B50895F999FECF92BD81BD60BDFA9A72
:10200000F99A08952F923F924F925F926F927F922A
:102010008F929F92AF92BF92CF92DF92EF92FF92F8
:102020000F931F93CF93DF9300D000D0CDB7DEB7CF
:102030007C836B835A0120911E0130911F018D38E2
:10204000910534F0213E31057CF42C5F3F4F08C0F0
:102050008A3591054CF42031310534F02450310992
:1020600030931F0120931E0195014AE050E06B81DF
:102070007C8180911E0190911F010E944B056B8114
:102080007C816550710980911E0190911F01A5010D
:1020900040970E94070560911E0170911F01AB805F
:1020A000BC802BE0A21AB1089B012C5F3F4F64500B
:1020B0007109E12CF12C8501A50183EF93E00E94C9
:1020C000A61380911E0190911F016B807C8036E0E9
:1020D000631A7108AC0149505109C12CD12C75010A
:1020E0008A019301B50104970E944F0660911E0179
:1020F00070911F016F507109E12CF12C06E010E086
:1021000027E030E0A50183EF93E00E944512809123
:102110001E0190911F012B813C81225031093A838D
:102120002983AC014051510973018A01B3010D9714
:102130000E944F062B803C8038E0231A31086091C2
:102140001E0170911F0169517109E12CF12C01E10F
:1021500010E02AE030E0A10183EF93E00E944512F5
:1021600080911E0190911F014B805C8022E0420E05
:10217000511CAC01405151098B809C8036E0830E8C
:10218000911C74018A019201B4010D970E944F06BF
:1021900060911E0170911F016F507109E12CF12CAB
:1021A00006E010E027E030E0A40183EF93E00E9416
:1021B000451280911E0190911F01AC0149505109B7
:1021C0002B813C81255F3F4F3C832B8379018A0122
:1021D0009401B70104970E944F0660911E0170910F
:1021E0001F019B012C5F3F4F64507109E12CF12CC2
:1021F0000B811C81A80183EF93E00E94A6134091FC
:102200001E0150911F01CA0109964C5F5F4FEB8080
:10221000FC808C019701B4010E944F0660911E0161
:1022200070911F01685F7F4FE12CF12C06E010E0F8
:1022300027E030E0A40183EF93E00E9445128091F3
:102240001E0190911F01AC01405F5F4F74018A0134
:102250009201B4010D960E944F0660911E0170918B
:102260001F01615F7F4FE12CF12C01E110E02AE0BA
:1022700030E0A10183EF93E00E94451280911E019E
:1022800090911F01AC01405F5F4F73018A0129816A
:102290003A81B3010D960E944F0660911E01709124
:1022A0001F01675F7F4FE12CF12C06E010E027E073
:1022B00030E0A50183EF93E00E94451280911E015A
:1022C00090911F01AC01475F5F4F75018A01930137
:1022D000B50104960E944F060F900F900F900F903B
:1022E000DF91CF911F910F91FF90EF90DF90CF90F2
:1022F000BF90AF909F908F907F906F905F904F9026
:102300003F902F9008951F920F920FB60F921124B5
:102310002F933F938F939F938091C0059091C10518
:1023200090938500809384008091EE059091EF0555
:1023300001969093EF058093EE0520911C0130915A
:102340001D0128173907E4F480911A0190911B01AF
:10235000019690931B0180931A018091BE05909184
:10236000BF05019749F48091BC059091BD05019688
:102370009093BD058093BC051092EF051092EE0579
:102380009F918F913F912F910F900FBE0F901F90B3
:102390001895AF92BF92CF92DF92EF92FF920F9378
:1023A0001F93CF93DF93C4EFD4E08CE2A82E84E098
:1023B000B82E99E1C92ED12C00EF10E00E940C2418
:1023C0007E01B6010E947F244996899399930E94C9
:1023D0000C24F70120813181B801621B730B0E942C
:1023E0007F24F501819391935F01F5E0CE3BDF07F8
:1023F00029F7DF91CF911F910F91FF90EF90DF9020
:10240000CF90BF90AF900895EF92FF920F931F93DC
:10241000CF93DF938C01EB017A019A014AE050E0FF
:102420000E944B05BE0165507109A701C801409784
:10243000DF91CF911F910F91FF90EF900C940705C2
:102440003FB7F8948091390690913A06A0913B06E7
:10245000B0913C0626B5A89B05C02F3F19F0019608
:10246000A11DB11D3FBFBA2FA92F982F8827820F1A
:10247000911DA11DB11DBC01CD0142E0660F771F6A
:10248000881F991F4A95D1F708958F929F92AF9216
:10249000BF92CF92DF92EF92FF920F931F93CF9351
:1024A000DF93EC016B015A014901E881F981028453
:1024B000F385E02D0995E881F9810684F785E02D03
:1024C0009401A501B601CE010995E881F98106883C
:1024D000F789E02DCE01DF91CF911F910F91FF90F1
:1024E000EF90DF90CF90BF90AF909F908F90099426
:1024F000AF92BF92CF92DF92EF92FF920F931F9312
:10250000CF93DF93EC017B016A015901E881F981E6
:102510000284F385E02D0995E881F9810288F38929
:10252000E02D9501A601B701CE010995E881F98159
:102530000688F789E02DCE01DF91CF911F910F9191
:10254000FF90EF90DF90CF90BF90AF900994AF9243
:10255000BF92CF92DF92EF92FF920F931F93CF9390
:10256000DF93EC017B016A015901E881F981028462
:10257000F385E02D0995E881F9810088F189E02D46
:102580009501A601B701CE010995E881F981068878
:10259000F789E02DCE01DF91CF911F910F91FF9030
:1025A000EF90DF90CF90BF90AF900994CF92DF92E1
:1025B000EF92FF920F931F93CF93DF93EC018B0168
:1025C0007A016901E881F9810284F385E02D09959A
:1025D000E881F9810484F585E02D9601A701B80111
:1025E000CE010995E881F9810688F789E02DCE01B1
:1025F000DF91CF911F910F91FF90EF90DF90CF90DF
:102600000994EF92FF920F931F93DC01ED91FC91DF
:102610000684F785E02D780101E010E009951F910F
:102620000F91FF90EF900895EF92FF920F931F93F9
:10263000DC01ED91FC910684F785E02D780189019C
:1026400021E030E009951F910F91FF90EF900895E0
:10265000FC0191A904A4F5A5E02D8081892B80833C
:1026600008950895FC016370658B848195812681AE
:102670003781613039F0633029F091878087338763
:1026800022870895318720879387828708956F92E4
:102690007F928F929F92AF92BF92CF92DF92EF92F2
:1026A000FF920F931F93CF93DF93EC014B015A01DD
:1026B00069013801E881F9810284F385E02D0995EB
:1026C000E881F9810288F389E02D87019601A5014F
:1026D000B401CE010995A501460D571D4150510980
:1026E000E881F9810288F389E02D9601B401CE01D9
:1026F0000995E881F9810088F189E02D9301A50110
:10270000B401CE010995C80CD91CB60161507109FC
:10271000E881F9810088F189E02D9301A501CE01BE
:102720000995E881F9810688F789E02DCE01DF91CE
:10273000CF911F910F91FF90EF90DF90CF90BF90BE
:10274000AF909F908F907F906F9009948F929F92FF
:10275000AF92BF92CF92DF92EF92FF920F931F93AF
:10276000CF93DF934C016B015A01E901DC01ED913C
:10277000FC916217730781F40417150724F48B2D5D
:102780005801042F182F0A191B0998012F5F3F4F7A
:10279000048CF58DE02D12C04017510709F526175E
:1027A000370724F48D2D6901C62FD82F9E012C19CF
:1027B0003D092F5F3F4F068CF78DE02D8701A50166
:1027C000B601C4010995DF91CF911F910F91FF9040
:1027D000EF90DF90CF90BF90AF909F908F90089533
:1027E0000284F385E02D0995D401ED91FC910488D4
:1027F000F589E02D9E01A501B601C4010995D4011A
:10280000ED91FC910688F789E02DC401DF91CF910D
:102810001F910F91FF90EF90DF90CF90BF90AF90FE
:102820009F908F900994EF92FF920F931F93DC017A
:102830001A960D911C911B9718962D913C91199702
:10284000ED91FC9100A0F1A1E02D7B0140E050E072
:1028500060E070E009951F910F91FF90EF9008954F
:102860004F925F926F927F928F929F92AF92BF92A0
:10287000CF92DF92EF92FF920F931F93CF93DF934C
:102880006C012B015A0139014801DC01ED91FC91E9
:102890000284F385E02D0995E201640C751CD601D4
:1028A000ED91FC91C615D7055CF40088F189E02D07
:1028B00087019401A501BE01C60109952196EFCFBC
:1028C0000688F789E02DC601DF91CF911F910F9106
:1028D000FF90EF90DF90CF90BF90AF909F908F9040
:1028E0007F906F905F904F9009948F929F92AF92DC
:1028F000BF92CF92DF92EF92FF920F931F93CF93ED
:10290000DF93EC015B014A016901E881F9810284EE
:10291000F385E02D099595012C0D3D1D21503109C0
:10292000E881F9810488F589E02D78018401A4010A
:10293000B501CE010995E881F9810688F789E02D76
:10294000CE01DF91CF911F910F91FF90EF90DF901B
:10295000CF90BF90AF909F908F9009948F929F924D
:10296000AF92BF92CF92DF92EF92FF920F931F939D
:10297000CF93DF93EC015B014A0169017801E881A3
:10298000F9810284F385E02D0995C80CD91C8601D4
:1029900001501109E881F9810488F589E02D95013C
:1029A000A401B501CE010995E881F9810688F7896E
:1029B000E02DCE01DF91CF911F910F91FF90EF900D
:1029C000DF90CF90BF90AF909F908F900994FC01C3
:1029D00081A187FF1EC0428D538D648D758D80E06F
:1029E00092E1AAE7B0E020E0481759076A077B07A1
:1029F00040F4B695A795979587952F5F2630A1F758
:102A000027E091E09227892F806A869591708CBD8E
:102A10009DBD81A904A4F5A5E02D90818095892311
:102A200080830895AF92BF92CF92EF92FF920F935F
:102A30001F93CF93DF93EC01262F888D998D0097FC
:102A400009F040C06A3059F41D861C862C898E8599
:102A50009F8538E0239F800D911D112441C06D306A
:102A600009F4AAC08E898823C1F03C898C859D8594
:102A700046E0349F800D911D1124488559854817E3
:102A800059075CF41D861C868E859F8548E0349F1F
:102A9000800D911D11249F878E87EA88FB88088905
:102AA00019894E855F856C857D85CC88CE010E9415
:102AB0005B082C898C859D8536E0239F800D911DB8
:102AC000112442C06A3079F41D861C862C89FC01D1
:102AD0003696E4918E859F852E9F800D911D112441
:102AE0009F878E8769C06D3009F466C0FC013496FB
:102AF0003491631708F460C03196E491E61708F446
:102B00005BC0FC01329665917491422F50E0431BEB
:102B1000510937E0349F5001359FB00C1124A60EA7
:102B2000B71EF501329634913196E491332311F0BA
:102B3000E1110DC0F5013496E4912C898C859D85B9
:102B4000E29F800D911D11249D878C8735C0F50172
:102B5000359644915E89552311F16C89E32FF0E09D
:102B6000E40FF11D47FDFA956E9FD0016F9FB00DE8
:102B700011244C855D854A0F5B1FE885F985E417B4
:102B8000F5076CF41D861C86FC013696E4918E8553
:102B90009F856E9F800D911D11249F878E87EA88E7
:102BA000FB88088919894E855F856C857D85CC8871
:102BB000CE010E945B08BECF81E090E0DF91CF9113
:102BC0001F910F91FF90EF90CF90BF90AF9008951D
:102BD000CF93DF9390E0FC01E458FA4F2491FC017D
:102BE000E656FA4F8491882361F190E0880F991F8F
:102BF000FC01E35EF94FC591D491FC01E057FA4F17
:102C0000A591B491611109C09FB7F894888120956E
:102C100082238883EC912E230BC0623061F49FB72E
:102C2000F8948881322F309583238883EC912E2B62
:102C30002C939FBF06C08FB7F894E8812E2B288372
:102C40008FBFDF91CF9108958F929F92AF92BF92E5
:102C5000CF92DF92EF92FF926B017C010E942012D3
:102C60004B015C01C114D104E104F104F1F00E94B4
:102C70002012DC01CB0188199909AA09BB09883EF9
:102C80009340A105B10570F321E0C21AD108E10813
:102C9000F10888EE880E83E0981EA11CB11CC114B7
:102CA000D104E104F10419F7DDCFFF90EF90DF903C
:102CB000CF90BF90AF909F908F9008951F920F92EA
:102CC0000FB60F9211242F933F938F939F93AF933F
:102CD000BF938091350690913606A0913706B0914A
:102CE00038063091340623E0230F2D3720F4019667
:102CF000A11DB11D05C026E8230F0296A11DB11D1F
:102D0000209334068093350690933606A0933706B9
:102D1000B09338068091390690913A06A0913B060F
:102D2000B0913C060196A11DB11D80933906909388
:102D30003A06A0933B06B0933C06BF91AF919F919A
:102D40008F913F912F910F900FBE0F901F9018956C
:102D5000FC0181A187FF05C06EBD0DB407FEFDCF4C
:102D6000089588E090E020E8A4A1B5A1362F322391
:102D700021F046A53C91342B04C036A54C913095EA
:102D800034233C9330A9A0A5B1A54C9130953423B0
:102D90003C9340A9A0A5B1A53C91342B3C9326952A
:102DA000019711F708954F925F926F927F928F92E1
:102DB0009F92AF92BF92CF92DF92EF92FF920F93CA
:102DC0001F93CF93DF93EC016B01590148012885D4
:102DD0003985621773070CF067C08A859B85481791
:102DE00059070CF061C08B010A0D1B1DF8013197CA
:102DF000DA01A80DB91DBD0161507109F7FD54C07C
:102E000077FD52C0D7FE03C05801C12CD12C57FF0B
:102E100003C04D0140E050E0E217F3071CF05901F8
:102E2000AC18BD08681779071CF04C01841A950A84
:102E30009501D4010E9493243B01582E492EE8812C
:102E4000F98102A4F3A5E02D8401B601CE01099514
:102E50004301A52CB42C89A187FF13C081149104D0
:102E6000A104B10409F1FEBC0DB407FEFDCFEEBC18
:102E70000DB407FEFDCF81E0881A9108A108B108C2
:102E8000EDCF81149104A104B10471F06F2DCE0136
:102E90000E94A8166E2DCE010E94A81681E0881A05
:102EA0009108A108B108EDCFDF91CF911F910F914B
:102EB000FF90EF90DF90CF90BF90AF909F908F905A
:102EC0007F906F905F904F900895EF92FF920F93D5
:102ED0001F93CF93DF93EC0177FD33C088859985ED
:102EE0006817790774F557FD2CC08A859B854817AC
:102EF00059073CF5E32EF22EE881F98102A4F3A5EF
:102F0000E02D01E010E021E030E0CE01099589A13B
:102F100087FF09C0EEBC0DB407FEFDCFFEBC0DB4AB
:102F200007FEFDCF0EC06E2DCE010E94A8166F2D9C
:102F3000CE01DF91CF911F910F91FF90EF900C94F4
:102F4000A816DF91CF911F910F91FF90EF900895F8
:102F5000CF93DF93EC018AA9EAA5FBA59081809528
:102F600089238083CE010E94A8169AA9EAA5FBA511
:102F70008081892B8083DF91CF9108951F93CF9318
:102F8000DF93EC01162FE881F9810284F385E02DAF
:102F90000995112311F06BA901C06CA9CE010E9403
:102FA000A817E881F9810688F789E02DCE01DF9125
:102FB000CF911F910994CF93DF931F92CDB7DEB7C6
:102FC000F89410928000109281008EEE95E8909314
:102FD000C1058093C0059093850080938400809103
:102FE000810084608093810080916F008160809374
:102FF0006F007894789484B5826084BD84B58160D4
:1030000084BD85B5826085BD85B5816085BD8091B3
:103010006E00816080936E0010928100809181002B
:103020008260809381008091810081608093810023
:10303000809180008160809380008091B1008460E5
:103040008093B1008091B00081608093B000809146
:103050007A00846080937A0080917A008260809305
:103060007A0080917A00816080937A0080917A0062
:10307000806880937A001092C100E0915A03F09129
:103080005B0382E08083E0915603F0915703108246
:10309000E0915803F09159038FEC80831092620302
:1030A000E0915E03F0915F0386E08083E0915C0332
:1030B000F0915D03808180618083E0915C03F091F9
:1030C0005D03808188608083E0915C03F0915D0303
:1030D000808180688083E0915C03F0915D03808152
:1030E0008F7D808340E050E0BA0183EF93E00E943F
:1030F000D50D60E070E083EF93E00E94131487B178
:103100008C6087B94298439A64E670E080E090E072
:103110000E9424161092E9051092E80510922703E8
:10312000109249031092250321E02093240310926A
:10313000FF0261E082E10E94CD0A61E083E10E942A
:10314000CD0A8091B9008E7F8093B9008091B9003B
:103150008D7F8093B90088E48093B80085E48093E4
:10316000BC008EE29CE09093EB058093EA058FE231
:103170009CE09093ED058093EC0581E0809326031D
:1031800082E580934803109227031092490360E47C
:1031900087EE93E00E94880C60E087EE93E00E9447
:1031A000880C81E00E94F30583E090E00E941124E6
:1031B0000E94C91160E070E083EF93E00E94131455
:1031C00002E3602E712C88E2282E312C16E4412E69
:1031D000512CBB24B394809125038111FCCFB09274
:1031E0002503B09224038FEF8093230310922203D0
:1031F00085E080932103B092000380910003846AEC
:10320000809300038091FF02813061F41092FF02ED
:10321000809100038093BB008091BC0083FDF8CFB8
:1032200085EC01C085EE8093BC0080912503813040
:10323000E1F380912203863018F49091220301C0BB
:1032400096E0E1E0F3E0A8ECB5E080E0891721F03A
:1032500021912D938F5FFACF1092E9058093E805B5
:1032600002EC15E0B7E1FB2E9091E8058091E905AD
:10327000981751F087EE93E00E943F0C8F25895EEE
:10328000F80181938F01F0CFB092260382E58093FD
:103290004803109227031092490360E087EE93E001
:1032A0000E94880C81E00E94F3058091C30590E0A4
:1032B00090931901809318018091C20590E090933A
:1032C000FE028093FD02A3E0FA2E00EA10E0809156
:1032D000180190911901892B09F061C08091FD02BC
:1032E0009091FE02892B09F05AC08091C70581FD9B
:1032F00056C00E94ED0F019709F051C01092FC02D8
:103300001092FB02709200046092FF03309202045C
:10331000209201048FEF9FEF9093060480930504A1
:103320009093040480930304F092070481EB92E0ED
:103330000E948105709200046092FF035092020483
:103340004092010488EB92E00E9481057092000493
:103350006092FF03E4E6F0E0F0930204E0930104DE
:1033600080EC92E00E948105709200046092FF035D
:1033700082E890E0909302048093010489EC92E04B
:103380000E948105709200046092FF031093020472
:10339000009301048DEC92E00E94810598CF80910A
:1033A000FB029091FC02892B61F481E090E0909304
:1033B000FC028093FB0260E070E083EF93E00E94E8
:1033C0001314209116013091170180910001909102
:1033D00001012817390709F45AC060E070E083EF53
:1033E00093E00E941314809116019091170181308F
:1033F000910509F044C028E33FEF30931B0120936F
:103400001A011092BD051092BC0523E730E03093FD
:103410001F0120931E011092EF021092EE021092F3
:10342000F8021092F7021092ED021092EC02109244
:10343000BF051092BE0590930F0180930E0170920C
:103440000D0160920C0185E090E090931D01809346
:103450001C018AE090E090930B0180930A01109286
:10346000EB021092EA021092E9021092E802109226
:10347000F6021092F5021092F4020E94C911809196
:1034800016019091170190930101809300018091A2
:10349000160190911701019709F0DCC18EE190E0CF
:1034A000909300048093FF03309202042092010461
:1034B0008FEF9FEF9093060480930504909304048C
:1034C0008093030413E01093070488E791E00E94BF
:1034D00081058DE490E0909300048093FF03509267
:1034E000020440920104EFEFFFEFF0930604E09333
:1034F0000504F0930404E09303041093070483E8A5
:1035000091E00E9481058AE590E090930004809309
:10351000FF0382E890E09093020480930104EFEFB0
:10352000FFEFF0930604E0930504F0930404E093A6
:10353000030412E01093070489E891E00E948105DA
:1035400081E490E0909300048093FF0386E990E08B
:1035500090930204809301048FEF9FEF90930604F1
:10356000809305049093040480930304109307044C
:103570008FE891E00E94810587E490E09093000439
:103580008093FF038BEA90E0909302048093010400
:10359000EFEFFFEFF0930604E0930504F0930404CB
:1035A000E09303041093070489E991E00E948105E8
:1035B000509200044092FF038FEB90E0909302043E
:1035C000809301048FEF9FEF90930604809305048E
:1035D00090930404809303041093070482EA91E01B
:1035E0000E9481058FE190E090931101809310017A
:1035F00040E058EF63E171E082E390E00E94041242
:1036000040911001509111016BEE70E084EB90E05D
:103610000E94041280910401909105012091020101
:10362000309103018217930709F458C0019789F478
:10363000C12CD12CF8E8EF2EF12C07E310E02DE897
:1036400030E04DE250E063E870E08DE290E00E94EF
:103650004F068091040190910501029789F4C12CD5
:10366000D12CECE9EE2EF12C07E310E021EA30E05A
:103670004DE250E067E970E08DE290E00E944F0675
:103680008091040190910501039789F4C12CD12CFC
:1036900070EBE72EF12C07E310E025EB30E04DE274
:1036A00050E06BEA70E08DE290E00E944F0680915E
:1036B000040190910501049789F4C12CD12C64EC8C
:1036C000E62EF12C07E310E029EC30E04DE250E06B
:1036D0006FEB70E08DE290E00E944F068091020156
:1036E000909103010197E9F440EEC42E47E0D42EF7
:1036F00058E8E52EF12C07E310E02DE830E04DE22C
:1037000050E063E870E08DE290E00E944F060E9476
:10371000ED0F019731F482E090E0909317018093D0
:10372000160180910201909103010297E9F420EEC5
:10373000C22E27E0D22E3CE9E32EF12C07E310E065
:1037400021EA30E04DE250E067E970E08DE290E080
:103750000E944F060E94ED0F019731F483E090E044
:1037600090931701809316018091020190910301BB
:103770000397E9F480EEC82E87E0D82E90EBE92E6F
:10378000F12C07E310E025EB30E04DE250E06BEA6E
:1037900070E08DE290E00E944F060E94ED0F0197CD
:1037A00031F484E090E090931701809316018091AA
:1037B0000201909103010497E9F410EEC12E17E085
:1037C000D12E04ECE02EF12C07E310E029EC30E0E0
:1037D0004DE250E06FEB70E08DE290E00E944F060A
:1037E0000E94ED0F019731F486E090E0909317016D
:1037F000809316018091020190910301909305013D
:10380000809304019FEFE0E7F2E09150E040F04048
:10381000E1F700C000008091180190911901813AF0
:1038200091054CF080910201909103018230910545
:103830008CF001970BC08035910564F480910201F2
:1038400090910301843091052CF40196909303012B
:10385000809302018091160190911701029709F05F
:10386000F7C2409110015091110163E171E0809124
:10387000FD029091FE020E94021080910E01909133
:103880000F018133910509F460C0880F991FFC0175
:10389000EC50FB4FC080D180FC01E45DFB4F808089
:1038A000918040911A0150911B014C195D09BAEBAE
:1038B000EB2EB6EDFB2E86019601B40183EF93E06B
:1038C0000E94451200910A0110910B0140911A01CA
:1038D00050911B014C195D09401B510BE12CF12C3F
:1038E0009601B40183EF93E00E94451226EBC21AC1
:1038F0002EEFD20A80911A0190911B01C816D906A9
:1039000024F52091BC053091BD0580910601909170
:10391000070182179307CCF480910E0190910F015B
:10392000019690930F0180930E010AE010E022E3CC
:1039300030E040E050E068EC70E083EF93E00E94FC
:10394000451210921B0110921A0180910C01909166
:103950000D01880F991FFC01EC50FB4FC080D180F6
:10396000FC01E45DFB4F8080918080911A01909171
:103970001B01803A910534F081E090E09093BF05FF
:103980008093BE058091BE059091BF05019709F017
:103990005CC04091BC055091BD05EE24EA94E7E07F
:1039A000FE2E86019601B40183EF93E00E9445123A
:1039B00000910A0110910B014091BC055091BD0589
:1039C000401B510BE12CF12C9601B40183EF93E0E5
:1039D0000E94451286EBC81A8EEFD80A8091BC056A
:1039E0009091BD05C816D90684F520911A01309131
:1039F0001B018091060190910701821793072CF516
:103A000080910C0190910D01019690930D0180938E
:103A10000C010AE010E022E330E040E050E068EC06
:103A200070E083EF93E00E9445121092BD05109262
:103A3000BC050E940C2464E170E00E947F248C5439
:103A40009F4F909307018093060180910C01909104
:103A50000D0184369105A1F410920F0110920E0110
:103A600070920D0160920C018091EC029091ED0238
:103A70008C599F4F9093ED028093EC020E94C911E4
:103A80008091F7029091F80289319105ECF124E0E0
:103A900030E030931D0120931C0123E130E030938E
:103AA0000B0120930A0121E030E0309309012093BB
:103AB00008018233910544F143E050E050931D0129
:103AC00040931C0146E150E050930B0140930A01E2
:103AD0008B349105CCF042E050E050931D014093AF
:103AE0001C0149E150E050930B0140930A018D37CE
:103AF000910554F030931D0120931C0123E230E026
:103B000030930B0120930A012091EA023091EB02DD
:103B1000232B09F0C2C020910E0130910F01220F1A
:103B2000331FF901E45DFB4F40815181F901EC50F5
:103B3000FB4F60817181640F751F20911E013091D0
:103B40001F01D9011F976A177B0704F1F9013E97FE
:103B50004E175F07DCF4E0911A01F0911B01E95068
:103B6000F140759798F4E1E0F0E0F093EB02E09318
:103B7000EA029093E9028093E802E091EE02F0916C
:103B8000EF023196F093EF02E093EE028901025FBB
:103B90001F4F061717071CF5B901615F7F4F6417A8
:103BA0007507ECF040911A0150911B0149505140AA
:103BB00045315105A0F441E050E05093EB024093B1
:103BC000EA029093E9028093E8024091EE0250915C
:103BD000EF024F5F5F4F5093EF024093EE02409130
:103BE0000C0150910D01440F551FBA01645D7B4FCC
:103BF000FB01608171814C505B4FFA014081518122
:103C0000460F571F4A175B0704F1D9011E976A1721
:103C10007B07DCF4A091BC05B091BD05A950B14073
:103C2000559798F4A1E0B0E0B093EB02A093EA02BC
:103C30009093E9028093E802A091EE02B091EF0226
:103C40001196B093EF02A093EE02041715070CF53E
:103C5000215F3F4F26173707E4F02091BC053091D4
:103C6000BD05295031402531310598F421E030E07F
:103C70003093EB022093EA029093E9028093E802EA
:103C80008091EE029091EF0201969093EF02809363
:103C9000EE021092E7021092E602C090EA02D09083
:103CA000EB02F1E0CF16D10439F58091E602909154
:103CB000E702892B09F580910A0190910B01039687
:103CC00090930B0180930A01E12CF12C0AE010E0A3
:103CD00020EA30E040E050E060E070E083EF93E005
:103CE0000E9445128FEF9FEF909311018093100176
:103CF000D092E702C092E6028091EA029091EB0234
:103D00000197D9F42091E8023091E90280910801ED
:103D100090910901820F931F2091F7023091F802D0
:103D20008217930754F41092EB021092EA028FE18B
:103D300090E0909311018093100110920004109272
:103D4000FF031092020410920104EFEFFFEFF093D3
:103D50000604E0930504F0930404E0930304B09296
:103D600007048BE592E00E94F10508E210E0BAE05A
:103D7000FB2E20911401309115018091EE0290915B
:103D8000EF02281B390BF29EC001F39E900D112407
:103D90008796801791077CF0003A110561F020E0CA
:103DA00038EF43E050E064E070E0C8010E944B054A
:103DB000065F1F4FDECF80EA90E09093000480936F
:103DC000FF0310920204109201048BEA91E00E941A
:103DD000F10560910C0170910D01625371098091A0
:103DE0000E0190910F01680F791F8091EC02909164
:103DF000ED02680F791F7093F8026093F702072EA7
:103E0000000C880B990B97FF03C00E94D00503C0DC
:103E10004AE00E948F058091140190911501209134
:103E2000EE023091EF02821B930B1816190634F044
:103E300085E090E090931701809316018091C7056B
:103E400081FD06C081E090E09093170180931601F8
:103E50008091160190911701039709F098C08EE1A7
:103E600090E0909300048093FF033092020420922C
:103E700001048FEF9FEF90930604809305049093C5
:103E8000040480930304A3E0FA2EF092070483EB6A
:103E900091E00E9481050CE310E010930004009370
:103EA000FF038AE590E09093020480930104EFEF12
:103EB000FFEFF0930604E0930504F0930404E0930D
:103EC0000304F09207048EEB91E00E94F10580E07C
:103ED00090E00E94F30F0E944808109300040093A2
:103EE000FF0388E790E0909302048093010483EC41
:103EF00091E00E94F10581E090E00E94F30F0E94A2
:103F00004808109300040093FF0386E990E0909323
:103F100002048093010488EC91E00E94F10582E0A4
:103F200090E00E94F30F0E94480810930004009351
:103F3000FF0384EB90E090930204809301048DECE6
:103F400091E00E94F10583E090E00E94F30F0E944F
:103F50004808109300040093FF0382ED90E09093D3
:103F600002048093010482ED91E00E94F10584E057
:103F700090E00E94F30F0E9448088091C70581FDE0
:103F800006C081E090E09093170180931601809124
:103F9000160190911701049709F0CDC00EE110E0D1
:103FA000109300040093FF03309202042092010456
:103FB0008FEF9FEF90930604809305049093040481
:103FC0008093030483E08093070487ED91E00E94CF
:103FD0008105109300040093FF0380E590E0909327
:103FE000020480930104EFEFFFEFF0930604E093E7
:103FF0000504F0930404E0930304F2E0FF2EF09232
:10400000070480EE91E00E94810510930004009364
:10401000FF0384E690E09093020480930104EFEFA5
:10402000FFEFF0930604E0930504F0930404E0939B
:104030000304F092070482EF91E00E94810510933F
:1040400000040093FF0388E790E0909302048093BC
:10405000010440E058EF60EA70E08091FD02909129
:10406000FE020E9402108FEF9FEF90930604809350
:1040700005049093040480930304F092070481E004
:1040800092E00E948105109300040093FF038EEBE1
:1040900090E09093020480930104EFEFFFEFF09320
:1040A0000604E0930504F0930404E0930304F09203
:1040B000070487E092E00E948105109300040093BA
:1040C000FF0382ED90E090930204809301048FEF50
:1040D0009FEF9093060480930504909304048093CB
:1040E0000304F092070485E192E00E948105109399
:1040F00000040093FF0386EE90E090930204809307
:104100000104EFEFFFEFF0930604E0930504F09352
:104110000404E0930304F092070481E292E00E9419
:1041200081058091C70581FD06C081E090E09093F4
:104130001701809316018091160190911701059740
:1041400009F068C0309200042092FF0350920204EC
:10415000409201048FEF9FEF909306048093050433
:10416000909304048093030483E0809307048CE21B
:1041700092E00E948105509200044092FF0380EA81
:1041800090E0909302048093010482E080930704FE
:104190008BEA91E00E94F1058091F7029091F8027C
:1041A0000E943008E2E8F0E0F0930004E093FF039F
:1041B0008CE291E09093020480930104B092070492
:1041C00086E392E00E94810580911401909115018F
:1041D0000497B4F4E8EC8E2E912C0091F502109126
:1041E000F6020530110564F4C8010E94F30FE09057
:1041F000F702F090F80290E08E159F0509F061C17A
:104200008091C70581FD06C081E090E09093170181
:10421000809316018091160190911701069711F075
:104220000C94EB180EE110E0109300040093FF03D0
:1042300088E290E09093020480930104EFEFFFEF97
:10424000F0930604E0930504F0930404E093030460
:1042500083E08093070489E492E00E948105109333
:1042600000040093FF0380E590E0909302048093A4
:10427000010482E08093070482E592E00E948105B8
:10428000109300040093FF0384E690E090930204EF
:104290008093010481E692E00E9481058091FD02F5
:1042A0009091FE02813A91053CF081E090E090937C
:1042B000FA028093F90207C08634910524F4109223
:1042C000FA021092F9028091F9029091FA0282307A
:1042D0009105F9F4CC24CA94DC2C78E8E72EF12C73
:1042E00000E510E02DE830E04AE550E063E870E0DA
:1042F0008AE590E00E944F0606E910E02DE830E0E4
:104300004CE850E063E870E08CE890E00E944F06D3
:1043100074C081309105D1F5CC24CA94DC2C48E8D6
:10432000E42EF12C00E510E02DE830E04AE550E005
:1043300063E870E08AE590E00E944F0650EEC52EDB
:1043400057E0D52E06E910E02DE830E04CE850E0CB
:1043500063E870E08CE890E00E944F060E94ED0F49
:104360006C0191E0C916D10409F047C08091140195
:10437000909115018336910509F43FC020911201F7
:1043800030911301232B09F401C137C0892BA9F502
:1043900080EEC82E87E0D82E98E8E92EF12C00E5B3
:1043A00010E02DE830E04AE550E063E870E08AE58F
:1043B00090E00E944F06CC24CA94DC2C06E910E061
:1043C0002DE830E04CE850E063E870E08CE890E0E5
:1043D0000E944F060E94ED0F6C01019771F48091CD
:1043E0001401909115018130910539F0209112014D
:1043F00030911301232B09F4CBC089E690E0909310
:1044000000048093FF0383E890E09093020480937C
:10441000010480911401909115010E94300880914F
:10442000140190911501049714F181E08093070421
:1044300004E110E0109300040093FF0380EA90E091
:1044400090930204809301048EE692E00E9481051D
:10445000109300040093FF038AEA90E09093020413
:104460008093010483E992E00E9481050EC0E12C53
:10447000F12C04E110E020EF30E04FE950E06AE079
:1044800070E083EF93E00E9445120E94ED0F892BAC
:1044900021F410921301109212018091C70581FF3F
:1044A00002C00C94E91882E090E09093FA028093A5
:1044B000F90281E090E090931701809316010C942B
:1044C000E618C8010E94F30F90E08E159F0524F4B2
:1044D0008091F402882351F08091F5029091F602C8
:1044E00001969093F6028093F50277CE3092000405
:1044F0002092FF03909202048092010492E0909334
:10450000070483ED92E00E9481050091F50210916D
:10451000F6027801EFEFEE1AFE0AC7010E94F30FD0
:10452000898390E09093F3028093F2026801F2E0B5
:10453000CF0ED11CC6010E94F30FA82E90E09093DD
:10454000F1028093F002C8010E94F30F682FC701A7
:104550000E94FA0F780123E0E20EF11CC7010E94CD
:10456000F30F682FC80104960E94FA0F6091F702BA
:10457000C8010E94FA0F6981C6010E94FA0F6A2DD4
:10458000C7010E94FA0FB092F402A6CF019601C0B3
:1045900001979093150180931401E12CF12C0FE009
:1045A00010E022E330E043E850E06FE570E083EF95
:1045B00093E00E944512D0921301C09212011DCFC8
:1045C000EAE4F3E01382128288EE93E0A0E0B0E028
:1045D00084839583A683B78328E231E031832083E7
:1045E00025EC30E03587248724EC30E037872687B8
:1045F00020EC30E0318B208B21EC30E0338B228BB0
:1046000022EC30E0358B248B26EC30E0378B268B88
:10461000118E128E138E148EE7EEF3E01382128247
:1046200084839583A683B7838AE391E09183808313
:10463000A3EFB3E013961C921E92129720EF30E086
:1046400015963C932E93149780E491E017969C93D3
:104650008E93169719963C932E9318971B969C93BE
:104660008E931A9755961C9255971D961C921E92E2
:104670001C971F961C921E921E9781E054968C9355
:1046800054972FEF3FEF53963C932E9352975196AA
:104690003C932E93509756968C93569757961C9210
:1046A000579759961C921E925897D3961C92D3975F
:1046B000D4961C92D497D6961C921E92D597D896D3
:1046C0001C921E92D7978AE05E968C935E9789E043
:1046D0005F968C935F978FEF90968C9390979196BF
:1046E0008C93919792968C93929793968C939397A1
:1046F0005A961D921D921D921C925D9799961C923E
:104700001E929897D0961C92D09795961C921E92C6
:1047100094979E961C929E9797961C921E9296979F
:104720009F961C929F97E3EAF5E0E491F0E0EE0F8C
:10473000FF1FE057FA4F859194919B969C938E931F
:104740009A97E5E8F5E0E491D296EC93D297E4EA03
:10475000F5E0E491F0E0EE0FFF1FE057FA4F85918E
:1047600094919D969C938E939C97E6E8F5E0E49156
:10477000D196EC93D1978CE491E08D939C9308951E
:104780008F929F92AF92BF92CF92DF92EF92FF9261
:10479000CF93DF93EC01688179818A819B816115D8
:1047A00071058105910521F464E279ED8BE597E0CF
:1047B0002DE133EF41E050E00E941C2449015A01F1
:1047C0009B01AC01A7EAB1E40E943B246B017C0190
:1047D000ACEEB4EFA50194010E944924DC01CB01A9
:1047E0008C0D9D1DAE1DBF1DB7FF03C00197A10914
:1047F000B04888839983AA83BB839F77DF91CF9149
:10480000FF90EF90DF90CF90BF90AF909F908F90F0
:1048100008950E94C023089580E291E00E94C02381
:104820000895A0E0B0E08093200190932101A0932F
:104830002201B09323010895052E97FB1EF40094E6
:104840000E94332457FD07D00E944E2407FC03D05A
:104850004EF40C94332450954095309521953F4F5C
:104860004F4F5F4F089590958095709561957F4F5C
:104870008F4F9F4F08950E947024A59F900DB49F65
:10488000900DA49F800D911D11240895B7FF0C94E5
:104890003B240E943B24821B930B0895A1E21A2E15
:1048A000AA1BBB1BFD010DC0AA1FBB1FEE1FFF1FD4
:1048B000A217B307E407F50720F0A21BB30BE40B24
:1048C000F50B661F771F881F991F1A9469F760956B
:1048D0007095809590959B01AC01BD01CF01089525
:1048E000A29FB001B39FC001A39F700D811D112431
:1048F000911DB29F700D811D1124911D089597FB8C
:10490000072E16F4009407D077FD09D00E94A22448
:1049100007FC05D03EF4909581959F4F08957095C2
:1049200061957F4F08950E947024332312F48A1BEF
:104930009B0B0C949D240E947024B7FF0895821B4A
:10494000930B0895AA1BBB1B51E107C0AA1FBB1FF5
:10495000A617B70710F0A61BB70B881F991F5A950B
:10496000A9F780959095BC01CD010895EE0FFF1F2A
:104970000590F491E02D099481E090E0F8940C9476
:06498000C124F894FFCFF2
:10498600010001000200B40001000A00320001002B
:104996001F00010003000100130138FF050073002A
:1049A6000100000000000000C8033F03690315046E
:1049B6009A0378038C0300000000880C5B0CB80C8B
:1049C6001A0B530C3F0C300C0000000012153F036D
:1049D600B80CB70CD612E7146517D31614130113C7
:1049E6004A0B2813890DBB0CA71278124512131413
:1049F600A6134713D50DD80C4573636170652074F3
:104A0600686500424C4F434B005374617274004812
:104A160069676873636F726500436F6E74726F6C5B
:104A2600730053657474696E67730073636F7265A0
:104A36003A20004849474853434F52455300313ABC
:104A4600202000323A202000333A202000343A2039
:104A56002000353A202000434F4E54524F4C53000D
:104A66004D6F766520746865206A6F797374696323
:104A76006B00746F20676F206C65667420616E64CE
:104A860000726967687400507265737320432074FE
:104A96006F20676F006261636B20746F20746865B6
:104AA60000686F6D6573637265656E0047414D45BD
:104AB600204F564552007072657373206320746FE1
:104AC60020676F206261636B0053455454494E471B
:104AD6005300486F77206D616E79206C6976657337
:104AE60000646F20796F752077616E743F004966A8
:104AF60020796F75207374617274207769746820E9
:104B06006D6F7265207468616E2033206C697665FE
:104B1600732C00796F7572206869676873636F72AA
:104B26006520776F6E2774206265207361766564F1
:104B360000504C4541534500434F4E4E45435400AB
:104B46004E554E434855434B00414E440052455343
:104B56004554004E6577204869676873636F7265D0
:064B660021000D0A000011
:107E0000112484B714BE81FFF0D085E080938100F7
:107E100082E08093C00088E18093C10086E0809377
:107E2000C20080E18093C4008EE0C9D0259A86E02C
:107E300020E33CEF91E0309385002093840096BBD3
:107E4000B09BFECF1D9AA8958150A9F7CC24DD24C4
:107E500088248394B5E0AB2EA1E19A2EF3E0BF2EE7
:107E6000A2D0813461F49FD0082FAFD0023811F036
:107E7000013811F484E001C083E08DD089C08234E0
:107E800011F484E103C0853419F485E0A6D080C0E4
:107E9000853579F488D0E82EFF2485D0082F10E0AE
:107EA000102F00270E291F29000F111F8ED06801E7
:107EB0006FC0863521F484E090D080E0DECF843638
:107EC00009F040C070D06FD0082F6DD080E0C81688
:107ED00080E7D80618F4F601B7BEE895C0E0D1E017
:107EE00062D089930C17E1F7F0E0CF16F0E7DF06D8
:107EF00018F0F601B7BEE89568D007B600FCFDCFD4
:107F0000A601A0E0B1E02C9130E011968C91119780
:107F100090E0982F8827822B932B1296FA010C0160
:107F200087BEE89511244E5F5F4FF1E0A038BF0790
:107F300051F7F601A7BEE89507B600FCFDCF97BE46
:107F4000E89526C08437B1F42ED02DD0F82E2BD052
:107F50003CD0F601EF2C8F010F5F1F4F84911BD097
:107F6000EA94F801C1F70894C11CD11CFA94CF0C13
:107F7000D11C0EC0853739F428D08EE10CD085E9AC
:107F80000AD08FE07ACF813511F488E018D01DD067
:107F900080E101D065CF982F8091C00085FFFCCF94
:107FA0009093C60008958091C00087FFFCCF809118
:107FB000C00084FD01C0A8958091C6000895E0E648
:107FC000F0E098E1908380830895EDDF803219F02E
:107FD00088E0F5DFFFCF84E1DECF1F93182FE3DFCA
:107FE0001150E9F7F2DF1F91089580E0E8DFEE27F6
:047FF000FF270994CA
:027FFE00040479
:0400000300007E007B
:00000001FF