:100000000C9415030C943D030C943D030C943D0398
:100010000C943D030C943D030C943D030C943D0360
:100020000C943D030C943D030C943D030C943D0350
:100030000C943D030C94B0090C943D030C943D03C7
:100040000C9489180C943D030C94CC130C94A613B7
:100050000C943D030C943D030C943D030C943D0320
:100060000C94E4060C943D03EF03038002CF0300DD
:10007000C130ED0464031281E803850078CB0539B3
:100080002C003402F70120EA020000C00123C10164
:1000900010C5023E28C701863601483701003A01E3
:1000A00055B1020018B603088227F20100260101AB
:1000B000E00F0F312B0C0E084EF1370710030E091D
:1000C00000E10F000E1403110731C148080F0C3175
:1000D000360F118029800000000008000201000096
:1000E0000304070000000000000000000000000002
:1000F0003E5B4F5B3E3E6B4F6B3E1C3E7C3E1C1896
:100100003C7E3C181C577D571C1C5E7F5E1C0018F3
:100110003C1800FFE7C3E7FF0018241800FFE7DBE7
:10012000E7FF30483A060E2629792926407F050543
:1001300007407F05253F5A3CE73C5A7F3E1C1C0880
:10014000081C1C3E7F14227F22145F5F005F5F0645
:10015000097F017F006689956A606060606094A293
:10016000FFA29408047E040810207E201008082AAC
:100170001C08081C2A08081E101010100C1E0C1E4B
:100180000C30383E3830060E3E0E060000000000EF
:1001900000005F00000007000700147F147F142494
:1001A0002A7F2A1223130864623649562050000819
:1001B000070300001C2241000041221C002A1C7F72
:1001C0001C2A08083E08080080703000080808084B
:1001D00008000060600020100804023E5149453EBE
:1001E00000427F400072494949462141494D331838
:1001F00014127F1027454545393C4A494931412170
:100200001109073649494936464949291E00001453
:10021000000000403400000008142241141414149B
:1002200014004122140802015909063E415D594E4D
:100230007C1211127C7F494949363E414141227F5F
:100240004141413E7F494949417F090909013E41F8
:100250004151737F0808087F00417F4100204041E1
:100260003F017F081422417F404040407F021C0232
:100270007F7F0408107F3E4141413E7F0909090606
:100280003E4151215E7F09192946264949493203D9
:10029000017F01033F4040403F1F2040201F3F405F
:1002A00038403F6314081463030478040361594918
:1002B0004D43007F4141410204081020004141416B
:1002C0007F04020102044040404040000307080050
:1002D00020545478407F28444438384444442838D3
:1002E0004444287F385454541800087E090218A446
:1002F000A49C787F0804047800447D40002040409E
:100300003D007F1028440000417F40007C047804B9
:10031000787C080404783844444438FC18242418B1
:1003200018242418FC7C0804040848545454240459
:10033000043F44243C4040207C1C2040201C3C4086
:1003400030403C44281028444C9090907C446454A5
:100350004C44000836410000007700000041360898
:100360000002010204023C2623263C1EA1A16112C8
:100370003A4040207A3854545559215555794122F4
:1003800054547842215554784020545579400C1EDD
:100390005272123955555559395454545939555486
:1003A00054580000457C410002457D420001457CD7
:1003B000407D1211127DF0282528F07C545545000F
:1003C0002054547C547C0A097F4932494949323AC5
:1003D0004444443A324A4848303A4141217A3A4208
:1003E000402078009DA0A07D3D4242423D3D4040DE
:1003F000403D3C24FF2424487E4943662B2FFC2F9C
:100400002BFF0929F620C0887E0903205454794126
:100410000000447D413048484A32384040227A004A
:100420007A0A0A727D0D19317D2629292F2826295D
:1004300029292630484D40203808080808080808AF
:1004400008382F10C8ACBA2F102834FA00007B00EF
:100450000008142A142222142A14085500550055A5
:10046000AA55AA55AAFF55FF55FF000000FF00102E
:100470001010FF00141414FF001010FF00FF1010E4
:10048000F010F0141414FC001414F700FF0000FF27
:1004900000FF1414F404FC141417101F10101F1084
:1004A0001F1414141F00101010F0000000001F1083
:1004B0001010101F10101010F010000000FF10108E
:1004C00010101010101010FF10000000FF1400009A
:1004D000FF00FF00001F10170000FC04F4141417A5
:1004E00010171414F404F40000FF00F7141414148B
:1004F000141414F700F7141414171410101F101FFD
:10050000141414F4141010F010F000001F101F0049
:1005100000001F14000000FC140000F010F0101088
:10052000FF10FF141414FF141010101F000000001F
:10053000F010FFFFFFFFFFF0F0F0F0F0FFFFFF0013
:1005400000000000FFFF0F0F0F0F0F384444384426
:10055000FC4A4A4A347E02020606027E027E02639A
:10056000554941633844443C04407E201E20060225
:100570007E020299A5E7A5991C2A492A1C4C720102
:10058000724C304A4D4D303048784830BC625A4643
:100590003D3E494949007E0101017E2A2A2A2A2A34
:1005A00044445F444440514A444040444A5140001E
:1005B00000FF0103E080FF000008086B6B083612A3
:1005C000362436060F090F06000018180000001028
:1005D00010003040FF0101001F01011E00191D170E
:1005E00012003C3C3C3C00000000000102040810EA
:1005F000204080010204081020010204081020009D
:10060000000000250028002B000404040404040456
:1006100004020202020202030303030303000000B8
:1006200000240027002A0000412711241FBECFEF1D
:10063000D8E0DEBFCDBF12E0A0E0B1E0E8E4F2E533
:1006400002C005900D92A03FB107D9F725E0A0EFB9
:10065000B2E001C01D92A932B207E1F713E0C5E193
:10066000D3E004C02197FE010E941729C431D107AD
:10067000C9F70E94221A0C9422290C9400000895B4
:10068000EF92FF920F931F93DC01ED91FC9100A07C
:10069000F1A1E02D09951F910F91FF90EF90089522
:1006A0000F931F93DC01ED91FC91068CF78DE02DEB
:1006B00009951F910F9108950F931F93DC01ED9100
:1006C000FC91048CF58DE02D09951F910F910895F3
:1006D000DC01ED91FC910084F185E02D09942F92CD
:1006E0003F924F925F926F927F928F929F92AF92C2
:1006F000BF92CF92DF92EF92FF920F931F93CF930F
:10070000DF9300D000D000D0CDB7DEB72C017E83C0
:100710006D836A015901C801FC82EB824801841A89
:10072000950A97FE03C091948194910835012D811B
:100730003E81621A730A77FE03C071946194710856
:10074000681479045CF43A2D2B2D5C01832F922FD1
:100750003D812E81DE82CD82C32ED22EAD81BE811F
:10076000AA16BB065CF43C2D2D2D6C01832F922F15
:100770003D812E81BE82AD82A32EB22E85012D81B8
:100780003E81021B130B1C012C183D0837FE03C0D1
:10079000319421943108780117FF03C03FEFE31A29
:1007A000F30AF594E794C816D9062CF08FEF9FEF63
:1007B0009A83898304C0A1E0B0E0BA83A9832D8124
:1007C0003E81A216B30624F1D201ED91FC9104847E
:1007D000F585E02D2B813C816814790424F44D814A
:1007E0005E81B60103C0A6016D817E81C2010995BB
:1007F000E218F308F7FE06C029813A81C20ED31E23
:10080000E00EF11E8D819E8101969E838D83D7CF50
:1008100026960FB6F894DEBF0FBECDBFDF91CF9105
:100820001F910F91FF90EF90DF90CF90BF90AF900E
:100830009F908F907F906F905F904F903F902F9000
:10084000089585ED8093BC008091BC0084FDFCCFB1
:100850001092190408954091CF03262F30E0240F01
:10086000311D21323105DCF4209119042430C9F402
:10087000FC0180E090E0861758F43091CF0321917D
:10088000DC01A155BC4FA30FB11D2C930196F3CFF2
:100890008091CF03680F6093CF0380E0089581E0DB
:1008A000089582E0089508950895E091A603809147
:1008B000A503E81730F4F0E0EB57FC4F808190E09F
:1008C00008958FEF9FEF08959091A6038091A5035F
:1008D000981750F4E92FF0E0EB57FC4F208130E0FF
:1008E0009F5F9093A60302C02FEF3FEFC9010895C9
:1008F0008091A50390E02091A603821B91090895A1
:10090000CF92DF92EF92FF920F931F93CF93DF93DB
:100910007C01CB018A0120911A04222389F0EB018A
:100920006B01C40ED51ECC15DD0569F06991D701A8
:10093000ED91FC910190F081E02DC7010995F3CF75
:10094000642F0E942B04C801DF91CF911F910F915A
:10095000FF90EF90DF90CF900895CF93DF931F9299
:10096000CDB7DEB7698320911A042223D1F02091FC
:100970003D04203240F021E030E0FC01338322834B
:1009800080E090E015C080911B04E82FF0E0E45E69
:10099000FB4F998190838F5F80931B0480933D046C
:1009A00005C061E0CE0101960E942B0481E090E039
:1009B0000F90DF91CF910895089580E090E0089521
:1009C0001F93CF93DF93EC01162FE881F981028406
:1009D000F385E02D0995111102C060E201C061E2CA
:1009E000CE010E94D319E881F9810688F789E02DAC
:1009F000CE01DF91CF911F9109948F929F92AF9278
:100A0000BF92CF92DF92EF92FF920F931F93CF93FB
:100A1000DF93EC01490181E0881A9108860E971E48
:100A2000C401A0E0B0E04B01A12CB12C54019924E9
:100A30008824882A992AAA2ABB2A680181E0C81A30
:100A4000D108C40ED51EC601A0E0B0E06A01E12CB9
:100A5000F12C7601DD24CC24C82AD92AEA2AFB2AE3
:100A60006AE2CE010E94D31929A16B2D772788272E
:100A7000992727FF18C06EBD0DB407FEFDCFC50135
:100A8000AA27BB278EBD0DB407FEFDCFBB27AB2D1C
:100A90009A2D892D8EBD0DB407FEFDCF8EBC0DB4F1
:100AA00007FEFDCF14C0CE010E94D318B5018827E0
:100AB0009927CE010E94D31899278B2D7A2D692D65
:100AC000CE010E94D318682DCE010E94D3186BE28C
:100AD000CE010E94D31929A16F2D77278827992746
:100AE00027FF18C06EBD0DB407FEFDCFC701AA27B2
:100AF000BB278EBD0DB407FEFDCFBB27AF2D9E2DAE
:100B00008D2D8EBD0DB407FEFDCFCEBC0DB407FEFE
:100B1000FDCF14C0CE010E94D318B70188279927B2
:100B2000CE010E94D31899278F2D7E2D6D2DCE01D9
:100B30000E94D3186C2DCE010E94D3186CE2CE0116
:100B4000DF91CF911F910F91FF90EF90DF90CF90A9
:100B5000BF90AF909F908F900C94D3191F93CF9319
:100B6000DF93EC0163706D8B6230C1F0633001F193
:100B7000613051F080EF90E09987888780E491E0C0
:100B80009B878A8718E41DC080E491E09987888755
:100B900080EF90E09B878A8718E213C080EF90E097
:100BA0009987888780E491E09B878A8718E809C045
:100BB00080E491E09987888780EF90E09B878A871F
:100BC00018EEE881F9810284F385E02DCE010995C4
:100BD00066E3CE010E94D319612FCE010E94D31883
:100BE000E881F9810688F789E02DCE01DF91CF9168
:100BF0001F910994BF92CF92DF92EF92FF920F93D1
:100C00001F93CF93DF93EC014115510561057105E9
:100C100021F440E052E16AE770E04A8F5B8F6C8F0D
:100C20007D8F8E8D87FD07C061E00E94131861E003
:100C30008E8D0E94FE1361E08F8D0E94131860E07C
:100C40008F8D0E94FE1389A187FD19C061E08AA1E2
:100C50000E94131860E08AA10E94FE1361E089A13E
:100C60000E94131861E089A10E94FE138BA187FDE9
:100C700003C060E00E94131889A187FF33C01FB72B
:100C8000F8948091F203811127C0E3E1F6E08491AA
:100C9000E5EFF5E09491E82FF0E0EE0FFF1FE35E43
:100CA000F94FA591B491EC91E92321F461E08AE038
:100CB0000E94FE1361E08AE00E9413188CB58061E7
:100CC0008CBD8CB580648CBD61E08DE00E941318F2
:100CD00061E08BE00E9413188091F2038F5F809394
:100CE000F2031FBF88A187FD21C061E00E94131895
:100CF00061E088A10E94FE1364E670E080E090E06D
:100D00000E944F1860E088A10E94FE1364E670E024
:100D100080E090E00E944F1861E088A10E94FE13DD
:100D200068EC70E080E090E00E944F18E881F98163
:100D30000284F385E02DCE01099508E610E07801E4
:100D40008FEFE81AF80AF8016491662321F1CE01C9
:100D50000E94D3190E5F1F4FF701E490FE2DFF771D
:100D6000BF2E6801FF2EFA948FEFF81649F0F601B6
:100D70006491CE010E94D318FFEFCF1ADF0AF3CFA0
:100D80000B0D111DE7FEDBCF68E770E080E090E01F
:100D90000E944F18D4CFE881F9810688F789E02DA9
:100DA000CE01099580EF90E09987888780E491E0F3
:100DB0009B878A87DF91CF911F910F91FF90EF90D2
:100DC000DF90CF90BF9008951F920F920FB60F92B1
:100DD00011242F933F934F935F936F937F938F9340
:100DE0009F93AF93BF93EF93FF938091B900887F58
:100DF000803609F49CC068F5883209F45BC090F431
:100E0000803109F454C038F4882309F4F6C08830DE
:100E100009F44DC0F6C0883109F44CC0803209F4A1
:100E20005DC0EFC0803409F468C048F4803309F431
:100E300055C0883309F0E5C080931704D8C08035C9
:100E400009F44FC0883509F45DC0883409F0D9C071
:100E5000D6C0883909F4C7C0A8F4883709F467C038
:100E600038F4883609F463C0803709F460C0C9C01B
:100E7000883809F4B8C0803909F45FC0803809F0B7
:100E8000C0C05BC0803B09F486C038F4803A09F4E6
:100E900066C0883A09F47FC0B4C0803C09F4A7C09A
:100EA000883C09F4A4C0883B09F48AC0AAC0809198
:100EB000F40310C09091160480911504981770F5F2
:100EC000E091160481E08E0F80931604F0E0EB5061
:100ED000FC4F80818093BB0085EC86C08093170413
:100EE0008EC0E091160481E08E0F809316048091ED
:100EF000BB00F0E0EB50FC4F808390911604809192
:100F000015046EC0E091160481E08E0F80931604E4
:100F10008091BB00F0E0EB50FC4F8083809118047F
:100F200081116DC081E08093F30384EA61C083E0A6
:100F3000809319041092F103CFCF8091F103803296
:100F400008F051C0E091F10381E08E0F8093F1032E
:100F50008091BB00F0E0EF52FC4F8083BDCF85EC69
:100F60008093BC00109219048091F103803230F418
:100F7000E091F103F0E0EF52FC4F10826091F10339
:100F800070E0E091A903F091AA0381ED93E0099547
:100F90001092F10336C084E0809319041092D003BC
:100FA0001092CF03E091A703F091A80309958091D7
:100FB000CF03811105C081E08093CF031092AF036E
:100FC000E091D00381E08E0F8093D003F0E0E155F3
:100FD000FC4F80818093BB009091D0038091CF0320
:100FE000981708F479CF85E88093BC000AC085EC97
:100FF0008093BC001092190404C0109217040E9440
:101000002104FF91EF91BF91AF919F918F917F91BB
:101010006F915F914F913F912F910F900FBE0F9065
:101020001F90189580916D038095817090E00895D0
:10103000F999FECF92BD81BDF89A80B50895F999CE
:10104000FECF92BD81BD60BDFA9AF99A08952F92A4
:101050003F924F925F926F927F928F929F92AF9248
:10106000BF92CF92DF92EF92FF920F931F93CF9395
:10107000DF9300D000D0CDB7DEB77C836B835A01FD
:1010800020912401309125018D38910554F0213EA5
:101090003105BCF48091180190911901280F391F76
:1010A0000CC08A3591056CF42031310554F08091E3
:1010B000180190911901281B390B309325012093B9
:1010C000240195014AE050E06B817C8180912401EC
:1010D000909125010E947C0E6B817C816550710985
:1010E0008091240190912501A50140970E94380E1E
:1010F0006091240170912501AB80BC802BE0A21A85
:10110000B1089B012C5F3F4F64507109E12CF12C19
:101110008501A50187EE94E00E94D11580912401FC
:10112000909125016B807C8036E0631A7108AC01D8
:1011300049505109C12CD12C75018A019301B50187
:1011400004970E94800F60912401709125016F50D7
:101150007109E12CF12C06E010E027E030E0A50158
:1011600087EE94E00E9470148091240190912501F3
:101170002B813C81225031093A832983AC014051B3
:10118000510973018A01B3010D970E94800F2B80D2
:101190003C8038E0231A31086091240170912501C8
:1011A00069517109E12CF12C01E110E02AE030E0F5
:1011B000A10187EE94E00E94701480912401909127
:1011C00025014B805C8022E0420E511CAC01405155
:1011D00051098B809C8036E0830E911C74018A013A
:1011E0009201B4010D970E94800F609124017091CB
:1011F00025016F507109E12CF12C06E010E027E089
:1012000030E0A40187EE94E00E94701480912401E4
:1012100090912501AC01495051092B813C81255FFA
:101220003F4F3C832B8379018A019401B7010497D6
:101230000E94800F60912401709125019B012C5F19
:101240003F4F64507109E12CF12C0B811C81A801E6
:1012500087EE94E00E94D115409124015091250120
:10126000CA0109964C5F5F4FEB80FC808C019701AF
:10127000B4010E94800F6091240170912501685F84
:101280007F4FE12CF12C06E010E027E030E0A401D4
:1012900087EE94E00E9470148091240190912501C2
:1012A000AC01405F5F4F74018A019201B4010D9659
:1012B0000E94800F6091240170912501615F7F4F32
:1012C000E12CF12C01E110E02AE030E0A10187EEF1
:1012D00094E00E9470148091240190912501AC014A
:1012E000405F5F4F73018A0129813A81B3010D96F6
:1012F0000E94800F6091240170912501675F7F4FEC
:10130000E12CF12C06E010E027E030E0A50187EEAB
:1013100094E00E9470148091240190912501AC0109
:10132000475F5F4F75018A019301B50104960E94E2
:10133000800F0F900F900F900F90DF91CF911F9122
:101340000F91FF90EF90DF90CF90BF90AF909F9064
:101350008F907F906F905F904F903F902F90089567
:101360001F920F920FB60F9211242F933F938F93DA
:101370009F9380916603909167039093850080937B
:1013800084008091AD039091AE0301969093AE03DB
:101390008093AD0320911C0130911D01281739075E
:1013A000E4F4809126019091270101969093270102
:1013B000809326018091790390917A03019749F4F3
:1013C000809183039091840301969093840380938A
:1013D00083031092AE031092AD039F918F913F91C2
:1013E0002F910F900FBE0F901F901895AF92BF9244
:1013F000CF92DF92EF92FF920F931F93CF93DF93E1
:10140000C4E3D3E082E0A82E83E0B82E99E1C92E90
:10141000D12C00EF10E00E946D287E01B6010E94E1
:10142000E0284996899399930E946D28F7012081BD
:101430003181B801621B730B0E94E028F501819392
:1014400091935F01F3E0C836DF0729F7DF91CF9171
:101450001F910F91FF90EF90DF90CF90BF90AF90D2
:10146000089560E070E087EE94E00E943E1680915F
:101470002801909129018130910509F081C028E36C
:101480003FEF30932701209326011092840310929E
:10149000830323E730E03093250120932401309328
:1014A0002301209322011092820310928103109253
:1014B000800310927F0310927E0310927D0310929E
:1014C0007C0310927B0310927A031092790390931D
:1014D0002101809320018CE090E090931F01809384
:1014E0001E0185E090E090931D0180931C018AE02D
:1014F00090E090931B0180931A0110927803109250
:101500007703109276031092750310927403109271
:101510007303109272031092710310927003109271
:101520006F0310926E0383E090E090931901809313
:1015300018018AEB96ED90931701809316018FEFB7
:1015400097E090931501809314010E94F609809111
:101550001201909113018530910511F0029781F4E9
:10156000809110019091110120910E0130910F0195
:10157000309311012093100190930F0180930E017D
:1015800080912801909129018430910561F42AE02D
:1015900030E030931D0120931C0125E030E03093B2
:1015A000190120931801909313018093120108955B
:1015B000CF92DF92EF92FF920F931F93CF93DF931F
:1015C0006C0180912601909127018A3A910534F0AF
:1015D00081E090E090937A0380937903EB01633389
:1015E000710514F0C2E3D0E08091790390917A0301
:1015F0004091830350918403019709F07CC0E090EF
:101600001401F09015018E019E01B60187EE94E061
:101610000E94701400911A0110911B0140918303E4
:1016200050918403401B510BE12CF12C9E01B6011B
:1016300087EE94E00E947014C65BDE4F80918303B6
:1016400090918403C817D9070CF073C0209126012C
:101650003091270180910C0190910D018217930721
:101660000CF067C080911E0190911F01019690932C
:101670001F0180931E010AE010E022E330E040E009
:1016800050E068EC70E087EE94E00E9470141092D5
:101690008403109283030E946D2864E170E00E942D
:1016A000E0288C549F4F90930D0180930C01809102
:1016B0007D0390917E0384369105DCF18091AB032C
:1016C0009091AC03FC01EE0FFF1FE05DFE4F208107
:1016D00031813093150120931401029686309105D3
:1016E0002CF49093AC038093AB0323C01092AC0313
:1016F0001092AB031EC04C1B5D0BE12C88EFF82E43
:101700008E019E01B60187EE94E00E947014009154
:101710001A0110911B014091830350918403401BD7
:10172000510BE12CF12C9E01B60187EE94E00E9452
:10173000701480917D0390917E038F3A91056CF037
:1017400010921D0110921C0188E290E090931B0101
:1017500080931A0187E090E040C08D3791057CF0BE
:1017600081E090E090931D0180931C0183E290E062
:1017700090931B0180931A0185E090E02EC08B347A
:1017800091054CF082E090E090931D0180931C0144
:1017900089E190E00BC0823391057CF083E090E01A
:1017A00090931D0180931C0186E190E090931B01B2
:1017B00080931A0184E090E010C0499794F084E08F
:1017C00090E090931D0180931C0183E190E0909341
:1017D0001B0180931A0183E090E09093190180939C
:1017E0001801DF91CF911F910F91FF90EF90DF9043
:1017F000CF900895CF92DF92EF92FF920F931F93B5
:10180000CF93DF936C01EB016333710514F0C2E3F6
:10181000D0E0E0901601F090170140912601509120
:1018200027014C1B5D0B8E019E01B60187EE94E0F3
:101830000E94701400911A0110911B014091260121
:10184000509127014C1B5D0B401B510BE12CF12CDF
:101850009E01B60187EE94E00E947014C65BDE4FD5
:101860008091260190912701C817D90784F520910E
:1018700083033091840380910C0190910D018217B4
:1018800093072CF50AE010E022E330E040E050E05E
:1018900068EC70E087EE94E00E94701410922701CB
:1018A0001092260180917D0390917E0384369105EC
:1018B00074F0E091AB03F091AC03EE0FFF1FE25D1B
:1018C000FE4F808191819093170180931601DF91E3
:1018D000CF911F910F91FF90EF90DF90CF900895DF
:1018E000CF92DF92EF92FF920F931F93CF93DF93EC
:1018F0006C017A018B01C0E0D0E0CE15DF0581F0EC
:10190000D8016D918D01D601ED91FC910190F0818E
:10191000E02DC6010995892B11F02196EECF7E01AD
:10192000C701DF91CF911F910F91FF90EF90DF9052
:10193000CF900895FC01538D448D252F30E0842FE6
:1019400090E0821B930B541710F0CF9608950197E7
:101950000895FC01918D828D981761F0828DDF01D1
:10196000A80FB11D5D968C91928D9F5F9F73928F92
:1019700090E008958FEF9FEF0895FC01918D828D87
:10198000981731F0828DE80FF11D858D90E0089554
:101990008FEF9FEF0895FC01918D228D892F90E0AC
:1019A000805C9F4F821B91098F7399270895FC01DA
:1019B000848DDF01A80FB11DA35ABF4F2C91848DD8
:1019C00090E001968F739927848FA689B7892C930D
:1019D000A089B1898C91837080648C93938D848D60
:1019E000981306C00288F389E02D80818F7D808363
:1019F0000895EF92FF920F931F93CF93DF93EC0123
:101A000081E0888F9B8D8C8D981305C0E889F989BA
:101A1000808185FD26C0F62E0B8D10E00F5F1F4FD5
:101A20000F731127E02E8C8DE8120CC00FB607FC47
:101A3000FACFE889F989808185FFF5CFCE010E9430
:101A4000D70CF1CF8B8DFE01E80FF11DE35AFF4F4C
:101A5000F0829FB7F8940B8FEA89FB8980818062BE
:101A60000AC09FB7F894EE89FF896083E889F989F5
:101A700080818370806480839FBF81E090E0DF91EC
:101A8000CF911F910F91FF90EF900895CF93DF9327
:101A9000EC01888D8823C9F0EA89FB89808185FD66
:101AA00005C0A889B9898C9186FD0FC00FB607FCC7
:101AB000F5CF808185FFF2CFA889B9898C9185FF08
:101AC000EDCFCE010E94D70CE7CFDF91CF910895E3
:101AD0002F923F924F925F926F927F928F929F923E
:101AE000AF92BF92CF92DF92EF92FF920F931F932C
:101AF000CF93DF9300D000D000D0CDB7DEB76C011C
:101B00005B015E834D832801370181E090E04C0149
:101B1000841A950ACA01919581959109AC01440FE7
:101B2000551F5A834983180153E0250E311CEE24BA
:101B3000E394F12C822F81708B8322702C83C70158
:101B400001974D815E81841795070CF064C097FC66
:101B50000BC0415051095E834D8389819A81029661
:101B60009A838983880E991EC701880F991F019651
:101B7000880E991E9B81992309F12D813E81220FA8
:101B8000331F2F5F3F4F240D351D8301A5018D812C
:101B90009E81481B590BB6016E0D7F1D87EE94E0A8
:101BA0000E943F159101A5014E195F096D817E814B
:101BB0006C0D7D1D87EE94E00E943F159C81911174
:101BC00007C09FEFE91AF90A22E0220E311CB7CFB5
:101BD0002D813E81220F331F2F5F3F4F240D351D76
:101BE0008301A5018D819E81481B590BB6016E1999
:101BF0007F0987EE94E00E943F159101A5014E19DF
:101C00005F09B6018D819E81681B790B87EE94E098
:101C10000E943F15D6CF26960FB6F894DEBF0FBEB2
:101C2000CDBFDF91CF911F910F91FF90EF90DF908B
:101C3000CF90BF90AF909F908F907F906F905F906C
:101C40004F903F902F900895009769F0FC0101900C
:101C50000020E9F73197AF01481B590BBC0187EE13
:101C600094E00C94700C80E090E008950E941D298F
:101C70008F929F92AF92BF92CF92DF92EF92FF929C
:101C80000F931F93CF93DF935C01EB016A0187EE03
:101C900094E00E941217450185E0880E911C7601A0
:101CA0000AE010E026E130E0AE01B40187EE94E0F6
:101CB0000E94FE1825960FEF1FEF21E045E050E04F
:101CC000BE01C5014A960E94680D22E045E050E041
:101CD000BE01C4010E94680D87EE94E0DF91CF91B0
:101CE0001F910F91FF90EF90DF90CF90BF90AF903A
:101CF0009F908F900C945315AF92BF92CF92DF922A
:101D0000EF92FF920F931F93CF93DF936C015B01D0
:101D1000EA01790187EE94E00E9412179E01220FDA
:101D2000331F2F5F3F4FA5014C1B5D0B8701B60191
:101D300087EE94E00E943F1500E010E023E0AE0142
:101D4000B501C6010E94680D87EE94E0DF91CF9146
:101D50001F910F91FF90EF90DF90CF90BF90AF90C9
:101D60000C945315CF93DF930E94240EEC018DEE5B
:101D700092E00E94240E8C0F9D1FDF91CF91089559
:101D80008F929F92AF92BF920F931F93CF93DF9347
:101D9000CDB7DEB7A1970FB6F894DEBF0FBECDBFAB
:101DA00019A2423008F44AE08E010F5D1F4F842EC5
:101DB000912CA12CB12CA50194010E94AF28E62FF3
:101DC000B901CA0101501109EA3014F4E05D01C003
:101DD000E95CD801EC93232B242B252B61F7C80158
:101DE0000E94240EA1960FB6F894DEBF0FBECDBFA1
:101DF000DF91CF911F910F91BF90AF909F908F90E7
:101E00000895CF92DF92EF92FF92CF93DF936B0111
:101E10007C016DE287EE94E00E943D17EC0166279D
:101E20007727CB016C197D098E099F094AE00E9432
:101E3000C00E8C0F9D1FDF91CF91FF90EF90DF9030
:101E4000CF9008950C94240E282F30913D04313208
:101E500008F04AC0809119048111FCCF90913C0494
:101E600042E040931904209318042FEF20931704A5
:101E70001092160430931504ECE1F4E0A5EFB3E002
:101E800020E0321721F041914D932F5FFACF10924D
:101E9000F4032091F403990F922B9093F403909103
:101EA000F303913061F41092F3039091F403909353
:101EB000BB009091BC0093FDF8CF95EC01C095EE6E
:101EC0009093BC00909119049230E1F39091170423
:101ED0009F3F79F080911704803241F08091170480
:101EE000803331F084E005C081E003C082E001C0AE
:101EF00083E010921B0410923D0410921A0408957E
:101F00002F923F924F925F926F927F928F929F9209
:101F1000AF92BF92CF92DF92EF92FF920F931F93F7
:101F2000CF93DF93CDB7DEB7AC970FB6F894DEBF93
:101F30000FBECDBF9CA78BA74B015A0139011701DA
:101F4000DE8ACD8A261737075CF4E616F706BCF45E
:101F5000962F892D4901EBA4FCA45CA74BA707C0D1
:101F6000E216F3060CF0ABC1962D872D75012814EF
:101F7000390484F058013101292E382E13C08B2DDD
:101F8000ABA4BCA44BA78CA77801872D3B01822E64
:101F9000982E08C03401ABA4BCA44101292E382ED0
:101FA0000BA71CA787EE94E00E94121782149304DB
:101FB00051F52BA53CA5A216B3065CF09BA58CA5FC
:101FC0002A153B0514F49A2D8B2DABA4BCA49BA71A
:101FD0008CA7EA14FB0444F04BA55CA54E155F05E5
:101FE00014F4FCA6EBA675012BA53CA52E193F0900
:101FF0002F5F3F4F0D891E89A401B70187EE94E042
:102000000E942C1540C1C5016BA57CA5861B970BB2
:10201000930128193909D701A61BB70BBE83AD83DD
:10202000A101481959095A874987B7016A197B09DB
:102030007E876D87D101A619B709B88FAF8B2301B1
:102040006214730419F0B1E04B1A51086401198A43
:102050001A8A1B8A1C8A19821A821B821C82A90175
:10206000330F660B770B4B8F5C8F6D8F7E8F2985BF
:102070003A85032E000C440B550B2F8F38A349A330
:102080005AA3AC01990F660B770B4BA35CA36DA30E
:102090007EA36D817E81072E000C880B990B6FA3A8
:1020A00078A789A79AA74C145D040CF454C06981E1
:1020B0007A818B819C812B8D3C8D4D8D5E8D0E9414
:1020C0007D28EBA4FCA4E20EF31E69897A898B8932
:1020D0009C892F8D38A149A15AA10E947D288BA5EA
:1020E0009CA5280F391F49815A816B817C818BA166
:1020F0009CA1ADA1BEA1480F591F6A1F7B1F498338
:102100005A836B837C8349895A896B897C898FA127
:1021100098A5A9A5BAA5480F591F6A1F7B1F498B0F
:102120005A8B6B8B7C8B2E153F052CF49E2D8F2D9F
:102130007901292F382F2E193F092F5F3F4F0D8925
:102140001E89A601B70187EE94E00E942C159FEF2F
:10215000C91AD90AA8CFC60186199709AD85BE85C7
:102160008A9F20018B9F500C9A9F500C1124052CA4
:10217000000C660877089601281939094D815E819F
:10218000249FC001259F900D349F900D11249C0128
:10219000990F440B550B29833A834B835C834F89FA
:1021A000588D052E000C660B770B4F8B588F698F5F
:1021B0007A8F69857A85072E000C880B990B6987C1
:1021C0007A878B879C87CD01092E000CAA0BBB0B4D
:1021D0008D879E87AF87B88B2D813E81032E000CA3
:1021E000440B550B2D833E834F8358872C143D049D
:1021F0000CF449C0C301B2012F89388D498D5A8D25
:102200000E947D287501E20EF31E69817A818B811F
:102210009C8129853A854B855C850E947D286BA52C
:102220007CA5260F371F8D859E85AF85B889480E02
:10223000591E6A1E7B1E49815A816B817C818D816A
:102240009E81AF81B885480F591F6A1F7B1F498344
:102250005A836B837C832E153F052CF49E2D8F2D86
:102260007901292F382F2E193F092F5F3F4F0D89F4
:102270001E89A601B70187EE94E00E942C159FEFFE
:10228000C91AD90AB3CF87EE94E0AC960FB6F8948A
:10229000DEBF0FBECDBFDF91CF911F910F91FF9099
:1022A000EF90DF90CF90BF90AF909F908F907F90F6
:1022B0006F905F904F903F902F900C945315780142
:1022C00071CECF93DF93BC01990F880B990B97FFC9
:1022D00003C00E94010F03C04AE00E94C00EEC013F
:1022E0008DEE92E00E94240E8C0F9D1FDF91CF9106
:1022F0000895CF93DF93682F70E080E090E04AE08C
:102300000E94C00EEC018DEE92E00E94240E8C0F14
:102310009D1FDF91CF9108952F923F924F925F9230
:102320006F927F928F929F92AF92BF92CF92DF92E5
:10233000EF92FF920F931F93CF93DF93CDB7DEB74A
:102340006B970FB6F894DEBF0FBECDBF9B8F8A8F01
:102350005B011A01D22E1F830E833701C982DC0173
:1023600058962D913C9159972115310509F0E6C0F9
:1023700018968D919C911997681779070CF0CDC12B
:102380001A968D919C911B97481759070CF0C5C15F
:102390008C2C912CFB0126E0C29EE00DF11D112436
:1023A000FB87EA871E161F060CF0B7C1A40183E065
:1023B000440F551F8A95E1F75D874C87CA01820D4E
:1023C000931D181619060CF0A8C157968C9181110F
:1023D00004C05FEA5D1508F4D394AA8DBB8DED911E
:1023E000FC9111970284F385E02DCD010995B5E0AC
:1023F000DB9EC0011124F5013596FF87EE87BB8275
:10240000AA8225019C012A193B09398B288BA1013D
:10241000485F5F4F5B8B4A8BE889F989E40DF51DB6
:10242000E551FF4F5491588761013D822C82888588
:1024300080FF13C0AA8DBB8DED91FC91B981B130A5
:1024400031F40484F585E02D2E813F8116C0068489
:10245000F785E02DEE80FF801AC0EE81FF81E61542
:10246000F705F1F0AA8DBB8DED91FC91B981B130EA
:1024700051F40484F585E02D9301A601B2018A8D03
:102480009B8D09950DC00684F785E02D73018401AD
:1024900094014C815D816A817B818A8D9B8D099538
:1024A000E885E695E887FFEFCF1ADF0A2C813D81AA
:1024B000280D391D3D832C834A895B89C416D506B6
:1024C00009F0B5CF5FEF451A550A8A819B81880DC7
:1024D000991D9B838A83AE85BF854A165B0609F0EA
:1024E0009BCFEE81FF81E615F70509F4F4C0EA8D74
:1024F000FB8DA081B181F981F13079F4B5016B5F79
:102500007F4F5096ED91FC915197830128E030E088
:10251000A1018A8D9B8D0995DEC06A857B8568192E
:1025200079091E96ED91FC911F9773010C851D850D
:102530009401A1018A8D9B8D0995CDC0F901349636
:10254000E491DE1AF901329685919491B7E0DB9E11
:10255000800D911D1124F901259134913B8B2A8B1B
:10256000FC01259134912901FC013296C4903196E9
:1025700034913E87329614913196D49049814230FD
:1025800058F0612E012E000C77088D2D0D2C000CBB
:10259000990B9987888704C019861886612C712C3D
:1025A000AA8DBB8DED91FC9111970284F385E02DEE
:1025B000CD010995B9818B2E912C689CC001699C35
:1025C000900D789C900D1124FC01EA0DFB1DFD87F8
:1025D000EC871A82712C612CE12F110FFF0B9501F2
:1025E0002E0F3F1F3B872A87AC0CB11CA5014E0F55
:1025F0005F1F5F8B4E8BC1018D0D911DD7FC9A958E
:10260000998F888F9E85691608F065C0862D90E0A9
:1026100048855985480F591F489D9001499D300DA7
:10262000589D300D1124D101A20FB31FB98BA88B77
:10263000EC85FD85FD83EC83AA84BB84DA80FA8572
:10264000DF1A288D398D280F391F3D8B2C8B8D2D4E
:102650008A0D4E895F89A416B506C1F1877041F4D1
:10266000C2010196EA89FB89E40DF51D74902C01E5
:1026700077FE21C0AA8DBB8DED91FC91B981B1305F
:1026800061F40484F585E02D2E813F814C895D89BC
:10269000B5018A8D9B8D09950EC00684F785E02DC6
:1026A000EE80FF8084019401488959896C817D8185
:1026B0008A8D9B8D0995770CEFEFAE1ABE0A2C819F
:1026C0003D81280D391D3D832C83C1CF3A813C0DBE
:1026D0003A83639497CFAA8DBB8DED91FC911197AE
:1026E0000688F789E02DCD016B960FB6F894DEBF12
:1026F0000FBECDBFDF91CF911F910F91FF90EF9053
:10270000DF90CF90BF90AF909F908F907F906F9011
:102710005F904F903F902F9009946B960FB6F8946E
:10272000DEBF0FBECDBFDF91CF911F910F91FF9004
:10273000EF90DF90CF90BF90AF909F908F907F9061
:102740006F905F904F903F902F9008951F920F923F
:102750000FB60F9211242F933F934F935F936F9374
:102760007F938F939F93AF93BF93EF93FF938EE3EA
:1027700094E00E94D70CFF91EF91BF91AF919F9190
:102780008F917F916F915F914F913F912F910F901A
:102790000FBE0F901F9018951F920F920FB60F92B9
:1027A00011242F938F939F93EF93FF93E0914E0407
:1027B000F0914F048081E0915404F091550482FD22
:1027C00012C09081809157048F5F8F7320915804BD
:1027D000821751F0E0915704F0E0E25CFB4F958FD7
:1027E0008093570401C08081FF91EF919F918F9159
:1027F0002F910F900FBE0F901F90189590E0FC0145
:10280000E952FF4F2491FC01E551FA4F3491FC014C
:10281000E75FF94FE491EE2309F43CC0222339F13C
:10282000233091F038F42130A9F0223001F584B53D
:102830008F7D12C0273091F02830A1F02430B9F4F8
:10284000809180008F7D03C0809180008F7780937E
:1028500080000DC084B58F7784BD09C08091B00021
:102860008F7703C08091B0008F7D8093B000F0E03F
:10287000EE0FFF1FE150FA4FA591B4919FB7F89466
:10288000611104C08C913095382302C0EC913E2B2D
:102890003C939FBF08953FB7F89480912505909190
:1028A0002605A0912705B091280526B5A89B05C04F
:1028B0002F3F19F00196A11DB11D3FBFBA2FA92FBF
:1028C000982F8827820F911DA11DB11DBC01CD013C
:1028D00042E0660F771F881F991F4A95D1F7089528
:1028E0008F929F92AF92BF92CF92DF92EF92FF9220
:1028F0000F931F93CF93DF93EC016B015A014901B2
:10290000E881F9810284F385E02D0995E881F98158
:102910000684F785E02D9401A501B601CE01099545
:10292000E881F9810688F789E02DCE01DF91CF910A
:102930001F910F91FF90EF90DF90CF90BF90AF90DD
:102940009F908F900994AF92BF92CF92DF92EF92B7
:10295000FF920F931F93CF93DF93EC017B016A01EA
:102960005901E881F9810284F385E02D0995E88118
:10297000F9810288F389E02D9501A601B701CE0106
:102980000995E881F9810688F789E02DCE01DF916C
:10299000CF911F910F91FF90EF90DF90CF90BF905C
:1029A000AF900994AF92BF92CF92DF92EF92FF92D5
:1029B0000F931F93CF93DF93EC017B016A015901C1
:1029C000E881F9810284F385E02D0995E881F98198
:1029D0000088F189E02D9501A601B701CE01099586
:1029E000E881F9810688F789E02DCE01DF91CF914A
:1029F0001F910F91FF90EF90DF90CF90BF90AF901D
:102A00000994CF92DF92EF92FF920F931F93CF938F
:102A1000DF93EC018B017A016901E881F98102847D
:102A2000F385E02D0995E881F9810484F585E02D91
:102A30009601A701B801CE010995E881F9810688C0
:102A4000F789E02DCE01DF91CF911F910F91FF907B
:102A5000EF90DF90CF900994EF92FF920F931F9326
:102A6000DC01ED91FC910684F785E02D780101E011
:102A700010E009951F910F91FF90EF900895EF924C
:102A8000FF920F931F93DC01ED91FC910684F78573
:102A9000E02D7801890121E030E009951F910F9127
:102AA000FF90EF900895FC0191A904A4F5A5E02DF5
:102AB0008081892B808308950895FC016370658B64
:102AC0008481958126813781613039F0633029F026
:102AD000918780873387228708953187208793875E
:102AE000828708956F927F928F929F92AF92BF924A
:102AF000CF92DF92EF92FF920F931F93CF93DF93CA
:102B0000EC014B015A0169013801E881F981028425
:102B1000F385E02D0995E881F9810288F389E02D9C
:102B200087019601A501B401CE010995A501460DC5
:102B3000571D41505109E881F9810288F389E02D40
:102B40009601B401CE010995E881F9810088F189E7
:102B5000E02D9301A501B401CE010995C80CD91C43
:102B6000B60161507109E881F9810088F189E02D91
:102B70009301A501CE010995E881F9810688F789BD
:102B8000E02DCE01DF91CF911F910F91FF90EF903B
:102B9000DF90CF90BF90AF909F908F907F906F907D
:102BA00009948F929F92AF92BF92CF92DF92EF9251
:102BB000FF920F931F93CF93DF934C016B015A0148
:102BC000E901DC01ED91FC916217730781F40417B0
:102BD000150724F48B2D5801042F182F0A191B09EF
:102BE00098012F5F3F4F048CF58DE02D12C04017E8
:102BF000510709F52617370724F48D2D6901C62FD3
:102C0000D82F9E012C193D092F5F3F4F068CF78D61
:102C1000E02D8701A501B601C4010995DF91CF918F
:102C20001F910F91FF90EF90DF90CF90BF90AF90EA
:102C30009F908F9008950284F385E02D0995D4012B
:102C4000ED91FC910488F589E02D9E01A501B60166
:102C5000C4010995D401ED91FC910688F789E02D16
:102C6000C401DF91CF911F910F91FF90EF90DF9002
:102C7000CF90BF90AF909F908F900994EF92FF926A
:102C80000F931F93DC011A960D911C911B971896B8
:102C90002D913C911997ED91FC9100A0F1A1E02DAF
:102CA0007B0140E050E060E070E009951F910F91DA
:102CB000FF90EF9008954F925F926F927F928F9264
:102CC0009F92AF92BF92CF92DF92EF92FF920F93BB
:102CD0001F93CF93DF936C012B015A0139014801F7
:102CE000DC01ED91FC910284F385E02D0995E20170
:102CF000640C751CD601ED91FC91C615D7055CF4EA
:102D00000088F189E02D87019401A501BE01C6016B
:102D100009952196EFCF0688F789E02DC601DF914E
:102D2000CF911F910F91FF90EF90DF90CF90BF90C8
:102D3000AF909F908F907F906F905F904F9009948D
:102D40008F929F92AF92BF92CF92DF92EF92FF92BB
:102D50000F931F93CF93DF93EC015B014A0169014D
:102D6000E881F9810284F385E02D099595012C0D08
:102D70003D1D21503109E881F9810488F589E02D54
:102D800078018401A401B501CE010995E881F9819A
:102D90000688F789E02DCE01DF91CF911F910F9129
:102DA000FF90EF90DF90CF90BF90AF909F908F906B
:102DB00009948F929F92AF92BF92CF92DF92EF923F
:102DC000FF920F931F93CF93DF93EC015B014A01B6
:102DD00069017801E881F9810284F385E02D099584
:102DE000C80CD91C860101501109E881F9810488B9
:102DF000F589E02D9501A401B501CE010995E88181
:102E0000F9810688F789E02DCE01DF91CF911F91DE
:102E10000F91FF90EF90DF90CF90BF90AF909F9079
:102E20008F900994FC0181A187FF1EC0428D538DB4
:102E3000648D758D80E092E1AAE7B0E020E048174C
:102E400059076A077B0740F4B695A795979587952C
:102E50002F5F2630A1F727E091E09227892F806A23
:102E6000869591708CBD9DBD81A904A4F5A5E02D2A
:102E700090818095892380830895AF92BF92CF92ED
:102E8000EF92FF920F931F93CF93DF93EC01262FC6
:102E9000888D998D009709F040C06A3059F41D86DD
:102EA0001C862C898E859F8538E0239F800D911D7F
:102EB000112441C06D3009F4AAC08E898823C1F065
:102EC0003C898C859D8546E0349F800D911D1124A1
:102ED00048855985481759075CF41D861C868E85E0
:102EE0009F8548E0349F800D911D11249F878E8718
:102EF000EA88FB88088919894E855F856C857D8500
:102F0000CC88CE010E948C112C898C859D8536E061
:102F1000239F800D911D112442C06A3079F41D86D3
:102F20001C862C89FC013696E4918E859F852E9F08
:102F3000800D911D11249F878E8769C06D3009F423
:102F400066C0FC0134963491631708F460C0319672
:102F5000E491E61708F45BC0FC0132966591749128
:102F6000422F50E0431B510937E0349F5001359FF9
:102F7000B00C1124A60EB71EF5013296349131968D
:102F8000E491332311F0E1110DC0F5013496E49181
:102F90002C898C859D85E29F800D911D11249D8734
:102FA0008C8735C0F501359644915E89552311F122
:102FB0006C89E32FF0E0E40FF11D47FDFA956E9F59
:102FC000D0016F9FB00D11244C855D854A0F5B1FAA
:102FD000E885F985E417F5076CF41D861C86FC016D
:102FE0003696E4918E859F856E9F800D911D1124EC
:102FF0009F878E87EA88FB88088919894E855F85B7
:103000006C857D85CC88CE010E948C11BECF81E07D
:1030100090E0DF91CF911F910F91FF90EF90CF90B3
:10302000BF90AF900895CF93DF9390E0FC01E551FE
:10303000FA4F2491FC01E75FF94F8491882361F1F5
:1030400090E0880F991FFC01E35EF94FC591D49180
:10305000FC01E150FA4FA591B491611109C09FB7ED
:10306000F8948881209582238883EC912E230BC0CD
:10307000623061F49FB7F8948881322F30958323B2
:103080008883EC912E2B2C939FBF06C08FB7F894AA
:10309000E8812E2B28838FBFDF91CF9108958F92E7
:1030A0009F92AF92BF92CF92DF92EF92FF926B010D
:1030B0007C010E944B144B015C01C114D104E1045A
:1030C000F104F1F00E944B14DC01CB01881999093D
:1030D000AA09BB09883E9340A105B10570F321E020
:1030E000C21AD108E108F10888EE880E83E0981E24
:1030F000A11CB11CC114D104E104F10419F7DDCF06
:10310000FF90EF90DF90CF90BF90AF909F908F9007
:1031100008951F920F920FB60F9211242F933F9391
:103120008F939F93AF93BF93809121059091220538
:10313000A0912305B09124053091200523E0230FB1
:103140002D3720F40196A11DB11D05C026E8230FDF
:103150000296A11DB11D2093200580932105909317
:103160002205A0932305B093240580912505909115
:103170002605A0912705B09128050196A11DB11D36
:103180008093250590932605A0932705B0932805E5
:10319000BF91AF919F918F913F912F910F900FBE53
:1031A0000F901F901895FC0181A187FF05C06EBD8F
:1031B0000DB407FEFDCF089588E090E020E8A4A1BB
:1031C000B5A1362F322321F046A53C91342B04C003
:1031D00036A54C91309534233C9330A9A0A5B1A5D8
:1031E0004C91309534233C9340A9A0A5B1A53C91C6
:1031F000342B3C932695019711F708954F925F92D7
:103200006F927F928F929F92AF92BF92CF92DF92F6
:10321000EF92FF920F931F93CF93DF93EC016B011B
:103220005901480128853985621773070CF067C07A
:103230008A859B85481759070CF061C08B010A0DE0
:103240001B1DF8013197DA01A80DB91DBD016150B0
:103250007109F7FD54C077FD52C0D7FE03C0580175
:10326000C12CD12C57FF03C04D0140E050E0E217C4
:10327000F3071CF05901AC18BD08681779071CF05A
:103280004C01841A950A9501D4010E94F4283B014F
:10329000582E492EE881F98102A4F3A5E02D84017E
:1032A000B601CE0109954301A52CB42C89A187FF55
:1032B00013C081149104A104B10409F1FEBC0DB442
:1032C00007FEFDCFEEBC0DB407FEFDCF81E0881AEE
:1032D0009108A108B108EDCF81149104A104B104B3
:1032E00071F06F2DCE010E94D3186E2DCE010E9479
:1032F000D31881E0881A9108A108B108EDCFDF91B9
:10330000CF911F910F91FF90EF90DF90CF90BF90E2
:10331000AF909F908F907F906F905F904F900895A7
:10332000EF92FF920F931F93CF93DF93EC0177FD02
:1033300033C0888599856817790774F557FD2CC0C7
:103340008A859B85481759073CF5E32EF22EE881C4
:10335000F98102A4F3A5E02D01E010E021E030E0C6
:10336000CE01099589A187FF09C0EEBC0DB407FE07
:10337000FDCFFEBC0DB407FEFDCF0EC06E2DCE01FD
:103380000E94D3186F2DCE01DF91CF911F910F9125
:10339000FF90EF900C94D318DF91CF911F910F9174
:1033A000FF90EF900895CF93DF93EC018AA9EAA5EF
:1033B000FBA59081809589238083CE010E94D3183C
:1033C0009AA9EAA5FBA58081892B8083DF91CF9103
:1033D00008951F93CF93DF93EC01162FE881F981B5
:1033E0000284F385E02D0995112311F06BA901C02A
:1033F0006CA9CE010E94D319E881F9810688F7896A
:10340000E02DCE01DF91CF911F910994EF92FF92B1
:103410000F931F93CF93DF938C01EB017A019A01F5
:103420004AE050E00E947C0EBE0165507109A70180
:10343000C8014097DF91CF911F910F91FF90EF90BE
:103440000C94380ECF93DF93CDB7DEB728970FB625
:10345000F894DEBF0FBECDBFF8941092800010929A
:1034600081008EEE95E890936703809366039093B6
:103470008500809384008091810084608093810026
:1034800080916F00816080936F007894789484B508
:10349000826084BD84B5816084BD85B5826085BD50
:1034A00085B5816085BD80916E00816080936E00DE
:1034B00010928100809181008260809381008091D0
:1034C0008100816080938100809180008160809381
:1034D00080008091B10084608093B1008091B00041
:1034E00081608093B00080917A00846080937A003C
:1034F00080917A00826080937A0080917A00816066
:1035000080937A0080917A00806880937A0010928C
:10351000C100E0914E04F0914F0482E08083E0917D
:103520004A04F0914B041082E0914C04F0914D0458
:103530008FEC808310925604E0915204F091530472
:1035400086E08083E0915004F09151048081806195
:103550008083E0915004F0915104808188608083E1
:10356000E0915004F0915104808180688083E09163
:103570005004F091510480818F7D808340E050E0C1
:10358000BA0187EE94E00E94FA0560E070E087EEF1
:1035900094E00E943E1687B18C6087B94298439AA6
:1035A00064E670E080E090E00E944F181092A6035D
:1035B0001092A50310921B0410923D04109219045E
:1035C00001E0009318041092F30361E082E10E948D
:1035D000FE1361E083E10E94FE138091B9008E7FAB
:1035E0008093B9008091B9008D7F8093B90088E401
:1035F0008093B80085E48093BC0083E594E09093C9
:10360000A8038093A70384E594E09093AA03809392
:10361000A90300931A0482E580933C0410921B04D2
:1036200010923D0460E48BED94E00E94AD0460E0F4
:103630008BED94E00E94AD0481E00E94240F83E0B2
:1036400090E00E9472280E94F60960E070E087EE28
:1036500094E00E943E16AA24AA94BA2C66E4462E50
:10366000512C809119048111FCCF11E010931904A1
:10367000109318048FEF809317041092160485E0BE
:10368000809315041093F4038091F403846A80936B
:10369000F4038091F303813061F41092F30380917D
:1036A000F4038093BB008091BC0083FDF8CF85ECD0
:1036B00001C085EE8093BC00809119048130E1F354
:1036C00080911604863018F49091160401C096E09B
:1036D000E5EFF3E0A5E8B3E080E0891721F0219160
:1036E0002D938F5FFACF1092A6038093A50308E66F
:1036F00013E01A83098317E19091A5038091A60333
:10370000981761F08BED94E00E9464048127895E34
:10371000E981FA818193FA83E983EECFF1E0F093B6
:103720001A0482E580933C0410921B0410923D041D
:1037300060E08BED94E00E94AD0481E00E94240FD4
:103740008091690390E0909301038093000380913E
:10375000680390E09093FF028093FE0213E0809153
:10376000000390910103892B09F06DC08091FE0246
:103770009091FF02892B09F066C080916D0381FD55
:1037800062C00E941208019709F05DC01092FD020C
:103790001092FC02E2E3F0E0F093F404E093F3040F
:1037A00028E230E03093F6042093F504B092FA0456
:1037B000A092F904B092F804A092F7041093FB04CD
:1037C0008BEC92E00E94B20E42E350E05093F4047E
:1037D0004093F3045092F6044092F50482ED92E097
:1037E0000E94B20E82E390E09093F4048093F3047D
:1037F000E4E6F0E0F093F604E093F5048AED92E05D
:103800000E94B20E22E330E03093F4042093F304DC
:1038100042E850E05093F6044093F50483EE92E0C2
:103820000E94B20E82E390E09093F4048093F3043C
:10383000E0EAF0E0F093F604E093F50487EE92E01E
:103840000E94B20E8CCF8091FC029091FD02892BD8
:1038500061F481E090E09093FD028093FC0260E0CF
:1038600070E087EE94E00E943E162091280130918E
:10387000290180911201909113012817390711F045
:103880000E94310A8091280190912901019709F045
:10389000A8C18EE190E09093F4048093F30408E2D1
:1038A00010E01093F6040093F504B092FA04A0928D
:1038B000F904B092F804A092F70483E08093FB042B
:1038C00082E991E00E94B20E8DE490E09093F404BE
:1038D0008093F3045092F6044092F5048DE991E050
:1038E0000E94B20E8AE590E09093F4048093F30472
:1038F00022E830E03093F6042093F50482E08093D0
:10390000FB0483EA91E00E94B20E81E490E0909380
:10391000F4048093F30486E990E09093F604809396
:10392000F50489EA91E00E94B20E87E490E090935A
:10393000F4048093F3048BEA90E09093F604809370
:10394000F50483EB91E00E94B20E5092F404409291
:10395000F3048FEB90E09093F6048093F5048CEBE6
:1039600091E00E94B20E8FE190E090930701809366
:10397000060180E098EF909305018093040140E0F8
:1039800058EF63E171E082E390E00E94061A4091F3
:103990000601509107016BEE70E084EB90E00E940D
:1039A000061A80910201909103012091000130914B
:1039B00001018217930709F458C0019789F4C12CBB
:1039C000D12C58E8E52EF12C07E310E02DE830E08B
:1039D0004DE250E063E870E08DE290E00E94800FDD
:1039E0008091020190910301029789F4C12CD12C9E
:1039F0004CE9E42EF12C07E310E021EA30E04DE23F
:103A000050E067E970E08DE290E00E94800F8091C5
:103A1000020190910301039789F4C12CD12C30EB62
:103A2000E32EF12C07E310E025EB30E04DE250E00F
:103A30006BEA70E08DE290E00E94800F80910201BD
:103A400090910301049789F4C12CD12C24ECE22E2F
:103A5000F12C07E310E029EC30E04DE250E06FEB91
:103A600070E08DE290E00E94800F809100019091C3
:103A700001010197E9F480EEC82E87E0D82E98E87E
:103A8000E92EF12C07E310E02DE830E04DE250E0A4
:103A900063E870E08DE290E00E94800F0E941208BF
:103AA000019731F482E090E09093290180932801FE
:103AB00080910001909101010297E9F410EEC12E6E
:103AC00017E0D12E0CE9E02EF12C07E310E021EAFB
:103AD00030E04DE250E067E970E08DE290E00E9456
:103AE000800F0E941208019731F483E090E09093D8
:103AF0002901809328018091000190910101039791
:103B0000E9F4A0EECA2EA7E0DA2EB0EBEB2EF12CF2
:103B100007E310E025EB30E04DE250E06BEA70E0A7
:103B20008DE290E00E94800F0E941208019731F40C
:103B300084E090E090932901809328018091000116
:103B4000909101010497E9F4E0EECE2EE7E0DE2E3D
:103B5000F4ECEF2EF12C07E310E029EC30E04DE21D
:103B600050E06FEB70E08DE290E00E94800F0E94C9
:103B70001208019731F486E090E090932901809338
:103B8000280180910001909101019093030180939D
:103B900002013FEF40E752E0315040405040E1F732
:103BA00000C000008091000390910103813A9105CB
:103BB0004CF08091000190910101823091058CF0D0
:103BC00001970BC08035910564F4809100019091BC
:103BD0000101843091052CF40196909301018093AA
:103BE00000012091280130912901809112019091CA
:103BF00013012817390711F00E94310A809128011A
:103C000090912901029709F079C58091680390E0AD
:103C10009093F5028093F40220910A0130910B01F8
:103C200040917F0350918003241B350B121613061D
:103C300054F4409106015091070160911001709178
:103C400011010E94270880910A0190910B01209197
:103C5000810330918203821B930B181619060CF016
:103C600073C18091F4029091F5022AEF30E0281B95
:103C7000390B809004019090050180910E01909184
:103C80000F0198878F8380912201909123012D3815
:103C9000310554F0813E9105BCF42091180130911A
:103CA0001901820F931F0CC02A3531056CF4803145
:103CB000910554F02091180130911901821B930B4A
:103CC000909323018093220194014AE050E06F8198
:103CD000788580912201909123010E947C0E6F8152
:103CE0007885655071098091220190912301A4018A
:103CF00040970E94380E60912201709123018F80BD
:103D000098849BE0891A91089B012C5F3F4F645077
:103D10007109E12CF12C8401A40187EE94E00E944A
:103D2000D11580912201909123012F803884E6E003
:103D30002E1A3108AC0149505109C12CD12C740103
:103D40008A019101B40104970E94800F60912201C1
:103D5000709123016F507109E12CF12C06E010E005
:103D600027E030E0A40187EE94E00E947014809177
:103D70002201909123010F811885025011091A83A5
:103D80000983AC014051510971018A0129813A81AD
:103D9000B1010D970E94800F2F813885285031097D
:103DA0003C832B8360912201709123016951710939
:103DB000E12CF12C01E110E02AE030E04B815C8144
:103DC00087EE94E00E94701480912201909123016B
:103DD0004F8158854E5F5F4F5E834D83AC014051EC
:103DE00051096F807884E6E06E0E711C73018A01C0
:103DF0002D813E81B3010D970E94800F60912201B9
:103E0000709123016F507109E12CF12C06E010E054
:103E100027E030E0A30187EE94E00E9470148091C7
:103E2000220190912301AC01495051090F8118855D
:103E3000055F1F4F18870F8378018A019301B7012F
:103E400004970E94800F60912201709123019B01D1
:103E50002C5F3F4F64507109E12CF12C0F811885C4
:103E6000A80187EE94E00E94D11540912201509163
:103E70002301CA0109964C5F5F4FEF80F8848C01E3
:103E80009701B3010E94800F60912201709123017C
:103E9000685F7F4FE12CF12C06E010E027E030E076
:103EA000A30187EE94E00E9470148091220190910A
:103EB0002301AC01405F5F4F73018A012D813E8178
:103EC000B3010D960E94800F609122017091230131
:103ED000615F7F4FE12CF12C01E110E02AE030E03E
:103EE0004B815C8187EE94E00E94701480912201E6
:103EF00090912301AC01405F5F4F71018A012981DC
:103F00003A81B1010D960E94800F6091220170915B
:103F10002301675F7F4FE12CF12C06E010E027E0E2
:103F200030E0A40187EE94E00E9470148091220199
:103F300090912301AC01475F5F4F74018A019101A9
:103F4000B40104960E94800F20911E0130911F0140
:103F50002931310591F18091200190912101880F43
:103F6000991FFC01EC5CFC4F6081718128313105A7
:103F700051F4AB014D5A5E4F20912601309127013B
:103F8000421753073CF0FC01EE5FFC4F80819181AA
:103F90000E94FA0B80911E0190911F01880F991FBA
:103FA000FC01EC5CFC4F60817181FC01EE5FFC4F19
:103FB000808191810E94D80A23C01092270110921B
:103FC0002601109284031092830310927A031092B8
:103FD000790381E090E090932101809320018CE0AF
:103FE00090E090931F0180931E0180917B0390913C
:103FF0007C03499690937C0380937B030E94F6098F
:104000008091770390917803892B09F000C180910A
:10401000200190912101880F991FFC01EE5FFC4F58
:1040200060817181FC01EC5CFC4F20813181260FA5
:10403000371F8091240190912501DC011F972A17D9
:104040003B078CF1AC014E505109641775075CF5C4
:104050004091100150911101E0912601F09127014A
:104060008A010A501109E017F107ECF0465F5F4F33
:104070004E175F07C4F041E050E05093780340933F
:10408000770340917D0350917E03509374034093D6
:10409000730340917F03509180034F5F5F4F5093B4
:1040A000800340937F034C011EE0810E911C821619
:1040B00093068CF59C01215F3F4F261737075CF173
:1040C000209110013091110140912601509127015A
:1040D000B9016A50710946175707ECF0265F3F4F48
:1040E00024173507C4F021E030E0309378032093A3
:1040F000770320917D0330917E03309374032093E6
:10410000730320917F03309180032F5F3F4F3093E3
:10411000800320937F0320911E0130911F01220F05
:10412000331FB9016E5F7C4FFB01608171812C5C94
:104130003C4FF90120813181260F371F2A173B0799
:1041400094F1AC014E5051096417750764F5409124
:10415000100150911101A0918303B09184033A01A1
:10416000FAE06F1A7108A615B705ECF0465F5F4FCD
:104170004A175B07C4F041E050E050937803409346
:10418000770340917D0350917E03509374034093D5
:10419000730340917F03509180034F5F5F4F5093B3
:1041A000800340937F03821693066CF50F96861763
:1041B00097074CF180911001909111012091830398
:1041C00030918403AC014A50510924173507DCF0C3
:1041D0000A9682179307BCF081E090E090937803F1
:1041E0008093770380917D0390917E039093740375
:1041F0008093730380917F03909180030196909345
:10420000800380937F031092F3021092F202809158
:10421000750390917603892B09F000C180912001EC
:1042200090912101880F991FFC01EE5FFC4F608186
:104230007181FC01EC5CFC4F20813181260F371F1E
:104240008091220190912301DC011F972A173B07DF
:104250008CF1AC014E505109641775075CF5409123
:104260000E0150910F01E0912601F09127018A0182
:104270000A501109E017F107ECF0465F5F4F4E1747
:104280005F07C4F041E050E050937603409375031C
:1042900040917D0350917E035093720340937103CC
:1042A00040918103509182034F5F5F4F509382038F
:1042B000409381034C011EE0810E911C82169306EF
:1042C0008CF59C01215F3F4F261737075CF1209149
:1042D0000E0130910F014091260150912701B90143
:1042E0006A50710946175707ECF0265F3F4F2417B5
:1042F0003507C4F021E030E0309376032093750356
:1043000020917D0330917E033093720320937103DB
:1043100020918103309182032F5F3F4F30938203BE
:104320002093810320911E0130911F01220F331F22
:10433000B9016E5F7C4FFB01608171812C5C3C4F49
:10434000F90120813181260F371F2A173B0794F18D
:10435000AC014E5051096417750764F540910E0188
:1043600050910F01A0918303B09184033A01FAE0C8
:104370006F1A7108A615B705ECF0465F5F4F4A1734
:104380005B07C4F041E050E050937603409375031F
:1043900040917D0350917E035093720340937103CB
:1043A00040918103509182034F5F5F4F509382038E
:1043B00040938103821693066CF50F968617970734
:1043C0004CF180910E0190910F0120918303309167
:1043D0008403AC014A50510924173507DCF00A96D2
:1043E00082179307BCF081E090E09093760380936E
:1043F000750380917D0390917E0390937203809367
:1044000071038091810390918203019690938203BE
:10441000809381031092F1021092F00200917703D1
:10442000109178031A8309830130110539F58091C1
:10443000F2029091F302892B09F580911A01909173
:104440001B01039690931B0180931A01E12CF12C20
:104450000AE010E020EA30E040E050E060E070E088
:1044600087EE94E00E947014B0920701A0920601BA
:1044700029813A813093F3022093F20280917703ED
:10448000909178030197B1F4809173039091740334
:10449000019620917D0330917E038217930751F49A
:1044A00010927803109277038FE190E090930701C8
:1044B0008093060140917503509176035A83498396
:1044C0004130510539F58091F0029091F102892B2C
:1044D00009F580911A0190911B01039690931B019D
:1044E00080931A01E12CF12C09E110E020EA30E080
:1044F00040E050E060E070E087EE94E00E947014CD
:10450000B0920501A092040189819A819093F102F1
:104510008093F00280917503909176030197B1F436
:104520008091710390917203019620917D033091E7
:104530007E038217930751F410927603109275034D
:1045400080E098EF90930501809304011092F404A9
:104550001092F3041092F6041092F504B092FA044B
:10456000A092F904B092F804A092F70491E090931D
:10457000FB0485E792E00E94220F08E210E01A8314
:1045800009831AE020910A0130910B0180917F0389
:1045900090918003281B390B129FC001139F900D2F
:1045A0001124879629813A8182179307A4F0203A33
:1045B000310589F020E038EF43E050E064E070E03E
:1045C00089819A810E947C0E49815A81465F5F4FA2
:1045D0005A834983D7CF1092F4041092F3048AE0EF
:1045E00090E09093F6048093F50485E792E00E94B2
:1045F000220F08E210E01A8309831AE020910A01D1
:1046000030910B018091810390918203281B390B1B
:10461000129FC001139F900D1124879629813A8122
:1046200082179307A4F0203A310589F020E038EF93
:1046300043E050E06EE070E089819A810E947C0E38
:1046400049815A81465F5F4F5A834983D7CF80EAB9
:1046500090E09093F4048093F3041092F604109287
:10466000F50485EC91E00E94220F60911E0170918B
:104670001F016C5071098091200190912101680FF8
:10468000791F80917B0390917C03680F791F709351
:104690007E0360937D03072E000C880B990B97FF18
:1046A00003C00E94010F03C04AE00E94C00E809127
:1046B0000A0190910B0120917F0330918003FC014E
:1046C000E21BF30B1E161F067CF020918103309134
:1046D0008203821B930B1816190634F085E090E0D4
:1046E000909329018093280180916D0381FD06C07C
:1046F00081E090E090932901809328018091280126
:1047000090912901039709F093C08EE190E0909376
:10471000F4048093F30408E210E01093F60400938D
:10472000F504B092FA04A092F904B092F804A092B1
:10473000F70483E08093FB048DEC91E00E94B20EBD
:104740002CE330E03093F4042093F3048AE590E006
:104750009093F6048093F50488ED91E00E94220F77
:1047600080E090E00E9418080E9479114CE350E02C
:104770005093F4044093F30488E790E09093F60498
:104780008093F5048DED91E00E94220F81E090E08E
:104790000E9418080E9479118CE390E09093F40431
:1047A0008093F30486E990E09093F6048093F504F7
:1047B00082EE91E00E94220F82E090E00E941808B1
:1047C0000E947911ECE3F0E0F093F404E093F30439
:1047D00084EB90E09093F6048093F50487EE91E0EB
:1047E0000E94220F83E090E00E9418080E94791135
:1047F0000CE310E01093F4040093F30482ED90E0D6
:104800009093F6048093F5048CEE91E00E94220FC1
:1048100084E090E00E9418080E94791180916D0355
:1048200081FD06C081E090E09093290180932801EA
:104830008091280190912901049709F0B6C02EE1DA
:1048400030E03093F4042093F30448E250E05093B6
:10485000F6044093F504B092FA04A092F904B092E1
:10486000F804A092F70483E08093FB0481EF91E0C9
:104870000E94B20E8EE190E09093F4048093F304D2
:1048800080E590E09093F6048093F50482E08093B5
:10489000FB048AEF91E00E94B20EEEE1F0E0F093AB
:1048A000F404E093F30404E610E01093F60400939C
:1048B000F5048CE092E00E94B20E2EE130E03093DD
:1048C000F4042093F30488E790E09093F604809337
:1048D000F50440E058EF60EA70E08091FE029091AC
:1048E000FF020E9427088BE192E00E94B20E4EE187
:1048F00050E05093F4044093F3048EEB90E09093D7
:10490000F6048093F50481E292E00E94B20E8EE1FB
:1049100090E09093F4048093F30482ED90E0909300
:10492000F6048093F5048FE292E00E94B20EEEE16D
:10493000F0E0F093F404E093F30486EE90E09093BB
:10494000F6048093F5048BE392E00E94B20E80910E
:10495000200190912101880F991FFC01EC5CFC4F14
:1049600060817181FC01EE5FFC4F808191810E942A
:10497000FA0B80911E0190911F01880F991FFC0175
:10498000EC5CFC4F60817181FC01EE5FFC4F80812B
:1049900091810E94D80A80916D0381FD06C081E05B
:1049A00090E09093290180932801809128019091B3
:1049B0002901059709F065C008E210E01093F4049E
:1049C0000093F3045092F6044092F504B092FA0476
:1049D000A092F904B092F804A092F70483E08093C7
:1049E000FB0486E492E00E94B20E5092F4044092DE
:1049F000F30480EA90E09093F6048093F50482E05B
:104A00008093FB0485EC91E00E94220F80917D034E
:104A100090917E030E94611122E830E03093F4040B
:104A20002093F3048CE291E09093F6048093F504D4
:104A300031E03093FB0480E592E00E94B20E809159
:104A40000A0190910B01049794F480916F03909167
:104A50007003853091055CF40E94180890E0209165
:104A60007D0330917E038217930709F065C1809121
:104A70006D0381FD06C081E090E090932901809351
:104A800028018091280190912901069711F00C943A
:104A9000311B4EE150E05093F4044093F30488E25C
:104AA00090E09093F6048093F504EFEFFFEFF0931E
:104AB000FA04E093F904F093F804E093F70483E038
:104AC0008093FB0483E692E00E94B20E0EE110E0B8
:104AD0001093F4040093F30480E590E09093F604BF
:104AE0008093F50482E08093FB048CE692E00E94C0
:104AF000B20E1093F4040093F30424E630E03093F4
:104B0000F6042093F5048BE792E00E94B20E8091A8
:104B1000FE029091FF02813A91053CF081E090E025
:104B20009093FB028093FA0207C08634910524F427
:104B30001092FB021092FA028091FA029091FB020D
:104B400082309105F9F4CC24CA94DC2C78E8E72E65
:104B5000F12C00E510E02DE830E04AE550E063E894
:104B600070E08AE590E00E94800F06E910E02DE8F1
:104B700030E04CE850E063E870E08CE890E00E94A0
:104B8000800F74C081309105C9F5CC24CA94DC2C07
:104B900048E8E42EF12C00E510E02DE830E04AE58D
:104BA00050E063E870E08AE590E00E94800F50EEEC
:104BB000C52E57E0D52E06E910E02DE830E04CE890
:104BC00050E063E870E08CE890E00E94800F0E9463
:104BD00012089A838983019709F048C080910A01DD
:104BE00090910B018336910509F440C02091080192
:104BF00030910901232B09F410C138C0892BB1F57C
:104C000080EEC82E87E0D82E98E8E92EF12C00E53A
:104C100010E02DE830E04AE550E063E870E08AE516
:104C200090E00E94800FCC24CA94DC2C06E910E0AE
:104C30002DE830E04CE850E063E870E08CE890E06C
:104C40000E94800F0E9412089A838983019771F451
:104C500080910A0190910B018130910539F02091EA
:104C6000080130910901232B09F4F1C089E690E095
:104C70009093F4048093F30483E890E09093F60417
:104C80008093F50480910A0190910B010E946111BB
:104C900080910A0190910B01049724F181E08093A7
:104CA000FB0444E150E05093F4044093F30480EAA1
:104CB00090E09093F6048093F50488E892E00E94D7
:104CC000B20E84E190E09093F4048093F3048AEAB6
:104CD00090E09093F6048093F5048DEA92E00E94B0
:104CE000B20E0EC0E12CF12C04E110E020EF30E018
:104CF0004FE950E06AE070E087EE94E00E947014A3
:104D00000E941208892B21F41092090110920801C7
:104D100080916D0381FF02C00C94311B82E090E012
:104D20009093FB028093FA0281E090E09093290136
:104D3000809328010C942E1B80916F039091700337
:104D40000E94180890E020917D0330917E03821725
:104D5000930724F480916E03882351F080916F03B0
:104D60009091700301969093700380936F036DCEC2
:104D700080916F039091700301960E9418088B83B5
:104D800090E09093F9028093F80280916F039091E4
:104D9000700302960E941808898390E09093F702AE
:104DA0008093F60280916F03909170030E9418081F
:104DB00020916F0330917003682FC90101960E9402
:104DC0001F0880916F039091700303960E9418084A
:104DD00020916F0330917003682FC90104960E94DF
:104DE0001F0860917D0380916F03909170030E9472
:104DF0001F0880916F03909170036B8102960E944F
:104E00001F0880916F0390917003698103960E943F
:104E10001F08F1E0F0936E03A1CF019690930B0170
:104E200080930A01E12CF12C0FE010E022E330E046
:104E300043E850E06FE570E087EE94E00E94701464
:104E400009811A8110930901009308010FCF01977E
:104E500090930B0180930A01E12CF12C0FE010E0FC
:104E600022E330E043E850E06FE570E087EE94E045
:104E70000E94701429813A8130930901209308011E
:104E8000F5CEEEE3F4E01382128288EE93E0A0E028
:104E9000B0E084839583A683B78322E431E0318335
:104EA000208325EC30E03587248724EC30E03787F9
:104EB000268720EC30E0318B208B21EC30E0338BE7
:104EC000228B22EC30E0358B248B26EC30E0378BC4
:104ED000268B118E128E138E148EEBEDF4E013825E
:104EE000128284839583A683B78384E591E09183BE
:104EF0008083A7EEB4E013961C921E92129720EFC7
:104F000030E015963C932E93149780E491E0179629
:104F10009C938E93169719963C932E9318971B96F5
:104F20009C938E931A9755961C9255971D961C929A
:104F30001E921C971F961C921E921E9781E05496FB
:104F40008C9354972FEF3FEF53963C932E935297A9
:104F500051963C932E93509756968C93569757960E
:104F60001C92579759961C921E925897D3961C9252
:104F7000D397D4961C92D497D6961C921E92D5970E
:104F8000D8961C921E92D7978AE05E968C935E9775
:104F900089E05F968C935F978FEF90968C939097B4
:104FA00091968C93919792968C93929793968C93DB
:104FB00093975A961D921D921D921C925D979996F9
:104FC0001C921E929897D0961C92D09795961C9200
:104FD0001E9294979E961C929E9797961C921E9254
:104FE00096979F961C929F97E2E1F6E0E491F0E09D
:104FF000EE0FFF1FE150FA4F859194919B969C9381
:105000008E939A97E4EFF5E0E491D296EC93D297E1
:10501000E3E1F6E0E491F0E0EE0FFF1FE150FA4F1C
:10502000859194919D969C938E939C97E5EFF5E0E6
:10503000E491D196EC93D19786E691E08D939C9381
:1050400008958F929F92AF92BF92CF92DF92EF928C
:10505000FF92CF93DF93EC01688179818A819B81F4
:10506000611571058105910521F464E279ED8BE507
:1050700097E02DE133EF41E050E00E947D284901A7
:105080005A019B01AC01A7EAB1E40E949C286B0184
:105090007C01ACEEB4EFA50194010E94AA28DC01CA
:1050A000CB018C0D9D1DAE1DBF1DB7FF03C0019729
:1050B000A109B04888839983AA83BB839F77DF9136
:1050C000CF91FF90EF90DF90CF90BF90AF909F90E7
:1050D0008F9008950E94212808958AE291E00E940D
:1050E00021280895A0E0B0E080932A0190932B013D
:1050F000A0932C01B0932D010895052E97FB1EF46B
:1051000000940E94942857FD07D00E94AF2807FC06
:1051100003D04EF40C9494285095409530952195E9
:105120003F4F4F4F5F4F08959095809570956195D3
:105130007F4F8F4F9F4F08950E94D128A59F900DBC
:10514000B49F900DA49F800D911D11240895B7FF69
:105150000C949C280E949C28821B930B0895A1E22A
:105160001A2EAA1BBB1BFD010DC0AA1FBB1FEE1FE1
:10517000FF1FA217B307E407F50720F0A21BB30B2C
:10518000E40BF50B661F771F881F991F1A9469F7A8
:1051900060957095809590959B01AC01BD01CF0104
:1051A0000895A29FB001B39FC001A39F700D811D00
:1051B0001124911DB29F700D811D1124911D089520
:1051C00097FB072E16F4009407D077FD09D00E94B4
:1051D000032907FC05D03EF4909581959F4F0895D3
:1051E000709561957F4F08950E94D128332312F462
:1051F0008A1B9B0B0C94FE280E94D128B7FF0895B0
:10520000821B930B0895AA1BBB1B51E107C0AA1F69
:10521000BB1FA617B70710F0A61BB70B881F991F57
:105220005A95A9F780959095BC01CD010895EE0F90
:10523000FF1F0590F491E02D099481E090E0F8942F
:085240000C942229F894FFCF21
:105248000100020000F81F0001000A00B4002C0150
:1052580013010100FF07BAD603000A0005000C007D
:1052680001007300730006FF0100010000001F0029
:1052780000F8E007FF071FF8E0FFFFFFBAD60000BD
:105288000000F90C700C9A0C460DCB0CA90CBD0C47
:1052980000000000AD048004DD043F0378046404CA
:1052A8005504000000003D17700CDD04DC040115F6
:1052B80012179019FE183F152C156F035315AE05DC
:1052C800E004D214A31470143E16D1157215FA0511
:1052D800FD044573636170652074686500424C4F36
:1052E800434B005374617274004869676873636F55
:1052F800726500436F6E74726F6C730053657474DB
:10530800696E67730073636F72653A200048494796
:105318004853434F52455300313A202000323A2037
:105328002000333A202000343A202000353A20204B
:1053380000434F4E54524F4C53004D6F76652074C6
:105348006865206A6F79737469636B00746F20678E
:105358006F206C65667420616E640072696768749A
:10536800005072657373204320746F20676F00626A
:1053780061636B20746F2074686500686F6D657376
:10538800637265656E0047414D45204F5645520092
:105398007072657373206320746F20676F20626179
:1053A800636B0053455454494E475300486F772068
:1053B8006D616E79206C6976657300646F20796F12
:1053C800752077616E743F00496620796F75207388
:1053D800746172742077697468206D6F72652074C7
:1053E80068616E2033206C697665732C00796F755F
:1053F80072206869676873636F726520776F6E27BC
:105408007420626520736176656400504C45415391
:105418004500434F4E4E454354004E554E43485564
:10542800434B00414E44005245534554000D0A0079
:107E0000112484B714BE81FFF0D085E080938100F7
:107E100082E08093C00088E18093C10086E0809377
:107E2000C20080E18093C4008EE0C9D0259A86E02C
:107E300020E33CEF91E0309385002093840096BBD3
:107E4000B09BFECF1D9AA8958150A9F7CC24DD24C4
:107E500088248394B5E0AB2EA1E19A2EF3E0BF2EE7
:107E6000A2D0813461F49FD0082FAFD0023811F036
:107E7000013811F484E001C083E08DD089C08234E0
:107E800011F484E103C0853419F485E0A6D080C0E4
:107E9000853579F488D0E82EFF2485D0082F10E0AE
:107EA000102F00270E291F29000F111F8ED06801E7
:107EB0006FC0863521F484E090D080E0DECF843638
:107EC00009F040C070D06FD0082F6DD080E0C81688
:107ED00080E7D80618F4F601B7BEE895C0E0D1E017
:107EE00062D089930C17E1F7F0E0CF16F0E7DF06D8
:107EF00018F0F601B7BEE89568D007B600FCFDCFD4
:107F0000A601A0E0B1E02C9130E011968C91119780
:107F100090E0982F8827822B932B1296FA010C0160
:107F200087BEE89511244E5F5F4FF1E0A038BF0790
:107F300051F7F601A7BEE89507B600FCFDCF97BE46
:107F4000E89526C08437B1F42ED02DD0F82E2BD052
:107F50003CD0F601EF2C8F010F5F1F4F84911BD097
:107F6000EA94F801C1F70894C11CD11CFA94CF0C13
:107F7000D11C0EC0853739F428D08EE10CD085E9AC
:107F80000AD08FE07ACF813511F488E018D01DD067
:107F900080E101D065CF982F8091C00085FFFCCF94
:107FA0009093C60008958091C00087FFFCCF809118
:107FB000C00084FD01C0A8958091C6000895E0E648
:107FC000F0E098E1908380830895EDDF803219F02E
:107FD00088E0F5DFFFCF84E1DECF1F93182FE3DFCA
:107FE0001150E9F7F2DF1F91089580E0E8DFEE27F6
:047FF000FF270994CA
:027FFE00040479
:0400000300007E007B
:00000001FF