:100000000C9415030C943D030C943D030C943D0398
:100010000C943D030C94C0190C943D030C943D03C7
:100020000C943D030C94F3190C943D030C943D0384
:100030000C943D030C947C0A0C943D030C943D03FA
:100040000C94C7110C943D030C94D2100C94AC107A
:100050000C943D030C943D030C943D030C943D0320
:100060000C949B070C943D03EF03038002CF030025
:10007000C130ED0464031281E803850078CB0539B3
:100080002C003402F70120EA020000C00123C10164
:1000900010C5023E28C701863601483701003A01E3
:1000A00055B1020018B603088227F20100260101AB
:1000B000E00F0F312B0C0E084EF1370710030E091D
:1000C00000E10F000E1403110731C148080F0C3175
:1000D000360F118029800000000000240027002A2C
:1000E00000000000080002010000030407000000F7
:1000F000000000000000000000003E5B4F5B3E3E41
:100100006B4F6B3E1C3E7C3E1C183C7E3C181C57C3
:100110007D571C1C5E7F5E1C00183C1800FFE7C367
:10012000E7FF0018241800FFE7DBE7FF30483A0636
:100130000E2629792926407F050507407F05253FA2
:100140005A3CE73C5A7F3E1C1C08081C1C3E7F148E
:10015000227F22145F5F005F5F06097F017F0066D8
:1001600089956A606060606094A2FFA29408047E32
:10017000040810207E201008082A1C08081C2A08E1
:10018000081E101010100C1E0C1E0C30383E38309B
:10019000060E3E0E06000000000000005F0000009A
:1001A00007000700147F147F14242A7F2A122313C8
:1001B00008646236495620500008070300001C22DC
:1001C00041000041221C002A1C7F1C2A08083E080E
:1001D000080080703000080808080800006060000F
:1001E00020100804023E5149453E00427F40007203
:1001F000494949462141494D331814127F1027457A
:100200004545393C4A494931412111090736494997
:100210004936464949291E000014000000403400B8
:10022000000008142241141414141400412214086C
:1002300002015909063E415D594E7C1211127C7F24
:10024000494949363E414141227F4141413E7F4932
:100250004949417F090909013E414151737F08081D
:10026000087F00417F41002040413F017F08142268
:10027000417F404040407F021C027F7F0408107F86
:100280003E4141413E7F090909063E4151215E7FC1
:1002900009192946264949493203017F01033F4094
:1002A00040403F1F2040201F3F4038403F6314081C
:1002B000146303047804036159494D43007F4141AD
:1002C000410204081020004141417F040201020460
:1002D0004040404040000307080020545478407FCD
:1002E000284444383844444428384444287F385407
:1002F00054541800087E090218A4A49C787F0804AE
:10030000047800447D40002040403D007F10284498
:100310000000417F40007C047804787C0804047865
:100320003844444438FC1824241818242418FC7C2D
:1003300008040408485454542404043F44243C4012
:1003400040207C1C2040201C3C4030403C44281075
:1003500028444C9090907C4464544C4400083641AE
:10036000000000770000004136080002010204028C
:100370003C2623263C1EA1A161123A4040207A3837
:100380005454555921555579412254547842215598
:1003900054784020545579400C1E527212395555EC
:1003A0005559395454545939555454580000457CC2
:1003B000410002457D420001457C407D1211127DC5
:1003C000F0282528F07C545545002054547C547C5A
:1003D0000A097F4932494949323A4444443A324A47
:1003E0004848303A4141217A3A42402078009DA065
:1003F000A07D3D4242423D3D4040403D3C24FF24E3
:1004000024487E4943662B2FFC2F2BFF0929F62019
:10041000C0887E090320545479410000447D413056
:1004200048484A32384040227A007A0A0A727D0DE2
:1004300019317D2629292F28262929292630484D9A
:100440004020380808080808080808382F10C8ACE9
:10045000BA2F102834FA00007B000008142A142256
:1004600022142A14085500550055AA55AA55AAFF6A
:1004700055FF55FF000000FF00101010FF0014147E
:1004800014FF001010FF00FF1010F010F0141414EF
:10049000FC001414F700FF0000FF00FF1414F40424
:1004A000FC141417101F10101F101F1414141F0019
:1004B000101010F0000000001F101010101F10107E
:1004C0001010F010000000FF10101010101010108D
:1004D00010FF10000000FF140000FF00FF00001FCD
:1004E00010170000FC04F414141710171414F4046B
:1004F000F40000FF00F714141414141414F700F798
:10050000141414171410101F101F141414F41410C2
:1005100010F010F000001F101F0000001F1400005A
:1005200000FC140000F010F01010FF10FF14141461
:10053000FF141010101F00000000F010FFFFFFFF5D
:10054000FFF0F0F0F0F0FFFFFF0000000000FFFF01
:100550000F0F0F0F0F3844443844FC4A4A4A347E88
:1005600002020606027E027E026355494163384458
:10057000443C04407E201E2006027E020299A5E72C
:10058000A5991C2A492A1C4C7201724C304A4D4DC7
:10059000303048784830BC625A463D3E49494900AF
:1005A0007E0101017E2A2A2A2A2A44445F444440CB
:1005B000514A444040444A51400000FF0103E0805A
:1005C000FF000008086B6B083612362436060F0948
:1005D0000F06000018180000001010003040FF0146
:1005E00001001F01011E00191D1712003C3C3C3C7C
:1005F00000000000000102040810204080010204F5
:100600000810200102040810200000000025002826
:10061000002B000404040404040404020202020285
:100620000203030303030300B92C11241FBECFEF01
:10063000D8E0DEBFCDBF13E0A0E0B1E0EEE1F0E630
:1006400002C005900D92A439B107D9F725E0A4E9BD
:10065000B3E001C01D92A43EB207E1F713E0C5E18B
:10066000D3E004C02197FE010E94E12EC431D107DE
:10067000C9F70E94F01A0C940D300C9400004F92B0
:100680005F926F927F928F929F92AF92BF92CF9222
:10069000DF92EF92FF920F931F93CF93DF936C0142
:1006A0002B015A0139014801DC01ED91FC910284D2
:1006B000F385E02D0995E201640C751CD601ED91DE
:1006C000FC91C615D7055CF40088F189E02D8701FF
:1006D0009401A501BE01C60109952196EFCF0688B8
:1006E000F789E02DC601DF91CF911F910F91FF9007
:1006F000EF90DF90CF90BF90AF909F908F907F90C2
:100700006F905F904F9009948F929F92AF92BF929B
:10071000CF92DF92EF92FF920F931F93CF93DF93CD
:10072000EC015B014A016901E881F9810284F385EA
:10073000E02D099595012C0D3D1D21503109E881D1
:10074000F9810488F589E02D78018401A401B501BF
:10075000CE010995E881F9810688F789E02DCE015F
:10076000DF91CF911F910F91FF90EF90DF90CF908D
:10077000BF90AF909F908F9009948F929F92AF926D
:10078000BF92CF92DF92EF92FF920F931F93CF937E
:10079000DF93EC015B014A0169017801E881F9818D
:1007A0000284F385E02D0995C80CD91C86010150FF
:1007B0001109E881F9810488F589E02D9501A401EA
:1007C000B501CE010995E881F9810688F789E02D08
:1007D000CE01DF91CF911F910F91FF90EF90DF90AD
:1007E000CF90BF90AF909F908F9009940895EF9213
:1007F000FF920F931F93DC01ED91FC9100A0F1A1FA
:10080000E02D09951F910F91FF90EF9008950F93A0
:100810001F93DC01ED91FC91068CF78DE02D09957D
:100820001F910F9108950F931F93DC01ED91FC919F
:10083000048CF58DE02D09951F910F910895DC0131
:10084000ED91FC910084F185E02D09942F923F9267
:100850004F925F926F927F928F929F92AF92BF92D0
:10086000CF92DF92EF92FF920F931F93CF93DF937C
:1008700000D000D000D0CDB7DEB72C017E836D83D1
:100880006A015901C801FC82EB824801841A950A69
:1008900097FE03C091948194910835012D813E818A
:1008A000621A730A77FE03C0719461947108681428
:1008B00079045CF43A2D2B2D5C01832F922F3D811E
:1008C0002E81DE82CD82C32ED22EAD81BE81AA16AC
:1008D000BB065CF43C2D2D2D6C01832F922F3D81A6
:1008E0002E81BE82AD82A32EB22E85012D813E8146
:1008F000021B130B1C012C183D0837FE03C031945A
:1009000021943108780117FF03C03FEFE31AF30A7F
:10091000F594E794C816D9062CF08FEF9FEF9A83D1
:10092000898304C0A1E0B0E0BA83A9832D813E8110
:10093000A216B30624F1D201ED91FC910484F58551
:10094000E02D2B813C816814790424F44D815E8173
:10095000B60103C0A6016D817E81C2010995E2182E
:10096000F308F7FE06C029813A81C20ED31EE00EBD
:10097000F11E8D819E8101969E838D83D7CF269611
:100980000FB6F894DEBF0FBECDBFDF91CF911F91A0
:100990000F91FF90EF90DF90CF90BF90AF909F901E
:1009A0008F907F906F905F904F903F902F90089521
:1009B00085ED8093BC008091BC0084FDFCCF10923B
:1009C000D404089540918104262F30E0240F311D76
:1009D00021323105DCF42091D4042430C9F4FC0127
:1009E00080E090E0861758F4309181042191DC0179
:1009F000AF59BB4FA30FB11D2C930196F3CF80913C
:100A00008104680F6093810480E0089581E0089577
:100A100082E0089508950895E0915A048091590460
:100A2000E81730F4F0E0E75CFB4F808190E0089538
:100A30008FEF9FEF089590915A0480915904981771
:100A400050F4E92FF0E0E75CFB4F208130E09F5F3E
:100A500090935A0402C02FEF3FEFC901089580918F
:100A6000590490E020915A04821B91090895CF9275
:100A7000DF92EF92FF920F931F93CF93DF937C014E
:100A8000CB018A012091D504222389F0EB016B016F
:100A9000C40ED51ECC15DD0569F06991D701ED9125
:100AA000FC910190F081E02DC7010995F3CF642FEF
:100AB0000E94E204C801DF91CF911F910F91FF9036
:100AC000EF90DF90CF900895CF93DF931F92CDB733
:100AD000DEB769832091D5042223D1F02091F80458
:100AE000203240F021E030E0FC013383228380E0BB
:100AF00090E015C08091D604E82FF0E0E952FB4F5A
:100B0000998190838F5F8093D6048093F80405C009
:100B100061E0CE0101960E94E20481E090E00F9036
:100B2000DF91CF910895089580E090E008951F939C
:100B3000CF93DF93EC01162FE881F9810284F385CE
:100B4000E02D0995111102C060E201C061E2CE0101
:100B50000E94BC12E881F9810688F789E02DCE0158
:100B6000DF91CF911F9109948F929F92AF92BF9284
:100B7000CF92DF92EF92FF920F931F93CF93DF9369
:100B8000EC01490181E0881A9108860E971EC40184
:100B9000A0E0B0E04B01A12CB12C54019924882491
:100BA000882A992AAA2ABB2A680181E0C81AD10892
:100BB000C40ED51EC601A0E0B0E06A01E12CF12C04
:100BC0007601DD24CC24C82AD92AEA2AFB2A6AE243
:100BD000CE010E94BC122BA16B2D77278827992765
:100BE00027FF18C06EBD0DB407FEFDCFC501AA27B3
:100BF000BB278EBD0DB407FEFDCFBB27AB2D9A2DB5
:100C0000892D8EBD0DB407FEFDCF8EBC0DB407FE41
:100C1000FDCF14C0CE010E941112B501882799277B
:100C2000CE010E94111299278B2D7A2D692DCE01AC
:100C30000E941112682DCE010E9411126BE2CE01AA
:100C40000E94BC122BA16F2D77278827992727FF99
:100C500018C06EBD0DB407FEFDCFC701AA27BB2784
:100C60008EBD0DB407FEFDCFBB27AF2D9E2D8D2D64
:100C70008EBD0DB407FEFDCFCEBC0DB407FEFDCF7B
:100C800014C0CE010E941112B70188279927CE0106
:100C90000E94111299278F2D7E2D6D2DCE010E945D
:100CA00011126C2DCE010E9411126CE2CE01DF9167
:100CB000CF911F910F91FF90EF90DF90CF90BF9059
:100CC000AF909F908F900C94BC121F93CF93DF93A3
:100CD000EC0163706D8B6230C1F0633001F1613003
:100CE00051F080EF90E09987888780E491E09B87BE
:100CF0008A8718E41DC080E491E09987888780EF97
:100D000090E09B878A8718E213C080EF90E0998774
:100D1000888780E491E09B878A8718E809C080E48F
:100D200091E09987888780EF90E09B878A8718EE0B
:100D3000E881F9810284F385E02DCE01099566E30F
:100D4000CE010E94BC12612FCE010E941112E881D7
:100D5000F9810688F789E02DCE01DF91CF911F91AF
:100D60000994BF92CF92DF92EF92FF920F931F935D
:100D7000CF93DF93EC01411551056105710521F415
:100D800040E052E16AE770E04C8F5D8F6E8F7F8F9D
:100D900088A187FD07C061E00E94511161E088A130
:100DA0000E94041161E089A10E94511160E089A1B3
:100DB0000E9404118BA187FD19C061E08CA10E94E3
:100DC000511160E08CA10E94041161E08BA10E948E
:100DD000511161E08BA10E9404118DA187FD03C018
:100DE00060E00E9451118BA187FF33C01FB7F894B8
:100DF0008091A404811127C0EDE1F6E08491EFEF2A
:100E0000F5E09491E82FF0E0EE0FFF1FE952FF4F5D
:100E1000A591B491EC91E92321F461E08AE00E946C
:100E2000041161E08AE00E9451118CB580618CBD93
:100E30008CB580648CBD61E08DE00E94511161E051
:100E40008BE00E9451118091A4048F5F8093A404D1
:100E50001FBF8AA187FD21C061E00E94511161E09E
:100E60008AA10E94041164E670E080E090E00E9494
:100E70008D1160E08AA10E94041164E670E080E0B8
:100E800090E00E948D1161E08AA10E94041168EC3B
:100E900070E080E090E00E948D11E881F981028489
:100EA000F385E02DCE01099508E610E078018FEF7B
:100EB000E81AF80AF8016491662321F1CE010E9434
:100EC000BC120E5F1F4FF701E490FE2DFF77BF2E7F
:100ED0006801FF2EFA948FEFF81649F0F60164913D
:100EE000CE010E941112FFEFCF1ADF0AF3CF0B0DD4
:100EF000111DE7FEDBCF68E770E080E090E00E9424
:100F00008D11D4CFE881F9810688F789E02DCE01D3
:100F1000099580EF90E09987888780E491E09B872E
:100F20008A87DF91CF911F910F91FF90EF90DF9013
:100F3000CF90BF9008951F920F920FB60F92112479
:100F40002F933F934F935F936F937F938F939F93D1
:100F5000AF93BF93EF93FF938091B900887F803662
:100F600009F49CC068F5883209F45BC090F48031C4
:100F700009F454C038F4882309F4F6C0883009F421
:100F80004DC0F6C0883109F44CC0803209F45DC010
:100F9000EFC0803409F468C048F4803309F455C0C8
:100FA000883309F0E5C08093D204D8C0803509F4B5
:100FB0004FC0883509F45DC0883409F0D9C0D6C067
:100FC000883909F4C7C0A8F4883709F467C038F431
:100FD000883609F463C0803709F460C0C9C0883816
:100FE00009F4B8C0803909F45FC0803809F0C0C086
:100FF0005BC0803B09F486C038F4803A09F466C0CF
:10100000883A09F47FC0B4C0803C09F4A7C0883C8A
:1010100009F4A4C0883B09F48AC0AAC08091AF0437
:1010200010C09091D1048091D004981770F5E09190
:10103000D10481E08E0F8093D104F0E0E055FB4FA6
:1010400080818093BB0085EC86C08093D2048EC0E3
:10105000E091D10481E08E0F8093D1048091BB0098
:10106000F0E0E055FB4F80839091D1048091D00453
:101070006EC0E091D10481E08E0F8093D104809105
:10108000BB00F0E0E055FB4F80838091D3048111D9
:101090006DC081E08093AE0484EA61C083E08093F8
:1010A000D4041092A304CFCF8091A304803208F01F
:1010B00051C0E091A30481E08E0F8093A30480913E
:1010C000BB00F0E0ED57FB4F8083BDCF85EC8093F4
:1010D000BC001092D4048091A304803230F4E091DB
:1010E000A304F0E0ED57FB4F10826091A30470E081
:1010F000E0915D04F0915E0483E894E0099510921C
:10110000A30436C084E08093D40410928204109229
:101110008104E0915B04F0915C0409958091810465
:10112000811105C081E08093810410926104E091F7
:10113000820481E08E0F80938204F0E0EF59FB4F30
:1011400080818093BB0090918204809181049817E4
:1011500008F479CF85E88093BC000AC085EC8093C1
:10116000BC001092D40404C01092D2040E94D8048F
:10117000FF91EF91BF91AF919F918F917F916F916F
:101180005F914F913F912F910F900FBE0F901F9045
:101190001895DC01FC01EC5AFF4F8081882369F02F
:1011A00085B190E2982795B98AB198E098279AB9C5
:1011B00057961C921E9256971082089580911D0496
:1011C0008095817090E00895F999FECF92BD81BD20
:1011D000F89A80B50895F999FECF92BD81BD60BDA2
:1011E000FA9AF99A08958F929F92AF92BF92CF92F6
:1011F000DF92EF92FF920F931F93CF93DF935C01E7
:10120000EB017A0180912601909127012DE8A21629
:10121000B10454F08F3D9105C4F420911A0130912E
:101220001B01820F931F0DC026E7A216B1046CF4B8
:101230008231910554F020911A0130911B01821BDB
:10124000930B909327018093260197014AE050E089
:10125000BE0180912601909127010E945214809135
:1012600026019091270105E010E02AE030E040E2FD
:1012700050E0BE016550710940970E94C6138DE889
:10128000A816B1040CF494C0809126019091270116
:101290005E0126E0A21AB108AC01495051094E0185
:1012A0002BE0821A9108C0903504D0903604740166
:1012B0008A019501B40104970E94E914E090350475
:1012C000F090360460912601709127016F507109EA
:1012D00006E010E027E030E0A40184EA95E00E94F7
:1012E000520D8091260190912701AC014051510986
:1012F000C0903504D09036049E012250310975010A
:101300008A01B5010D970E94E914E0903504F09030
:101310003604AE01485051096091260170912701B1
:101320006951710901E110E02AE030E084EA95E0BA
:101330000E94520D8091260190912701AC014051ED
:1013400051095E0126E0A20EB11CC0903504D09078
:1013500036049E012E5F3F4F75018A01B5010D973E
:101360000E94E914E0903504F09036046091260163
:10137000709127016F50710906E010E027E030E01E
:10138000A50184EA95E00E94520D8091260190917A
:101390002701AC0149505109BE01655F7F4FC090E4
:1013A0003504D09036047B018A019501049795C0DD
:1013B00086E7A816B1040CF092C040912601509126
:1013C00027019E01255F3F4F5E0186E0A80EB11CFC
:1013D000CA010996C0903504D09036044C5F5F4F27
:1013E00079018C01B5010E94E914E0903504F09078
:1013F00036046091260170912701685F7F4F06E0F7
:1014000010E027E030E0A50184EA95E00E94520D4B
:101410008091260190912701AC01405F5F4FC09001
:101420003504D09036049E012E5F3F4F75018A012E
:10143000B5010D960E94E914E0903504F090360451
:10144000AE01485051096091260170912701615FFA
:101450007F4F01E110E02AE030E084EA95E00E944D
:10146000520D8091260190912701AC01405F5F4FA2
:101470005E0126E0A21AB108C0903504D09036046F
:101480009E012250310975018A01B5010D960E9415
:10149000E9142B97E0903504F09036046091260112
:1014A00070912701675F7F4F06E010E027E030E092
:1014B000AE0184EA95E00E94520D80912601909140
:1014C0002701AC01475F5F4FC0903504D0903604D0
:1014D0007E018A019501BE0104960E94E914DF9104
:1014E000CF911F910F91FF90EF90DF90CF90BF9021
:1014F000AF909F908F9008951F920F920FB60F920A
:1015000011242F933F938F939F9380911604909172
:101510001704909385008093840080915F049091DC
:10152000600401969093600480935F0420911E01F3
:1015300030911F0128173907E4F480912801909118
:101540002901019690932901809328018091290413
:1015500090912A04019749F48091330490913404C6
:101560000196909334048093330410926004109297
:101570005F049F918F913F912F910F900FBE0F901D
:101580001F901895AF92BF92CF92DF92EF92FF9289
:101590000F931F93CF93DF93C4EED3E082EBA82E7B
:1015A00083E0B82E99E1C92ED12C00EF10E00E9403
:1015B000372E7E01B6010E94AA2E499689939993EF
:1015C0000E94372EF70120813181B801621B730B15
:1015D0000E94AA2EF501819391935F01F4E0C83136
:1015E000DF0729F7DF91CF911F910F91FF90EF90C7
:1015F000DF90CF90BF90AF900895609137047091C5
:101600003804709336046093350484EA95E00E94B0
:10161000F50E80912A0190912B018130910509F0FE
:1016200087C028E33FEF30932901209328011092CF
:1016300034041092330423E730E0309327012093E1
:101640002601309325012093240110923204109238
:1016500031041092300410922F0410922E04109234
:101660002D0410922C0410922B0410922A04109234
:10167000290490932301809322018CE090E09093C1
:1016800021018093200185E090E090931F018093D9
:101690001E018AE090E090931D0180931C0110923E
:1016A0002804109227041092260410922504109208
:1016B0002404109223041092220410922104109208
:1016C000200410921F0410921E0483E090E0909377
:1016D0001B0180931A018AEB96ED90931901809378
:1016E00018018FEF97E0909317018093160184E023
:1016F00090E090931501809314010E94C20A80919A
:101700001201909113018530910511F0029781F437
:10171000809110019091110120910E0130910F01E3
:10172000309311012093100190930F0180930E01CB
:1017300080912A0190912B018430910561F42AE077
:1017400030E030931F0120931E0125E030E03093FC
:101750001B0120931A0190931301809312010895A5
:10176000CF92DF92EF92FF920F931F93CF93DF936D
:101770006C01EB016333710514F0C2E3D0E0E0903B
:101780001801F090190140912801509129014C1B3A
:101790005D0B8E019E01B60184EA95E00E94520D18
:1017A00000911C0110911D01E0903504F090360469
:1017B00040912801509129014C1B5D0B401B510B9E
:1017C0009E01B60184EA95E00E94520DC65BDE4F91
:1017D0008091280190912901C817D907ECF5209133
:1017E00033043091340480910C0190910D018217E3
:1017F000930794F580912201909123010196909393
:10180000230180932201E0903504F09036040AE031
:1018100010E022E330E040E050E068EC70E084EA61
:1018200095E00E94520D109229011092280180919A
:101830002D0490912E048436910574F0E091B0034C
:10184000F091B103EE0FFF1FEC5BFE4F80819181A1
:101850009093190180931801DF91CF911F910F91FF
:10186000FF90EF90DF90CF900895CF92DF92EF92AC
:10187000FF920F931F93CF93DF936C017A018B013B
:10188000C0E0D0E0CE15DF0581F0D8016D918D016B
:10189000D601ED91FC910190F081E02DC6010995F2
:1018A000892B11F02196EECF7E01C701DF91CF91F8
:1018B0001F910F91FF90EF90DF90CF900895FC0162
:1018C000538D448D252F30E0842F90E0821B930BA5
:1018D000541710F0CF96089501970895FC01918D4B
:1018E000828D981761F0828DDF01A80FB11D5D9682
:1018F0008C91928D9F5F9F73928F90E008958FEFF0
:101900009FEF0895FC01918D828D981731F0828DA3
:10191000E80FF11D858D90E008958FEF9FEF0895FA
:10192000FC01918D228D892F90E0805C9F4F821B5E
:1019300091098F7399270895FC01848DDF01A80F09
:10194000B11DA35ABF4F2C91848D90E001968F73E7
:101950009927848FA689B7892C93A089B1898C9106
:10196000837080648C93938D848D981306C0028855
:10197000F389E02D80818F7D80830895EF92FF921F
:101980000F931F93CF93DF93EC0181E0888F9B8DA2
:101990008C8D981305C0E889F989808185FD26C062
:1019A000F62E0B8D10E00F5F1F4F0F731127E02EE7
:1019B0008C8DE8120CC00FB607FCFACFE889F989C4
:1019C000808185FFF5CFCE010E949C0CF1CF8B8DDD
:1019D000FE01E80FF11DE35AFF4FF0829FB7F89424
:1019E0000B8FEA89FB89808180620AC09FB7F894D7
:1019F000EE89FF896083E889F9898081837080643A
:101A000080839FBF81E090E0DF91CF911F910F9184
:101A1000FF90EF900895CF93DF93EC01888D88239A
:101A2000C9F0EA89FB89808185FD05C0A889B9894B
:101A30008C9186FD0FC00FB607FCF5CF808185FF26
:101A4000F2CFA889B9898C9185FFEDCFCE010E9494
:101A50009C0CE7CFDF91CF9108953FB7F894809128
:101A6000AA049091AB04A091AC04B091AD0426B54A
:101A7000A89B05C02F3F19F00196A11DB11D3FBFC6
:101A8000BA2FA92F982F8827820F911DA11DB11D54
:101A9000BC01CD0142E0660F771F881F991F4A9550
:101AA000D1F708958F929F92AF92BF92CF92DF921B
:101AB000EF92FF920F931F93CF93DF93EC016B0193
:101AC0005A014901E881F9810284F385E02D0995E5
:101AD000E881F9810684F785E02D9401A501B6011E
:101AE000CE010995E881F9810688F789E02DCE01BC
:101AF000DF91CF911F910F91FF90EF90DF90CF90EA
:101B0000BF90AF909F908F900994AF92BF92CF9269
:101B1000DF92EF92FF920F931F93CF93DF93EC012D
:101B20007B016A015901E881F9810284F385E02D86
:101B30000995E881F9810288F389E02D9501A601D4
:101B4000B701CE010995E881F9810688F789E02D72
:101B5000CE01DF91CF911F910F91FF90EF90DF9019
:101B6000CF90BF90AF900994AF92BF92CF92DF9287
:101B7000EF92FF920F931F93CF93DF93EC017B01C2
:101B80006A015901E881F9810284F385E02D099504
:101B9000E881F9810088F189E02D9501A601B7015E
:101BA000CE010995E881F9810688F789E02DCE01FB
:101BB000DF91CF911F910F91FF90EF90DF90CF9029
:101BC000BF90AF900994EF92FF920F931F93DC01A7
:101BD000ED91FC910684F785E02D780101E010E09D
:101BE00009951F910F91FF90EF900895EF92FF924A
:101BF0000F931F93DC01ED91FC910684F785E02D96
:101C00007801890121E030E009951F910F91FF9043
:101C1000EF900895FC0193A906A4F7A5E02D80811B
:101C2000892B808308950895FC016370658B8481FE
:101C3000958126813781613039F0633029F09187B1
:101C4000808733872287089531872087938782870B
:101C500008956F927F928F929F92AF92BF92CF9290
:101C6000DF92EF92FF920F931F93CF93DF93EC01DC
:101C70004B015A0169013801E881F9810284F38539
:101C8000E02D0995E881F9810288F389E02D87012B
:101C90009601A501B401CE010995A501460D571D78
:101CA00041505109E881F9810288F389E02D9601BC
:101CB000B401CE010995E881F9810088F189E02D10
:101CC0009301A501B401CE010995C80CD91CB60138
:101CD00061507109E881F9810088F189E02D930153
:101CE000A501CE010995E881F9810688F789E02DE3
:101CF000CE01DF91CF911F910F91FF90EF90DF9078
:101D0000CF90BF90AF909F908F907F906F900994ED
:101D10008F929F92AF92BF92CF92DF92EF92FF92FB
:101D20000F931F93CF93DF934C016B015A01E9018D
:101D3000DC01ED91FC916217730781F4041715071C
:101D400024F48B2D5801042F182F0A191B09980110
:101D50002F5F3F4F048CF58DE02D12C040175107C7
:101D600009F52617370724F48D2D6901C62FD82FC2
:101D70009E012C193D092F5F3F4F068CF78DE02DFA
:101D80008701A501B601C4010995DF91CF911F918B
:101D90000F91FF90EF90DF90CF90BF90AF909F900A
:101DA0008F9008950284F385E02D0995D401ED917B
:101DB000FC910488F589E02D9E01A501B601C401BE
:101DC0000995D401ED91FC910688F789E02DC401B5
:101DD000DF91CF911F910F91FF90EF90DF90CF9007
:101DE000BF90AF909F908F900994EF92FF920F93C6
:101DF0001F93DC011A960D911C911B9718962D913B
:101E00003C911997ED91FC9100A0F1A1E02D7B018F
:101E100040E050E060E070E009951F910F91FF9065
:101E2000EF9008950E940830AF92BF92CF92DF9258
:101E3000EF92FF920F931F93CF93DF93EC0177FD07
:101E400038C088859985681779079CF557FD31C09A
:101E50008A859B854817590764F569017A015B01FA
:101E6000E881F9810284F385E02DCE010995E881AE
:101E7000F98102A4F3A5E02D01E010E021E030E0BB
:101E8000A701B501CE010995B601CE010E94E41863
:101E9000E881F9810688F789E02DCE01DF91CF91A5
:101EA0001F910F91FF90EF90DF90CF90BF90AF9078
:101EB0000994DF91CF911F910F91FF90EF90DF90E8
:101EC000CF90BF90AF900895EF92FF920F931F9322
:101ED000CF93DF93EC0177FD22C088859985681741
:101EE0007907ECF457FD1BC08A859B854817590775
:101EF000B4F47901E881F98102A4F3A5E02D01E0B1
:101F000010E021E030E0CE010995B701CE01DF916C
:101F1000CF911F910F91FF90EF900C94E418DF91F7
:101F2000CF911F910F91FF90EF900895FC0183A135
:101F300087FF1EC0448D558D668D778D80E092E1C0
:101F4000AAE7B0E020E0481759076A077B0740F48A
:101F5000B695A795979587952F5F2630A1F727E02F
:101F600091E09227892F806A869591708CBD9DBDE6
:101F700083A906A4F7A5E02D90818095892380830D
:101F80000895AF92BF92CF92EF92FF920F931F935B
:101F9000CF93DF93EC01262F888D998D009709F060
:101FA00040C06A3059F41D861C862C898E859F8519
:101FB00038E0239F800D911D112441C06D3009F43C
:101FC000AAC08E898823C1F03C898C859D8546E016
:101FD000349F800D911D1124488559854817590754
:101FE0005CF41D861C868E859F8548E0349F800D9D
:101FF000911D11249F878E87EA88FB88088919899B
:102000004E855F856C857D85CC88CE010E94CA1681
:102010002C898C859D8536E0239F800D911D112490
:1020200042C06A3079F41D861C862C89FC013696E4
:10203000E4918E859F852E9F800D911D11249F8791
:102040008E8769C06D3009F466C0FC013496349106
:10205000631708F460C03196E491E61708F45BC09A
:10206000FC01329665917491422F50E0431B510957
:1020700037E0349F5001359FB00C1124A60EB71ED7
:10208000F501329634913196E491332311F0E11148
:102090000DC0F5013496E4912C898C859D85E29FD5
:1020A000800D911D11249D878C8735C0F5013596D3
:1020B00044915E89552311F16C89E32FF0E0E40F20
:1020C000F11D47FDFA956E9FD0016F9FB00D112451
:1020D0004C855D854A0F5B1FE885F985E417F50798
:1020E0006CF41D861C86FC013696E4918E859F85D6
:1020F0006E9F800D911D11249F878E87EA88FB8833
:10210000088919894E855F856C857D85CC88CE01CF
:102110000E94CA16BECF81E090E0DF91CF911F915F
:102120000F91FF90EF90CF90BF90AF900895611501
:10213000710579F0FB0101900020E9F73197AF01BB
:10214000461B570BDC01ED91FC910280F381E02DE1
:10215000099480E090E008951F920F920FB60F92BD
:1021600011242F933F934F935F936F937F938F939C
:102170009F93AF93BF93EF93FF9389EF94E00E94F7
:102180009C0CFF91EF91BF91AF919F918F917F91A7
:102190006F915F914F913F912F910F900FBE0F90D4
:1021A0001F9018951F920F920FB60F9211242F9324
:1021B0008F939F93EF93FF93E0910905F0910A05A8
:1021C0008081E0910F05F091100582FD12C0908191
:1021D000809112058F5F8F7320911305821751F044
:1021E000E0911205F0E0E750FB4F958F80931205C8
:1021F00001C08081FF91EF919F918F912F910F905E
:102200000FBE0F901F90189590E0FC01EF51FF4F0B
:102210002491FC01EB50FA4F3491FC01ED5EF94F33
:10222000E491EE2309F43CC0222339F1233091F0EC
:1022300038F42130A9F0223001F584B58F7D12C029
:10224000273091F02830A1F02430B9F4809180003B
:102250008F7D03C0809180008F77809380000DC0B8
:1022600084B58F7784BD09C08091B0008F7703C09B
:102270008091B0008F7D8093B000F0E0EE0FFF1FE3
:10228000E75FF94FA591B4919FB7F894611104C02D
:102290008C913095382302C0EC913E2B3C939FBF2C
:1022A0000895CF93DF9390E0FC01EB50FA4F249117
:1022B000FC01ED5EF94F8491882361F190E0880F75
:1022C000991FFC01E952FF4FC591D491FC01E75FD2
:1022D000F94FA591B491611109C09FB7F894888115
:1022E000209582238883EC912E230BC0623061F409
:1022F0009FB7F8948881322F309583238883EC919F
:102300002E2B2C939FBF06C08FB7F894E8812E2BFD
:1023100028838FBFDF91CF9108958F929F92AF92C4
:10232000BF92CF92DF92EF92FF926B017C010E94ED
:102330002D0D4B015C01C114D104E104F104F1F055
:102340000E942D0DDC01CB0188199909AA09BB094E
:10235000883E9340A105B10570F321E0C21AD1086F
:10236000E108F10888EE880E83E0981EA11CB11CDC
:10237000C114D104E104F10419F7DDCFFF90EF900F
:10238000DF90CF90BF90AF909F908F9008951F9255
:102390000F920FB60F9211242F933F938F939F9319
:1023A000AF93BF938091A6049091A704A091A80435
:1023B000B091A9043091A50423E0230F2D3720F418
:1023C0000196A11DB11D05C026E8230F0296A11D8F
:1023D000B11D2093A5048093A6049093A704A09315
:1023E000A804B093A9048091AA049091AB04A09191
:1023F000AC04B091AD040196A11DB11D8093AA0457
:102400009093AB04A093AC04B093AD04BF91AF9193
:102410009F918F913F912F910F900FBE0F901F9022
:102420001895FC0183A187FF05C06EBD0DB407FEA2
:10243000FDCF089588E090E020E8A6A1B7A1362F4F
:10244000322321F040A93C91342B04C030A94C9197
:10245000309534233C9332A9A2A5B3A54C91309575
:1024600034233C9342A9A2A5B3A53C91342B3C93C1
:102470002695019711F708958F929F92AF92BF9280
:10248000CF92DF92EF92FF920F931F93CF93DF9340
:10249000EC016901580147012885398562177307E6
:1024A0000CF05DC08A859B85481759070CF057C012
:1024B0007B01EC0CFD1CD70111978A010A0D1B1D35
:1024C000F8013197B7FD4BC0F7FD49C077FF03C056
:1024D000670160E070E057FF03C0580140E050E042
:1024E000A217B3071CF06901C61AD70AE817F90743
:1024F0001CF05C01A41AB50AE881F98102A4F3A5D5
:10250000E02D85019601CE0109959601D5010E9425
:10251000BE2E611571058105910509F12BA127FFDB
:102520000EC06150710981099109C8F09EBC0DB4BB
:1025300007FEFDCF8EBC0DB407FEFDCFF2CF6B01C1
:102540007C01692DCE010E941112682DCE010E94DE
:10255000111281E0C81AD108E108F10891F7DF9162
:10256000CF911F910F91FF90EF90DF90CF90BF9090
:10257000AF909F908F900895CF93DF93EC018CA93B
:10258000ECA5FDA59081809589238083CE010E94D2
:1025900011129CA9ECA5FDA58081892B8083DF9178
:1025A000CF9108951F93CF93DF93EC01162FE8810D
:1025B000F9810284F385E02D0995112311F06DA9AD
:1025C00001C06EA9CE010E94BC12E881F981068883
:1025D000F789E02DCE01DF91CF911F9109942F92C1
:1025E0003F924F925F926F927F928F929F92AF92A3
:1025F000BF92CF92DF92EF92FF920F931F93CF93F0
:10260000DF93CDB7DEB72A970FB6F894DEBF0FBEC3
:10261000CDBF5C017E836D835A874987370181E096
:1026200090E07C01E41AF50ACA019195819591091F
:10263000AC01440F551F5C834B83C80101969A83FC
:1026400089831B012C0189849A84CC24C394D12CC6
:10265000922F91709F8322702887C6010197298548
:102660003A85821793070CF078C0F7FC0CC0215014
:1026700031093A8729874B815C814E5F5F4F5C83CC
:102680004B83E40EF51EC601880F991F0196E80ED4
:10269000F91E89859A858C159D0594F19F81992352
:1026A000B1F029853A85220F331F49815A81240FC1
:1026B000351F83014D815E8189859A85481B590BA1
:1026C000B5016C0D7D1D84EA95E00E94F60D98859C
:1026D0009923B1F029853A85220F331F49815A8108
:1026E000240F351F83014D815E8189859A85481BA2
:1026F000590BB5016C197D0984EA95E00E94F60D2D
:1027000029853A852815390551F42FEFC21AD20AC6
:1027100031E0231A310842E0440E511C9ECF3F8124
:10272000332351F083019201A101B501680D791D98
:1027300084EA95E00E94F60D4885411103C0898422
:102740009A84E3CFB5016819790983019201A10147
:1027500084EA95E00E94F60DF2CF2A960FB6F8941F
:10276000DEBF0FBECDBFDF91CF911F910F91FF90C4
:10277000EF90DF90CF90BF90AF909F908F907F9021
:102780006F905F904F903F902F9008952F923F92BF
:102790004F925F926F927F928F929F92AF92BF9271
:1027A000CF92DF92EF92FF920F931F93CF93DF931D
:1027B00000D000D0CDB7DEB71C012B015A01690152
:1027C00047014217530734F45A83498357FF0AC01D
:1027D0009A0104C03A83298337FF04C02F5F3F4F1B
:1027E0003A83298389819A81959587959A838983EC
:1027F00029813A813C832B830217130714F41C832D
:102800000B8384EA95E00E94960F6B807C80660CB7
:10281000771C8B819C81820D931D9A8389839501FE
:102820002619370974018601A201BC0184EA95E0EA
:102830000E943C12C618D70891E0C91AD1082B8112
:102840003C81420E531EA20CB31CC501821B930B8C
:10285000860121E04B815C81B20101970E94EF1259
:1028600022E04B815C81B20189819A810E94EF1242
:1028700084EA95E00F900F900F900F90DF91CF9129
:102880001F910F91FF90EF90DF90CF90BF90AF908E
:102890009F908F907F906F905F904F903F902F9080
:1028A0000C940A0EAF92BF92CF92DF92EF92FF92FA
:1028B0000F931F93CF93DF936C015B01EA017901C2
:1028C00084EA95E00E94960F9E01220F331F2F5F2E
:1028D0003F4FA5014C1B5D0B8701B60184EA95E0D3
:1028E0000E94F60D00E010E023E0AE01B501C60144
:1028F0000E94EF1284EA95E0DF91CF911F910F9132
:10290000FF90EF90DF90CF90BF90AF900C940A0EA5
:10291000BC0184EA95E00C949710282F3091F804BC
:10292000313208F04AC08091D4048111FCCF9091DB
:10293000F70442E04093D4042093D3042FEF209374
:10294000D2041092D1043093D004E7EDF4E0A0EB70
:10295000B4E020E0321721F041914D932F5FFACF80
:102960001092AF042091AF04990F922B9093AF0473
:102970009091AE04913061F41092AE049091AF0446
:102980009093BB009091BC0093FDF8CF95EC01C0F3
:1029900095EE9093BC009091D4049230E1F3909125
:1029A000D2049F3F79F08091D204803241F080912F
:1029B000D204803331F084E005C081E003C082E0BE
:1029C00001C083E01092D6041092F8041092D5044E
:1029D00008952F923F924F925F926F927F928F92C3
:1029E0009F92AF92BF92CF92DF92EF92FF920F939E
:1029F0001F93CF93DF93CDB7DEB7AC970FB6F894A4
:102A0000DEBF0FBECDBF9CA78BA74B015A0139017A
:102A10001701DE8ACD8A261737075CF4E616F7061B
:102A2000BCF4962F892D4901EBA4FCA45CA74BA70D
:102A300007C0E216F3060CF0ABC1962D872D750189
:102A40002814390484F058013101292E382E13C07E
:102A50008B2DABA4BCA44BA78CA77801872D3B0181
:102A6000822E982E08C03401ABA4BCA44101292EAB
:102A7000382E0BA71CA784EA95E00E94960F8214BB
:102A8000930451F52BA53CA5A216B3065CF09BA5BB
:102A90008CA52A153B0514F49A2D8B2DABA4BCA450
:102AA0009BA78CA7EA14FB0444F04BA55CA54E152C
:102AB0005F0514F4FCA6EBA675012BA53CA52E1909
:102AC0003F092F5F3F4F0D891E89A401B70184EA9A
:102AD00095E00E94E30D40C1C5016BA57CA5861B56
:102AE000970B930128193909D701A61BB70BBE8391
:102AF000AD83A101481959095A874987B7016A1955
:102B00007B097E876D87D101A619B709B88FAF8B76
:102B100023016214730419F0B1E04B1A51086401E7
:102B2000198A1A8A1B8A1C8A19821A821B821C82A1
:102B3000A901330F660B770B4B8F5C8F6D8F7E8FE8
:102B400029853A85032E000C440B550B2F8F38A393
:102B500049A35AA3AC01990F660B770B4BA35CA357
:102B60006DA37EA36D817E81072E000C880B990BCF
:102B70006FA378A789A79AA74C145D040CF454C0DE
:102B800069817A818B819C812B8D3C8D4D8D5E8DF1
:102B90000E94472EEBA4FCA4E20EF31E69897A89F9
:102BA0008B899C892F8D38A149A15AA10E94472E5B
:102BB0008BA59CA5280F391F49815A816B817C8187
:102BC0008BA19CA1ADA1BEA1480F591F6A1F7B1FFD
:102BD00049835A836B837C8349895A896B897C89B1
:102BE0008FA198A5A9A5BAA5480F591F6A1F7B1FD9
:102BF000498B5A8B6B8B7C8B2E153F052CF49E2DAD
:102C00008F2D7901292F382F2E193F092F5F3F4F24
:102C10000D891E89A601B70184EA95E00E94E30DA3
:102C20009FEFC91AD90AA8CFC60186199709AD85A1
:102C3000BE858A9F20018B9F500C9A9F500C1124B7
:102C4000052C000C660877089601281939094D8172
:102C50005E81249FC001259F900D349F900D11240B
:102C60009C01990F440B550B29833A834B835C835A
:102C70004F89588D052E000C660B770B4F8B588FA4
:102C8000698F7A8F69857A85072E000C880B990BDE
:102C900069877A878B879C87CD01092E000CAA0B48
:102CA000BB0B8D879E87AF87B88B2D813E81032E0E
:102CB000000C440B550B2D833E834F8358872C14F7
:102CC0003D040CF449C0C301B2012F89388D498DF0
:102CD0005A8D0E94472E7501E20EF31E69817A819A
:102CE0008B819C8129853A854B855C850E94472E86
:102CF0006BA57CA5260F371F8D859E85AF85B8896E
:102D0000480E591E6A1E7B1E49815A816B817C8147
:102D10008D819E81AF81B885480F591F6A1F7B1F27
:102D200049835A836B837C832E153F052CF49E2D9B
:102D30008F2D7901292F382F2E193F092F5F3F4FF3
:102D40000D891E89A601B70184EA95E00E94E30D72
:102D50009FEFC91AD90AB3CF84EA95E0AC960FB6B3
:102D6000F894DEBF0FBECDBFDF91CF911F910F91C1
:102D7000FF90EF90DF90CF90BF90AF909F908F909B
:102D80007F906F905F904F903F902F900C940A0E21
:102D9000780171CE2F923F924F925F926F927F9205
:102DA0008F929F92AF92BF92CF92DF92EF92FF925B
:102DB0000F931F93CF93DF93CDB7DEB76B970FB60B
:102DC000F894DEBF0FBECDBF9B8F8A8F5B011A01C7
:102DD000D22E1F830E833701C982DC0158962D91B4
:102DE0003C9159972115310509F0E6C018968D914F
:102DF0009C911997681779070CF0CDC11A968D919F
:102E00009C911B97481759070CF0C5C18C2C912C2D
:102E1000FB0126E0C29EE00DF11D1124FB87EA872D
:102E20001E161F060CF0B7C1A40183E0440F551F06
:102E30008A95E1F75D874C87CA01820D931D1816AC
:102E400019060CF0A8C157968C91811104C05FEA55
:102E50005D1508F4D394AA8DBB8DED91FC9111976B
:102E60000284F385E02DCD010995B5E0DB9EC0011C
:102E70001124F5013596FF87EE87BB82AA822501D2
:102E80009C012A193B09398B288BA101485F5F4FB0
:102E90005B8B4A8BE889F989E40DF51DEB50FF4FF8
:102EA0005491588761013D822C82888580FF13C030
:102EB000AA8DBB8DED91FC91B981B13031F40484C0
:102EC000F585E02D2E813F8116C00684F785E02D23
:102ED000EE80FF801AC0EE81FF81E615F705F1F064
:102EE000AA8DBB8DED91FC91B981B13051F4048470
:102EF000F585E02D9301A601B2018A8D9B8D099580
:102F00000DC00684F785E02D7301840194014C8186
:102F10005D816A817B818A8D9B8D0995E885E69527
:102F2000E887FFEFCF1ADF0A2C813D81280D391D7C
:102F30003D832C834A895B89C416D50609F0B5CF39
:102F40005FEF451A550A8A819B81880D991D9B83E5
:102F50008A83AE85BF854A165B0609F09BCFEE815A
:102F6000FF81E615F70509F4F4C0EA8DFB8DA08119
:102F7000B181F981F13079F4B5016B5F7F4F5096E3
:102F8000ED91FC915197830128E030E0A1018A8DF9
:102F90009B8D0995DEC06A857B85681979091E9627
:102FA000ED91FC911F9773010C851D859401A10182
:102FB0008A8D9B8D0995CDC0F9013496E491DE1A76
:102FC000F901329685919491B7E0DB9E800D911DB9
:102FD0001124F901259134913B8B2A8BFC01259119
:102FE00034912901FC013296C490319634913E8788
:102FF000329614913196D4904981423058F0612E26
:10300000012E000C77088D2D0D2C000C990B998743
:10301000888704C019861886612C712CAA8DBB8DF7
:10302000ED91FC9111970284F385E02DCD01099576
:10303000B9818B2E912C689CC001699C900D789C65
:10304000900D1124FC01EA0DFB1DFD87EC871A820F
:10305000712C612CE12F110FFF0B95012E0F3F1FDB
:103060003B872A87AC0CB11CA5014E0F5F1F5F8BFD
:103070004E8BC1018D0D911DD7FC9A95998F888F2C
:103080009E85691608F065C0862D90E048855985B3
:10309000480F591F489D9001499D300D589D300D96
:1030A0001124D101A20FB31FB98BA88BEC85FD852C
:1030B000FD83EC83AA84BB84DA80FA85DF1A288D2D
:1030C000398D280F391F3D8B2C8B8D2D8A0D4E8904
:1030D0005F89A416B506C1F1877041F4C20101965B
:1030E000EA89FB89E40DF51D74902C0177FE21C05F
:1030F000AA8DBB8DED91FC91B981B13061F404844E
:10310000F585E02D2E813F814C895D89B5018A8D41
:103110009B8D09950EC00684F785E02DEE80FF801B
:1031200084019401488959896C817D818A8D9B8DA8
:103130000995770CEFEFAE1ABE0A2C813D81280D60
:10314000391D3D832C83C1CF3A813C0D3A83639472
:1031500097CFAA8DBB8DED91FC9111970688F789C9
:10316000E02DCD016B960FB6F894DEBF0FBECDBF3C
:10317000DF91CF911F910F91FF90EF90DF90CF9053
:10318000BF90AF909F908F907F906F905F904F9087
:103190003F902F9009946B960FB6F894DEBF0FBE48
:1031A000CDBFDF91CF911F910F91FF90EF90DF90F6
:1031B000CF90BF90AF909F908F907F906F905F90D7
:1031C0004F903F902F9008951F93CF93DF93262F1A
:1031D000FC0133A137FF09C07EBD0DB407FEFDCF52
:1031E0002EBD0DB407FEFDCF0CC0672F122FEC01D2
:1031F0000E941112612FCE01DF91CF911F910C948B
:103200001112DF91CF911F9108958F929F92AF92EB
:10321000BF92EF92FF920F931F93CF93DF93CDB79F
:10322000DEB7A1970FB6F894DEBF0FBECDBF7C010D
:10323000FA01CB0119A2223008F42AE08E010F5DB9
:103240001F4F822E912CA12CB12CBF01A5019401FE
:103250000E94792EF901CA01015011096A3014F453
:10326000605D01C0695CD8016C93232B242B252B56
:1032700061F7B801C7010E949710A1960FB6F894A4
:10328000DEBF0FBECDBFDF91CF911F910F91FF9099
:10329000EF90BF90AF909F908F900895CF93DF9362
:1032A000482F50E060E070E02AE084EA95E00E9458
:1032B0000519EC0168E773E084EA95E00E94971035
:1032C0008C0F9D1FDF91CF910895CF92DF92EF92E7
:1032D000FF920F931F93CF93DF93EC016A017B0161
:1032E000E881F9810190F081E02D6DE209958C0172
:1032F00044275527BA014C195D096E097F092AE058
:10330000CE010E940519800F911FDF91CF911F916F
:103310000F91FF90EF90DF90CF9008950F931F9340
:10332000CF93DF93EC01AB01770F660B770B77FF41
:1033300003C00E94651903C02AE00E9405198C0190
:1033400068E773E0CE010E949710800F911FDF9114
:10335000CF911F910F9108950F931F93CF93DF93F8
:10336000EC010E9497108C0168E773E0CE010E9487
:103370009710800F911FDF91CF911F910F910895AA
:103380001F920F920FB60F9211242F933F934F93DA
:103390005F936F937F938F939F93AF93BF93EF93BD
:1033A000FF937894E091A205F091A305608D718D53
:1033B00089EF94E00E948E19E091A205F091A30597
:1033C000118E108EFF91EF91BF91AF919F918F91D0
:1033D0007F916F915F914F913F912F910F900FBE11
:1033E0000F901F9018951F920F920FB60F921124F5
:1033F000AF92BF92CF92DF92EF92FF920F931F9303
:103400002F933F934F935F936F937F938F939F93EC
:10341000AF93BF93CF93DF93EF93FF93C091A20538
:10342000D091A3058E899F8901969F8B8E8B888D65
:10343000998D0196998F888F5E0128E5A20EB11CA7
:10344000F5018081882309F48AC06E01F5E5CF0E6D
:10345000D11CF60180819E012A5A3F4F7901F90162
:103460008823E1F08081811174C0319680818111BF
:1034700070C0CE010E94C9082E893F89FE01E25B1F
:10348000FF4F808191812817390709F068C0CC5A15
:10349000DF4F81E08883F601108261C080818E0158
:1034A000095A1F4FF8018823D9F08081811151C03A
:1034B000CE010E94C9082E893F89FE01E05BFF4FC3
:1034C000808191812817390709F049C0CC5ADF4F14
:1034D00081E08883F7011082F6018083F50117C02F
:1034E00080818823B1F0CE010E94C9082E893F89CE
:1034F000FE01EE5AFF4F808191812817390779F537
:10350000CC5ADF4F81E08883F8011082F701808375
:1035100026C0CE010E94C9088A8D9B8DFC01EE0F4A
:10352000FF1FEC0FFD1F4E895F89208131814217FB
:103530005307A9F421E0FE01EC5AFF4F20830196C6
:103540009B8F8A8F0B9759F4F80120831B8E1A8E5C
:1035500006C06BE773E089EF94E00E94AC19FF911D
:10356000EF91DF91CF91BF91AF919F918F917F911B
:103570006F915F914F913F912F911F910F91FF900C
:10358000EF90DF90CF90BF90AF900F900FBE0F9055
:103590001F901895CF92DF92EF92FF920F931F9397
:1035A000CF93DF936C01EB017A019A014AE050E07E
:1035B0000E945214BE016550710905E010E02AE036
:1035C00030E040E250E0C60140970E94C613DF9110
:1035D000CF911F910F91FF90EF90DF90CF900895C2
:1035E000CF93DF9300D000D0CDB7DEB7109280002C
:1035F000109281008EEE95E8909317048093160444
:1036000090938500809384008091810084608093F2
:10361000810080916F00816080936F00789478942E
:1036200084B5826084BD84B5816084BD85B58260C7
:1036300085BD85B5816085BD80916E008160809378
:103640006E001092810080918100826080938100E1
:1036500080918100816080938100809180008160F1
:10366000809380008091B10084608093B10080914C
:10367000B00081608093B00080917A008460809374
:103680007A0080917A00826080937A0080917A003B
:10369000816080937A0080917A00806880937A00BC
:1036A0001092C1002091A2053091A3053A8329838D
:1036B0002D9A259A5B9A539A8091B00083668093E5
:1036C000B0008091B1008A608093B1008091700059
:1036D0008160809370005D9A80916800846080931F
:1036E000680080916D00806280936D0039013CE13B
:1036F000630E711CE980FA8087010A5E1F4F570133
:103700004AE4A40EB11C47015CE4850E911CD30170
:103710008D919D913D018130910511F4F40103C01B
:10372000892B39F4F50180819181D7018D939C9388
:1037300006C066EC71E089EF94E00E94AC19B2E03B
:10374000EB0EF11C0E151F0511F7E981FA81E85AFD
:10375000FF4F11E010837894E0910905F0910A057C
:1037600082E08083E0910505F09106051082E091EA
:103770000705F09108058FEC808310921105E09108
:103780000D05F0910E0586E08083E0910B05F09128
:103790000C05808180618083E0910B05F0910C0520
:1037A000808188608083E0910B05F0910C05808119
:1037B00080688083E0910B05F0910C0580818F7DFE
:1037C000808340E050E0BA0184EA95E00E94B106AF
:1037D000609135047091360484EA95E00E94F50EFC
:1037E00087B18C6087B94298439A64E670E080E0C4
:1037F00090E00E948D1110925A0410925904109278
:10380000D6041092F8041092D4041093D3041092AA
:10381000AE0461E082E10E94041161E083E10E9454
:1038200004118091B9008E7F8093B9008091B90016
:103830008D7F8093B90088E48093B80085E48093FD
:10384000BC008AE095E090935C0480935B048BE07D
:1038500095E090935E0480935D041093D50482E517
:103860008093F7041092D6041092F80460E486E97D
:1038700095E00E94640560E086E995E00E94640599
:1038800081E00E948D1483E090E00E943C2E0E9413
:10389000C20A609135047091360484EA95E00E9472
:1038A000F50E82E3282E312C98E2692E712CAA2481
:1038B000AA94BA2C06E4402E512C8091D404811194
:1038C000FCCFF1E0F093D404F093D3048FEF809316
:1038D000D2041092D10485E08093D004F093AF0419
:1038E0008091AF04846A8093AF048091AE048130EC
:1038F00061F41092AE048091AF048093BB0080917C
:10390000BC0083FDF8CF85EC01C085EE8093BC0040
:103910008091D4048130E1F38091D104863018F491
:103920009091D10401C096E0E0EBF4E0A9E3B4E0AB
:1039300080E0891721F021912D938F5FFACF1092AB
:103940005A048093590428E134E03A83298317E12B
:103950009091590480915A04981761F086E995E096
:103960000E941B058127895EA981BA818D93BA8344
:10397000A983EECFB1E0B093D50482E58093F7043C
:103980001092D6041092F80460E086E995E00E9457
:10399000640581E00E948D148091190490E0909359
:1039A000AF038093AE038091180490E09093AD0331
:1039B0008093AC0313E08091AE039091AF03892B09
:1039C00009F06BC08091AC039091AD03892B09F095
:1039D00064C080911D0481FD60C00E94DE080197D3
:1039E00009F05BC01092AB031092AA033092B105AC
:1039F0002092B0057092B3056092B205B092B705FF
:103A0000A092B605B092B505A092B4051093B80582
:103A100066E573E084EA95E00E94AC193092B10546
:103A20002092B0055092B3054092B2056DE573E067
:103A300084EA95E00E94AC193092B1052092B0055D
:103A400084E690E09093B3058093B20565E673E059
:103A500084EA95E00E94AC193092B1052092B0053D
:103A6000A2E8B0E0B093B305A093B2056EE673E0B0
:103A700084EA95E00E94AC193092B1052092B0051D
:103A8000E0EAF0E0F093B305E093B20562E773E09B
:103A900084EA95E00E94AC198ECF8091AA039091A0
:103AA000AB03892B71F481E090E09093AB0380939A
:103AB000AA03609135047091360484EA95E00E946F
:103AC000F50E20912A0130912B01809112019091E5
:103AD00013012817390711F00E94FD0A80912A016D
:103AE00090912B01019709F0BEC18EE190E0909377
:103AF000B1058093B0057092B3056092B205B092A3
:103B0000B705A092B605B092B505A092B40583E0C2
:103B10008093B80560EE71E084EA95E00E94AC19EC
:103B20008DE490E09093B1058093B0055092B30579
:103B30004092B2056BEE71E084EA95E00E94AC1908
:103B40008AE590E09093B1058093B005E2E8F0E05B
:103B5000F093B305E093B20582E08093B80561EF7E
:103B600071E084EA95E00E94AC1981E490E09093C2
:103B7000B1058093B00586E990E09093B3058093FA
:103B8000B20567EF71E084EA95E00E94AC1987E422
:103B900090E09093B1058093B0058BEA90E090930C
:103BA000B3058093B20561E072E084EA95E00E947B
:103BB000AC195092B1054092B0058FEB90E0909314
:103BC000B3058093B2056AE072E084EA95E00E9452
:103BD000AC198FE190E0909307018093060180E09B
:103BE00098EF90930501809304016091100170910A
:103BF00011014FE150E084EB90E00E94CA1A40911D
:103C000004015091050160910E0170910F0182E352
:103C100090E00E94CA1A80910201909103012091C4
:103C20000001309101018217930709F460C00197E8
:103C300099F4C0903504D090360418E8E12EF12CA8
:103C400007E310E02DE830E04DE250E063E870E07B
:103C50008DE290E00E94E9148091020190910301AD
:103C6000029799F4C0903504D0903604BCE9EB2E4D
:103C7000F12C07E310E021EA30E04DE250E067E983
:103C800070E08DE290E00E94E91480910201909131
:103C90000301039799F4C0903504D0903604A0EB4B
:103CA000EA2EF12C07E310E025EB30E04DE250E086
:103CB0006BEA70E08DE290E00E94E91480910201CD
:103CC00090910301049799F4C0903504D090360484
:103CD000F4ECEF2EF12C07E310E029EC30E04DE29C
:103CE00050E06FEB70E08DE290E00E94E91480916B
:103CF0000001909101010197E9F470EEC72E77E081
:103D0000D72EE8E8EE2EF12C07E310E02DE830E0A6
:103D10004DE250E063E870E08DE290E00E94E9142B
:103D20000E94DE08019731F482E090E090932B012D
:103D300080932A0180910001909101010297E9F49A
:103D400050EEC52E57E0D52E6CE9E62EF12C07E398
:103D500010E021EA30E04DE250E067E970E08DE2EA
:103D600090E00E94E9140E94DE08019731F483E09C
:103D700090E090932B0180932A0180910001909113
:103D800001010397E9F430EEC32E37E0D32E40EB68
:103D9000E42EF12C07E310E025EB30E04DE250E09B
:103DA0006BEA70E08DE290E00E94E9140E94DE0868
:103DB000019731F484E090E090932B0180932A01E5
:103DC00080910001909101010497E9F490EEC92ED1
:103DD00097E0D92E24ECE22EF12C07E310E029EC39
:103DE00030E04DE250E06FEB70E08DE290E00E9439
:103DF000E9140E94DE08019731F486E090E0909388
:103E00002B0180932A0180910001909101019093F0
:103E1000030180930201FFEF10E722E0F150104010
:103E20002040E1F700C000008091AE039091AF0305
:103E3000813A91054CF0809100019091010182300E
:103E400091058CF001970BC08035910564F4809149
:103E5000000190910101843091052CF4019690931A
:103E600001018093000120912A0130912B01809162
:103E70001201909113012817390711F00E94FD0AD1
:103E800080912A0190912B01029711F00C945A27EE
:103E90008091180490E09093A1038093A003209157
:103EA0000A0130910B0140912F0450913004241BE2
:103EB000350B121613065CF4409106015091070170
:103EC00060911001709111010E94F308B4C08091BB
:103ED00023049091240420912D0430912E04AC01F0
:103EE0004C5F5F4F421753070CF48BC08217930748
:103EF000C1F4E0903504F0903604409110015091E7
:103F000011014F50510960912601709127016451B0
:103F100071090EE110E028E230E084EA95E00E94A9
:103F2000520D609110017091110169517109EE24D7
:103F3000EA94FE2C03E010E02EE130E049E150E08D
:103F400080912601909127010E94C6134091100193
:103F50005091110142515109609126017091270140
:103F6000695F7F4FE12CF12C07E010E027E030E0A3
:103F700084EA95E00E94520D409110015091110188
:103F8000425151096091260170912701605F7F4F76
:103F900027E030E084EA95E00E94520D4091100144
:103FA00050911101495051096091260170912701EA
:103FB000625F7F4F04E010E024E030E084EA95E0A7
:103FC0000E94520D40911001509111016091260103
:103FD000709127016A5F7F4F05E010E025E030E037
:103FE00084EA95E00E94520D409110015091110118
:103FF0006091260170912701605F7F4F25E030E0DE
:1040000016C0059628173907B1F4E0903504F090F2
:10401000360440911001509111014A5051096091AC
:104020002601709127010EE110E029E130E084EAD9
:1040300095E00E94520D80910A0190910B01209110
:10404000310430913204821B930B181619060CF0C0
:104050009AC18091A0039091A1032AEF30E0490119
:10406000881A990A90929D0380929C03E090040123
:10407000F090050140910E0150910F015C834B833C
:1040800080912401909125015DE88516910454F0FA
:10409000813E9105C4F420911A0130911B01820FD9
:1040A000931F0DC066E7861691046CF4803191056C
:1040B00054F020911A0130911B01821B930B9093B5
:1040C00025018093240197014AE050E06B817C81B7
:1040D00080912401909125010E9452148091240125
:1040E0009091250105E010E02AE030E040E250E048
:1040F0006B817C816550710940970E94C6137DE8F1
:10410000871691040CF49CC08091240190912501A4
:104110008B809C80A6E08A1A9108AC014950510915
:10412000EB81FC813B97FA83E983C0903504D09002
:1041300036047F018A019401BF0104970E94E914AB
:10414000E0903504F09036046091240170912501CF
:104150006F50710906E010E027E030E049815A8194
:1041600084EA95E00E94520D8091240190912501EE
:10417000AC0140515109C0903504D09036042B81D8
:104180003C812250310974018A01B4010D970E94CB
:10419000E914E0903504F09036044B815C8148507E
:1041A000510960912401709125016951710901E162
:1041B00010E02AE030E084EA95E00E94520D809100
:1041C000240190912501AC01405151098B809C80C4
:1041D000F6E08F0E911CC0903504D09036042B81F0
:1041E0003C812E5F3F4F74018A01B4010D970E94FC
:1041F000E914E0903504F090360460912401709148
:1042000025016F50710906E010E027E030E0A401BD
:1042100084EA95E00E94520D80912401909125013D
:10422000AC01495051096B817C81655F7F4FC09023
:104230003504D09036047B018A0194010497A0C014
:1042400016E7811691040CF056C14091240150915B
:1042500025012B813C81255F3F4F8B809C8066E050
:10426000860E911CCA010996C0903504D090360480
:104270004C5F5F4F79018C01B4010E94E914E0901A
:104280003504F09036046091240170912501685F37
:104290007F4F06E010E027E030E0A40184EA95E0DB
:1042A0000E94520D8091240190912501AC01405F44
:1042B0005F4FC0903504D09036042B813C812E5F37
:1042C0003F4F74018A01B4010D960E94E914E090F9
:1042D0003504F09036044B815C814850510960915F
:1042E000240170912501615F7F4F01E110E02AE018
:1042F00030E084EA95E00E94520D80912401909173
:104300002501AC01405F5F4F8B809C8076E0871A6F
:104310009108C0903504D09036042B813C81225006
:10432000310974018A01B4010D960E94E9148B8150
:104330009C810B979A838983E0903504F090360432
:104340006091240170912501675F7F4F06E010E0C6
:1043500027E030E0AC0184EA95E00E94520D8091A4
:10436000240190912501AC01475F5F4FC090350457
:10437000D0903604E980FA808A019401B70104964E
:104380000E94E914B8C080912104909122042091E8
:104390002D0430912E04AC014C5F5F4F4217530740
:1043A0000CF48FC082179307C1F4E0903504F090AD
:1043B000360440910E0150910F014F505109609108
:1043C000240170912501645171090EE110E028E289
:1043D00030E084EA95E00E94520D60910E017091E8
:1043E0000F016A507109EE24EA94FE2C03E010E0FC
:1043F0002EE130E049E150E08091240190912501C7
:104400000E94C61340910E0150910F014350510973
:104410006091240170912501695F7F4FE12CF12C9F
:1044200007E010E027E030E084EA95E00E94520DBA
:1044300040910E0150910F014350510960912401A8
:1044400070912501605F7F4F27E030E084EA95E0BE
:104450000E94520D40910E0150910F014A5F5F4F33
:104460006091240170912501625F7F4F04E010E0AC
:1044700024E030E084EA95E00E94520D40910E0164
:1044800050910F01415F5F4F6091240170912501B0
:104490006A5F7F4F05E010E025E030E084EA95E0B8
:1044A0000E94520D40910E0150910F01415F5F4FEC
:1044B0006091240170912501605F7F4F25E030E01D
:1044C00016C0059628173907B1F4E0903504F0902E
:1044D000360440910E0150910F014A5051096091EC
:1044E0002401709125010EE110E029E130E084EA19
:1044F00095E00E94520D2091200130912101293137
:10450000310509F44FC18091220190912301880F58
:10451000991FFC01EC51FC4F6081718128313105FC
:1045200051F4AB014D5A5E4F209128013091290181
:10453000421753073CF0FC01EE54FC4F80819181FF
:104540000E94B00B8091200190912101880F991F4A
:10455000FC01EC51FC4F30812181FC01EE54FC4FF9
:104560008080918080912801909129018A3A91055B
:1045700034F081E090E090932A04809329043983F9
:104580002A83A981BA81D39724F0E2E3F0E0FA8389
:10459000E9838091290490912A0440913304509139
:1045A0003404019709F084C0E0901601F0901701DF
:1045B00009811A819801B40184EA95E00E94520DA4
:1045C00000911C0110911D01E0903504F09036041B
:1045D0004091330450913404401B510B29813A819E
:1045E000B40184EA95E00E94520D29813A81265B4C
:1045F0003E4F8091330490913404281739070CF012
:104600007AC0209128013091290180910C0190916C
:104610000D01821793070CF06EC0809120019091DC
:10462000210101969093210180932001E0903504AF
:10463000F09036040AE010E022E330E040E050E081
:1046400068EC70E084EA95E00E94520D1092340408
:10465000109233040E94372E64E170E00E94AA2E6B
:104660008C549F4F90930D0180930C0180912D04E9
:1046700090912E0484369105F4F18091B0039091CD
:10468000B103FC01EE0FFF1FEA5BFE4F2081318179
:10469000309317012093160102969093B1038093F3
:1046A000B0030C9744F11092B1031092B00323C0F1
:1046B00069817A81461B570BE12CE8EFFE2E8B01B6
:1046C0009B01B40184EA95E00E94520D00911C0107
:1046D00010911D01E0903504F090360440913304B0
:1046E00050913404401B510B29813A81B40184EA72
:1046F00095E00E94520D80912D0490912E048F3AE6
:1047000091055CF010921F0110921E0130921D0164
:1047100020921C0187E090E011C08D3791059CF03C
:1047200081E090E090931F0180931E0183E290E06E
:1047300090931D0180931C0185E090E090931B01F4
:1047400080931A0152C08B3491054CF082E090E0C6
:1047500090931F0180931E0189E190E00BC082338A
:1047600091057CF083E090E090931F0180931E01FF
:1047700086E190E090931D0180931C0184E090E01D
:10478000DDCF499794F184E090E090931F018093EE
:104790001E0183E190E090931D0180931C0183E052
:1047A00090E0CCCF1092290110922801109234048D
:1047B0001092330410922A041092290481E090E0B0
:1047C00090932301809322018CE090E0909321014B
:1047D0008093200180912B0490912C044996909312
:1047E0002C0480932B040E94C20A8091270490918C
:1047F0002804892B09F0C8C080912F0490913004BF
:1048000020910A0130910B01281B390B1216130657
:104810000CF0BAC02091220130912301220F331FE6
:10482000F901EE54FC4F0190F081E02DD901AC511B
:10483000BC4F4D915C914E0F5F1F2091260130912E
:10484000270179017FE0E71AF1084E155F05DCF0DA
:10485000B9016E507109E617F707ACF460911001C9
:1048600070911101A0912801B09129014B011AE02A
:10487000811A9108A815B90534F0665F7F4F6A1751
:104880007B070CF06AC08901025F1F4F04171507F0
:10489000CCF4A901415F5F4F4E175F079CF0409138
:1048A0001001509111016091280170912901FA01C4
:1048B0003A976E177F0734F0465F5F4F46175707EA
:1048C0000CF04BC04091200150912101440F551F25
:1048D000FA01EE54FC4F0190F081E02D4C515C4FF9
:1048E000DA014D915C914E0F5F1F4E155F05D4F0BC
:1048F000B9016E507109E617F707A4F46091100131
:1049000070911101E0903304F09034044B01BAE04F
:104910008B1A9108E814F9042CF0665F7F4F6E152E
:104920007F05DCF4041715075CF5215F3F4F2E1758
:104930003F0734F12091100130911101409133046F
:1049400050913404B9016A50710946175707C4F0F1
:10495000265F3F4F241735079CF021E030E030936D
:1049600028042093270420912D0430912E043093A5
:1049700024042093230401969093300480932F0401
:10498000109297031092960380912504909126042B
:10499000892B09F0C8C08091310490913204209194
:1049A0000A0130910B01281B390B121613060CF06B
:1049B000BAC02091220130912301220F331FF90147
:1049C000EE54FC4F0190F081E02DD901AC51BC4F69
:1049D0004D915C914E0F5F1F209124013091250174
:1049E00079011FE0E11AF1084E155F05DCF0B9010D
:1049F0006E507109E617F707ACF460910E017091E3
:104A00000F01A0912801B09129014B011AE0811AF0
:104A10009108A815B90534F0665F7F4F6A177B07C8
:104A20000CF06AC08901025F1F4F04171507CCF410
:104A3000A901415F5F4F4E175F079CF040910E0147
:104A400050910F016091280170912901FA013A9764
:104A50006E177F0734F0465F5F4F461757070CF01D
:104A60004BC04091200150912101440F551FFA0184
:104A7000EE54FC4F0190F081E02D4C515C4FDA0177
:104A80004D915C914E0F5F1F4E155F05D4F0B9013B
:104A90006E507109E617F707A4F460910E0170914A
:104AA0000F01E0903304F09034044B01BAE08B1A0C
:104AB0009108E814F9042CF0665F7F4F6E157F05AE
:104AC000DCF4041715075CF5215F3F4F2E173F07F5
:104AD00034F120910E0130910F0140913304509137
:104AE0003404B9016A50710946175707C4F0265FAC
:104AF0003F4F241735079CF021E030E03093260427
:104B00002093250420912D0430912E04309322040B
:104B100020932104019690933204809331041092E3
:104B2000950310929403E0912704F0912804FA83EE
:104B3000E983319749F58091960390919703892BEA
:104B400019F580911C0190911D01039690931D0110
:104B500080931C01E0903504F09036040AE010E0E8
:104B600020EA30E040E050E060E070E084EA95E068
:104B70000E94520DB0920701A092060129813A814C
:104B800030939703209396038091270490912804F3
:104B90000197B1F48091230490912404019620910F
:104BA0002D0430912E048217930751F4109228049B
:104BB000109227048FE190E0909307018093060103
:104BC00040912504509126045A8349834130510570
:104BD00049F58091940390919503892B19F5809163
:104BE0001C0190911D01039690931D0180931C015F
:104BF000E0903504F090360409E110E020EA30E05E
:104C000040E050E060E070E084EA95E00E94520DE0
:104C1000B0920501A092040169817A817093950395
:104C20006093940380912504909126040197B1F438
:104C30008091210490912204019620912D043091BD
:104C40002E048217930751F4109226041092250423
:104C500080E098EF90930501809304011092B105D4
:104C60001092B0051092B3051092B205B092B7053C
:104C7000A092B605B092B505A092B40571E070930C
:104C8000B80580910A0190910B0120912F04309179
:104C90003004821B930B1816190654F483E192E03A
:104CA0000E9488148CE390E09A8389831AE014C0F0
:104CB0008DE192E0F5CFA03AB10529F120E038EF7F
:104CC00043E050E064E070E0CD010E945214E981BD
:104CD000FA813A96FA83E98380910A0190910B0157
:104CE00020912F0430913004AC01421B530B149FD0
:104CF0009001159F300D1124255C3F4FA981BA8189
:104D00002A173B07C4F61092B1051092B0052AE0AD
:104D100030E03093B3052093B205209131043091F7
:104D20003204821B930B1816190654F485E292E0A4
:104D30000E9488142CE330E03A8329831AE016C0DD
:104D40008FE292E0F5CF403A510529F120E038EFAB
:104D500043E050E06EE070E089819A810E94521435
:104D600069817A81665F7F4F7A83698320910A0126
:104D700030910B018091310490913204281B390B42
:104D8000129FC001139F900D1124CB9649815A8127
:104D900084179507C4F680EA90E09093B10580935C
:104DA000B0051092B3051092B20587E392E00E941D
:104DB000881440912001509121014C50510980915B
:104DC000220190912301480F591F80912B0490914B
:104DD0002C04480F591F50932E0440932D04052E88
:104DE000000C660B770B77FF05C084EA95E00E9404
:104DF000651905C02AE084EA95E00E9405198091B2
:104E00000A0190910B0140912F0450913004BC0194
:104E1000641B750B2091310430913204161617066D
:104E20005CF0821B930B1816190634F085E090E0B5
:104E300090932B0180932A0180911D0481FD06C06F
:104E400081E090E090932B0180932A016091A00370
:104E50007091A103E091A203F091A30380919C03C0
:104E600090919D03E617F707A9F4E0919E03F09156
:104E70009F03E817F90771F4E0919A03F0919B03FF
:104E8000E417F50739F4E0919803F0919903E217DC
:104E9000F30781F07093A3036093A20390939F03A1
:104EA00080939E0350939B0340939A0330939903FE
:104EB0002093980380912A0190912B01039709F088
:104EC00093C08EE190E09093B1058093B00570920D
:104ED000B3056092B205B092B705A092B605B09244
:104EE000B505A092B40583E08093B8056FE372E046
:104EF00084EA95E00E94AC198CE390E09093B105B0
:104F00008093B0058AE590E09093B3058093B20555
:104F10008AE492E00E94881480E090E00E94E40815
:104F20000E944E19ACE3B0E0B093B105A093B00578
:104F300088E790E09093B3058093B2058FE492E008
:104F40000E94881481E090E00E94E4080E944E19BB
:104F5000ECE3F0E0F093B105E093B00586E990E072
:104F60009093B3058093B20584E592E00E94881483
:104F700082E090E00E94E4080E944E192CE330E0A9
:104F80003093B1052093B00584EB90E09093B30586
:104F90008093B20589E592E00E94881483E090E056
:104FA0000E94E4080E944E194CE350E05093B10572
:104FB0004093B00582ED90E09093B3058093B205E5
:104FC0008EE592E00E94881484E090E00E94E4085C
:104FD0000E944E1980911D0481FD06C081E090E081
:104FE00090932B0180932A0180912A0190912B01AB
:104FF000049709F09EC06EE170E07093B105609374
:10500000B0057092B3056092B205B092B705A09258
:10501000B605B092B505A092B40583E08093B805BB
:1050200063E672E084EA95E00E94AC198EE190E0BC
:105030009093B1058093B00580E590E09093B3051F
:105040008093B20582E08093B8056CE672E084EA52
:1050500095E00E94AC19AEE1B0E0B093B105A09329
:10506000B005E4E6F0E0F093B305E093B2056EE737
:1050700072E084EA95E00E94AC192EE130E03093B2
:10508000B1052093B00588E790E09093B305809335
:10509000B20540E058EF60EA70E08091AC03909177
:1050A000AD030E94F3086DE872E084EA95E00E9487
:1050B000AC194EE150E05093B1054093B0058EEB32
:1050C00090E09093B3058093B20563E972E084EABF
:1050D00095E00E94AC196EE170E07093B1056093A9
:1050E000B00582ED90E09093B3058093B20561EA3C
:1050F00072E084EA95E00E94AC198EE190E0909312
:10510000B1058093B00586EE90E09093B30580934F
:10511000B2056DEA72E084EA95E00E94AC198091D4
:105120001D0481FD06C081E090E090932B018093E7
:105130002A0180912A0190912B01059709F069C0FD
:105140007092B1056092B0055092B3054092B205DD
:10515000B092B705A092B605B092B505A092B4057D
:1051600083E08093B80568EB72E084EA95E00E94E2
:10517000AC195092B1054092B00580EA90E090934E
:10518000B3058093B20582E08093B80587E392E08F
:105190000E94881460912D0470912E0484EA95E099
:1051A0000E948E19A2E8B0E0B093B105A093B005BB
:1051B0008CE291E09093B3058093B205B1E0B09397
:1051C000B80562EC72E084EA95E00E94AC19809127
:1051D0000A0190910B01049794F480911F0490911F
:1051E0002004853091055CF40E94E40890E0209151
:1051F0002D0430912E048217930709F0D5C28091B7
:105200001D0481FD06C081E090E090932B01809306
:105210002A0180912A0190912B01069711F00C949C
:105220005D1CEEE1F0E0F093B105E093B00528E2FB
:1052300030E03093B3052093B2054FEF5FEF50930A
:10524000B7054093B6055093B5054093B40583E088
:105250008093B80565ED72E084EA95E00E94AC1990
:105260006EE170E07093B1056093B00580E590E069
:105270009093B3058093B20582E08093B8056EEDFC
:1052800072E084EA95E00E94AC198EE190E0909380
:10529000B1058093B005A4E6B0E0B093B305A09348
:1052A000B2056DEE72E084EA95E00E94AC1920919F
:1052B000AC033091AD038091140190911501213A16
:1052C00031053CF09C012B7F232B89F481E090E099
:1052D00013C026343105DCF48130910519F0843097
:1052E000910579F4109215011092140128C08230B2
:1052F000910569F483E090E0909315018093140187
:105300001EC08330910519F482E090E0F5CF209122
:10531000AE033091AF03213A310524F0823091057C
:1053200049F4E0CF2634310554F49C012B7F232B24
:1053300059F303C0039719F4C9CF0197D9F28091AB
:1053400014019091150184309105D1F5CC24CA94B3
:10535000DC2CF8E8EF2EF12C00E510E02DE830E031
:105360004AE550E063E870E08AE590E00E94E914C5
:1053700006E910E02DE830E04CE850E063E870E02A
:105380008CE890E00E94E914EE24EA94F12C00E508
:1053900010E024E031E04AE550E06AEF70E08AE591
:1053A00090E00E94E91406E910E024E031E04CE8C6
:1053B00050E06AEF70E08CE890E00E94E9145FC171
:1053C000009709F054C040EEC42E47E0D42E58E8B0
:1053D000E52EF12C00E510E02DE830E04AE550E044
:1053E00063E870E08AE590E00E94E914CC24CA9456
:1053F000DC2C06E910E02DE830E04CE850E063E8F2
:1054000070E08CE890E00E94E914EE24EA94F12C1C
:1054100000E510E024E031E04AE550E06AEF70E09A
:105420008AE590E00E94E91406E910E024E031E00A
:105430004CE850E06AEF70E08CE890E00E94E914DC
:105440000E94DE089A838983019709F018C1809130
:105450000A0190910B018130910509F410C120914E
:10546000080130910901232B09F40FC208C18130D2
:10547000910509F057C0CC24CA94DC2C88E8E82EAA
:10548000F12C00E510E02DE830E04AE550E063E85B
:1054900070E08AE590E00E94E91490EEC92E97E052
:1054A000D92E06E910E02DE830E04CE850E063E842
:1054B00070E08CE890E00E94E914CC24CA94DC2CC3
:1054C000EE24EA94F12C00E510E024E031E04AE516
:1054D00050E06AEF70E08AE590E00E94E91406E986
:1054E00010E024E031E04CE850E06AEF70E08CE836
:1054F00090E00E94E9140E94DE089A838983019754
:1055000009F0BDC080910A0190910B01893091058D
:1055100009F4B5C02091080130910901232B09F449
:10552000D0C1ADC08230910509F056C0CC24CA94D8
:10553000DC2CF8E8EF2EF12C00E510E02DE830E04F
:105540004AE550E063E870E08AE590E00E94E914E3
:1055500006E910E02DE830E04CE850E063E870E048
:105560008CE890E00E94E914A0EECA2EA7E0DA2EA3
:10557000EE24EA94F12C00E510E024E031E04AE565
:1055800050E06AEF70E08AE590E00E94E914CC24D4
:10559000CA94DC2C06E910E024E031E04CE850E04D
:1055A0006AEF70E08CE890E00E94E9140E94DE0847
:1055B0008130910509F063C02091A8033091A903BF
:1055C000121613060CF05BC04091080150910901BE
:1055D000452B09F492C153C0039709F050C0CC2465
:1055E000CA94DC2C58E8E52EF12C00E510E02DE8FB
:1055F00030E04AE550E063E870E08AE590E00E9420
:10560000E91406E910E02DE830E04CE850E063E8EA
:1056100070E08CE890E00E94E914EE24EA94F12C0A
:1056200000E510E024E031E04AE550E06AEF70E088
:105630008AE590E00E94E91470EEC72E77E0D72E3D
:1056400006E910E024E031E04CE850E06AEF70E059
:105650008CE890E00E94E9140E94DE0881309105F8
:1056600071F42091A8033091A903263031053CF450
:105670004091080150910901452B09F445C189E683
:1056800090E09093B1058093B00583E890E090930B
:10569000B3058093B20560910A0170910B0184EA11
:1056A00095E00E948E1980910A0190910B01049758
:1056B00044F181E08093B805E4E1F0E0F093B105B6
:1056C000E093B00580EA90E09093B3058093B20533
:1056D0006AEF72E084EA95E00E94AC1924E130E0C0
:1056E0003093B1052093B0058AEA90E09093B3051A
:1056F0008093B2056FE173E084EA95E00E94AC19F3
:1057000010C0E0903504F090360404E110E020EF82
:1057100030E04FE950E06AE070E084EA95E00E94F2
:10572000520D44E150E05093B1054093B00588EC30
:1057300090E09093B3058093B20582E08093B80522
:1057400069E373E084EA95E00E94AC1964E170E0DB
:105750007093B1056093B0058CED90E09093B30524
:105760008093B2056BE473E084EA95E00E94AC1983
:105770000E94DE08892B21F4109209011092080181
:1057800080911D0481FF02C00C945D1C82E090E0BA
:10579000909315018093140181E090E090932B0188
:1057A00080932A010C945A1C80911F04909120042C
:1057B0000E94E40890E020912D0430912E0482177D
:1057C000930724F480911E04882351F080911F04D4
:1057D0009091200401969093200480931F04FDCCA7
:1057E00080911F049091200401960E94E4088B830D
:1057F00090E09093A7038093A60380911F0490915B
:10580000200402960E94E408898390E09093A50307
:105810008093A40380911F04909120040E94E408C7
:1058200020911F0430912004682FC90101960E9425
:10583000EB0880911F049091200403960E94E408D5
:1058400020911F0430912004682FC90104960E9402
:10585000EB0860912D0480911F04909120040E9418
:10586000EB0880911F04909120046B8102960E94A6
:10587000EB0880911F0490912004698103960E9497
:10588000EB08F1E0F0931E04A1CF019790930B0178
:1058900080930A01E0903504F09036040FE010E0A8
:1058A00029E230E043E850E06FE570E084EA95E0FB
:1058B0000E94520D29813A813093090120930801F9
:1058C000DECE019690930B0180930A01E09035049F
:1058D000F09036040FE010E029E230E043E850E0B9
:1058E0006FE570E084EA95E00E94520D49815A818B
:1058F0005093090140930801C2CE9093090180930F
:105900000801C901019706C090930901809308011D
:10591000C90101969093A9038093A803880F991F4A
:10592000FC01EA5CFE4F8081918190933804809362
:105930003704EE24EA94FE2C01E110E02BE230E083
:1059400047EF50E06EE570E084EA95E00E94290E92
:10595000E0903704F09038040FE010E029E230E0E6
:1059600048EF50E06FE570E084EA95E00E94520D48
:1059700086CE1F93CF93DF93E9EFF4E01382128278
:1059800088EE93E0A0E0B0E084839583A683B7839C
:1059900026E731E03183208325EC30E0358724870A
:1059A00024EC30E03787268720EC30E0318B208BE9
:1059B00021EC30E0338B228B22EC30E0358B248BD2
:1059C00026EC30E0378B268B118E128E138E148EC0
:1059D000E6E9F5E01382128284839583A683B78378
:1059E00088E891E091838083A4EAB5E013961C9245
:1059F0001E92129720EF30E015963C932E93149749
:105A000080E491E017969C938E93169719963C9399
:105A10002E9318971B969C938E931A9755961C92CB
:105A200055971D961C921E921C971F961C921E92B3
:105A30001E9711E054961C9354978FEF9FEF539647
:105A40009C938E93529751969C938E935097569613
:105A50001C93569757961C92579759961C921E92D4
:105A60005897D5961C92D597D6961C92D697D896CD
:105A70001C921E92D797DA961C921E92D9978AE0B2
:105A800090968C93909789E091968C9391978FEF55
:105A900092968C9392972FED35E05B963C932E93E4
:105AA0005A9793968C93939794968C9394979596F4
:105AB0008C9395975C961D921D921D921C925F97F8
:105AC0009B961C921E929A97D2961C92D29797966A
:105AD0001C921E929697D0961C92D09799961C92E3
