:100000000C9415030C943D030C943D030C943D0398
:100010000C943D030C943D030C943D030C943D0360
:100020000C943D030C943D030C943D030C943D0350
:100030000C943D030C945E110C943D030C943D0311
:100040000C945F170C943D030C949B0A0C94750A56
:100050000C943D030C943D030C943D030C943D0320
:100060000C94BF0E0C943D03000000080002010038
:100070000003040700000000000000000000000072
:10008000003E5B4F5B3E3E6B4F6B3E1C3E7C3E1C1E
:10009000183C7E3C181C577D571C1C5E7F5E1C0064
:1000A000183C1800FFE7C3E7FF0018241800FFE71B
:1000B000DBE7FF30483A060E2629792926407F05DE
:1000C0000507407F05253F5A3CE73C5A7F3E1C1CF4
:1000D00008081C1C3E7F14227F22145F5F005F5FB4
:1000E00006097F017F006689956A606060606094A0
:1000F000A2FFA29408047E040810207E20100808A5
:100100002A1C08081C2A08081E101010100C1E0CAF
:100110001E0C30383E3830060E3E0E060000000041
:100120000000005F00000007000700147F147F1428
:10013000242A7F2A1223130864623649562050006D
:1001400008070300001C2241000041221C002A1C59
:100150007F1C2A08083E0808008070300008080844
:100160000808000060600020100804023E51494564
:100170003E00427F400072494949462141494D3382
:100180001814127F1027454545393C4A49493141E9
:10019000211109073649494936464949291E0000B7
:1001A000140000004034000000081422411414140C
:1001B0001414004122140802015909063E415D59F8
:1001C0004E7C1211127C7F494949363E4141412201
:1001D0007F4141413E7F494949417F090909013E2B
:1001E000414151737F0808087F00417F4100204052
:1001F000413F017F081422417F404040407F021C64
:10020000027F7F0408107F3E4141413E7F0909097A
:10021000063E4151215E7F09192946264949493246
:1002200003017F01033F4040403F1F2040201F3F0C
:100230004038403F63140814630304780403615991
:10024000494D43007F4141410204081020004141D3
:10025000417F04020102044040404040000307087F
:100260000020545478407F2844443838444444287B
:10027000384444287F385454541800087E09021822
:10028000A4A49C787F0804047800447D40002040AA
:10029000403D007F1028440000417F40007C0478EE
:1002A00004787C080404783844444438FC18242436
:1002B0001818242418FC7C080404084854545424B6
:1002C00004043F44243C4040207C1C2040201C3C33
:1002D0004030403C44281028444C9090907C44642A
:1002E000544C4400083641000000770000004136BD
:1002F000080002010204023C2623263C1EA1A16143
:10030000123A4040207A3854545559215555794174
:100310002254547842215554784020545579400C49
:100320001E5272123955555559395454545939552C
:100330005454580000457C410002457D420001456F
:100340007C407D1211127DF0282528F07C54554503
:10035000002054547C547C0A097F4932494949326F
:100360003A4444443A324A4848303A4141217A3A80
:1003700042402078009DA0A07D3D4242423D3D404C
:1003800040403D3C24FF2424487E4943662B2FFCFB
:100390002F2BFF0929F620C0887E090320545479A9
:1003A000410000447D413048484A32384040227A7A
:1003B000007A0A0A727D0D19317D2629292F2826F7
:1003C0002929292630484D402038080808080808FF
:1003D0000808382F10C8ACBA2F102834FA00007B58
:1003E000000008142A142222142A1408550055006B
:1003F00055AA55AA55AAFF55FF55FF000000FF005A
:10040000101010FF00141414FF001010FF00FF1054
:1004100010F010F0141414FC001414F700FF000086
:10042000FF00FF1414F404FC141417101F10101F05
:10043000101F1414141F00101010F0000000001FF3
:10044000101010101F10101010F010000000FF10FE
:100450001010101010101010FF10000000FF1400FA
:1004600000FF00FF00001F10170000FC04F414142C
:100470001710171414F404F40000FF00F7141414F8
:1004800014141414F700F7141414171410101F1078
:100490001F141414F4141010F010F000001F101F9B
:1004A0000000001F14000000FC140000F010F01009
:1004B00010FF10FF141414FF141010101F00000080
:1004C00000F010FFFFFFFFFFF0F0F0F0F0FFFFFF84
:1004D0000000000000FFFF0F0F0F0F0F38444438DB
:1004E00044FC4A4A4A347E02020606027E027E022A
:1004F00063554941633844443C04407E201E200635
:10050000027E020299A5E7A5991C2A492A1C4C7271
:1005100001724C304A4D4D303048784830BC625AF8
:10052000463D3E494949007E0101017E2A2A2A2A88
:100530002A44445F444440514A444040444A514064
:100540000000FF0103E080FF000008086B6B083625
:1005500012362436060F090F060000181800000096
:100560001010003040FF0101001F01011E00191D85
:100570001712003C3C3C3C00000000000102040853
:1005800010204080010204081020010204081020FD
:1005900000000000250028002B00040404040404CB
:1005A0000404020202020202030303030303EF0333
:1005B000038002CF0300C130ED0464031281E8031D
:1005C000850078CB05392C003402F70120EA0200BF
:1005D00000C00123C10110C5023E28C701863601B3
:1005E000483701003A0155B1020018B603088227C6
:1005F000F20100260101E00F0F312B0C0E084EF125
:10060000370710030E0900E10F000E140311073124
:10061000C148080F0C31360F1180298000000000FE
:1006200000240027002A0000922411241FBECFEFCF
:10063000D8E0DEBFCDBF13E0A0E0B1E0EAEEFCE41D
:1006400002C005900D92AC31B107D9F725E0ACE1BD
:10065000B3E001C01D92A335B207E1F713E0C5E195
:10066000D3E004C02197FE010E946826C431D1075F
:10067000C9F70E94DC180C9473260C940000CF92EA
:10068000DF92EF92FF920F931F93CF93DF936C0152
:100690007A018B01C0E0D0E0CE15DF0581F0D801F2
:1006A0006D918D01D601ED91FC910190F081E02DCD
:1006B000C6010995892B11F02196EECF7E01C70165
:1006C000DF91CF911F910F91FF90EF90DF90CF902E
:1006D0000895FC01538D448D252F30E0842F90E048
:1006E000821B930B541710F0CF960895019708952D
:1006F000FC01918D828D981761F0828DDF01A80F2A
:10070000B11D5D968C91928D9F5F9F73928F90E04B
:1007100008958FEF9FEF0895FC01918D828D9817BA
:1007200031F0828DE80FF11D858D90E008958FEFF7
:100730009FEF0895FC01918D228D892F90E0805CC0
:100740009F4F821B91098F7399270895FC01848D17
:10075000DF01A80FB11DA35ABF4F2C91848D90E0EB
:1007600001968F739927848FA689B7892C93A089C6
:10077000B1898C91837080648C93938D848D981350
:1007800006C00288F389E02D80818F7D80830895E3
:10079000EF92FF920F931F93CF93DF93EC0181E0D1
:1007A000888F9B8D8C8D981305C0E889F98980818D
:1007B00085FD26C0F62E0B8D10E00F5F1F4F0F73C7
:1007C0001127E02E8C8DE8120CC00FB607FCFACF73
:1007D000E889F989808185FFF5CFCE010E94A603C3
:1007E000F1CF8B8DFE01E80FF11DE35AFF4FF08230
:1007F0009FB7F8940B8FEA89FB89808180620AC0D9
:100800009FB7F894EE89FF896083E889F989808130
:100810008370806480839FBF81E090E0DF91CF91FF
:100820001F910F91FF90EF900895CF93DF93EC010C
:10083000888D8823C9F0EA89FB89808185FD05C000
:10084000A889B9898C9186FD0FC00FB607FCF5CF3A
:10085000808185FFF2CFA889B9898C9185FFEDCF82
:10086000CE010E94A603E7CFDF91CF9108952F928A
:100870003F924F925F926F927F928F929F92AF9230
:10088000BF92CF92DF92EF92FF920F931F93CF937D
:10089000DF9300D000D000D0CDB7DEB76C015B0194
:1008A0005E834D832801370181E090E04C01841A7A
:1008B000950ACA01919581959109AC01440F551F84
:1008C0005A834983180153E0250E311CEE24E3942A
:1008D000F12C822F81708B8322702C83C7010197AA
:1008E0004D815E81841795070CF064C097FC0BC0A6
:1008F000415051095E834D8389819A8102969A8382
:100900008983880E991EC701880F991F0196880E4A
:10091000991E9B81992309F12D813E81220F331F5E
:100920002F5F3F4F240D351D8301A5018D819E81D1
:10093000481B590BB6016E0D7F1D80E294E00E94AA
:1009400015149101A5014E195F096D817E816C0D11
:100950007D1D80E294E00E9415149C81911107C0D6
:100960009FEFE91AF90A22E0220E311CB7CF2D8140
:100970003E81220F331F2F5F3F4F240D351D830112
:10098000A5018D819E81481B590BB6016E197F0907
:1009900080E294E00E9415149101A5014E195F09AF
:1009A000B6018D819E81681B790B80E294E00E94E4
:1009B0001514D6CF26960FB6F894DEBF0FBECDBF66
:1009C000DF91CF911F910F91FF90EF90DF90CF902B
:1009D000BF90AF909F908F907F906F905F904F905F
:1009E0003F902F900895009769F0FC01019000203E
:1009F000E9F73197AF01481B590BBC0180E294E045
:100A00000C943F0380E090E008950E946E268F9240
:100A10009F92AF92BF92CF92DF92EF92FF920F938D
:100A20001F93CF93DF935C01EB016A0180E294E0B6
:100A30000E94E815450185E0880E911C76010AE0C8
:100A400010E026E130E0AE01B40180E294E00E94C3
:100A5000D41725960FEF1FEF21E045E050E0BE01CF
:100A6000C5014A960E94370422E045E050E0BE01ED
:100A7000C4010E94370480E294E0DF91CF911F917E
:100A80000F91FF90EF90DF90CF90BF90AF909F902D
:100A90008F900C942914AF92BF92CF92DF92EF9275
:100AA000FF920F931F93CF93DF936C015B01EA01D9
:100AB000790180E294E00E94E8159E01220F331F25
:100AC0002F5F3F4FA5014C1B5D0B8701B60180E2F4
:100AD00094E00E94151400E010E023E0AE01B5019F
:100AE000C6010E94370480E294E0DF91CF911F910C
:100AF0000F91FF90EF90DF90CF90BF90AF900C944C
:100B00002914CF93DF930E94F304EC0189E193E071
:100B10000E94F3048C0F9D1FDF91CF9108958F9257
:100B20009F92AF92BF920F931F93CF93DF93CDB756
:100B3000DEB7A1970FB6F894DEBF0FBECDBF19A2E6
:100B4000423008F44AE08E010F5D1F4F842E912C35
:100B5000A12CB12CA50194010E940026E62FB90119
:100B6000CA0101501109EA3014F4E05D01C0E95CEA
:100B7000D801EC93232B242B252B61F7C8010E946D
:100B8000F304A1960FB6F894DEBF0FBECDBFDF9180
:100B9000CF911F910F91BF90AF909F908F9008952C
:100BA000CF92DF92EF92FF92CF93DF936B017C01A4
:100BB0006DE280E294E00E941316EC01662777272D
:100BC000CB016C197D098E099F094AE00E948F05AF
:100BD0008C0F9D1FDF91CF91FF90EF90DF90CF9012
:100BE00008950C94F304282F30917603313208F0E5
:100BF0004AC0809152038111FCCF9091750342E06D
:100C000040935203209351032FEF209350031092EF
:100C10004F0330934E03E5E5F3E0AEE2B3E020E0AE
:100C2000321721F041914D932F5FFACF10922D038F
:100C300020912D03990F922B90932D0390912C03CB
:100C4000913061F410922C0390912D039093BB008E
:100C50009091BC0093FDF8CF95EC01C095EE909378
:100C6000BC00909152039230E1F3909150039F3F6A
:100C700079F080915003803241F0809150038033AD
:100C800031F084E005C081E003C082E001C083E070
:100C900010925403109276031092530308952F92EA
:100CA0003F924F925F926F927F928F929F92AF92FC
:100CB000BF92CF92DF92EF92FF920F931F93CF9349
:100CC000DF93CDB7DEB7AC970FB6F894DEBF0FBE9B
:100CD000CDBF9CA78BA74B015A0139011701DE8AB2
:100CE000CD8A261737075CF4E616F706BCF4962F74
:100CF000892D4901EBA4FCA45CA74BA707C0E21611
:100D0000F3060CF0ABC1962D872D7501281439041C
:100D100084F058013101292E382E13C08B2DABA43D
:100D2000BCA44BA78CA77801872D3B01822E982E5F
:100D300008C03401ABA4BCA44101292E382E0BA756
:100D40001CA780E294E00E94E8158214930451F5F8
:100D50002BA53CA5A216B3065CF09BA58CA52A1575
:100D60003B0514F49A2D8B2DABA4BCA49BA78CA798
:100D7000EA14FB0444F04BA55CA54E155F0514F482
:100D8000FCA6EBA675012BA53CA52E193F092F5FEC
:100D90003F4F0D891E89A401B70180E294E00E94B3
:100DA000021440C1C5016BA57CA5861B970B93015E
:100DB00028193909D701A61BB70BBE83AD83A10142
:100DC000481959095A874987B7016A197B097E87EB
:100DD0006D87D101A619B709B88FAF8B23016214B3
:100DE000730419F0B1E04B1A51086401198A1A8A88
:100DF0001B8A1C8A19821A821B821C82A901330F4A
:100E0000660B770B4B8F5C8F6D8F7E8F29853A85B4
:100E1000032E000C440B550B2F8F38A349A35AA364
:100E2000AC01990F660B770B4BA35CA36DA37EA35C
:100E30006D817E81072E000C880B990B6FA378A71C
:100E400089A79AA74C145D040CF454C069817A8177
:100E50008B819C812B8D3C8D4D8D5E8D0E94CE258E
:100E6000EBA4FCA4E20EF31E69897A898B899C8924
:100E70002F8D38A149A15AA10E94CE258BA59CA5F2
:100E8000280F391F49815A816B817C818BA19CA1DC
:100E9000ADA1BEA1480F591F6A1F7B1F49835A830A
:100EA0006B837C8349895A896B897C898FA198A53A
:100EB000A9A5BAA5480F591F6A1F7B1F498B5A8BDA
:100EC0006B8B7C8B2E153F052CF49E2D8F2D79017D
:100ED000292F382F2E193F092F5F3F4F0D891E896B
:100EE000A601B70180E294E00E9402149FEFC91AA4
:100EF000D90AA8CFC60186199709AD85BE858A9FF4
:100F000020018B9F500C9A9F500C1124052C000C33
:100F1000660877089601281939094D815E81249F5A
:100F2000C001259F900D349F900D11249C01990FB5
:100F3000440B550B29833A834B835C834F89588D2F
:100F4000052E000C660B770B4F8B588F698F7A8FAD
:100F500069857A85072E000C880B990B69877A873B
:100F60008B879C87CD01092E000CAA0BBB0B8D87AC
:100F70009E87AF87B88B2D813E81032E000C440BDA
:100F8000550B2D833E834F8358872C143D040CF45E
:100F900049C0C301B2012F89388D498D5A8D0E94F5
:100FA000CE257501E20EF31E69817A818B819C81C9
:100FB00029853A854B855C850E94CE256BA57CA54D
:100FC000260F371F8D859E85AF85B889480E591E1F
:100FD0006A1E7B1E49815A816B817C818D819E8135
:100FE000AF81B885480F591F6A1F7B1F49835A83F9
:100FF0006B837C832E153F052CF49E2D8F2D79015C
:10100000292F382F2E193F092F5F3F4F0D891E8939
:10101000A601B70180E294E00E9402149FEFC91A72
:10102000D90AB3CF80E294E0AC960FB6F894DEBF55
:101030000FBECDBFDF91CF911F910F91FF90EF9029
:10104000DF90CF90BF90AF909F908F907F906F90E8
:101050005F904F903F902F900C942914780171CE9F
:10106000CF93DF93BC01990F880B990B97FF03C0B7
:101070000E94D00503C04AE00E948F05EC0189E17F
:1010800093E00E94F3048C0F9D1FDF91CF91089590
:10109000CF93DF93682F70E080E090E04AE00E94F9
:1010A0008F05EC0189E193E00E94F3048C0F9D1FF2
:1010B000DF91CF9108952F923F924F925F926F925E
:1010C0007F928F929F92AF92BF92CF92DF92EF92D8
:1010D000FF920F931F93CF93DF93CDB7DEB76B973C
:1010E0000FB6F894DEBF0FBECDBF9B8F8A8F5B011A
:1010F0001A01D22E1F830E833701C982DC01589654
:101100002D913C9159972115310509F0E6C01896AB
:101110008D919C911997681779070CF0CDC11A969B
:101120008D919C911B97481759070CF0C5C18C2CC9
:10113000912CFB0126E0C29EE00DF11D1124FB87DE
:10114000EA871E161F060CF0B7C1A40183E0440F06
:10115000551F8A95E1F75D874C87CA01820D931D63
:10116000181619060CF0A8C157968C91811104C06D
:101170005FEA5D1508F4D394AA8DBB8DED91FC91C7
:1011800011970284F385E02DCD010995B5E0DB9E32
:10119000C0011124F5013596FF87EE87BB82AA8234
:1011A00025019C012A193B09398B288BA101485F35
:1011B0005F4F5B8B4A8BE889F989E40DF51DE45894
:1011C000FF4F5491588761013D822C82888580FFB2
:1011D00013C0AA8DBB8DED91FC91B981B13031F472
:1011E0000484F585E02D2E813F8116C00684F785A5
:1011F000E02DEE80FF801AC0EE81FF81E615F70535
:10120000F1F0AA8DBB8DED91FC91B981B13051F413
:101210000484F585E02D9301A601B2018A8D9B8D92
:1012200009950DC00684F785E02D730184019401B2
:101230004C815D816A817B818A8D9B8D0995E885D2
:10124000E695E887FFEFCF1ADF0A2C813D81280D54
:10125000391D3D832C834A895B89C416D50609F064
:10126000B5CF5FEF451A550A8A819B81880D991D7C
:101270009B838A83AE85BF854A165B0609F09BCFA8
:10128000EE81FF81E615F70509F4F4C0EA8DFB8DC8
:10129000A081B181F981F13079F4B5016B5F7F4FA5
:1012A0005096ED91FC915197830128E030E0A10127
:1012B0008A8D9B8D0995DEC06A857B8568197909C1
:1012C0001E96ED91FC911F9773010C851D8594016D
:1012D000A1018A8D9B8D0995CDC0F9013496E491C9
:1012E000DE1AF901329685919491B7E0DB9E800D6C
:1012F000911D1124F901259134913B8B2A8BFC011E
:10130000259134912901FC013296C4903196349193
:101310003E87329614913196D4904981423058F0EC
:10132000612E012E000C77088D2D0D2C000C990BD1
:101330009987888704C019861886612C712CAA8D1C
:10134000BB8DED91FC9111970284F385E02DCD01C9
:101350000995B9818B2E912C689CC001699C900DD8
:10136000789C900D1124FC01EA0DFB1DFD87EC8794
:101370001A82712C612CE12F110FFF0B95012E0F9A
:101380003F1F3B872A87AC0CB11CA5014E0F5F1F86
:101390005F8B4E8BC1018D0D911DD7FC9A95998F56
:1013A000888F9E85691608F065C0862D90E0488577
:1013B0005985480F591F489D9001499D300D589DF2
:1013C000300D1124D101A20FB31FB98BA88BEC856E
:1013D000FD85FD83EC83AA84BB84DA80FA85DF1A5D
:1013E000288D398D280F391F3D8B2C8B8D2D8A0D23
:1013F0004E895F89A416B506C1F1877041F4C20118
:101400000196EA89FB89E40DF51D74902C0177FEA5
:1014100021C0AA8DBB8DED91FC91B981B13061F4F1
:101420000484F585E02D2E813F814C895D89B501CD
:101430008A8D9B8D09950EC00684F785E02DEE8080
:10144000FF8084019401488959896C817D818A8D4E
:101450009B8D0995770CEFEFAE1ABE0A2C813D816A
:10146000280D391D3D832C83C1CF3A813C0D3A8331
:10147000639497CFAA8DBB8DED91FC91119706884F
:10148000F789E02DCD016B960FB6F894DEBF0FBE45
:10149000CDBFDF91CF911F910F91FF90EF90DF9023
:1014A000CF90BF90AF909F908F907F906F905F9004
:1014B0004F903F902F9009946B960FB6F894DEBF33
:1014C0000FBECDBFDF91CF911F910F91FF90EF9095
:1014D000DF90CF90BF90AF909F908F907F906F9054
:1014E0005F904F903F902F9008951F920F920FB6EC
:1014F0000F9211242F933F934F935F936F937F939A
:101500008F939F93AF93BF93EF93FF9387E793E0FE
:101510000E94A603FF91EF91BF91AF919F918F9190
:101520007F916F915F914F913F912F910F900FBEDF
:101530000F901F9018951F920F920FB60F921124C3
:101540002F938F939F93EF93FF93E0918703F091F5
:1015500088038081E0918D03F0918E0382FD12C09B
:101560009081809190038F5F8F73209191038217F8
:1015700051F0E0919003F0E0E958FC4F958F809393
:10158000900301C08081FF91EF919F918F912F91E6
:101590000F900FBE0F901F90189590E0FC01E85936
:1015A000FF4F2491FC01E458FA4F3491FC01E656B8
:1015B000FA4FE491EE2309F43CC0222339F12330A1
:1015C00091F038F42130A9F0223001F584B58F7DF7
:1015D00012C0273091F02830A1F02430B9F4809166
:1015E00080008F7D03C0809180008F778093800082
:1015F0000DC084B58F7784BD09C08091B0008F770E
:1016000003C08091B0008F7D8093B000F0E0EE0FBA
:10161000FF1FE057FA4FA591B4919FB7F89461115D
:1016200004C08C913095382302C0EC913E2B3C9342
:101630009FBF08950895EF92FF920F931F93DC01CF
:10164000ED91FC9100A0F1A1E02D09951F910F9162
:10165000FF90EF9008950F931F93DC01ED91FC91A3
:10166000068CF78DE02D09951F910F9108950F932A
:101670001F93DC01ED91FC91048CF58DE02D099513
:101680001F910F910895DC01ED91FC910084F1858B
:10169000E02D09942F923F924F925F926F927F922A
:1016A0008F929F92AF92BF92CF92DF92EF92FF9272
:1016B0000F931F93CF93DF9300D000D000D0CDB70E
:1016C000DEB72C017E836D836A015901C801FC825B
:1016D000EB824801841A950A97FE03C09194819485
:1016E000910835012D813E81621A730A77FE03C08D
:1016F000719461947108681479045CF43A2D2B2D6F
:101700005C01832F922F3D812E81DE82CD82C32EFC
:10171000D22EAD81BE81AA16BB065CF43C2D2D2DC8
:101720006C01832F922F3D812E81BE82AD82A32E2C
:10173000B22E85012D813E81021B130B1C012C183A
:101740003D0837FE03C0319421943108780117FF1A
:1017500003C03FEFE31AF30AF594E794C816D906DD
:101760002CF08FEF9FEF9A83898304C0A1E0B0E053
:10177000BA83A9832D813E81A216B30624F1D2013A
:10178000ED91FC910484F585E02D2B813C8168145A
:10179000790424F44D815E81B60103C0A6016D81F8
:1017A0007E81C2010995E218F308F7FE06C029817F
:1017B0003A81C20ED31EE00EF11E8D819E810196EC
:1017C0009E838D83D7CF26960FB6F894DEBF0FBECB
:1017D000CDBFDF91CF911F910F91FF90EF90DF90E0
:1017E000CF90BF90AF909F908F907F906F905F90C1
:1017F0004F903F902F90089585ED8093BC0080918D
:10180000BC0084FDFCCF1092520308954091260540
:10181000262F30E0240F311D21323105DCF42091D8
:1018200052032430C9F4FC0180E090E0861758F49C
:10183000309126052191DC01AA5FBA4FA30FB11D9B
:101840002C930196F3CF80912605680F60932605AF
:1018500080E0089581E0089582E008950895089554
:10186000E091FF048091FE04E81730F4F0E0E252CA
:10187000FB4F808190E008958FEF9FEF0895909146
:10188000FF048091FE04981750F4E92FF0E0E25233
:10189000FB4F208130E09F5F9093FF0402C02FEF49
:1018A0003FEFC90108958091FE0490E02091FF046C
:1018B000821B91090895CF92DF92EF92FF920F93CE
:1018C0001F93CF93DF937C01CB018A0120915303B7
:1018D000222389F0EB016B01C40ED51ECC15DD056A
:1018E00069F06991D701ED91FC910190F081E02DB3
:1018F000C7010995F3CF642F0E94060CC801DF9140
:10190000CF911F910F91FF90EF90DF90CF900895AE
:10191000CF93DF931F92CDB7DEB769832091530336
:101920002223D1F020917603203240F021E030E0F4
:10193000FC013383228380E090E015C08091540342
:10194000E82FF0E0EB5AFC4F998190838F5F8093F2
:1019500054038093760305C061E0CE0101960E9496
:10196000060C81E090E00F90DF91CF9108950895EB
:1019700080E090E008951F93CF93DF93EC01162F42
:10198000E881F9810284F385E02D0995111102C0E7
:1019900060E201C061E2CE010E94A918E881F981EC
:1019A0000688F789E02DCE01DF91CF911F91099430
:1019B0008F929F92AF92BF92CF92DF92EF92FF925F
:1019C0000F931F93CF93DF93EC01490181E0881AB5
:1019D0009108860E971EC401A0E0B0E04B01A12C37
:1019E000B12C540199248824882A992AAA2ABB2A2E
:1019F000680181E0C81AD108C40ED51EC601A0E056
:101A0000B0E06A01E12CF12C7601DD24CC24C82A57
:101A1000D92AEA2AFB2A6AE2CE010E94A91829A142
:101A20006B2D77278827992727FF18C06EBD0DB427
:101A300007FEFDCFC501AA27BB278EBD0DB407FE4B
:101A4000FDCFBB27AB2D9A2D892D8EBD0DB407FE82
:101A5000FDCF8EBC0DB407FEFDCF14C0CE010E9499
:101A6000A917B50188279927CE010E94A9179927A0
:101A70008B2D7A2D692DCE010E94A917682DCE01DC
:101A80000E94A9176BE2CE010E94A91829A16F2D0F
:101A900077278827992727FF18C06EBD0DB407FE4A
:101AA000FDCFC701AA27BB278EBD0DB407FEFDCF12
:101AB000BB27AF2D9E2D8D2D8EBD0DB407FEFDCF06
:101AC000CEBC0DB407FEFDCF14C0CE010E94A917F5
:101AD000B70188279927CE010E94A91799278F2D32
:101AE0007E2D6D2DCE010E94A9176C2DCE010E9476
:101AF000A9176CE2CE01DF91CF911F910F91FF905A
:101B0000EF90DF90CF90BF90AF909F908F900C940C
:101B1000A9181F93CF93DF93EC0163706D8B623034
:101B2000C1F0633001F1613051F080EF90E09987AE
:101B3000888780E491E09B878A8718E41DC080E451
:101B400091E09987888780EF90E09B878A8718E2E9
:101B500013C080EF90E09987888780E491E09B87AD
:101B60008A8718E809C080E491E09987888780EF28
:101B700090E09B878A8718EEE881F9810284F385DB
:101B8000E02DCE01099566E3CE010E94A918612FD0
:101B9000CE010E94A917E881F9810688F789E02D16
:101BA000CE01DF91CF911F910994BF92CF92DF9226
:101BB000EF92FF920F931F93CF93DF93EC014115A8
:101BC00051056105710521F440E052E16AE770E0DA
:101BD0004A8F5B8F6C8F7D8F8E8D87FD07C061E094
:101BE0000E94E91661E08E8D0E94CD0A61E08F8D22
:101BF0000E94E91660E08F8D0E94CD0A89A187FDC1
:101C000019C061E08AA10E94E91660E08AA10E94E1
:101C1000CD0A61E089A10E94E91661E089A10E94D4
:101C2000CD0A8BA187FD03C060E00E94E91689A15F
:101C300087FF33C01FB7F89480914905811127C0F1
:101C4000E4EAF5E08491E6E8F5E09491E82FF0E02D
:101C5000EE0FFF1FE35EF94FA591B491EC91E923DC
:101C600021F461E08AE00E94CD0A61E08AE00E94EE
:101C7000E9168CB580618CBD8CB580648CBD61E04B
:101C80008DE00E94E91661E08BE00E94E9168091E8
:101C900049058F5F809349051FBF88A187FD21C03B
:101CA00061E00E94E91661E088A10E94CD0A64E625
:101CB00070E080E090E00E94251760E088A10E941B
:101CC000CD0A64E670E080E090E00E94251761E0B4
:101CD00088A10E94CD0A68EC70E080E090E00E944C
:101CE0002517E881F9810284F385E02DCE0109955D
:101CF0000EEA15E078018FEFE81AF80AF80164910E
:101D0000662321F1CE010E94A9180E5F1F4FF70133
:101D1000E490FE2DFF77BF2E6801FF2EFA948FEF1F
:101D2000F81649F0F6016491CE010E94A917FFEF61
:101D3000CF1ADF0AF3CF0B0D111DE7FEDBCF68E7EB
:101D400070E080E090E00E942517D4CFE881F9810F
:101D50000688F789E02DCE01099580EF90E09987FC
:101D6000888780E491E09B878A87DF91CF911F91DC
:101D70000F91FF90EF90DF90CF90BF9008951F924A
:101D80000F920FB60F9211242F933F934F935F93AF
:101D90006F937F938F939F93AF93BF93EF93FF9333
:101DA0008091B900887F803609F49CC068F588323C
:101DB00009F45BC090F4803109F454C038F48823EE
:101DC00009F4F6C0883009F44DC0F6C0883109F432
:101DD0004CC0803209F45DC0EFC0803409F468C0A3
:101DE00048F4803309F455C0883309F0E5C0809386
:101DF0005003D8C0803509F44FC0883509F45DC060
:101E0000883409F0D9C0D6C0883909F4C7C0A8F40D
:101E1000883709F467C038F4883609F463C080371E
:101E200009F460C0C9C0883809F4B8C0803909F421
:101E30005FC0803809F0C0C05BC0803B09F486C039
:101E400038F4803A09F466C0883A09F47FC0B4C017
:101E5000803C09F4A7C0883C09F4A4C0883B09F47D
:101E60008AC0AAC080912D0310C090914F03809129
:101E70004E03981770F5E0914F0381E08E0F809329
:101E80004F03F0E0E25DFC4F80818093BB0085EC66
:101E900086C0809350038EC0E0914F0381E08E0F87
:101EA00080934F038091BB00F0E0E25DFC4F8083A4
:101EB00090914F0380914E036EC0E0914F0381E0FB
:101EC0008E0F80934F038091BB00F0E0E25DFC4FEA
:101ED00080838091510381116DC081E080932C0338
:101EE00084EA61C083E08093520310924805CFCF0B
:101EF00080914805803208F051C0E091480581E0AA
:101F00008E0F809348058091BB00F0E0E85DFA4FAA
:101F10008083BDCF85EC8093BC00109252038091EA
:101F20004805803230F4E0914805F0E0E85DFA4F72
:101F300010826091480570E0E0910205F091030580
:101F400088E295E009951092480536C084E08093B8
:101F500052031092270510922605E0910005F0919A
:101F60000105099580912605811105C081E08093C6
:101F7000260510920605E091270581E08E0F8093DB
:101F80002705F0E0EA5FFA4F80818093BB009091D3
:101F9000270580912605981708F479CF85E8809366
:101FA000BC000AC085EC8093BC001092520304C0B0
:101FB000109250030E94FC0BFF91EF91BF91AF91E3
:101FC0009F918F917F916F915F914F913F912F9151
:101FD0000F900FBE0F901F9018958091C6048095AA
:101FE000817090E00895F999FECF92BD81BDF89A75
:101FF00080B50895F999FECF92BD81BD60BDFA9A72
:10200000F99A08958F929F92AF92BF92CF92DF92EA
:10201000EF92FF920F931F93CF93DF935C01EB013D
:102020004A0180912401909125012DE8A216B10466
:1020300054F08F3D9105C4F420911801309119019D
:10204000820F931F0DC026E7A216B1046CF48231F3
:10205000910554F02091180130911901821B930BC6
:10206000909325018093240194014AE050E0BE0141
:1020700080912401909125010E944B0580912401BB
:1020800090912501A401BE016550710940970E94FD
:1020900007058DE8A816B1040CF480C080912401D6
:1020A000909125015E0126E0A21AB108AC014950C9
:1020B00051094E012BE0821A9108C12CD12C7401D8
:1020C0008A019501B40104970E944F066091240192
:1020D000709125016F507109E12CF12C06E010E0A0
:1020E00027E030E0A40180E294E00E944613809152
:1020F000240190912501AC01405151099E012250CB
:10210000310975018A01B5010D970E944F06AE0194
:10211000485051096091240170912501695171095C
:10212000E12CF12C01E110E02AE030E080E294E0C3
:102130000E9446138091240190912501AC014051E9
:1021400051095E0126E0A20EB11C9E012E5F3F4F99
:1021500075018A01B5010D970E944F066091240117
:10216000709125016F507109E12CF12C06E010E00F
:1021700027E030E0A50180E294E00E9446138091C0
:10218000240190912501AC0149505109BE01655FC0
:102190007F4F7B018A019501049781C086E7A816CD
:1021A000B1040CF07EC040912401509125019E01A4
:1021B000255F3F4F5E0186E0A80EB11CCA0109965B
:1021C0004C5F5F4FC12CD12C79018C01B5010E946D
:1021D0004F066091240170912501685F7F4FE12CCB
:1021E000F12C06E010E027E030E0A50180E294E069
:1021F0000E9446138091240190912501AC01405F1B
:102200005F4F9E012E5F3F4F75018A01B5010D960C
:102210000E944F06AE01485051096091240170910F
:102220002501615F7F4FE12CF12C01E110E02AE0F4
:1022300030E080E294E00E94461380912401909166
:102240002501AC01405F5F4F5E0126E0A21AB10894
:102250009E012250310975018A01B5010D960E9437
:102260004F062B976091240170912501675F7F4F86
:10227000E12CF12C06E010E027E030E0AE0180E236
:1022800094E00E9446138091240190912501AC01B5
:10229000475F5F4F7E018A019501BE0104960E944F
:1022A0004F06DF91CF911F910F91FF90EF90DF903C
:1022B000CF90BF90AF909F908F9008951F920F92F4
:1022C0000FB60F9211242F933F938F939F9380917A
:1022D000BF049091C0049093850080938400809106
:1022E00004059091050501969093050580930405DA
:1022F00020911C0130911D0128173907E4F48091C9
:102300002601909127010196909327018093260141
:102310008091D2049091D304019749F48091DC0418
:102320009091DD0401969093DD048093DC0410927B
:102330000505109204059F918F913F912F910F9069
:102340000FBE0F901F901895AF92BF92CF92DF9261
:10235000EF92FF920F931F93CF93DF93CDE8D4E0DA
:102360008BE5A82E84E0B82E99E1C92ED12C00EF80
:1023700010E00E94BE257E01B6010E9431264996DA
:10238000899399930E94BE25F70120813181B8017C
:10239000621B730B0E943126F501819391935F01BB
:1023A000F4E0C13CDF0729F7DF91CF911F910F9136
:1023B000FF90EF90DF90CF90BF90AF90089560E0D6
:1023C00070E080E294E00E941415809128019091C1
:1023D00029018130910509F081C028E33FEF309356
:1023E0002701209326011092DD041092DC0423E7DC
:1023F00030E0309325012093240130932301209372
:1024000022011092DB041092DA041092D904109287
:10241000D8041092D7041092D6041092D5041092CA
:10242000D4041092D3041092D2049093210180938B
:1024300020018CE090E090931F0180931E0185E0C5
:1024400090E090931D0180931C018AE090E09093AE
:102450001B0180931A011092D1041092D0041092A3
:10246000CF041092CE041092CD041092CC0410929E
:10247000CB041092CA041092C9041092C80410929E
:10248000C70483E090E090931901809318018AEBD0
:1024900096ED90931701809316018FEF97E090933C
:1024A0001501809314010E94A41180911201909152
:1024B00013018530910511F0029781F4809110018C
:1024C0009091110120910E0130910F013093110173
:1024D0002093100190930F0180930E0180912801A9
:1024E000909129018430910561F42AE030E0309325
:1024F0001D0120931C0125E030E030931901209349
:10250000180190931301809312010895CF92DF92E6
:10251000EF92FF920F931F93CF93DF936C01EB0128
:102520006333710514F0C2E3D0E0E0901601F0903F
:10253000170140912601509127014C1B5D0B8E0124
:102540009E01B60180E294E00E94461300911A01B8
:1025500010911B0140912601509127014C1B5D0BEE
:10256000401B510BE12CF12C9E01B60180E294E05E
:102570000E944613C65BDE4F809126019091270191
:10258000C817D907CCF52091DC043091DD04809187
:102590000C0190910D018217930774F58091200131
:1025A00090912101019690932101809320010AE0EE
:1025B00010E022E330E040E050E068EC70E080E2C0
:1025C00094E00E94461310922701109226018091F8
:1025D000D6049091D7048436910574F0E0915904A3
:1025E000F0915A04EE0FFF1FEE57FE4F808191814C
:1025F0009093170180931601DF91CF911F910F9156
:10260000FF90EF90DF90CF900895EF92FF920F939D
:102610001F93CF93DF938C01EB017A019A014AE07B
:1026200050E00E944B05BE0165507109A701C80129
:102630004097DF91CF911F910F91FF90EF900C94F5
:1026400007053FB7F89480914F0590915005A091F0
:102650005105B091520526B5A89B05C02F3F19F032
:102660000196A11DB11D3FBFBA2FA92F982F882712
:10267000820F911DA11DB11DBC01CD0142E0660F6D
:10268000771F881F991F4A95D1F708958F929F92BF
:10269000AF92BF92CF92DF92EF92FF920F931F9370
:1026A000CF93DF93EC016B015A014901E881F98175
:1026B0000284F385E02D0995E881F9810684F78588
:1026C000E02D9401A501B601CE010995E881F981BB
:1026D0000688F789E02DCE01DF91CF911F910F91F0
:1026E000FF90EF90DF90CF90BF90AF909F908F9032
:1026F0000994AF92BF92CF92DF92EF92FF920F9325
:102700001F93CF93DF93EC017B016A015901E881AC
:10271000F9810284F385E02D0995E881F981028829
:10272000F389E02D9501A601B701CE010995E88155
:10273000F9810688F789E02DCE01DF91CF911F91B5
:102740000F91FF90EF90DF90CF90BF90AF900994E2
:10275000AF92BF92CF92DF92EF92FF920F931F93AF
:10276000CF93DF93EC017B016A015901E881F98184
:102770000284F385E02D0995E881F9810088F189CB
:10278000E02D9501A601B701CE010995E881F981F7
:102790000688F789E02DCE01DF91CF911F910F912F
:1027A000FF90EF90DF90CF90BF90AF900994CF92C1
:1027B000DF92EF92FF920F931F93CF93DF93EC0181
:1027C0008B017A016901E881F9810284F385E02DAA
:1027D0000995E881F9810484F585E02D9601A7012A
:1027E000B801CE010995E881F9810688F789E02DC5
:1027F000CE01DF91CF911F910F91FF90EF90DF906D
:10280000CF900994EF92FF920F931F93DC01ED910B
:10281000FC910684F785E02D780101E010E0099530
:102820001F910F91FF90EF900895EF92FF920F93F9
:102830001F93DC01ED91FC910684F785E02D780172
:10284000890121E030E009951F910F91FF90EF90F1
:102850000895FC0191A904A4F5A5E02D8081892BA0
:10286000808308950895FC016370658B8481958150
:1028700026813781613039F0633029F09187808774
:102880003387228708953187208793878287089529
:102890006F927F928F929F92AF92BF92CF92DF9270
:1028A000EF92FF920F931F93CF93DF93EC014B01B5
:1028B0005A0169013801E881F9810284F385E02D2C
:1028C0000995E881F9810288F389E02D8701960155
:1028D000A501B401CE010995A501460D571D415032
:1028E0005109E881F9810288F389E02D9601B4014C
:1028F000CE010995E881F9810088F189E02D9301E5
:10290000A501B401CE010995C80CD91CB6016150CE
:102910007109E881F9810088F189E02D9301A50111
:10292000CE010995E881F9810688F789E02DCE016D
:10293000DF91CF911F910F91FF90EF90DF90CF909B
:10294000BF90AF909F908F907F906F9009948F92DF
:102950009F92AF92BF92CF92DF92EF92FF920F932E
:102960001F93CF93DF934C016B015A01E901DC0106
:10297000ED91FC916217730781F40417150724F495
:102980008B2D5801042F182F0A191B0998012F5F4E
:102990003F4F048CF58DE02D12C04017510709F50B
:1029A0002617370724F48D2D6901C62FD82F9E01D5
:1029B0002C193D092F5F3F4F068CF78DE02D8701C5
:1029C000A501B601C4010995DF91CF911F910F9127
:1029D000FF90EF90DF90CF90BF90AF909F908F903F
:1029E00008950284F385E02D0995D401ED91FC91C1
:1029F0000488F589E02D9E01A501B601C401099561
:102A0000D401ED91FC910688F789E02DC401DF9196
:102A1000CF911F910F91FF90EF90DF90CF90BF90DB
:102A2000AF909F908F900994EF92FF920F931F9316
:102A3000DC011A960D911C911B9718962D913C91D3
:102A40001997ED91FC9100A0F1A1E02D7B0140E0F0
:102A500050E060E070E009951F910F91FF90EF90BA
:102A600008954F925F926F927F928F929F92AF9252
:102A7000BF92CF92DF92EF92FF920F931F93CF936B
:102A8000DF936C012B015A0139014801DC01ED9102
:102A9000FC910284F385E02D0995E201640C751C1C
:102AA000D601ED91FC91C615D7055CF40088F1893B
:102AB000E02D87019401A501BE01C601099521966B
:102AC000EFCF0688F789E02DC601DF91CF911F91E6
:102AD0000F91FF90EF90DF90CF90BF90AF909F90BD
:102AE0008F907F906F905F904F9009948F929F92FC
:102AF000AF92BF92CF92DF92EF92FF920F931F930C
:102B0000CF93DF93EC015B014A016901E881F98110
:102B10000284F385E02D099595012C0D3D1D215072
:102B20003109E881F9810488F589E02D7801840173
:102B3000A401B501CE010995E881F9810688F789DC
:102B4000E02DCE01DF91CF911F910F91FF90EF907B
:102B5000DF90CF90BF90AF909F908F9009948F920D
:102B60009F92AF92BF92CF92DF92EF92FF920F931C
:102B70001F93CF93DF93EC015B014A016901780158
:102B8000E881F9810284F385E02D0995C80CD91CF0
:102B9000860101501109E881F9810488F589E02D49
:102BA0009501A401B501CE010995E881F981068856
:102BB000F789E02DCE01DF91CF911F910F91FF900A
:102BC000EF90DF90CF90BF90AF909F908F9009943F
:102BD000FC0181A187FF1EC0428D538D648D758DD0
:102BE00080E092E1AAE7B0E020E0481759076A07C1
:102BF0007B0740F4B695A795979587952F5F26306C
:102C0000A1F727E091E09227892F806A869591703D
:102C10008CBD9DBD81A904A4F5A5E02D9081809572
:102C2000892380830895AF92BF92CF92EF92FF9253
:102C30000F931F93CF93DF93EC01262F888D998DEF
:102C4000009709F040C06A3059F41D861C862C8913
:102C50008E859F8538E0239F800D911D112441C0F2
:102C60006D3009F4AAC08E898823C1F03C898C8517
:102C70009D8546E0349F800D911D1124488559851E
:102C8000481759075CF41D861C868E859F8548E091
:102C9000349F800D911D11249F878E87EA88FB88C1
:102CA000088919894E855F856C857D85CC88CE0124
:102CB0000E945B082C898C859D8536E0239F800DC2
:102CC000911D112442C06A3079F41D861C862C891E
:102CD000FC013696E4918E859F852E9F800D911D77
:102CE00011249F878E8769C06D3009F466C0FC018E
:102CF00034963491631708F460C03196E491E61776
:102D000008F45BC0FC01329665917491422F50E04B
:102D1000431B510937E0349F5001359FB00C1124FB
:102D2000A60EB71EF501329634913196E491332305
:102D300011F0E1110DC0F5013496E4912C898C85D8
:102D40009D85E29F800D911D11249D878C8735C044
:102D5000F501359644915E89552311F16C89E32F75
:102D6000F0E0E40FF11D47FDFA956E9FD0016F9FD3
:102D7000B00D11244C855D854A0F5B1FE885F985F0
:102D8000E417F5076CF41D861C86FC013696E49169
:102D90008E859F856E9F800D911D11249F878E8744
:102DA000EA88FB88088919894E855F856C857D8551
:102DB000CC88CE010E945B08BECF81E090E0DF911D
:102DC000CF911F910F91FF90EF90CF90BF90AF9058
:102DD0000895CF93DF9390E0FC01E458FA4F2491DB
:102DE000FC01E656FA4F8491882361F190E0880F48
:102DF000991FFC01E35EF94FC591D491FC01E057A6
:102E0000FA4FA591B491611109C09FB7F8948881D8
:102E1000209582238883EC912E230BC0623061F4CD
:102E20009FB7F8948881322F309583238883EC9163
:102E30002E2B2C939FBF06C08FB7F894E8812E2BC2
:102E400028838FBFDF91CF9108958F929F92AF9289
:102E5000BF92CF92DF92EF92FF926B017C010E94B2
:102E600021134B015C01C114D104E104F104F1F020
:102E70000E942113DC01CB0188199909AA09BB0919
:102E8000883E9340A105B10570F321E0C21AD10834
:102E9000E108F10888EE880E83E0981EA11CB11CA1
:102EA000C114D104E104F10419F7DDCFFF90EF90D4
:102EB000DF90CF90BF90AF909F908F9008951F921A
:102EC0000F920FB60F9211242F933F938F939F93DE
:102ED000AF93BF9380914B0590914C05A0914D0508
:102EE000B0914E0530914A0523E0230F2D3720F491
:102EF0000196A11DB11D05C026E8230F0296A11D54
:102F0000B11D20934A0580934B0590934C05A093E7
:102F10004D05B0934E0580914F0590915005A091BD
:102F20005105B09152050196A11DB11D80934F0529
:102F300090935005A0935105B0935205BF91AF9166
:102F40009F918F913F912F910F900FBE0F901F90E7
:102F50001895FC0181A187FF05C06EBD0DB407FE69
:102F6000FDCF089588E090E020E8A4A1B5A1362F18
:102F7000322321F046A53C91342B04C036A54C9158
:102F8000309534233C9330A9A0A5B1A54C91309540
:102F900034233C9340A9A0A5B1A53C91342B3C938C
:102FA0002695019711F708954F925F926F927F9245
:102FB0008F929F92AF92BF92CF92DF92EF92FF9249
:102FC0000F931F93CF93DF93EC016B0159014801DD
:102FD00028853985621773070CF067C08A859B8541
:102FE000481759070CF061C08B010A0D1B1DF80131
:102FF0003197DA01A80DB91DBD0161507109F7FDC6
:1030000054C077FD52C0D7FE03C05801C12CD12C4B
:1030100057FF03C04D0140E050E0E217F3071CF0FA
:103020005901AC18BD08681779071CF04C01841AC7
:10303000950A9501D4010E9445263B01582E492E40
:10304000E881F98102A4F3A5E02D8401B601CE0147
:1030500009954301A52CB42C89A187FF13C08114C5
:103060009104A104B10409F1FEBC0DB407FEFDCF2B
:10307000EEBC0DB407FEFDCF81E0881A9108A108CF
:10308000B108EDCF81149104A104B10471F06F2D4A
:10309000CE010E94A9176E2DCE010E94A91781E0D2
:1030A000881A9108A108B108EDCFDF91CF911F9147
:1030B0000F91FF90EF90DF90CF90BF90AF909F90D7
:1030C0008F907F906F905F904F900895EF92FF9256
:1030D0000F931F93CF93DF93EC0177FD33C0888567
:1030E00099856817790774F557FD2CC08A859B85EB
:1030F000481759073CF5E32EF22EE881F98102A426
:10310000F3A5E02D01E010E021E030E0CE010995CB
:1031100089A187FF09C0EEBC0DB407FEFDCFFEBC40
:103120000DB407FEFDCF0EC06E2DCE010E94A91773
:103130006F2DCE01DF91CF911F910F91FF90EF90F6
:103140000C94A917DF91CF911F910F91FF90EF90F1
:103150000895CF93DF93EC018AA9EAA5FBA590819E
:10316000809589238083CE010E94A9179AA9EAA598
:10317000FBA58081892B8083DF91CF9108951F93D8
:10318000CF93DF93EC01162FE881F9810284F38558
:10319000E02D0995112311F06BA901C06CA9CE0196
:1031A0000E94A918E881F9810688F789E02DCE01EF
:1031B000DF91CF911F910994F894109280001092A2
:1031C00081008EEE95E89093C0048093BF049093A5
:1031D00085008093840080918100846080938100C9
:1031E00080916F00816080936F007894789484B5AB
:1031F000826084BD84B5816084BD85B5826085BDF3
:1032000085B5816085BD80916E00816080936E0080
:103210001092810080918100826080938100809172
:103220008100816080938100809180008160809323
:1032300080008091B10084608093B1008091B000E3
:1032400081608093B00080917A00846080937A00DE
:1032500080917A00826080937A0080917A00816008
:1032600080937A0080917A00806880937A0010922F
:10327000C100E0918703F091880382E08083E091B0
:103280008303F09184031082E0918503F09186031B
:103290008FEC808310928F03E0918B03F0918C036D
:1032A00086E08083E0918903F0918A0380818061C8
:1032B0008083E0918903F0918A0380818860808314
:1032C000E0918903F0918A03808180688083E09196
:1032D0008903F0918A0380818F7D808340E050E0F4
:1032E000BA0180E294E00E94D50D60E070E080E2D7
:1032F00094E00E94141587B18C6087B94298439A74
:1033000064E670E080E090E00E9425171092FF04D0
:103310001092FE04109254031092760310925203FE
:10332000C1E0C093510310922C0361E082E10E943E
:10333000CD0A61E083E10E94CD0A8091B9008E7FC1
:103340008093B9008091B9008D7F8093B90088E4A3
:103350008093B80085E48093BC008EE29CE090935B
:103360000105809300058FE29CE090930305809314
:103370000205C093530382E58093750310925403B2
:103380001092760360E484E194E00E94880C60E08F
:1033900084E194E00E94880C81E00E94F30583E0C0
:1033A00090E00E94C3250E94A41160E070E080E2DA
:1033B00094E00E94141522E3A22EB12C38E2432E91
:1033C000512CCFEFDFEF96E4292E312C99249394E2
:1033D000809152038111FCCF90925203909251033D
:1033E0008FEF8093500310924F0385E080934E033C
:1033F00090922D0380912D03846A80932D038091F8
:103400002C03813061F410922C0380912D03809362
:10341000BB008091BC0083FDF8CF85EC01C085EE38
:103420008093BC00809152038130E1F380914F037F
:10343000863018F490914F0301C096E0EEE2F3E07D
:10344000AEEDB4E080E0891721F021912D938F5FDC
:10345000FACF1092FF048093FE0401EC14E087E1A0
:10346000F82E9091FE048091FF04981751F084E1AA
:1034700094E00E943F0C8F25895EF80181938F01B3
:10348000F0CF9092530382E580937503109254031A
:103490001092760360E084E194E00E94880C81E061
:1034A0000E94F3058091C20490E090932B038093D7
:1034B0002A038091C10490E090932903809328030C
:1034C00013E0D12E00EA10E080912A0390912B03A3
:1034D000892B09F05FC08091280390912903892BE3
:1034E00009F058C08091C60481FD54C00E94ED0FC0
:1034F000019709F04FC01092270310922603B09253
:103500002D04A0922C0450922F0440922E04D093AC
:103510003304C0933204D0933104C0933004D0926A
:10352000340487EF92E00E948105B0922D04A092AE
:103530002C0430922F0420922E048EEF92E00E94F1
:103540008105B0922D04A0922C0444E650E05093E3
:103550002F0440932E0486E093E00E948105B092F0
:103560002D04A0922C0482E890E090932F04809385
:103570002E048FE093E00E948105B0922D04A0926A
:103580002C0410932F0400932E0483E193E00E94F7
:1035900081059ACF8091260390912703892B61F4AE
:1035A00081E090E0909327038093260360E070E031
:1035B00080E294E00E9414152091280130912901A5
:1035C00080911201909113012817390711F00E9480
:1035D000DF118091280190912901019709F0AAC17A
:1035E0008EE190E090932D0480932C0450922F0450
:1035F00040922E04D0933304C0933204D09331040C
:10360000C093300483E0809334048AE991E00E94FF
:1036100081058DE490E090932D0480932C043092EA
:103620002F0420922E0485EA91E00E9481058AE50C
:1036300090E090932D0480932C0442E850E0509346
:103640002F0440932E0482E0809334048BEA91E0AF
:103650000E94810581E490E090932D0480932C04D6
:1036600086E990E090932F0480932E0481EB91E003
:103670000E94810587E490E090932D0480932C04B0
:103680008BEA90E090932F0480932E048BEB91E0D3
:103690000E94810530922D0420922C048FEB90E043
:1036A00090932F0480932E0484EC91E00E94810576
:1036B0008FE190E0909307018093060180E098EFFE
:1036C00090930501809304016091100170911101A4
:1036D0004FE150E084EB90E00E940513409104011B
:1036E0005091050160910E0170910F0182E390E00D
:1036F0000E94051380910201909103012091000125
:10370000309101018217930709F458C0019789F499
:10371000C12CD12CB8E8EB2EF12C07E310E02DE8FA
:1037200030E04DE250E063E870E08DE290E00E940E
:103730004F068091020190910301029789F4C12CF8
:10374000D12CACE9EA2EF12C07E310E021EA30E0BD
:103750004DE250E067E970E08DE290E00E944F0694
:103760008091020190910301039789F4C12CD12C1F
:10377000F0EBEF2EF12C07E310E025EB30E04DE20B
:1037800050E06BEA70E08DE290E00E944F0680917D
:10379000020190910301049789F4C12CD12CE4EC2F
:1037A000EE2EF12C07E310E029EC30E04DE250E082
:1037B0006FEB70E08DE290E00E944F068091000177
:1037C000909101010197E9F460EEC62E67E0D62ED4
:1037D00078E8E72EF12C07E310E02DE830E04DE229
:1037E00050E063E870E08DE290E00E944F060E9496
:1037F000ED0F019731F482E090E0909329018093DE
:10380000280180910001909101010297E9F440EEB6
:10381000C42E47E0D42E5CE9E52EF12C07E310E03E
:1038200021EA30E04DE250E067E970E08DE290E09F
:103830000E944F060E94ED0F019731F483E090E063
:1038400090932901809328018091000190910101BA
:103850000397E9F420EEC22E27E0D22E30EBE32EC0
:10386000F12C07E310E025EB30E04DE250E06BEA8D
:1038700070E08DE290E00E944F060E94ED0F0197EC
:1038800031F484E090E090932901809328018091A5
:103890000001909101010497E9F480EEC82E87E0C1
:1038A000D82E94ECE92EF12C07E310E029EC30E05F
:1038B0004DE250E06FEB70E08DE290E00E944F0629
:1038C0000E94ED0F019731F486E090E0909329017A
:1038D0008093280180910001909101019093030150
:1038E000809302015FEF80E792E05150804090406A
:1038F000E1F700C0000080912A0390912B03813AE8
:1039000091054CF080910001909101018230910568
:103910008CF001970BC08035910564F48091000113
:1039200090910101843091052CF40196909301014E
:10393000809300012091280130912901809112018A
:10394000909113012817390711F00E94DF1180911F
:10395000280190912901029709F081C480910A0100
:1039600090910B012091D8043091D904821B930BC4
:10397000181619066CF440910601509107016091E8
:103980001001709111018091C10490E00E94021019
:1039900020911E0130911F012931310509F441C1E7
:1039A0008091200190912101880F991FFC01E3571C
:1039B000FB4F608171812831310551F4AB014D5AC3
:1039C0005E4F2091260130912701421753073CF0AA
:1039D000FC01E55AFB4F808191810E948612809103
:1039E0001E0190911F01880F991FFC01E357FB4FA7
:1039F00030812181FC01E55AFB4F6080718080910C
:103A00002601909127018A3A910534F081E090E0F7
:103A10009093D3048093D204C32ED22EE3E3CE1628
:103A2000D1041CF0B2E3CB2ED12C8091D204909122
:103A3000D3044091DC045091DD04019709F07CC06F
:103A4000E0901401F090150186019601B30180E227
:103A500094E00E94461300911A0110911B014091BD
:103A6000DC045091DD04401B510BE12CF12C96013C
:103A7000B30180E294E00E944613F6EBCF1AFEEF0A
:103A8000DF0A8091DC049091DD04C816D9060CF0A1
:103A900071C0209126013091270180910C019091F5
:103AA0000D01821793070CF065C080911E01909163
:103AB0001F01019690931F0180931E010AE010E000
:103AC00022E330E040E050E068EC70E080E294E017
:103AD0000E9446131092DD041092DC040E94BE2561
:103AE00064E170E00E9431268C549F4F90930D0149
:103AF00080930C018091D6049091D704843691056F
:103B0000CCF18091590490915A04FC01EE0FFF1FF3
:103B1000EC57FE4F20813181309315012093140121
:103B2000029690935A04809359040C971CF11092BA
:103B30005A04109259041EC04C195D09E12CE8EF9B
:103B4000FE2E86019601B30180E294E00E944613A6
:103B500000911A0110911B014091DC045091DD0489
:103B6000401B510BE12CF12C9601B30180E294E053
:103B70000E9446138091D6049091D7048F3A910504
:103B80005CF010921D0110921C01B0921B01A092DA
:103B90001A0187E090E011C08D3791059CF081E01B
:103BA00090E090931D0180931C0183E290E090933C
:103BB0001B0180931A0185E090E090931901809396
:103BC000180152C08B3491054CF082E090E0909344
:103BD0001D0180931C0189E190E00BC082339105A7
:103BE0007CF083E090E090931D0180931C0186E1BE
:103BF00090E090931B0180931A0184E090E0DDCF68
:103C0000499794F184E090E090931D0180931C010A
:103C100083E190E090931B0180931A0183E090E090
:103C2000CCCF10922701109226011092DD04109241
:103C3000DC041092D3041092D20481E090E09093BF
:103C40002101809320018CE090E090931F018093EC
:103C50001E018091D4049091D50449969093D50487
:103C60008093D4040E94A4118091D0049091D10437
:103C7000892B09F0BBC08091200190912101880F10
:103C8000991FFC01E55AFB4F60817181FC01E357EC
:103C9000FB4F20813181260F371F809124019091A5
:103CA0002501DC011F972A173B0794F1AC014E5008
:103CB00051096417750764F5409110015091110185
:103CC000E0912601F09127016A011AE0C11AD1089A
:103CD000EC15FD05ECF0465F5F4F4E175F07C4F033
:103CE00081E090E09093D1048093D0048091D60439
:103CF0009091D7049093CD048093CC048091D80404
:103D00009091D90401969093D9048093D8046AC005
:103D10008C01025F1F4F02171307CCF49C01215F37
:103D20003F4F261737079CF0209110013091110169
:103D30004091260150912701B9016A507109461737
:103D400057072CF0265F3F4F241735074CF620917C
:103D50001E0130911F01220F331FA901455A5B4FED
:103D6000FA016081718123573B4FF9012081318134
:103D7000260F371F2A173B07DCF0AC014E505109C4
:103D800064177507ACF44091100150911101A09196
:103D9000DC04B091DD046A01FAE0CF1AD108AC1559
:103DA000BD0534F0465F5F4F4A175B070CF098CFB4
:103DB00002171307BCF40F96861797079CF08091A3
:103DC0001001909111012091DC043091DD04AC01CF
:103DD0004A505109241735072CF00A968217930789
:103DE0000CF07ECF10921F0310921E038091CE0420
:103DF0009091CF04892B09F0BBC080912001909154
:103E00002101880F991FFC01E55AFB4F60817181E8
:103E1000FC01E357FB4F20813181260F371F809132
:103E2000220190912301DC011F972A173B0794F18F
:103E3000AC014E5051096417750764F540910E01AD
:103E400050910F01E0912601F09127016A011AE0DB
:103E5000C11AD108EC15FD05ECF0465F5F4F4E1717
:103E60005F07C4F081E090E09093CF048093CE048C
:103E70008091D6049091D7049093CB048093CA0488
:103E80008091DA049091DB0401969093DB04809397
:103E9000DA046AC08C01025F1F4F02171307CCF4CB
:103EA0009C01215F3F4F261737079CF020910E01A0
:103EB00030910F014091260150912701B9016A50BC
:103EC0007109461757072CF0265F3F4F2417350717
:103ED0004CF620911E0130911F01220F331FA901C2
:103EE000455A5B4FFA016081718123573B4FF901BD
:103EF00020813181260F371F2A173B07DCF0AC01E8
:103F00004E50510964177507ACF440910E01509161
:103F10000F01A091DC04B091DD046A01FAE0CF1A30
:103F2000D108AC15BD0534F0465F5F4F4A175B07FB
:103F30000CF098CF02171307BCF40F96861797075B
:103F40009CF080910E0190910F012091DC04309142
:103F5000DD04AC014A505109241735072CF00A96AC
:103F6000821793070CF07ECF10921D0310921C0352
:103F7000C090D004D090D10411E0C116D10429F52D
:103F800080911E0390911F03892BF9F480911A01EF
:103F900090911B01039690931B0180931A01E12CD1
:103FA000F12C0AE010E020EA30E040E050E060E070
:103FB00070E080E294E00E944613D0930701C09322
:103FC0000601D0921F03C0921E038091D0049091ED
:103FD000D1040197B1F48091CC049091CD04019665
:103FE0002091D6043091D7048217930751F4109290
:103FF000D1041092D0048FE190E090930701809358
:104000000601C090CE04D090CF0421E0C216D104A6
:1040100029F580911C0390911D03892BF9F480915F
:104020001A0190911B01039690931B0180931A0132
:10403000E12CF12C09E110E020EA30E040E050E012
:1040400060E070E080E294E00E944613D0930501A6
:10405000C0930401D0921D03C0921C038091CE0432
:104060009091CF040197B1F48091CA049091CB0450
:1040700001962091D6043091D7048217930751F40A
:104080001092CF041092CE0480E098EF9093050137
:104090008093040110922D0410922C0410922F048E
:1040A00010922E04D0933304C0933204D093310481
:1040B000C09330049092340480910A0190910B01D6
:1040C0002091D8043091D904821B930B181619063D
:1040D0004CF48DEC91E00E94F1050CE310E0FAE065
:1040E000DF2E11C087ED91E0F6CF003A110501F106
:1040F00020E038EF43E050E064E070E0C8010E9447
:104100004B05065F1F4F80910A0190910B01209192
:10411000D8043091D904AC01421B530BD49E9001BA
:10412000D59E300D1124255C3F4F20173107ECF64A
:1041300010922D0410922C042AE030E030932F04CA
:1041400020932E042091DA043091DB04821B930B20
:10415000181619064CF48FED91E00E94F1050CE35E
:1041600010E0EAE0DE2E11C089EE91E0F6CF003AD1
:104170001105F1F020E038EF43E050E06EE070E030
:10418000C8010E944B05065F1F4F20910A01309124
:104190000B018091DA049091DB04281B390BD29E2D
:1041A000C001D39E900D1124CB9680179107FCF689
:1041B00080EA90E090932D0480932C0410922F04B9
:1041C00010922E0481EF91E00E94F10560911E0192
:1041D00070911F016C507109809120019091210113
:1041E000680F791F8091D4049091D504680F791FCE
:1041F0007093D7046093D604072E000C880B990B9C
:1042000097FF03C00E94D00503C04AE00E948F05BB
:1042100080910A0190910B012091D8043091D9042A
:10422000AC01421B530B141615067CF02091DA04E6
:104230003091DB04821B930B1816190634F085E0CD
:1042400090E090932901809328018091C60481FD1C
:1042500006C081E090E0909329018093280180912D
:10426000280190912901039709F089C08EE190E01F
:1042700090932D0480932C0450922F0440922E048E
:10428000D0933304C0933204D0933104C0933004EC
:1042900083E08093340489EF91E00E9481050CE370
:1042A00010E010932D0400932C048AE590E0909385
:1042B0002F0480932E0484E092E00E94F10580E0B8
:1042C00090E00E94F30F0E94480810932D04009381
:1042D0002C0488E790E090932F0480932E0489E0CB
:1042E00092E00E94F10581E090E00E94F30F0E94AD
:1042F000480810932D0400932C0486E990E09093D5
:104300002F0480932E048EE092E00E94F10582E05B
:1043100090E00E94F30F0E94480810932D04009330
:104320002C0484EB90E090932F0480932E0483E17F
:1043300092E00E94F10583E090E00E94F30F0E945A
:10434000480810932D0400932C0482ED90E0909384
:104350002F0480932E0488E192E00E94F10584E00E
:1043600090E00E94F30F0E9448088091C60481FDEE
:1043700006C081E090E0909329018093280180910C
:10438000280190912901049709F084C00EE110E002
:1043900010932D0400932C0450922F0440922E046D
:1043A000D0933304C0933204D0933104C0933004CB
:1043B00083E0809334048DE192E00E9481051093A4
:1043C0002D0400932C0480E590E090932F048093BB
:1043D0002E0482E08093340486E292E00E948105FC
:1043E00010932D0400932C0484E690E090932F0406
:1043F00080932E0488E392E00E94810510932D049F
:1044000000932C0488E790E090932F0480932E046F
:1044100040E058EF60EA70E0809128039091290312
:104420000E94021087E492E00E94810510932D04FF
:1044300000932C048EEB90E090932F0480932E0435
:104440008DE492E00E94810510932D0400932C04CA
:1044500082ED90E090932F0480932E048BE592E000
:104460000E94810510932D0400932C0486EE90E0A9
:1044700090932F0480932E0487E692E00E9481059A
:104480008091C60481FD06C081E090E090932901EF
:10449000809328018091280190912901059709F0C6
:1044A00062C050922D0440922C0430922F0420922E
:1044B0002E04D0933304C0933204D0933104C093BC
:1044C000300483E08093340482E792E00E94810507
:1044D00030922D0420922C0480EA90E090932F04D7
:1044E00080932E0482E08093340481EF91E00E9457
:1044F000F1058091D6049091D7040E943008E2E83B
:10450000F0E0F0932D04E0932C048CE291E0909382
:104510002F0480932E04909234048CE792E00E9442
:10452000810580910A0190910B01049794F4809188
:10453000C8049091C904853091055CF40E94F30F82
:1045400090E02091D6043091D7048217930709F0A8
:104550005FC18091C60481FD06C081E090E0909328
:1045600029018093280180912801909129010697C3
:1045700011F00C94E8190EE110E010932D04009353
:104580002C0448E250E050932F0440932E048FEF08
:104590009FEF90933304809332049093310480937F
:1045A000300483E0809334048FE892E00E94810518
:1045B00010932D0400932C0480E590E090932F0439
:1045C00080932E0482E08093340488E992E00E9474
:1045D000810510932D0400932C04E4E6F0E0F093A1
:1045E0002F04E0932E0487EA92E00E9481058091D7
:1045F000280390912903813A91053CF081E090E0F5
:10460000909325038093240307C08634910524F4F6
:104610001092250310922403809124039091250386
:1046200082309105F9F4CC24CA94DC2C78E8E72E8A
:10463000F12C00E510E02DE830E04AE550E063E8B9
:1046400070E08AE590E00E944F0606E910E02DE850
:1046500030E04CE850E063E870E08CE890E00E94C5
:104660004F0672C081309105C1F5CC24CA94DC2C70
:1046700048E8E42EF12C00E510E02DE830E04AE5B2
:1046800050E063E870E08AE590E00E944F0650EE4B
:10469000C52E57E0D52E06E910E02DE830E04CE8B5
:1046A00050E063E870E08CE890E00E944F060E94C2
:1046B000ED0F6C01019709F047C080910A019091BC
:1046C0000B018336910509F43FC020910801309118
:1046D0000901232B09F40CC137C0892BA9F580EE01
:1046E000C82E87E0D82E98E8E92EF12C00E510E0DE
:1046F0002DE830E04AE550E063E870E08AE590E0BC
:104700000E944F06CC24CA94DC2C06E910E02DE868
:1047100030E04CE850E063E870E08CE890E00E9404
:104720004F060E94ED0F6C01019771F480910A0110
:1047300090910B018130910539F020910801309161
:104740000901232B09F4D6C089E690E090932D044B
:1047500080932C0483E890E090932F0480932E04A0
:1047600080910A0190910B010E94300880910A010A
:1047700090910B01049714F181E08093340404E1DB
:1047800010E010932D0400932C0480EA90E09093A5
:104790002F0480932E0484EB92E00E9481051093F5
:1047A0002D0400932C048AEA90E090932F048093C8
:1047B0002E0489ED92E00E9481050EC0E12CF12CBF
:1047C00004E110E020EF30E04FE950E06AE070E0F3
:1047D00080E294E00E9446130E94ED0F892B21F4A1
:1047E00010920901109208018091C60481FF02C055
:1047F0000C94E61982E090E09093250380932403C3
:1048000081E090E090932901809328010C94E319B2
:104810008091C8049091C9040E94F30F90E0209108
:10482000D6043091D7048217930724F48091C704EB
:10483000882351F08091C8049091C9040196909307
:10484000C9048093C80473CE8091C8049091C904B0
:1048500001960E94F30F082F90E09093230380931A
:1048600022038091C8049091C90402960E94F30F1C
:10487000182F90E090932103809320038091C80427
:104880009091C9040E94F30F2091C8043091C9048B
:10489000682FC90101960E94FA0F8091C804909177
:1048A000C90403960E94F30F2091C8043091C904F3
:1048B000682FC90104960E94FA0F6091D604809176
:1048C000C8049091C9040E94FA0F8091C804909185
:1048D000C904602F02960E94FA0F8091C80490913B
:1048E000C904612F03960E94FA0F9092C704A2CFC9
:1048F000019601C0019790930B0180930A01E12C6E
:10490000F12C0FE010E022E330E043E850E06FE5E7
:1049100070E080E294E00E944613D0920901C092B8
:10492000080112CFE7E7F3E01382128288EE93E0EA
:10493000A0E0B0E084839583A683B78322E331E0CF
:104940003183208325EC30E03587248724EC30E068
:104950003787268720EC30E0318B208B21EC30E04C
:10496000338B228B22EC30E0358B248B26EC30E02D
:10497000378B268B118E128E138E148EE4E1F4E0A9
:104980001382128284839583A683B78384E491E0A3
:1049900091838083A0E2B4E013961C921E9212973A
:1049A00020EF30E015963C932E93149780E491E02D
:1049B00017969C938E93169719963C932E9318975F
:1049C0001B969C938E931A9755961C9255971D96FD
:1049D0001C921E921C971F961C921E921E9781E09D
:1049E00054968C9354972FEF3FEF53963C932E930E
:1049F000529751963C932E93509756968C93569778
:104A000057961C92579759961C921E925897D39678
:104A10001C92D397D4961C92D497D6961C921E9231
:104A2000D597D8961C921E92D7978AE05E968C9363
:104A30005E9789E05F968C935F978FEF90968C934B
:104A4000909791968C93919792968C939297939638
:104A50008C9393975A961D921D921D921C925D976E
:104A600099961C921E929897D0961C92D0979596E4
:104A70001C921E9294979E961C929E9797961C92BB
:104A80001E9296979F961C929F97E3EAF5E0E49119
:104A9000F0E0EE0FFF1FE057FA4F859194919B963F
:104AA0009C938E939A97E5E8F5E0E491D296EC9387
:104AB000D297E4EAF5E0E491F0E0EE0FFF1FE05753
:104AC000FA4F859194919D969C938E939C97E6E8DE
:104AD000F5E0E491D196EC93D19786E591E08D9342
:104AE0009C9308958F929F92AF92BF92CF92DF9244
:104AF000EF92FF92CF93DF93EC01688179818A81F5
:104B00009B81611571058105910521F464E279EDC0
:104B10008BE597E02DE133EF41E050E00E94CE2598
:104B200049015A019B01AC01A7EAB1E40E94ED25BD
:104B30006B017C01ACEEB4EFA50194010E94FB2552
:104B4000DC01CB018C0D9D1DAE1DBF1DB7FF03C049
:104B50000197A109B04888839983AA83BB839F7773
:104B6000DF91CF91FF90EF90DF90CF90BF90AF900B
:104B70009F908F9008950E94722508958AE291E097
:104B80000E9472250895A0E0B0E080932A019093DE
:104B90002B01A0932C01B0932D010895052E97FBB6
:104BA0001EF400940E94E52557FD07D00E940026C0
:104BB00007FC03D04EF40C94E525509540953095B4
:104BC00021953F4F4F4F5F4F089590958095709579
:104BD00061957F4F8F4F9F4F08950E942226A59F7A
:104BE000900DB49F900DA49F800D911D11240895E8
:104BF000B7FF0C94ED250E94ED25821B930B0895C1
:104C0000A1E21A2EAA1BBB1BFD010DC0AA1FBB1FD0
:104C1000EE1FFF1FA217B307E407F50720F0A21B42
:104C2000B30BE40BF50B661F771F881F991F1A94AF
:104C300069F760957095809590959B01AC01BD01D9
:104C4000CF010895A29FB001B39FC001A39F700D33
:104C5000811D1124911DB29F700D811D1124911D84
:104C6000089597FB072E16F4009407D077FD09D01E
:104C70000E94542607FC05D03EF4909581959F4FE5
:104C80000895709561957F4F08950E9422263323E1
:104C900012F48A1B9B0B0C944F260E942226B7FF0E
:104CA0000895821B930B0895AA1BBB1B51E107C0FB
:104CB000AA1FBB1FA617B70710F0A61BB70B881FAC
:104CC000991F5A95A9F780959095BC01CD0108953B
:104CD000EE0FFF1F0590F491E02D099481E090E024
:0A4CE000F8940C947326F894FFCFAB
:104CEA000100020000F81F0001000A00B4002C01B4
:104CFA0013010100FF07BAD603000A0005000C00E1
:104D0A0001007300730006FF0100010000000000AB
:104D1A000000C8033F03690315049A0378038C0350
:104D2A0000000000880C5B0CB80C1A0B530C3F0CEB
:104D3A00300C0000000013163F03B80CB70CD71351
:104D4A00E8156618D417151402144A0B2914890D8C
:104D5A00BB0CA813791346131415A7144814D50DC0
:104D6A00D80C1F0000F8E007FF071FF8E0FFFFFF5D
:104D7A00BAD660FAFF07FF04FFF8457363617065EE
:104D8A002074686500424C4F434B0053746172743F
:104D9A00004869676873636F726500436F6E747267
:104DAA006F6C730053657474696E67730070312099
:104DBA006C697665733A00703120646561640070CD
:104DCA0032206C697665733A0070322064656164DA
:104DDA000073636F72653A20004849474853434F4E
:104DEA0052455300313A202000323A202000333A0B
:104DFA00202000343A202000353A202000434F4E2C
:104E0A0054524F4C53004D6F766520746865206A82
:104E1A006F79737469636B00746F20676F206C65B8
:104E2A00667420616E640072696768740050726506
:104E3A007373204320746F20676F006261636B2075
:104E4A00746F2074686500686F6D65736372656559
:104E5A006E0047414D45204F5645520070726573AA
:104E6A0073206320746F20676F206261636B005345
:104E7A00455454494E475300486F77206D616E7907
:104E8A00206C6976657300646F20796F752077618D
:104E9A006E743F00496620796F752073746172746D
:104EAA002077697468206D6F7265207468616E205E
:104EBA0033206C697665732C00796F757220686986
:104ECA00676873636F726520776F6E2774206265F7
:104EDA0020736176656400504C4541534500434F49
:104EEA004E4E454354004E554E434855434B0041A0
:0C4EFA004E44005245534554000D0A0080
:107E0000112484B714BE81FFF0D085E080938100F7
:107E100082E08093C00088E18093C10086E0809377
:107E2000C20080E18093C4008EE0C9D0259A86E02C
:107E300020E33CEF91E0309385002093840096BBD3
:107E4000B09BFECF1D9AA8958150A9F7CC24DD24C4
:107E500088248394B5E0AB2EA1E19A2EF3E0BF2EE7
:107E6000A2D0813461F49FD0082FAFD0023811F036
:107E7000013811F484E001C083E08DD089C08234E0
:107E800011F484E103C0853419F485E0A6D080C0E4
:107E9000853579F488D0E82EFF2485D0082F10E0AE
:107EA000102F00270E291F29000F111F8ED06801E7
:107EB0006FC0863521F484E090D080E0DECF843638
:107EC00009F040C070D06FD0082F6DD080E0C81688
:107ED00080E7D80618F4F601B7BEE895C0E0D1E017
:107EE00062D089930C17E1F7F0E0CF16F0E7DF06D8
:107EF00018F0F601B7BEE89568D007B600FCFDCFD4
:107F0000A601A0E0B1E02C9130E011968C91119780
:107F100090E0982F8827822B932B1296FA010C0160
:107F200087BEE89511244E5F5F4FF1E0A038BF0790
:107F300051F7F601A7BEE89507B600FCFDCF97BE46
:107F4000E89526C08437B1F42ED02DD0F82E2BD052
:107F50003CD0F601EF2C8F010F5F1F4F84911BD097
:107F6000EA94F801C1F70894C11CD11CFA94CF0C13
:107F7000D11C0EC0853739F428D08EE10CD085E9AC
:107F80000AD08FE07ACF813511F488E018D01DD067
:107F900080E101D065CF982F8091C00085FFFCCF94
:107FA0009093C60008958091C00087FFFCCF809118
:107FB000C00084FD01C0A8958091C6000895E0E648
:107FC000F0E098E1908380830895EDDF803219F02E
:107FD00088E0F5DFFFCF84E1DECF1F93182FE3DFCA
:107FE0001150E9F7F2DF1F91089580E0E8DFEE27F6
:047FF000FF270994CA
:027FFE00040479
:0400000300007E007B
:00000001FF