:100000000C9415030C943D030C943D030C943D0398
:100010000C943D030C943D030C943D030C943D0360
:100020000C943D030C943D030C943D030C943D0350
:100030000C943D030C942B080C943D030C943D034D
:100040000C9419140C943D030C94210F0C94FB0E8A
:100050000C943D030C943D030C943D030C943D0320
:100060000C94FD060C943D03EF03038002CF0300C4
:10007000C130ED0464031281E803850078CB0539B3
:100080002C003402F70120EA020000C00123C10164
:1000900010C5023E28C701863601483701003A01E3
:1000A00055B1020018B603088227F20100260101AB
:1000B000E00F0F312B0C0E084EF1370710030E091D
:1000C00000E10F000E1403110731C148080F0C3175
:1000D000360F118029800000000000240027002A2C
:1000E00000000000080002010000030407000000F7
:1000F000000000000000000000003E5B4F5B3E3E41
:100100006B4F6B3E1C3E7C3E1C183C7E3C181C57C3
:100110007D571C1C5E7F5E1C00183C1800FFE7C367
:10012000E7FF0018241800FFE7DBE7FF30483A0636
:100130000E2629792926407F050507407F05253FA2
:100140005A3CE73C5A7F3E1C1C08081C1C3E7F148E
:10015000227F22145F5F005F5F06097F017F0066D8
:1001600089956A606060606094A2FFA29408047E32
:10017000040810207E201008082A1C08081C2A08E1
:10018000081E101010100C1E0C1E0C30383E38309B
:10019000060E3E0E06000000000000005F0000009A
:1001A00007000700147F147F14242A7F2A122313C8
:1001B00008646236495620500008070300001C22DC
:1001C00041000041221C002A1C7F1C2A08083E080E
:1001D000080080703000080808080800006060000F
:1001E00020100804023E5149453E00427F40007203
:1001F000494949462141494D331814127F1027457A
:100200004545393C4A494931412111090736494997
:100210004936464949291E000014000000403400B8
:10022000000008142241141414141400412214086C
:1002300002015909063E415D594E7C1211127C7F24
:10024000494949363E414141227F4141413E7F4932
:100250004949417F090909013E414151737F08081D
:10026000087F00417F41002040413F017F08142268
:10027000417F404040407F021C027F7F0408107F86
:100280003E4141413E7F090909063E4151215E7FC1
:1002900009192946264949493203017F01033F4094
:1002A00040403F1F2040201F3F4038403F6314081C
:1002B000146303047804036159494D43007F4141AD
:1002C000410204081020004141417F040201020460
:1002D0004040404040000307080020545478407FCD
:1002E000284444383844444428384444287F385407
:1002F00054541800087E090218A4A49C787F0804AE
:10030000047800447D40002040403D007F10284498
:100310000000417F40007C047804787C0804047865
:100320003844444438FC1824241818242418FC7C2D
:1003300008040408485454542404043F44243C4012
:1003400040207C1C2040201C3C4030403C44281075
:1003500028444C9090907C4464544C4400083641AE
:10036000000000770000004136080002010204028C
:100370003C2623263C1EA1A161123A4040207A3837
:100380005454555921555579412254547842215598
:1003900054784020545579400C1E527212395555EC
:1003A0005559395454545939555454580000457CC2
:1003B000410002457D420001457C407D1211127DC5
:1003C000F0282528F07C545545002054547C547C5A
:1003D0000A097F4932494949323A4444443A324A47
:1003E0004848303A4141217A3A42402078009DA065
:1003F000A07D3D4242423D3D4040403D3C24FF24E3
:1004000024487E4943662B2FFC2F2BFF0929F62019
:10041000C0887E090320545479410000447D413056
:1004200048484A32384040227A007A0A0A727D0DE2
:1004300019317D2629292F28262929292630484D9A
:100440004020380808080808080808382F10C8ACE9
:10045000BA2F102834FA00007B000008142A142256
:1004600022142A14085500550055AA55AA55AAFF6A
:1004700055FF55FF000000FF00101010FF0014147E
:1004800014FF001010FF00FF1010F010F0141414EF
:10049000FC001414F700FF0000FF00FF1414F40424
:1004A000FC141417101F10101F101F1414141F0019
:1004B000101010F0000000001F101010101F10107E
:1004C0001010F010000000FF10101010101010108D
:1004D00010FF10000000FF140000FF00FF00001FCD
:1004E00010170000FC04F414141710171414F4046B
:1004F000F40000FF00F714141414141414F700F798
:10050000141414171410101F101F141414F41410C2
:1005100010F010F000001F101F0000001F1400005A
:1005200000FC140000F010F01010FF10FF14141461
:10053000FF141010101F00000000F010FFFFFFFF5D
:10054000FFF0F0F0F0F0FFFFFF0000000000FFFF01
:100550000F0F0F0F0F3844443844FC4A4A4A347E88
:1005600002020606027E027E026355494163384458
:10057000443C04407E201E2006027E020299A5E72C
:10058000A5991C2A492A1C4C7201724C304A4D4DC7
:10059000303048784830BC625A463D3E49494900AF
:1005A0007E0101017E2A2A2A2A2A44445F444440CB
:1005B000514A444040444A51400000FF0103E0805A
:1005C000FF000008086B6B083612362436060F0948
:1005D0000F06000018180000001010003040FF0146
:1005E00001001F01011E00191D1712003C3C3C3C7C
:1005F00000000000000102040810204080010204F5
:100600000810200102040810200000000025002826
:10061000002B000404040404040404020202020285
:100620000203030303030300CD1A11241FBECFEFFF
:10063000D8E0DEBFCDBF23E0A2EAB1E001C01D9249
:10064000A839B207E1F711E0A0E0B1E0E6E5F8E390
:1006500002C005900D92A23AB107D9F713E0C5E1A7
:10066000D3E004C02197FE010E941E1CC431D107B3
:10067000C9F70E9496150C94291C0C94000008954B
:10068000EF92FF920F931F93DC01ED91FC9100A07C
:10069000F1A1E02D09951F910F91FF90EF90089522
:1006A0000F931F93DC01ED91FC91068CF78DE02DEB
:1006B00009951F910F9108950F931F93DC01ED9100
:1006C000FC91048CF58DE02D09951F910F910895F3
:1006D000DC01ED91FC910084F185E02D09942F92CD
:1006E0003F924F925F926F927F928F929F92AF92C2
:1006F000BF92CF92DF92EF92FF920F931F93CF930F
:10070000DF9300D000D000D0CDB7DEB72C017E83C0
:100710006D836A015901C801FC82EB824801841A89
:10072000950A97FE03C091948194910835012D811B
:100730003E81621A730A77FE03C071946194710856
:10074000681479045CF43A2D2B2D5C01832F922FD1
:100750003D812E81DE82CD82C32ED22EAD81BE811F
:10076000AA16BB065CF43C2D2D2D6C01832F922F15
:100770003D812E81BE82AD82A32EB22E85012D81B8
:100780003E81021B130B1C012C183D0837FE03C0D1
:10079000319421943108780117FF03C03FEFE31A29
:1007A000F30AF594E794C816D9062CF08FEF9FEF63
:1007B0009A83898304C0A1E0B0E0BA83A9832D8124
:1007C0003E81A216B30624F1D201ED91FC9104847E
:1007D000F585E02D2B813C816814790424F44D814A
:1007E0005E81B60103C0A6016D817E81C2010995BB
:1007F000E218F308F7FE06C029813A81C20ED31E23
:10080000E00EF11E8D819E8101969E838D83D7CF50
:1008100026960FB6F894DEBF0FBECDBFDF91CF9105
:100820001F910F91FF90EF90DF90CF90BF90AF900E
:100830009F908F907F906F905F904F903F902F9000
:10084000089585ED8093BC008091BC0084FDFCCFB1
:100850001092400208954091F401262F30E0240FB9
:10086000311D21323105DCF4209140022430C9F4DD
:10087000FC0180E090E0861758F43091F40121915A
:10088000DC01AE52BE4FA30FB11D2C930196F3CFE6
:100890008091F401680F6093F40180E0089581E095
:1008A000089582E0089508950895E091D10180911E
:1008B000D001E81730F4F0E0E055FE4F808190E081
:1008C00008958FEF9FEF08959091D1018091D0010D
:1008D000981750F4E92FF0E0E055FE4F208130E00A
:1008E0009F5F9093D10102C02FEF3FEFC9010895A0
:1008F0008091D00190E02091D101821B910908954F
:10090000CF92DF92EF92FF920F931F93CF93DF93DB
:100910007C01CB018A0120914102222389F0EB0165
:100920006B01C40ED51ECC15DD0569F06991D701A8
:10093000ED91FC910190F081E02DC7010995F3CF75
:10094000642F0E942B04C801DF91CF911F910F915A
:10095000FF90EF90DF90CF900895CF93DF931F9299
:10096000CDB7DEB76983209141022223D1F02091D7
:100970006402203240F021E030E0FC013383228326
:1009800080E090E015C080914202E82FF0E0ED5B3E
:10099000FD4F998190838F5F809342028093640220
:1009A00005C061E0CE0101960E942B0481E090E039
:1009B0000F90DF91CF910895089580E090E0089521
:1009C0001F93CF93DF93EC01162FE881F981028406
:1009D000F385E02D0995111102C060E201C061E2CA
:1009E000CE010E946315E881F9810688F789E02D20
:1009F000CE01DF91CF911F9109948F929F92AF9278
:100A0000BF92CF92DF92EF92FF920F931F93CF93FB
:100A1000DF93EC01490181E0881A9108860E971E48
:100A2000C401A0E0B0E04B01A12CB12C54019924E9
:100A30008824882A992AAA2ABB2A680181E0C81A30
:100A4000D108C40ED51EC601A0E0B0E06A01E12CB9
:100A5000F12C7601DD24CC24C82AD92AEA2AFB2AE3
:100A60006AE2CE010E94631529A16B2D77278827A2
:100A7000992727FF18C06EBD0DB407FEFDCFC50135
:100A8000AA27BB278EBD0DB407FEFDCFBB27AB2D1C
:100A90009A2D892D8EBD0DB407FEFDCF8EBC0DB4F1
:100AA00007FEFDCF14C0CE010E946314B501882754
:100AB0009927CE010E94631499278B2D7A2D692DD9
:100AC000CE010E946314682DCE010E9463146BE274
:100AD000CE010E94631529A16F2D772788279927BA
:100AE00027FF18C06EBD0DB407FEFDCFC701AA27B2
:100AF000BB278EBD0DB407FEFDCFBB27AF2D9E2DAE
:100B00008D2D8EBD0DB407FEFDCFCEBC0DB407FEFE
:100B1000FDCF14C0CE010E946314B7018827992726
:100B2000CE010E94631499278F2D7E2D6D2DCE014D
:100B30000E9463146C2DCE010E9463146CE2CE01FE
:100B4000DF91CF911F910F91FF90EF90DF90CF90A9
:100B5000BF90AF909F908F900C9463151F93CF938D
:100B6000DF93EC0163706D8B6230C1F0633001F193
:100B7000613051F080EF90E09987888780E491E0C0
:100B80009B878A8718E41DC080E491E09987888755
:100B900080EF90E09B878A8718E213C080EF90E097
:100BA0009987888780E491E09B878A8718E809C045
:100BB00080E491E09987888780EF90E09B878A871F
:100BC00018EEE881F9810284F385E02DCE010995C4
:100BD00066E3CE010E946315612FCE010E9463146B
:100BE000E881F9810688F789E02DCE01DF91CF9168
:100BF0001F910994BF92CF92DF92EF92FF920F93D1
:100C00001F93CF93DF93EC014115510561057105E9
:100C100021F440E052E16AE770E04A8F5B8F6C8F0D
:100C20007D8F8E8D87FD07C061E00E94A00F61E07F
:100C30008E8D0E94530F61E08F8D0E94A00F60E0A7
:100C40008F8D0E94530F89A187FD19C061E08AA191
:100C50000E94A00F60E08AA10E94530F61E089A169
:100C60000E94A00F61E089A10E94530F8BA187FD14
:100C700003C060E00E94A00F89A187FF33C01FB7A7
:100C8000F89480911902811127C0EDE1F6E084917A
:100C9000EFEFF5E09491E82FF0E0EE0FFF1FE9523F
:100CA000FF4FA591B491EC91E92321F461E08AE032
:100CB0000E94530F61E08AE00E94A00F8CB5806112
:100CC0008CBD8CB580648CBD61E08DE00E94A00F6E
:100CD00061E08BE00E94A00F809119028F5F8093EA
:100CE00019021FBF88A187FD21C061E00E94A00FEB
:100CF00061E088A10E94530F64E670E080E090E01C
:100D00000E94171060E088A10E94530F64E670E013
:100D100080E090E00E94171061E088A10E94530FCC
:100D200068EC70E080E090E00E941710E881F981A3
:100D30000284F385E02DCE01099508E610E07801E4
:100D40008FEFE81AF80AF8016491662321F1CE01C9
:100D50000E9463150E5F1F4FF701E490FE2DFF7791
:100D6000BF2E6801FF2EFA948FEFF81649F0F601B6
:100D70006491CE010E946314FFEFCF1ADF0AF3CF14
:100D80000B0D111DE7FEDBCF68E770E080E090E01F
:100D90000E941710D4CFE881F9810688F789E02DE9
:100DA000CE01099580EF90E09987888780E491E0F3
:100DB0009B878A87DF91CF911F910F91FF90EF90D2
:100DC000DF90CF90BF900895EF92FF920F931F9303
:100DD000CF93DF938C01EB017A010E94530ABE018D
:100DE00065507109A701C8014097DF91CF911F910C
:100DF0000F91FF90EF900C940F0A1F920F920FB675
:100E00000F9211242F933F934F935F936F937F9390
:100E10008F939F93AF93BF93EF93FF938091B9000C
:100E2000887F803609F49CC068F5883209F45BC07D
:100E300090F4803109F454C038F4882309F4F6C0E2
:100E4000883009F44DC0F6C0883109F44CC08032B6
:100E500009F45DC0EFC0803409F468C048F4803301
:100E600009F455C0883309F0E5C080933E02D8C02C
:100E7000803509F44FC0883509F45DC0883409F025
:100E8000D9C0D6C0883909F4C7C0A8F4883709F496
:100E900067C038F4883609F463C0803709F460C04D
:100EA000C9C0883809F4B8C0803909F45FC08038F7
:100EB00009F0C0C05BC0803B09F486C038F4803ABA
:100EC00009F466C0883A09F47FC0B4C0803C09F4D4
:100ED000A7C0883C09F4A4C0883B09F48AC0AAC012
:100EE00080911B0210C090913D0280913C029817A6
:100EF00070F5E0913D0281E08E0F80933D02F0E0BD
:100F0000E45EFD4F80818093BB0085EC86C08093BA
:100F10003E028EC0E0913D0281E08E0F80933D0243
:100F20008091BB00F0E0E45EFD4F808390913D0234
:100F300080913C026EC0E0913D0281E08E0F809373
:100F40003D028091BB00F0E0E45EFD4F8083809124
:100F50003F0281116DC081E080931A0284EA61C072
:100F600083E08093400210921802CFCF8091180244
:100F7000803208F051C0E091180281E08E0F80931A
:100F800018028091BB00F0E0E850FE4F8083BDCF97
:100F900085EC8093BC001092400280911802803250
:100FA00030F4E0911802F0E0E850FE4F10826091BA
:100FB000180270E0E091F601F091F70188EF91E0FE
:100FC00009951092180236C084E080934002109276
:100FD000F5011092F401E091F201F091F30109950D
:100FE0008091F401811105C081E08093F401109299
:100FF000D201E091F50181E08E0F8093F501F0E0E0
:10100000EE52FE4F80818093BB009091F50180915C
:10101000F401981708F479CF85E88093BC000AC0E2
:1010200085EC8093BC001092400204C010923E02F6
:101030000E942104FF91EF91BF91AF919F918F91F9
:101040007F916F915F914F913F912F910F900FBEC4
:101050000F901F9018951F920F920FB60F921124A8
:101060008F939F938091AE019091AF0190938500F3
:10107000809384008091AC019091AD010196909392
:10108000AD018093AC010B976CF08091AA01909117
:10109000AB0101969093AB018093AA011092AD0130
:1010A0001092AC019F918F910F900FBE0F901F90E7
:1010B0001895CF92DF92EF92FF920F931F93CF93E9
:1010C000DF936C017A018B01C0E0D0E0CE15DF0523
:1010D00081F0D8016D918D01D601ED91FC910190C7
:1010E000F081E02DC6010995892B11F02196EECFF4
:1010F0007E01C701DF91CF911F910F91FF90EF907B
:10110000DF90CF900895FC01538D448D252F30E062
:10111000842F90E0821B930B541710F0CF96089504
:1011200001970895FC01918D828D981761F0828D51
:10113000DF01A80FB11D5D968C91928D9F5F9F730B
:10114000928F90E008958FEF9FEF0895FC01918DAD
:10115000828D981731F0828DE80FF11D858D90E01A
:1011600008958FEF9FEF0895FC01918D228D892FB7
:1011700090E0805C9F4F821B91098F73992708959F
:10118000FC01848DDF01A80FB11DA35ABF4F2C9124
:10119000848D90E001968F739927848FA689B789F3
:1011A0002C93A089B1898C91837080648C93938DEA
:1011B000848D981306C00288F389E02D80818F7D8D
:1011C00080830895EF92FF920F931F93CF93DF9345
:1011D000EC0181E0888F9B8D8C8D981305C0E88988
:1011E000F989808185FD26C0F62E0B8D10E00F5FFA
:1011F0001F4F0F731127E02E8C8DE8120CC00FB615
:1012000007FCFACFE889F989808185FFF5CFCE0107
:101210000E94C008F1CF8B8DFE01E80FF11DE35A4B
:10122000FF4FF0829FB7F8940B8FEA89FB8980818A
:1012300080620AC09FB7F894EE89FF896083E889CD
:10124000F98980818370806480839FBF81E090E012
:10125000DF91CF911F910F91FF90EF900895CF9361
:10126000DF93EC01888D8823C9F0EA89FB898081AE
:1012700085FD05C0A889B9898C9186FD0FC00FB680
:1012800007FCF5CF808185FFF2CFA889B9898C91C1
:1012900085FFEDCFCE010E94C008E7CFDF91CF914F
:1012A00008952F923F924F925F926F927F928F920A
:1012B0009F92AF92BF92CF92DF92EF92FF920F93E5
:1012C0001F93CF93DF9300D000D000D0CDB7DEB70F
:1012D0006C015B015E834D832801370181E090E062
:1012E0004C01841A950ACA01919581959109AC0126
:1012F000440F551F5A834983180153E0250E311CB2
:10130000EE24E394F12C822F81708B8322702C8346
:10131000C70101974D815E81841795070CF064C069
:1013200097FC0BC0415051095E834D8389819A819E
:1013300002969A838983880E991EC701880F991F88
:101340000196880E991E9B81992309F12D813E817A
:10135000220F331F2F5F3F4F240D351D8301A50141
:101360008D819E81481B590BB6016E0D7F1D8EE04D
:1013700093E00E9420119101A5014E195F096D8132
:101380007E816C0D7D1D8EE093E00E9420119C817A
:10139000911107C09FEFE91AF90A22E0220E311CD1
:1013A000B7CF2D813E81220F331F2F5F3F4F240D7A
:1013B000351D8301A5018D819E81481B590BB60106
:1013C0006E197F098EE093E00E9420119101A50122
:1013D0004E195F09B6018D819E81681B790B8EE0E5
:1013E00093E00E942011D6CF26960FB6F894DEBF68
:1013F0000FBECDBFDF91CF911F910F91FF90EF9066
:10140000DF90CF90BF90AF909F908F907F906F9024
:101410005F904F903F902F9008950E94241C8F92D0
:101420009F92AF92BF92CF92DF92EF92FF920F9373
:101430001F93CF93DF935C01EB016A018EE093E091
:101440000E94F312450185E0880E911C76010AE0A6
:1014500010E026E130E0AE01B4018EE093E00E949E
:101460008E1425960FEF1FEF21E045E050E0BE01FE
:10147000C5014A960E94510922E045E050E0BE01B4
:10148000C4010E9451098EE093E0DF91CF911F913A
:101490000F91FF90EF90DF90CF90BF90AF909F9013
:1014A0008F900C943411CF92DF92EF92FF920F93B2
:1014B0001F93CF93DF93EC016B017A018EE093E0F1
:1014C0000E94F312A6014A505109870125E130E03C
:1014D000BE018EE093E00E94201100E010E023E0C6
:1014E0004AE050E0B601CE010E9451098EE093E03F
:1014F000DF91CF911F910F91FF90EF90DF90CF90F0
:101500000C943411CF93DF93009779F0FC01019094
:101510000020E9F73197AF01481B590BBC018EE061
:1015200093E00E945908EC0102C0C0E0D0E042E024
:1015300050E06EE971E08EE093E00E9459088C0F54
:101540009D1FDF91CF910895282F30916402313291
:1015500008F04AC0809140028111FCCF9091630253
:1015600042E04093400220933F022FEF20933E023F
:1015700010923D0230933C02E3E4F2E0ACE1B2E0D1
:1015800020E0321721F041914D932F5FFACF109256
:101590001B0220911B02990F922B90931B0290919A
:1015A0001A02913061F410921A0290911B029093EA
:1015B000BB009091BC0093FDF8CF95EC01C095EE77
:1015C0009093BC00909140029230E1F390913E02E2
:1015D0009F3F79F080913E02803241F080913E023F
:1015E000803331F084E005C081E003C082E001C0B7
:1015F00083E0109242021092640210924102089518
:101600002F923F924F925F926F927F928F929F9212
:10161000AF92BF92CF92DF92EF92FF920F931F9300
:10162000CF93DF93CDB7DEB7AC970FB6F894DEBF9C
:101630000FBECDBF9CA78BA74B015A0139011701E3
:10164000DE8ACD8A261737075CF4E616F706BCF467
:10165000962F892D4901EBA4FCA45CA74BA707C0DA
:10166000E216F3060CF0ABC1962D872D75012814F8
:10167000390484F058013101292E382E13C08B2DE6
:10168000ABA4BCA44BA78CA77801872D3B01822E6D
:10169000982E08C03401ABA4BCA44101292E382ED9
:1016A0000BA71CA78EE093E00E94F3128214930410
:1016B00051F52BA53CA5A216B3065CF09BA58CA505
:1016C0002A153B0514F49A2D8B2DABA4BCA49BA723
:1016D0008CA7EA14FB0444F04BA55CA54E155F05EE
:1016E00014F4FCA6EBA675012BA53CA52E193F0909
:1016F0002F5F3F4F0D891E89A401B7018EE093E053
:101700000E940D1140C1C5016BA57CA5861B970BDE
:10171000930128193909D701A61BB70BBE83AD83E6
:10172000A101481959095A874987B7016A197B09E4
:101730007E876D87D101A619B709B88FAF8B2301BA
:101740006214730419F0B1E04B1A51086401198A4C
:101750001A8A1B8A1C8A19821A821B821C82A9017E
:10176000330F660B770B4B8F5C8F6D8F7E8F2985C8
:101770003A85032E000C440B550B2F8F38A349A339
:101780005AA3AC01990F660B770B4BA35CA36DA317
:101790007EA36D817E81072E000C880B990B6FA3B1
:1017A00078A789A79AA74C145D040CF454C06981EA
:1017B0007A818B819C812B8D3C8D4D8D5E8D0E941D
:1017C000F01BEBA4FCA4E20EF31E69897A898B89D5
:1017D0009C892F8D38A149A15AA10E94F01B8BA58D
:1017E0009CA5280F391F49815A816B817C818BA16F
:1017F0009CA1ADA1BEA1480F591F6A1F7B1F498341
:101800005A836B837C8349895A896B897C898FA130
:1018100098A5A9A5BAA5480F591F6A1F7B1F498B18
:101820005A8B6B8B7C8B2E153F052CF49E2D8F2DA8
:101830007901292F382F2E193F092F5F3F4F0D892E
:101840001E89A601B7018EE093E00E940D119FEF63
:10185000C91AD90AA8CFC60186199709AD85BE85D0
:101860008A9F20018B9F500C9A9F500C1124052CAD
:10187000000C660877089601281939094D815E81A8
:10188000249FC001259F900D349F900D11249C0131
:10189000990F440B550B29833A834B835C834F8903
:1018A000588D052E000C660B770B4F8B588F698F68
:1018B0007A8F69857A85072E000C880B990B6987CA
:1018C0007A878B879C87CD01092E000CAA0BBB0B56
:1018D0008D879E87AF87B88B2D813E81032E000CAC
:1018E000440B550B2D833E834F8358872C143D04A6
:1018F0000CF449C0C301B2012F89388D498D5A8D2E
:101900000E94F01B7501E20EF31E69817A818B81C2
:101910009C8129853A854B855C850E94F01B6BA5CF
:101920007CA5260F371F8D859E85AF85B889480E0B
:10193000591E6A1E7B1E49815A816B817C818D8173
:101940009E81AF81B885480F591F6A1F7B1F49834D
:101950005A836B837C832E153F052CF49E2D8F2D8F
:101960007901292F382F2E193F092F5F3F4F0D89FD
:101970001E89A601B7018EE093E00E940D119FEF32
:10198000C91AD90AB3CF8EE093E0AC960FB6F8949B
:10199000DEBF0FBECDBFDF91CF911F910F91FF90A2
:1019A000EF90DF90CF90BF90AF909F908F907F90FF
:1019B0006F905F904F903F902F900C94341178016E
:1019C00071CE2F923F924F925F926F927F928F9241
:1019D0009F92AF92BF92CF92DF92EF92FF920F93BE
:1019E0001F93CF93DF93CDB7DEB76B970FB6F89405
:1019F000DEBF0FBECDBF9B8F8A8F5B011A01D22E37
:101A00001F830E833701C982DC0158962D913C91CA
:101A100059972115310509F0E6C018968D919C91D2
:101A20001997681779070CF0CDC11A968D919C9182
:101A30001B97481759070CF0C5C18C2C912CFB0142
:101A400026E0C29EE00DF11D1124FB87EA871E16D9
:101A50001F060CF0B7C1A40183E0440F551F8A95FF
:101A6000E1F75D874C87CA01820D931D1816190690
:101A70000CF0A8C157968C91811104C05FEA5D15E6
:101A800008F4D394AA8DBB8DED91FC91119702843B
:101A9000F385E02DCD010995B5E0DB9EC001112451
:101AA000F5013596FF87EE87BB82AA8225019C014E
:101AB0002A193B09398B288BA101485F5F4F5B8B4B
:101AC0004A8BE889F989E40DF51DEB50FF4F5491DD
:101AD000588761013D822C82888580FF13C0AA8DC2
:101AE000BB8DED91FC91B981B13031F40484F58561
:101AF000E02D2E813F8116C00684F785E02DEE8013
:101B0000FF801AC0EE81FF81E615F705F1F0AA8D7E
:101B1000BB8DED91FC91B981B13051F40484F58510
:101B2000E02D9301A601B2018A8D9B8D09950DC010
:101B30000684F785E02D7301840194014C815D8159
:101B40006A817B818A8D9B8D0995E885E695E8877A
:101B5000FFEFCF1ADF0A2C813D81280D391D3D830F
:101B60002C834A895B89C416D50609F0B5CF5FEF8F
:101B7000451A550A8A819B81880D991D9B838A830A
:101B8000AE85BF854A165B0609F09BCFEE81FF81CB
:101B9000E615F70509F4F4C0EA8DFB8DA081B1814B
:101BA000F981F13079F4B5016B5F7F4F5096ED917B
:101BB000FC915197830128E030E0A1018A8D9B8D33
:101BC0000995DEC06A857B85681979091E96ED91B5
:101BD000FC911F9773010C851D859401A1018A8DCD
:101BE0009B8D0995CDC0F9013496E491DE1AF90177
:101BF000329685919491B7E0DB9E800D911D112462
:101C0000F901259134913B8B2A8BFC01259134916C
:101C10002901FC013296C490319634913E87329668
:101C200014913196D4904981423058F0612E012EA2
:101C3000000C77088D2D0D2C000C990B9987888747
:101C400004C019861886612C712CAA8DBB8DED916C
:101C5000FC9111970284F385E02DCD010995B9819E
:101C60008B2E912C689CC001699C900D789C900DE6
:101C70001124FC01EA0DFB1DFD87EC871A82712CF3
:101C8000612CE12F110FFF0B95012E0F3F1F3B879A
:101C90002A87AC0CB11CA5014E0F5F1F5F8B4E8BCA
:101CA000C1018D0D911DD7FC9A95998F888F9E85C6
:101CB000691608F065C0862D90E048855985480F63
:101CC000591F489D9001499D300D589D300D11249C
:101CD000D101A20FB31FB98BA88BEC85FD85FD83C5
:101CE000EC83AA84BB84DA80FA85DF1A288D398DCB
:101CF000280F391F3D8B2C8B8D2D8A0D4E895F89C6
:101D0000A416B506C1F1877041F4C2010196EA89B3
:101D1000FB89E40DF51D74902C0177FE21C0AA8D7E
:101D2000BB8DED91FC91B981B13061F40484F585EE
:101D3000E02D2E813F814C895D89B5018A8D9B8D77
:101D400009950EC00684F785E02DEE80FF808401A2
:101D50009401488959896C817D818A8D9B8D099573
:101D6000770CEFEFAE1ABE0A2C813D81280D391D8C
:101D70003D832C83C1CF3A813C0D3A83639497CF46
:101D8000AA8DBB8DED91FC9111970688F789E02D06
:101D9000CD016B960FB6F894DEBF0FBECDBFDF91BD
:101DA000CF911F910F91FF90EF90DF90CF90BF9058
:101DB000AF909F908F907F906F905F904F903F90EB
:101DC0002F9009946B960FB6F894DEBF0FBECDBF6F
:101DD000DF91CF911F910F91FF90EF90DF90CF9007
:101DE000BF90AF909F908F907F906F905F904F903B
:101DF0003F902F9008951F920F920FB60F921124CB
:101E00002F933F934F935F936F937F938F939F9302
:101E1000AF93BF93EF93FF9385E692E00E94C008D3
:101E2000FF91EF91BF91AF919F918F917F916F91B2
:101E30005F914F913F912F910F900FBE0F901F9088
:101E400018951F920F920FB60F9211242F938F9314
:101E50009F93EF93FF93E0917502F091760280815A
:101E6000E0917B02F0917C0282FD12C09081809112
:101E70007E028F5F8F7320917F02821751F0E09175
:101E80007E02F0E0EB59FD4F958F80937E0201C0FA
:101E90008081FF91EF919F918F912F910F900FBEB5
:101EA0000F901F90189590E0FC01EF51FF4F249187
:101EB000FC01EB50FA4F3491FC01ED5EF94FE491D7
:101EC000EE2309F43CC0222339F1233091F038F499
:101ED0002130A9F0223001F584B58F7D12C0273062
:101EE00091F02830A1F02430B9F4809180008F7DEA
:101EF00003C0809180008F77809380000DC084B5EF
:101F00008F7784BD09C08091B0008F7703C0809126
:101F1000B0008F7D8093B000F0E0EE0FFF1FE75F11
:101F2000F94FA591B4919FB7F894611104C08C91B9
:101F30003095382302C0EC913E2B3C939FBF08950F
:101F4000CF93DF9390E0FC01EB50FA4F2491FC011A
:101F5000ED5EF94F8491882361F190E0880F991F1D
:101F6000FC01E952FF4FC591D491FC01E75FF94FA5
:101F7000A591B491611109C09FB7F894888120950B
:101F800082238883EC912E230BC0623061F49FB7CB
:101F9000F8948881322F309583238883EC912E2BFF
:101FA0002C939FBF06C08FB7F894E8812E2B28830F
:101FB0008FBFDF91CF910895789484B5826084BDFE
:101FC00084B5816084BD85B5826085BD85B581603D
:101FD00085BDEEE6F0E0808181608083E1E8F0E09D
:101FE0001082808182608083808181608083E0E8CC
:101FF000F0E0808181608083E1EBF0E080818460AB
:102000008083E0EBF0E0808181608083EAE7F0E0AC
:102010008081846080838081826080838081816010
:1020200080838081806880831092C10008958F92A0
:102030009F92AF92BF92CF92DF92EF92FF926B018D
:102040007C010E94F4134B015C01C114D104E10432
:10205000F104F1F00E94F413DC01CB018819990915
:10206000AA09BB09883E9340A105B10570F321E0A0
:10207000C21AD108E108F10888EE880E83E0981EA4
:10208000A11CB11CC114D104E104F10419F7DDCF86
:10209000FF90EF90DF90CF90BF90AF909F908F9088
:1020A00008958F929F92AF92BF92CF92DF92EF925C
:1020B000FF920F931F93CF93DF93EC016B015A01B3
:1020C0004901E881F9810284F385E02D0995E881D1
:1020D000F9810684F785E02D9401A501B601CE01B2
:1020E0000995E881F9810688F789E02DCE01DF9115
:1020F000CF911F910F91FF90EF90DF90CF90BF9005
:10210000AF909F908F900994AF92BF92CF92DF9241
:10211000EF92FF920F931F93CF93DF93EC017B011C
:102120006A015901E881F9810284F385E02D09955E
:10213000E881F9810288F389E02D9501A601B701B4
:10214000CE010995E881F9810688F789E02DCE0155
:10215000DF91CF911F910F91FF90EF90DF90CF9083
:10216000BF90AF900994AF92BF92CF92DF92EF925F
:10217000FF920F931F93CF93DF93EC017B016A01D2
:102180005901E881F9810284F385E02D0995E88100
:10219000F9810088F189E02D9501A601B701CE01F2
:1021A0000995E881F9810688F789E02DCE01DF9154
:1021B000CF911F910F91FF90EF90DF90CF90BF9044
:1021C000AF900994CF92DF92EF92FF920F931F93FB
:1021D000CF93DF93EC018B017A016901E881F981EA
:1021E0000284F385E02D0995E881F9810484F58561
:1021F000E02D9601A701B801CE010995E881F9818A
:102200000688F789E02DCE01DF91CF911F910F91C4
:10221000FF90EF90DF90CF900994EF92FF920F9391
:102220001F93DC01ED91FC910684F785E02D780188
:1022300001E010E009951F910F91FF90EF90089534
:10224000EF92FF920F931F93DC01ED91FC910684B6
:10225000F785E02D7801890121E030E009951F9193
:102260000F91FF90EF900895FC0191A904A4F5A5AA
:10227000E02D8081892B808308950895FC0163708F
:10228000658B8481958126813781613039F0633097
:1022900029F09187808733872287089531872087A7
:1022A0009387828708956F927F928F929F92AF92C9
:1022B000BF92CF92DF92EF92FF920F931F93CF9333
:1022C000DF93EC014B015A0169013801E881F98182
:1022D0000284F385E02D0995E881F9810288F3896C
:1022E000E02D87019601A501B401CE010995A50154
:1022F000460D571D41505109E881F9810288F38943
:10230000E02D9601B401CE010995E881F98100889C
:10231000F189E02D9301A501B401CE010995C80C06
:10232000D91CB60161507109E881F9810088F189F1
:10233000E02D9301A501CE010995E881F981068878
:10234000F789E02DCE01DF91CF911F910F91FF9082
:10235000EF90DF90CF90BF90AF909F908F907F9045
:102360006F9009948F929F92AF92BF92CF92DF921B
:10237000EF92FF920F931F93CF93DF934C016B016A
:102380005A01E901DC01ED91FC916217730781F4B8
:102390000417150724F48B2D5801042F182F0A1940
:1023A0001B0998012F5F3F4F048CF58DE02D12C063
:1023B0004017510709F52617370724F48D2D6901B9
:1023C000C62FD82F9E012C193D092F5F3F4F068C39
:1023D000F78DE02D8701A501B601C4010995DF91B4
:1023E000CF911F910F91FF90EF90DF90CF90BF9012
:1023F000AF909F908F9008950284F385E02D09950A
:10240000D401ED91FC910488F589E02D9E01A50190
:10241000B601C4010995D401ED91FC910688F789B4
:10242000E02DC401DF91CF911F910F91FF90EF90AC
:10243000DF90CF90BF90AF909F908F900994EF92D4
:10244000FF920F931F93DC011A960D911C911B971D
:1024500018962D913C911997ED91FC9100A0F1A156
:10246000E02D7B0140E050E060E070E009951F91B5
:102470000F91FF90EF9008954F925F926F927F922D
:102480008F929F92AF92BF92CF92DF92EF92FF9284
:102490000F931F93CF93DF936C012B015A013901E6
:1024A0004801DC01ED91FC910284F385E02D099552
:1024B000E201640C751CD601ED91FC91C615D7059F
:1024C0005CF40088F189E02D87019401A501BE012B
:1024D000C60109952196EFCF0688F789E02DC60140
:1024E000DF91CF911F910F91FF90EF90DF90CF90F0
:1024F000BF90AF909F908F907F906F905F904F9024
:1025000009948F929F92AF92BF92CF92DF92EF92F7
:10251000FF920F931F93CF93DF93EC015B014A016E
:102520006901E881F9810284F385E02D099595011F
:102530002C0D3D1D21503109E881F9810488F58970
:10254000E02D78018401A401B501CE010995E8814F
:10255000F9810688F789E02DCE01DF91CF911F9197
:102560000F91FF90EF90DF90CF90BF90AF909F9032
:102570008F9009948F929F92AF92BF92CF92DF92E9
:10258000EF92FF920F931F93CF93DF93EC015B01C8
:102590004A0169017801E881F9810284F385E02D1F
:1025A0000995C80CD91C860101501109E881F981EF
:1025B0000488F589E02D9501A401B501CE010995A6
:1025C000E881F9810688F789E02DCE01DF91CF916E
:1025D0001F910F91FF90EF90DF90CF90BF90AF9041
:1025E0009F908F900994FC0181A187FF1EC0428DAE
:1025F000538D648D758D80E092E1AAE7B0E020E014
:10260000481759076A077B0740F4B695A795979531
:1026100087952F5F2630A1F727E091E09227892F39
:10262000806A869591708CBD9DBD81A904A4F5A595
:10263000E02D90818095892380830895AF92BF9289
:10264000CF92EF92FF920F931F93CF93DF93EC0102
:10265000262F888D998D009709F040C06A3059F473
:102660001D861C862C898E859F8538E0239F800DD2
:10267000911D112441C06D3009F4AAC08E898823B0
:10268000C1F03C898C859D8546E0349F800D911D6D
:10269000112448855985481759075CF41D861C8606
:1026A0008E859F8548E0349F800D911D11249F8762
:1026B0008E87EA88FB88088919894E855F856C8535
:1026C0007D85CC88CE010E94E10C2C898C859D856E
:1026D00036E0239F800D911D112442C06A3079F4A9
:1026E0001D861C862C89FC013696E4918E859F857B
:1026F0002E9F800D911D11249F878E8769C06D309C
:1027000009F466C0FC0134963491631708F460C084
:102710003196E491E61708F45BC0FC0132966591AE
:102720007491422F50E0431B510937E0349F500110
:10273000359FB00C1124A60EB71EF50132963491C8
:102740003196E491332311F0E1110DC0F501349677
:10275000E4912C898C859D85E29F800D911D11242B
:102760009D878C8735C0F501359644915E89552348
:1027700011F16C89E32FF0E0E40FF11D47FDFA95AC
:102780006E9FD0016F9FB00D11244C855D854A0F5F
:102790005B1FE885F985E417F5076CF41D861C8638
:1027A000FC013696E4918E859F856E9F800D911D6C
:1027B00011249F878E87EA88FB88088919894E85AE
:1027C0005F856C857D85CC88CE010E94E10CBECFF3
:1027D00081E090E0DF91CF911F910F91FF90EF90FA
:1027E000CF90BF90AF9008953FB7F8948091940335
:1027F00090919503A0919603B091970326B5A89B5D
:1028000005C02F3F19F00196A11DB11D3FBFBA2F82
:10281000A92F982F8827820F911DA11DB11DBC01E2
:10282000CD0142E0660F771F881F991F4A95D1F7A7
:1028300008951F920F920FB60F9211242F933F937A
:102840008F939F93AF93BF93809190039091910347
:10285000A0919203B091930330918F0323E0230F53
:102860002D3720F40196A11DB11D05C026E8230FC8
:102870000296A11DB11D20938F0380939003909326
:102880009103A0939203B09393038091940390914A
:102890009503A0919603B09197030196A11DB11DD8
:1028A0008093940390939503A0939603B09397031A
:1028B000BF91AF919F918F913F912F910F900FBE3C
:1028C0000F901F901895FC0181A187FF05C06EBD78
:1028D0000DB407FEFDCF089588E090E020E8A4A1A4
:1028E000B5A1362F322321F046A53C91342B04C0EC
:1028F00036A54C91309534233C9330A9A0A5B1A5C1
:102900004C91309534233C9340A9A0A5B1A53C91AE
:10291000342B3C932695019711F708954F925F92BF
:102920006F927F928F929F92AF92BF92CF92DF92DF
:10293000EF92FF920F931F93CF93DF93EC016B0104
:102940005901480128853985621773070CF067C063
:102950008A859B85481759070CF061C08B010A0DC9
:102960001B1DF8013197DA01A80DB91DBD01615099
:102970007109F7FD54C077FD52C0D7FE03C058015E
:10298000C12CD12C57FF03C04D0140E050E0E217AD
:10299000F3071CF05901AC18BD08681779071CF043
:1029A0004C01841A950A9501D4010E940F1C3B0129
:1029B000582E492EE881F98102A4F3A5E02D840167
:1029C000B601CE0109954301A52CB42C89A187FF3E
:1029D00013C081149104A104B10409F1FEBC0DB42B
:1029E00007FEFDCFEEBC0DB407FEFDCF81E0881AD7
:1029F0009108A108B108EDCF81149104A104B1049C
:102A000071F06F2DCE010E9463146E2DCE010E94D5
:102A1000631481E0881A9108A108B108EDCFDF9115
:102A2000CF911F910F91FF90EF90DF90CF90BF90CB
:102A3000AF909F908F907F906F905F904F90089590
:102A4000EF92FF920F931F93CF93DF93EC0177FDEB
:102A500033C0888599856817790774F557FD2CC0B0
:102A60008A859B85481759073CF5E32EF22EE881AD
:102A7000F98102A4F3A5E02D01E010E021E030E0AF
:102A8000CE01099589A187FF09C0EEBC0DB407FEF0
:102A9000FDCFFEBC0DB407FEFDCF0EC06E2DCE01E6
:102AA0000E9463146F2DCE01DF91CF911F910F9182
:102AB000FF90EF900C946314DF91CF911F910F91D1
:102AC000FF90EF900895CF93DF93EC018AA9EAA5D8
:102AD000FBA59081809589238083CE010E94631499
:102AE0009AA9EAA5FBA58081892B8083DF91CF91EC
:102AF00008951F93CF93DF93EC01162FE881F9819E
:102B00000284F385E02D0995112311F06BA901C012
:102B10006CA9CE010E946315E881F9810688F789C6
:102B2000E02DCE01DF91CF911F910994F89410927E
:102B30008000109281008EEE95E89093AF01809313
:102B4000AE01909385008093840080918100846021
:102B50008093810080916F00816080936F007894F2
:102B60000E94DC0F0E94DC0F40E050E0BA018EE0D2
:102B700093E00E94FA0560E070E08EE093E00E942E
:102B80001F1287B18C6087B94298439A64E670E05F
:102B900080E090E00E9417101092D1011092D001B5
:102BA000109242021092640210924002C1E0C0935F
:102BB0003F0210921A0261E082E10E94530F61E02D
:102BC00083E10E94530F8091B9008E7F8093B900FA
:102BD0008091B9008D7F8093B90088E48093B8001C
:102BE00085E48093BC0083E594E09093F3018093A7
:102BF000F20184E594E09093F7018093F601C0938D
:102C0000410282E5809363021092420210926402B4
:102C100060E482E093E00E94AD0460E082E093E033
:102C20000E94AD0481E00E94A40AE0917502F09137
:102C3000760282E08083E0917102F091720210824C
:102C4000E0917302F09174028FEC808310927D0208
:102C5000E0917902F0917A0286E08083E091770238
:102C6000F0917802808180618083E0917702F09119
:102C70007802808188608083E0917702F091780209
:102C8000808180688083E0917702F0917802808172
:102C90008F7D8083CEE1AC2EB12CD8E28D2E912C8D
:102CA000CFEFDFEF33243394F7E12F2EA6E94A2E3E
:102CB000512CB7E46B2E712C809140028111FCCF16
:102CC0003092400230923F028FEF80933E0210928A
:102CD0003D0285E080933C0230921B0280911B02F2
:102CE000846A80931B0280911A02813061F41092F1
:102CF0001A0280911B028093BB008091BC0083FD6F
:102D0000F8CF85EC01C085EE8093BC008091400235
:102D10008130E1F380913D02863018F410913D023C
:102D200001C016E0ECE1F2E0A0EBB1E080E0811739
:102D300021F091919D938F5FFACF1092D101109362
:102D4000D001E4EAEE2EE1E0FE2E8091D1011817C9
:102D500051F082E093E00E9464048225895EF701CD
:102D600081937F01F2CF3092410282E5809363022A
:102D7000109242021092640260E082E093E00E94AE
:102D8000AD0481E00E94A40A8091A50190E0909397
:102D90000B0180930A018091A40190E09093A3011C
:102DA0008093A201209108013091090180910001D6
:102DB000909101012817390791F060E070E08EE0F2
:102DC00093E00E941F128091080190910901909355
:102DD0000101809300011092AB011092AA01809131
:102DE000080190910901019709F06EC1B0921B038F
:102DF000A0921A0390921D0380921C03D09321038A
:102E0000C0932003D0931F03C0931E0313E01093BD
:102E1000220380E691E00E94820A8DE490E0909384
:102E20001B0380931A03E6E4F0E0F0931D03E093A4
:102E30001C03D0932103C0932003D0931F03C0939E
:102E40001E03109322038BE691E00E94820A8AE51A
:102E500090E090931B0380931A03E2E8F0E0F09374
:102E60001D03E0931C03D0932103C0932003D09350
:102E70001F03C0931E0312E01093220381E791E029
:102E80000E94820A81E490E090931B0380931A03CE
:102E900050921D0340921C03D0932103C093200342
:102EA000D0931F03C0931E031093220387E791E082
:102EB0000E94820A70921B0360921A038BEA90E0D0
:102EC00090931D0380931C03D0932103C093200390
:102ED000D0931F03C0931E031093220381E891E057
:102EE0000E94820A40E058EF63E171E082E390E0E3
:102EF0000E94E4064FE150E06BEE70E084EB90E05E
:102F00000E94E40680910401909105012091020144
:102F1000309103018217930709F441C0019789F4A6
:102F2000C12CD12C78E8E72EF12C07E310E02DE836
:102F300030E04DE250E063E870E08DE290E00E9406
:102F4000000B8091040190910501029789F4C12C36
:102F5000D12C6CE9E62EF12C07E310E021EA30E0F9
:102F60004DE250E067E970E08DE290E00E94000BD6
:102F70008091040190910501039789F4C12CD12C13
:102F800050EBE52EF12C07E310E025EB30E04DE2AD
:102F900050E06BEA70E08DE290E00E94000B8091BF
:102FA0000201909103010197E9F430EEC32E37E05E
:102FB000D32E48E8E42EF12C07E310E02DE830E0B2
:102FC0004DE250E063E870E08DE290E00E94000B7B
:102FD0008091A90180FD06C082E090E090930901F4
:102FE0008093080180910201909103010297E9F416
:102FF00090EEC92E97E0D92E2CE9E22EF12C07E3B2
:1030000010E021EA30E04DE250E067E970E08DE247
:1030100090E00E94000B8091A90180FD06C083E032
:1030200090E09093090180930801809102019091B2
:1030300003010397E9F400EEC02E07E0D02E80EBE9
:10304000E82EF12C07E310E025EB30E04DE250E0F4
:103050006BEA70E08DE290E00E94000B8091A90184
:1030600080FD06C084E090E0909309018093080100
:103070009FEFE3ECF9E09150E040F040E1F700C051
:10308000000020910A0130910B0180910201909182
:1030900003012D3831052CF0823091056CF0019739
:1030A00007C02A35310544F4833091052CF401968C
:1030B000909303018093020180910201909103019A
:1030C000909305018093040180910801909109017A
:1030D000029709F012C22091A2013091A3018091C0
:1030E0000601909107012D3831052CF0813E9105A4
:1030F0006CF4019607C02A35310544F480319105FE
:103100002CF0019790930701809306014FE150E066
:1031100063E171E080910601909107010E94530ADA
:1031200080910601909107014FE150E06EE071E05F
:1031300040970E940F0A60910601709107019B0160
:103140002C5F3F4F64507109E12CF12C08E011E035
:1031500048E051E08EE093E00E94B21180910601B8
:1031600090910701AC0148505109C12CD12C29E0A4
:10317000E22EFF24F3948A012DE031E069E071E052
:1031800004970E94000B60910601709107019B015A
:10319000285031096C507109E12CF12C0DE011E03F
:1031A0004DE051E08EE093E00E94B2118091060163
:1031B00090910701AC01405151093DE0E32EFF24FD
:1031C000F3948A0121E131E06DE071E00D970E94F6
:1031D000000B609106017091070160517109E12CAB
:1031E000F12C01E111E09B0145E151E08EE093E01B
:1031F0000E94B2118091060190910701AC014051EB
:10320000510969E1E62EFF24F3948A0125E131E0BA
:1032100069E171E00D970E94000B609106017091C9
:1032200007019B01285031096C507109E12CF12CE8
:1032300009E111E049E151E08EE093E00E94B21112
:103240008091060190910701AC01485051097DE140
:10325000E72EFF24F3948A0129E131E06DE171E06A
:1032600004970E94000B60910601709107019B0179
:103270002C5F3F4F64507109E12CF12C0EE111E0FD
:103280004EE151E08EE093E00E94B21140910601C0
:1032900050910701CA0108964C5F5F4FEEE1EE2E98
:1032A000FF24F3948C012EE131E069E171E00E948A
:1032B000000B60910601709107019B01285F3F4F51
:1032C000645F7F4FE12CF12C09E111E049E151E00D
:1032D0008EE093E00E94B211809106019091070167
:1032E000AC01405F5F4FF9E1EF2EFF24F3948A01B8
:1032F00025E131E069E171E00D960E94000B6091DB
:10330000060170910701605F7F4FE12CF12C01E114
:1033100011E09B0145E151E08EE093E00E94B21183
:103320008091060190910701AC01405F5F4FADE0D5
:10333000EA2EFF24F3948A0121E131E06DE071E08F
:103340000D960E94000B60910601709107019B0190
:10335000285F3F4F645F7F4FE12CF12C0DE011E0BF
:103360004DE051E08EE093E00E94B21180910601A1
:1033700090910701AC01485F5F4FB9E0EB2EFF244D
:10338000F3948A012DE031E069E071E004960E9437
:10339000000B60910601709107019B012B5F3F4F6D
:1033A00065507109E12CF12C07E011E047E051E094
:1033B0008EE093E00E94B2116091060170910701C6
:1033C0009B01295031096D5071090CE011E04CE06E
:1033D00051E08EE093E00E94B2116091060170917D
:1033E00007016151710900E111E09B0146E151E0E3
:1033F0008EE093E00E94B211609106017091070186
:103400009B01295031096D5071090AE111E04AE12F
:1034100051E08EE093E00E94B2116091060170913C
:1034200007019B012C5F3F4F655071090FE111E0CF
:103430004FE151E08EE093E00E94B21160910601ED
:10344000709107019B01275F3F4F635F7F4F0AE148
:1034500011E04AE151E08EE093E00E94B2116091E8
:103460000601709107016F5E7F4F00E111E09B0143
:1034700047E151E08EE093E00E94B21160910601B5
:10348000709107019B01275F3F4F635F7F4F0CE007
:1034900011E04CE051E08EE093E00E94B2114091C7
:1034A000AA015091AB011AEBE12E16EDF12E0EE1BF
:1034B00010E02EE130E064E670E08EE093E00E94E0
:1034C00051104091AA015091AB0143505109E12C98
:1034D000F12C03E010E02EE130E064E670E08EE0D5
:1034E00093E00E9451108091A90181FD06C081E006
:1034F00090E09093090180930801809108019091D8
:103500000901039709F5B0921B03A0921A03909248
:103510001D0380921C03D0932103C0932003D093FA
:103520001F03C0931E0383E0809322038AE891E087
:103530000E94820A8091A90181FD06C081E090E08D
:1035400090930901809308018091080190910901ED
:10355000049709F0B1CBB0921B03A0921A0390928A
:103560001D0380921C03D0932103C0932003D093AA
:103570001F03C0931E0383E08093220385E991E03B
:103580000E94820A8091A90181FD8CCB81E090E0AC
:10359000909309018093080185CBE5E6F2E0138260
:1035A000128288EE93E0A0E0B0E084839583A68346
:1035B000B78320E131E03183208325EC30E035878B
:1035C000248724EC30E03787268720EC30E0318BED
:1035D000208B21EC30E0338B228B22EC30E0358BDA
:1035E000248B26EC30E0378B268B118E128E138EB7
:1035F000148EE7E4F3E01682178210861186128695
:1036000013861486158616861786108A118A128AE2
:10361000138A148A158AE2E0F3E01382128284830B
:103620009583A683B78382E291E091838083AEE0A5
:10363000B3E013961C921E92129720EF30E015967D
:103640003C932E93149780E491E017969C938E936D
:10365000169719963C932E9318971B969C938E93CE
:103660001A9755961C9255971D961C921E921C9760
:103670001F961C921E921E9781E054968C9354972D
:103680002FEF3FEF53963C932E93529751963C93D6
:103690002E93509756968C93569757961C92579701
:1036A00059961C921E925897D3961C92D397D496F3
:1036B0001C92D497D6961C921E92D597D8961C929F
:1036C0001E92D7978AE05E968C935E9789E05F960C
:1036D0008C935F978FEF90968C93909791968C93A5
:1036E000919792968C93929793968C9393975A96E0
:1036F0001D921D921D921C925D9799961C921E928E
:103700009897D0961C92D09795961C921E9294975B
:103710009E961C929E9797961C921E9296979F96A5
:103720001C929F97ECE1F6E0E491F0E0EE0FFF1FB2
:10373000E75FF94F859194919B969C938E939A970E
:10374000EEEFF5E0E491D296EC93D297EDE1F6E05E
:10375000E491F0E0EE0FFF1FE75FF94F8591949140
:103760009D969C938E939C97EFEFF5E0E491D19614
:10377000EC93D19784E391E08D939C930895A1E21B
:103780001A2EAA1BBB1BFD010DC0AA1FBB1FEE1FDB
:10379000FF1FA217B307E407F50720F0A21BB30B26
:1037A000E40BF50B661F771F881F991F1A9469F7A2
:1037B00060957095809590959B01AC01BD01CF01FE
:1037C0000895A29FB001B39FC001A39F700D811DFA
:1037D0001124911DB29F700D811D1124911D08951A
:1037E000052E97FB1EF400940E94071C57FD07D07E
:1037F0000E94BF1B07FC03D04EF40C94071C50958D
:103800004095309521953F4F4F4F5F4F08959095CC
:103810008095709561957F4F8F4F9F4F08950E94BF
:10382000E11B332312F48A1B9B0B0C94191C0E947E
:10383000E11BB7FF0895821B930B0895EE0FFF1F46
:103840000590F491E02D099481E090E0F8940C94B7
:06385000291CF894FFCFD3
:1038560001000100020073000200130100000000D5
:10386600E208590883082F09B4089208A608000040
:103876000000AD048004DD043F03780464045504AD
:10388600000000001E135908DD04DC04E210F312E8
:1038960020158E1420110D116F033411AE05E004AE
:1038A600B310841051101F12B2115311FA05FD0402
:1038B6004573636170652074686500424C4F434BE5
:1038C600005374617274004869676873636F726548
:1038D60000436F6E74726F6C7300484947485343D8
:1038E6004F52455300434F4E54524F4C53000D0A0E
:0238F6000000D0
:00000001FF
