:100000000C9435000C945D000C945D000C945D0024
:100010000C945D000C945D000C945D000C945D00EC
:100020000C945D000C9431020C945D000C945D0006
:100030000C945D000C945D000C945D000C945D00CC
:100040000C94E7010C945D000C94B5010C948F01A5
:100050000C945D000C945D000C945D000C945D00AC
:100060000C945D000C945D00BB0211241FBECFEF09
:10007000D8E0DEBFCDBF22E0AEE5B1E001C01D9209
:10008000A235B207E1F711E0A0E0B1E0E8E8F9E05D
:1000900002C005900D92AE35B107D9F710E0C5E367
:1000A000D0E004C02197FE010E949603C433D1071B
:1000B000C9F70E941F030C94C2040C940000CF9255
:1000C000DF92EF92FF920F931F93CF93DF936C0118
:1000D0007A018B01C0E0D0E0CE15DF0581F0D801B8
:1000E0006D918D01D601ED91FC910190F081E02D93
:1000F000C6010995892B11F02196EECF7E01C7012B
:10010000DF91CF911F910F91FF90EF90DF90CF90F3
:100110000895089580E090E00895FC01538D448D8A
:10012000252F30E0842F90E0821B930B541710F0A2
:10013000CF96089501970895FC01918D828D9817AF
:1001400061F0828DDF01A80FB11D5D968C91928DBB
:100150009F5F9F73928F90E008958FEF9FEF0895B8
:10016000FC01918D828D981731F0828DE80FF11D81
:10017000858D90E008958FEF9FEF0895FC01918D9C
:10018000228D892F90E0805C9F4F821B91098F7395
:1001900099270895FC01848DDF01A80FB11DA35A92
:1001A000BF4F2C91848D90E001968F739927848F97
:1001B000A689B7892C93A089B1898C9183708064BA
:1001C0008C93938D848D981306C00288F389E02D5B
:1001D00080818F7D80830895EF92FF920F931F930C
:1001E000CF93DF93EC0181E0888F9B8D8C8D9813EA
:1001F00005C0E889F989808185FD26C0F62E0B8D22
:1002000010E00F5F1F4F0F731127E02E8C8DE81247
:100210000CC00FB607FCFACFE889F989808185FF09
:10022000F5CFCE010E94CA00F1CF8B8DFE01E80F01
:10023000F11DE35AFF4FF0829FB7F8940B8FEA89C4
:10024000FB89808180620AC09FB7F894EE89FF899C
:100250006083E889F98980818370806480839FBF8F
:1002600081E090E0DF91CF911F910F91FF90EF908F
:100270000895CF93DF93EC01888D8823C9F0EA8934
:10028000FB89808185FD05C0A889B9898C9186FD8F
:100290000FC00FB607FCF5CF808185FFF2CFA8898C
:1002A000B9898C9185FFEDCFCE010E94CA00E7CFBE
:1002B000DF91CF910895FC0184A1882359F095B175
:1002C00080E2892785B99AB188E089278AB9118A9D
:1002D000108A14A20895CF93DF93009779F0FC0160
:1002E00001900020E9F73197AF01481B590BBC0181
:1002F00087E691E00E945F00EC0102C0C0E0D0E020
:1003000042E050E068E271E087E691E00E945F0021
:100310008C0F9D1FDF91CF9108950E94BD041F9205
:100320000F920FB60F9211242F933F934F935F9329
:100330006F937F938F939F93AF93BF93EF93FF93AD
:1003400087E691E00E94CA00FF91EF91BF91AF91C3
:100350009F918F917F916F915F914F913F912F91DD
:100360000F900FBE0F901F9018951F920F920FB60F
:100370000F9211242F938F939F93EF93FF93E0910C
:100380007701F09178018081E0917D01F0917E010B
:1003900082FD12C09081809180018F5F8F732091C8
:1003A0008101821751F0E0918001F0E0E959FE4FA0
:1003B000958F8093800101C08081FF91EF919F9183
:1003C0008F912F910F900FBE0F901F9018951F9235
:1003D0000F920FB60F9211242F933F938F939F93F9
:1003E000AF93BF938091630190916401A0916501E7
:1003F000B09166013091620123E0230F2D3720F484
:100400000196A11DB11D05C026E8230F0296A11D6E
:10041000B11D209362018093630190936401A093C6
:100420006501B093660180915E0190915F01A0919A
:100430006001B09161010196A11DB11D80935E0123
:1004400090935F01A0936001B0936101BF91AF9160
:100450009F918F913F912F910F900FBE0F901F9002
:1004600018951F920F920FB60F9211242F933F935E
:100470004F935F936F937F938F939F93AF93BF93AC
:10048000CF93DF93EF93FF93C0914C02D0914D0235
:10049000888999890196998B888B88A5882309F486
:1004A00057C08DA19EA1882391F091114DC08FA1BD
:1004B00081114AC0CE010E945B01888999898035EB
:1004C000910509F045C081E08CA31DA241C08FA118
:1004D000992381F0811138C0CE010E945B01888987
:1004E000998984369105A1F581E08CA31EA28DA384
:1004F00088A72EC0882361F0CE010E945B01888905
:100500009989CC9729F581E08CA31FA28EA320C0E6
:10051000CE010E945B018A899B89FC01EE0FFF1FBF
:10052000EC0FFD1F488959892081318142175307FB
:1005300079F421E02CA301969B8B8A8B089741F4D8
:100540002FA31B8A1A8A04C085E491E00E946B01E4
:10055000FF91EF91DF91CF91BF91AF919F918F91DB
:100560007F916F915F914F913F912F910F900FBEAF
:100570000F901F901895CF93DF93E7E6F1E0138279
:10058000128288EE93E0A0E0B0E084839583A68396
:10059000B7838AE191E09183808385EC90E0958731
:1005A000848784EC90E09787868780EC90E0918B3D
:1005B000808B81EC90E0938B828B82EC90E0958B2A
:1005C000848B86EC90E0978B868B118E128E138E27
:1005D000148EE4E0F2E016821782108611861286ED
:1005E00013861486158616861786108A118A128A33
:1005F000138A148A158A89E290E00E949C03EC0118
:10060000198A188A1B8A1A8A80E1E6E0F1E0DE0185
:10061000549601900D928A95E1F781E08CA38DA309
:100620001EA21FA283E28093B30081E18093B400F5
:10063000D0934D02C0934C02DF91CF910895E09189
:100640007701F091780182E08083E0917301F0916D
:1006500074011082E0917501F09176018FEC808336
:1006600010927F01E0917B01F0917C0186E0808314
:10067000E0917901F0917A01808180618083E0913D
:100680007901F0917A01808188608083E09179011D
:10069000F0917A01808180688083E0917901F09106
:1006A0007A0180818F7D808300914C0210914D02F0
:1006B0002D9A259A5B9A539A8091B0008366809315
:1006C000B0008091B1008A608093B1008091700089
:1006D000816080937000480184E1880E911CE801DC
:1006E0007801E0E1EE0EF11C84E1C82ED12C98E2F5
:1006F000A92EB12CF401819191914F018130910586
:1007000019F4B982A88209C0892B19F4D982C88248
:1007100004C08BE291E00E946B012296EC16FD066C
:1007200049F781E0F80180A77894FFCFEE0FFF1F13
:100730000590F491E02D09940F931F93CF93DF93CD
:100740008230910510F482E090E0E0915002F09147
:10075000510220E030E0A0E0B0E0309719F1408194
:1007600051810281138148175907C8F084179507F2
:1007700069F4109731F012960C93129713961C930C
:1007800027C0009350021093510222C02115310559
:1007900019F04217530718F49A01BD01EF01DF0168
:1007A000F801DBCF21153105F9F0281B390B243076
:1007B000310580F48A819B816115710521F0FB016F
:1007C0009383828304C09093510280935002FE0170
:1007D000329644C0FE01E20FF31F819391932250A1
:1007E0003109398328833AC020914E0230914F025B
:1007F000232B41F4209102013091030130934F02E9
:1008000020934E0220910001309101012115310504
:1008100041F42DB73EB74091040150910501241BCE
:10082000350BE0914E02F0914F02E217F307A0F46E
:100830002E1B3F0B2817390778F0AC014E5F5F4F36
:100840002417350748F04E0F5F1F50934F02409317
:100850004E028193919302C0E0E0F0E0CF01DF917E
:10086000CF911F910F910895CF93DF93009709F4D3
:1008700081C0FC01329713821282A0915002B09184
:100880005102109781F420813181820F931F2091B2
:100890004E0230914F022817390751F5F0934F025D
:1008A000E0934E0267C0ED0120E030E0CE17DF0795
:1008B00040F44A815B819E0141155105F1F0EA0146
:1008C000F5CFD383C28340815181840F951FC81710
:1008D000D90759F488819981840F951F02969183D5
:1008E00080838A819B81938382832115310529F43A
:1008F000F0935102E09350023DC0E901FB83EA838B
:1009000049915991C40FD51FEC17FD0761F48081FF
:100910009181840F951F0296E901998388838281D2
:1009200093819B838A83E0E0F0E012968D919C9105
:100930001397009719F0FD01DC01F7CF8D919C9181
:1009400011979D012E5F3F4F820F931F20914E0202
:1009500030914F022817390769F4309729F4109223
:1009600051021092500202C013821282B0934F02C1
:10097000A0934E02DF91CF91089581E090E0F8942A
:080980000C94C204F894FFCFAF
:100988000000520280000100000001000000010088
:1009980000000100000000000000EC005F008D0076
:1009A8003901BE009C00B0000D0A005365747469DB
:1009B8006E672042495420746F2054494D45206584
:1009C80072726F7200536F6D657468696E67207715
:0E09D800656E742077726F6E672121212100F9
:00000001FF
