:100000000C9435000C945D000C945D000C945D0024
:100010000C945D000C9450020C945D000C945D00F7
:100020000C945D000C94B2020C945D000C945D0085
:100030000C945D000C945D000C945D000C945D00CC
:100040000C9406020C945D000C94D4010C94AE0147
:100050000C945D000C945D000C945D000C945D00AC
:100060000C945D000C945D00C90211241FBECFEFFB
:10007000D8E0DEBFCDBF22E0A6E1B1E001C01D9215
:10008000A830B207E1F711E0A0E0B1E0ECE1F7E061
:1000900002C005900D92A631B107D9F710E0C5E373
:1000A000D0E004C02197FE010E948103C433D10730
:1000B000C9F70E9408030C948C030C940000CF92A3
:1000C000DF92EF92FF920F931F93CF93DF936C0118
:1000D0007A018B01C0E0D0E0CE15DF0581F0D801B8
:1000E0006D918D01D601ED91FC910190F081E02D93
:1000F000C6010995892B11F02196EECF7E01C7012B
:10010000DF91CF911F910F91FF90EF90DF90CF90F3
:100110000895089580E090E00895FC01538D448D8A
:10012000252F30E0842F90E0821B930B541710F0A2
:10013000CF96089501970895FC01918D828D9817AF
:1001400061F0828DDF01A80FB11D5D968C91928DBB
:100150009F5F9F73928F90E008958FEF9FEF0895B8
:10016000FC01918D828D981731F0828DE80FF11D81
:10017000858D90E008958FEF9FEF0895FC01918D9C
:10018000228D892F90E0805C9F4F821B91098F7395
:1001900099270895FC01848DDF01A80FB11DA35A92
:1001A000BF4F2C91848D90E001968F739927848F97
:1001B000A689B7892C93A089B1898C9183708064BA
:1001C0008C93938D848D981306C00288F389E02D5B
:1001D00080818F7D80830895EF92FF920F931F930C
:1001E000CF93DF93EC0181E0888F9B8D8C8D9813EA
:1001F00005C0E889F989808185FD26C0F62E0B8D22
:1002000010E00F5F1F4F0F731127E02E8C8DE81247
:100210000CC00FB607FCFACFE889F989808185FF09
:10022000F5CFCE010E94CA00F1CF8B8DFE01E80F01
:10023000F11DE35AFF4FF0829FB7F8940B8FEA89C4
:10024000FB89808180620AC09FB7F894EE89FF899C
:100250006083E889F98980818370806480839FBF8F
:1002600081E090E0DF91CF911F910F91FF90EF908F
:100270000895CF93DF93EC01888D8823C9F0EA8934
:10028000FB89808185FD05C0A889B9898C9186FD8F
:100290000FC00FB607FCF5CF808185FFF2CFA8898C
:1002A000B9898C9185FFEDCFCE010E94CA00E7CFBE
:1002B000DF91CF9108958F929F92AF92BF920F934B
:1002C0001F93CF93DF93CDB7DEB7A1970FB6F89406
:1002D000DEBF0FBECDBF19A2423008F44AE08E0146
:1002E0000F5D1F4F842E912CA12CB12CA5019401E0
:1002F0000E945F03E62FB901CA0101501109EA30DB
:1003000014F4E05D01C0E95CD801EC93232B242BAD
:10031000252B61F70115110571F0F80101900020FE
:10032000E9F73197AF01401B510BB80183E291E02F
:100330000E945F0002C080E090E0A1960FB6F894A2
:10034000DEBF0FBECDBFDF91CF911F910F91BF9048
:10035000AF909F908F9008950E9487031F920F92F5
:100360000FB60F9211242F933F934F935F936F9388
:100370007F938F939F93AF93BF93EF93FF9383E20A
:1003800091E00E94CA00FF91EF91BF91AF919F91C0
:100390008F917F916F915F914F913F912F910F902E
:1003A0000FBE0F901F9018951F920F920FB60F92CD
:1003B00011242F938F939F93EF93FF93E091330139
:1003C000F09134018081E0913901F0913A0182FD90
:1003D00012C0908180913C018F5F8F7320913D010D
:1003E000821751F0E0913C01F0E0ED5DFE4F958FFA
:1003F00080933C0101C08081FF91EF919F918F918B
:100400002F910F900FBE0F901F9018951F920F9273
:100410000FB60F9211242F933F938F939F93AF9317
:10042000BF9380911F0190912001A0912101B09173
:10043000220130911E0123E0230F2D3720F4019675
:10044000A11DB11D05C026E8230F0296A11DB11DF7
:1004500020931E0180931F0190932001A0932101FE
:10046000B093220180911A0190911B01A0911C016F
:10047000B0911D010196A11DB11D80931A019093A9
:100480001B01A0931C01B0931D01BF91AF919F91DF
:100490008F913F912F910F900FBE0F901F90189545
:1004A0001F920F920FB60F921124CF92DF92EF920C
:1004B000FF922F933F934F935F936F937F938F930D
:1004C0009F93AF93BF93EF93FF93C0901801D09089
:1004D00019010D2C000CEE08FF08F7FE0EC06DE2AE
:1004E00083E291E00E94EC0066277727CB016C192C
:1004F0007D098E099F094AE003C04AE0C701B601A1
:100500000E945B0142E050E062E171E083E291E031
:100510000E945F008091180190911901892B49F088
:100520008091160190911701019690931701809385
:1005300016011092190110921801FF91EF91BF91CD
:10054000AF919F918F917F916F915F914F913F916B
:100550002F91FF90EF90DF90CF900F900FBE0F90F4
:100560001F9018951F920F920FB60F9211248F9320
:100570009F93809118019091190101969093190110
:10058000809318019F918F910F900FBE0F901F9035
:100590001895E3E2F1E01382128288EE93E0A0E086
:1005A000B0E084839583A683B78384E091E0918350
:1005B000808385EC90E09587848784EC90E0978732
:1005C000868780EC90E0918B808B81EC90E0938B20
:1005D000828B82EC90E0958B848B86EC90E0978BFD
:1005E000868B118E128E138E148EE0ECF1E0168243
:1005F0001782108611861286138614861586168633
:100600001786108A118A128A138A148A158A089505
:100610008091B00083668093B0008091B1008A60C1
:100620008093B10080917000816080937000789415
:1006300084E38093B3008AE18093B4005D9A809153
:10064000680084608093680080916D008062809370
:100650006D00E0913301F091340182E08083E091FC
:100660002F01F09130011082E0913101F0913201BF
:100670008FEC808310923B01E0913701F0913801BB
:1006800086E08083E0913501F091360180818061C0
:100690008083E0913501F09136018081886080830C
:1006A000E0913501F0913601808180688083E0918E
:1006B0003501F091360180818F7D8083FFCFA1E2EB
:1006C0001A2EAA1BBB1BFD010DC0AA1FBB1FEE1FCC
:1006D000FF1FA217B307E407F50720F0A21BB30B17
:1006E000E40BF50B661F771F881F991F1A9469F793
:1006F00060957095809590959B01AC01BD01CF01EF
:100700000895EE0FFF1F0590F491E02D099481E00C
:0C07100090E0F8940C948C03F894FFCF58
:10071C0000000000EC005F008D003901BE009C0061
:06072C00B0000D0A000000
:00000001FF
