:100000000C9415030C943D030C943D030C943D0398
:100010000C943D030C943D030C943D030C943D0360
:100020000C943D030C943D030C943D030C943D0350
:100030000C943D030C943D030C943D030C943D0340
:100040000C94E2150C943D030C9425110C94FF10B4
:100050000C943D030C943D030C943D030C943D0320
:100060000C947A090C943D03EF03038002CF030044
:10007000C130ED0464031281E803850078CB0539B3
:100080002C003402F70120EA020000C00123C10164
:1000900010C5023E28C701863601483701003A01E3
:1000A00055B1020018B603088227F20100260101AB
:1000B000E00F0F312B0C0E084EF1370710030E091D
:1000C00000E10F000E1403110731C148080F0C3175
:1000D000360F118029800000000000240027002A2C
:1000E00000000000080002010000030407000000F7
:1000F000000000000000000000003E5B4F5B3E3E41
:100100006B4F6B3E1C3E7C3E1C183C7E3C181C57C3
:100110007D571C1C5E7F5E1C00183C1800FFE7C367
:10012000E7FF0018241800FFE7DBE7FF30483A0636
:100130000E2629792926407F050507407F05253FA2
:100140005A3CE73C5A7F3E1C1C08081C1C3E7F148E
:10015000227F22145F5F005F5F06097F017F0066D8
:1001600089956A606060606094A2FFA29408047E32
:10017000040810207E201008082A1C08081C2A08E1
:10018000081E101010100C1E0C1E0C30383E38309B
:10019000060E3E0E06000000000000005F0000009A
:1001A00007000700147F147F14242A7F2A122313C8
:1001B00008646236495620500008070300001C22DC
:1001C00041000041221C002A1C7F1C2A08083E080E
:1001D000080080703000080808080800006060000F
:1001E00020100804023E5149453E00427F40007203
:1001F000494949462141494D331814127F1027457A
:100200004545393C4A494931412111090736494997
:100210004936464949291E000014000000403400B8
:10022000000008142241141414141400412214086C
:1002300002015909063E415D594E7C1211127C7F24
:10024000494949363E414141227F4141413E7F4932
:100250004949417F090909013E414151737F08081D
:10026000087F00417F41002040413F017F08142268
:10027000417F404040407F021C027F7F0408107F86
:100280003E4141413E7F090909063E4151215E7FC1
:1002900009192946264949493203017F01033F4094
:1002A00040403F1F2040201F3F4038403F6314081C
:1002B000146303047804036159494D43007F4141AD
:1002C000410204081020004141417F040201020460
:1002D0004040404040000307080020545478407FCD
:1002E000284444383844444428384444287F385407
:1002F00054541800087E090218A4A49C787F0804AE
:10030000047800447D40002040403D007F10284498
:100310000000417F40007C047804787C0804047865
:100320003844444438FC1824241818242418FC7C2D
:1003300008040408485454542404043F44243C4012
:1003400040207C1C2040201C3C4030403C44281075
:1003500028444C9090907C4464544C4400083641AE
:10036000000000770000004136080002010204028C
:100370003C2623263C1EA1A161123A4040207A3837
:100380005454555921555579412254547842215598
:1003900054784020545579400C1E527212395555EC
:1003A0005559395454545939555454580000457CC2
:1003B000410002457D420001457C407D1211127DC5
:1003C000F0282528F07C545545002054547C547C5A
:1003D0000A097F4932494949323A4444443A324A47
:1003E0004848303A4141217A3A42402078009DA065
:1003F000A07D3D4242423D3D4040403D3C24FF24E3
:1004000024487E4943662B2FFC2F2BFF0929F62019
:10041000C0887E090320545479410000447D413056
:1004200048484A32384040227A007A0A0A727D0DE2
:1004300019317D2629292F28262929292630484D9A
:100440004020380808080808080808382F10C8ACE9
:10045000BA2F102834FA00007B000008142A142256
:1004600022142A14085500550055AA55AA55AAFF6A
:1004700055FF55FF000000FF00101010FF0014147E
:1004800014FF001010FF00FF1010F010F0141414EF
:10049000FC001414F700FF0000FF00FF1414F40424
:1004A000FC141417101F10101F101F1414141F0019
:1004B000101010F0000000001F101010101F10107E
:1004C0001010F010000000FF10101010101010108D
:1004D00010FF10000000FF140000FF00FF00001FCD
:1004E00010170000FC04F414141710171414F4046B
:1004F000F40000FF00F714141414141414F700F798
:10050000141414171410101F101F141414F41410C2
:1005100010F010F000001F101F0000001F1400005A
:1005200000FC140000F010F01010FF10FF14141461
:10053000FF141010101F00000000F010FFFFFFFF5D
:10054000FFF0F0F0F0F0FFFFFF0000000000FFFF01
:100550000F0F0F0F0F3844443844FC4A4A4A347E88
:1005600002020606027E027E026355494163384458
:10057000443C04407E201E2006027E020299A5E72C
:10058000A5991C2A492A1C4C7201724C304A4D4DC7
:10059000303048784830BC625A463D3E49494900AF
:1005A0007E0101017E2A2A2A2A2A44445F444440CB
:1005B000514A444040444A51400000FF0103E0805A
:1005C000FF000008086B6B083612362436060F0948
:1005D0000F06000018180000001010003040FF0146
:1005E00001001F01011E00191D1712003C3C3C3C7C
:1005F00000000000000102040810204080010204F5
:100600000810200102040810200000000025002826
:10061000002B000404040404040404020202020285
:100620000203030303030300FC1811241FBECFEFD2
:10063000D8E0DEBFCDBF11E0A0E0B1E0E0E9F4E337
:1006400002C005900D92AE35B107D9F723E0AEE5B3
:10065000B1E001C01D92A830B207E1F713E0C5E197
:10066000D3E004C02197FE010E943B1AC431D10798
:10067000C9F70E945F170C94461A0C940000089565
:10068000EF92FF920F931F93DC01ED91FC9100A07C
:10069000F1A1E02D09951F910F91FF90EF90089522
:1006A0000F931F93DC01ED91FC91068CF78DE02DEB
:1006B00009951F910F9108950F931F93DC01ED9100
:1006C000FC91048CF58DE02D09951F910F910895F3
:1006D000DC01ED91FC910084F185E02D09942F92CD
:1006E0003F924F925F926F927F928F929F92AF92C2
:1006F000BF92CF92DF92EF92FF920F931F93CF930F
:10070000DF9300D000D000D0CDB7DEB72C017E83C0
:100710006D836A015901C801FC82EB824801841A89
:10072000950A97FE03C091948194910835012D811B
:100730003E81621A730A77FE03C071946194710856
:10074000681479045CF43A2D2B2D5C01832F922FD1
:100750003D812E81DE82CD82C32ED22EAD81BE811F
:10076000AA16BB065CF43C2D2D2D6C01832F922F15
:100770003D812E81BE82AD82A32EB22E85012D81B8
:100780003E81021B130B1C012C183D0837FE03C0D1
:10079000319421943108780117FF03C03FEFE31A29
:1007A000F30AF594E794C816D9062CF08FEF9FEF63
:1007B0009A83898304C0A1E0B0E0BA83A9832D8124
:1007C0003E81A216B30624F1D201ED91FC9104847E
:1007D000F585E02D2B813C816814790424F44D814A
:1007E0005E81B60103C0A6016D817E81C2010995BB
:1007F000E218F308F7FE06C029813A81C20ED31E23
:10080000E00EF11E8D819E8101969E838D83D7CF50
:1008100026960FB6F894DEBF0FBECDBFDF91CF9105
:100820001F910F91FF90EF90DF90CF90BF90AF900E
:100830009F908F907F906F905F904F903F902F9000
:10084000089585ED8093BC008091BC0084FDFCCFB1
:100850001092F80108954091AC01262F30E0240F4A
:10086000311D21323105DCF42091F8012430C9F426
:10087000FC0180E090E0861758F43091AC012191A2
:10088000DC01A657BE4FA30FB11D2C930196F3CFE9
:100890008091AC01680F6093AC0180E0089581E025
:1008A000089582E0089508950895E0918901809166
:1008B0008801E81730F4F0E0E859FE4F808190E0BD
:1008C00008958FEF9FEF089590918901809188019D
:1008D000981750F4E92FF0E0E859FE4F208130E0FE
:1008E0009F5F9093890102C02FEF3FEFC9010895E8
:1008F0008091880190E020918901821B91090895DF
:10090000CF92DF92EF92FF920F931F93CF93DF93DB
:100910007C01CB018A012091F901222389F0EB01AE
:100920006B01C40ED51ECC15DD0569F06991D701A8
:10093000ED91FC910190F081E02DC7010995F3CF75
:10094000642F0E942B04C801DF91CF911F910F915A
:10095000FF90EF90DF90CF900895CF93DF931F9299
:10096000CDB7DEB769832091F9012223D1F0209120
:100970001C02203240F021E030E0FC01338322836E
:1009800080E090E015C08091FA01E82FF0E0E5509A
:10099000FE4F998190838F5F8093FA0180931C02B0
:1009A00005C061E0CE0101960E942B0481E090E039
:1009B0000F90DF91CF910895089580E090E0089521
:1009C0001F93CF93DF93EC01162FE881F981028406
:1009D000F385E02D0995111102C060E201C061E2CA
:1009E000CE010E942C17E881F9810688F789E02D55
:1009F000CE01DF91CF911F9109948F929F92AF9278
:100A0000BF92CF92DF92EF92FF920F931F93CF93FB
:100A1000DF93EC01490181E0881A9108860E971E48
:100A2000C401A0E0B0E04B01A12CB12C54019924E9
:100A30008824882A992AAA2ABB2A680181E0C81A30
:100A4000D108C40ED51EC601A0E0B0E06A01E12CB9
:100A5000F12C7601DD24CC24C82AD92AEA2AFB2AE3
:100A60006AE2CE010E942C1729A16B2D77278827D7
:100A7000992727FF18C06EBD0DB407FEFDCFC50135
:100A8000AA27BB278EBD0DB407FEFDCFBB27AB2D1C
:100A90009A2D892D8EBD0DB407FEFDCF8EBC0DB4F1
:100AA00007FEFDCF14C0CE010E942C16B501882789
:100AB0009927CE010E942C1699278B2D7A2D692D0E
:100AC000CE010E942C16682DCE010E942C166BE2DE
:100AD000CE010E942C1729A16F2D772788279927EF
:100AE00027FF18C06EBD0DB407FEFDCFC701AA27B2
:100AF000BB278EBD0DB407FEFDCFBB27AF2D9E2DAE
:100B00008D2D8EBD0DB407FEFDCFCEBC0DB407FEFE
:100B1000FDCF14C0CE010E942C16B701882799275B
:100B2000CE010E942C1699278F2D7E2D6D2DCE0182
:100B30000E942C166C2DCE010E942C166CE2CE0168
:100B4000DF91CF911F910F91FF90EF90DF90CF90A9
:100B5000BF90AF909F908F900C942C171F93CF93C2
:100B6000DF93EC0163706D8B6230C1F0633001F193
:100B7000613051F080EF90E09987888780E491E0C0
:100B80009B878A8718E41DC080E491E09987888755
:100B900080EF90E09B878A8718E213C080EF90E097
:100BA0009987888780E491E09B878A8718E809C045
:100BB00080E491E09987888780EF90E09B878A871F
:100BC00018EEE881F9810284F385E02DCE010995C4
:100BD00066E3CE010E942C17612FCE010E942C16D5
:100BE000E881F9810688F789E02DCE01DF91CF9168
:100BF0001F910994BF92CF92DF92EF92FF920F93D1
:100C00001F93CF93DF93EC014115510561057105E9
:100C100021F440E052E16AE770E04A8F5B8F6C8F0D
:100C20007D8F8E8D87FD07C061E00E94A41161E079
:100C30008E8D0E94571161E08F8D0E94A41160E09B
:100C40008F8D0E94571189A187FD19C061E08AA18B
:100C50000E94A41160E08AA10E94571161E089A15D
:100C60000E94A41161E089A10E9457118BA187FD08
:100C700003C060E00E94A41189A187FF33C01FB7A1
:100C8000F8948091D101811127C0EDE1F6E08491C3
:100C9000EFEFF5E09491E82FF0E0EE0FFF1FE9523F
:100CA000FF4FA591B491EC91E92321F461E08AE032
:100CB0000E94571161E08AE00E94A4118CB5806106
:100CC0008CBD8CB580648CBD61E08DE00E94A41168
:100CD00061E08BE00E94A4118091D1018F5F80932D
:100CE000D1011FBF88A187FD21C061E00E94A4112E
:100CF00061E088A10E94571164E670E080E090E016
:100D00000E94E01160E088A10E94571164E670E043
:100D100080E090E00E94E01161E088A10E945711FC
:100D200068EC70E080E090E00E94E011E881F981D9
:100D30000284F385E02DCE01099508E610E07801E4
:100D40008FEFE81AF80AF8016491662321F1CE01C9
:100D50000E942C170E5F1F4FF701E490FE2DFF77C6
:100D6000BF2E6801FF2EFA948FEFF81649F0F601B6
:100D70006491CE010E942C16FFEFCF1ADF0AF3CF49
:100D80000B0D111DE7FEDBCF68E770E080E090E01F
:100D90000E94E011D4CFE881F9810688F789E02D1F
:100DA000CE01099580EF90E09987888780E491E0F3
:100DB0009B878A87DF91CF911F910F91FF90EF90D2
:100DC000DF90CF90BF9008958F929F92AF92BF9285
:100DD000CF92DF92EF92FF920F931F93CF93DF9307
:100DE000EA0120910201309103018D38910534F020
:100DF000213E31057CF42F5F3F4F08C08A359105B5
:100E00004CF42031310534F0215031093093030185
:100E10002093020120910001309101016E3671058D
:100E20001CF42F5F3F4F05C08739910534F02150E6
:100E300031093093010120930001A0900001B0908E
:100E40000101C0900201D090030186EC92E00E9463
:100E5000BC14A5014A5051098E0125E130E0B601CC
:100E600086EC92E00E94E9127E0100E010E023E0AF
:100E70004AE050E0B501C6010E94D60D86EC92E032
:100E80000E94FD12C0900001D090010180900201EB
:100E90009090030186EC92E00E94BC1454018BE018
:100EA000A81AB108A601455051090AE010E026E150
:100EB00030E0B50186EC92E00E9457160FEF1FEF6D
:100EC00021E045E050E0B601C4010A960E94D60D2B
:100ED00022E045E050E0B601C5010E94D60D86EC47
:100EE00092E00E94FD126091020170910301409115
:100EF0000001509101014B5051099B012C5F3F4F64
:100F000064507109E12CF12C8A0186EC92E00E9478
:100F10007B13209100013091010180910201909199
:100F20000301AC0148505109B9016A5071092650BA
:100F300031097B018A0104970E94FE0B6091020136
:100F400070910301409100015091010146505109F7
:100F50009B01285031096C507109E12CF12C8A0158
:100F600086EC92E00E947B132091000130910101F8
:100F70008091020190910301AC0140515109B901E6
:100F800066507109225031097B018A010D970E9438
:100F9000FE0B40910001509101016091020170919E
:100FA0000301605171098A01025011094E5F5F4FC0
:100FB000E12CF12C9B0186EC92E00E947B132091A6
:100FC0000001309101018091020190910301AC0177
:100FD00040515109B9016A5F7F4F2E5F3F4F7B013E
:100FE0008A010D970E94FE0B60910201709103012E
:100FF00040910001509101014A5F5F4F9B012850D1
:1010000031096C507109E12CF12C8A0186EC92E0D7
:101010000E947B1320910001309101018091020117
:1010200090910301AC0148505109B901665F7F4FAF
:101030002A5F3F4F7B018A0104970E94FE0B60915B
:101040000201709103014091000150910101455F3F
:101050005F4F9B012C5F3F4F64507109E12CF12CD5
:101060008A0186EC92E00E947B13609100017091EE
:10107000010140910201509103019B01255F3F4F07
:10108000CA0108964C5F5F4F6A5F7F4F79018C0100
:101090000E94FE0B609102017091030140910001DA
:1010A000509101014A5F5F4F9B01285F3F4F645F92
:1010B0007F4FE12CF12C8A0186EC92E00E947B1399
:1010C0002091000130910101809102019091030172
:1010D000AC01405F5F4FB9016A5F7F4F2E5F3F4FAA
:1010E0007B018A010D960E94FE0B409100015091F8
:1010F00001016091020170910301605F7F4F8A01DD
:10110000025011094E5F5F4FE12CF12C9B0186ECE0
:1011100092E00E947B1320910001309101018091A7
:10112000020190910301AC01405F5F4FB90166502D
:101130007109225031097B018A010D960E94FE0B34
:1011400060910201709103014091000150910101F1
:10115000465051099B01285F3F4F645F7F4FE12C50
:10116000F12C8A0186EC92E00E947B132091000111
:10117000309101018091020190910301AC01485F1F
:101180005F4FB9016A507109265031097B018A010C
:1011900004960E94FE0B6091020170910301409140
:1011A0000001509101014C5051099B012B5F3F4FB1
:1011B00065507109E12CF12C8A0186EC92E00E94C5
:1011C0007B136091020170910301409100015091E5
:1011D0000101475051099B01295031096D50710996
:1011E0008A0186EC92E00E947B13409100015091AD
:1011F00001016091020170910301615171098A013D
:10120000035011094D5F5F4F9B0186EC92E00E94F5
:101210007B13609102017091030140910001509194
:101220000101495F5F4F9B01295031096D507109E0
:101230008A0186EC92E00E947B136091020170911A
:1012400003014091000150910101445F5F4F9B01F8
:101250002C5F3F4F655071098A0186EC92E00E9435
:101260007B13609102017091030140910001509144
:101270000101495F5F4F9B01275F3F4F635F7F4FD6
:101280008A0186EC92E00E947B134091000150910C
:10129000010160910201709103016F5E7F4F8A012D
:1012A000035011094C5F5F4F9B0186EC92E00E9456
:1012B0007B136091020170910301409100015091F4
:1012C0000101475051099B01275F3F4F635F7F4FEB
:1012D0008A0186EC92E00E947B13DF91CF911F91EF
:1012E0000F91FF90EF90DF90CF90BF90AF909F90C5
:1012F0008F9008951F920F920FB60F9211242F9383
:101300003F934F935F936F937F938F939F93AF938D
:10131000BF93EF93FF938091B900887F803609F4E3
:101320009CC068F5883209F45BC090F4803109F400
:1013300054C038F4882309F4F6C0883009F44DC04D
:10134000F6C0883109F44CC0803209F45DC0EFC0AA
:10135000803409F468C048F4803309F455C08833F8
:1013600009F0E5C08093F601D8C0803509F44FC07C
:10137000883509F45DC0883409F0D9C0D6C08839F1
:1013800009F4C7C0A8F4883709F467C038F4883670
:1013900009F463C0803709F460C0C9C0883809F413
:1013A000B8C0803909F45FC0803809F0C0C05BC0A4
:1013B000803B09F486C038F4803A09F466C0883A64
:1013C00009F47FC0B4C0803C09F4A7C0883C09F48C
:1013D000A4C0883B09F48AC0AAC08091D30110C080
:1013E0009091F5018091F401981770F5E091F50165
:1013F00081E08E0F8093F501F0E0EC52FE4F80818A
:101400008093BB0085EC86C08093F6018EC0E0918E
:10141000F50181E08E0F8093F5018091BB00F0E033
:10142000EC52FE4F80839091F5018091F4016EC0E3
:10143000E091F50181E08E0F8093F5018091BB0072
:10144000F0E0EC52FE4F80838091F70181116DC076
:1014500081E08093D20184EA61C083E08093F80147
:101460001092D001CFCF8091D001803208F051C0CE
:10147000E091D00181E08E0F8093D0018091BB007C
:10148000F0E0E055FE4F8083BDCF85EC8093BC003B
:101490001092F8018091D001803230F4E091D001B7
:1014A000F0E0E055FE4F10826091D00170E0E091D5
:1014B000AE01F091AF0180EB91E009951092D0015F
:1014C00036C084E08093F8011092AD011092AC0117
:1014D000E091AA01F091AB0109958091AC018111D5
:1014E00005C081E08093AC0110928A01E091AD01CA
:1014F00081E08E0F8093AD01F0E0E657FE4F8081D2
:101500008093BB009091AD018091AC01981708F4D5
:1015100079CF85E88093BC000AC085EC8093BC003D
:101520001092F80104C01092F6010E942104FF916C
:10153000EF91BF91AF919F918F917F916F915F914B
:101540004F913F912F910F900FBE0F901F901895C4
:10155000CF92DF92EF92FF920F931F93CF93DF937F
:101560006C017A018B01C0E0D0E0CE15DF0581F07F
:10157000D8016D918D01D601ED91FC910190F08122
:10158000E02DC6010995892B11F02196EECF7E0141
:10159000C701DF91CF911F910F91FF90EF90DF90E6
:1015A000CF900895FC01538D448D252F30E0842F7A
:1015B00090E0821B930B541710F0CF96089501977B
:1015C0000895FC01918D828D981761F0828DDF0165
:1015D000A80FB11D5D968C91928D9F5F9F73928F26
:1015E00090E008958FEF9FEF0895FC01918D828D1B
:1015F000981731F0828DE80FF11D858D90E00895E8
:101600008FEF9FEF0895FC01918D228D892F90E03F
:10161000805C9F4F821B91098F7399270895FC016D
:10162000848DDF01A80FB11DA35ABF4F2C91848D6B
:1016300090E001968F739927848FA689B7892C93A0
:10164000A089B1898C91837080648C93938D848DF3
:10165000981306C00288F389E02D80818F7D8083F6
:101660000895EF92FF920F931F93CF93DF93EC01B6
:1016700081E0888F9B8D8C8D981305C0E889F9894E
:10168000808185FD26C0F62E0B8D10E00F5F1F4F69
:101690000F731127E02E8C8DE8120CC00FB607FCDB
:1016A000FACFE889F989808185FFF5CFCE010E94C4
:1016B0000F0BF1CF8B8DFE01E80FF11DE35AFF4FA9
:1016C000F0829FB7F8940B8FEA89FB898081806252
:1016D0000AC09FB7F894EE89FF896083E889F98989
:1016E00080818370806480839FBF81E090E0DF9180
:1016F000CF911F910F91FF90EF900895CF93DF93BB
:10170000EC01888D8823C9F0EA89FB89808185FDF9
:1017100005C0A889B9898C9186FD0FC00FB607FC5A
:10172000F5CF808185FFF2CFA889B9898C9185FF9B
:10173000EDCFCE010E940F0BE7CFDF91CF9108953F
:101740000E94411A282F30911C02313208F04AC001
:101750008091F8018111FCCF90911B0242E04093EF
:10176000F8012093F7012FEF2093F6011092F50175
:101770003093F401EBEFF1E0A4EDB1E020E032179B
:1017800021F041914D932F5FFACF1092D301209118
:10179000D301990F922B9093D3019091D201913064
:1017A00061F41092D2019091D3019093BB0090917B
:1017B000BC0093FDF8CF95EC01C095EE9093BC0072
:1017C0009091F8019230E1F39091F6019F3F79F00A
:1017D0008091F601803241F08091F601803331F042
:1017E00084E005C081E003C082E001C083E0109284
:1017F000FA0110921C021092F90108952F923F9263
:101800004F925F926F927F928F929F92AF92BF9210
:10181000CF92DF92EF92FF920F931F93CF93DF93BC
:10182000CDB7DEB7AA970FB6F894DEBF0FBECDBF17
:101830009AA789A75B016A01490117012617370793
:101840005CF4E616F706BCF4962F8B2D5901E9A43B
:10185000FAA45AA749A707C0E216F3060CF0A4C1E0
:10186000982D892D76012A143B0484F068014101EA
:10187000292E382E13C08D2DC9A4DAA449A78AA712
:101880007801892D4B01A22EB82E08C04501C9A4AC
:10189000DAA45101292E382E09A71AA786EC92E066
:1018A0000E94BC14A214B30451F529A53AA5C2168E
:1018B000D3065CF099A58AA52C153D0514F49C2D42
:1018C0008D2DC9A4DAA499A78AA7EC14FD0444F0CD
:1018D00049A55AA54E155F0514F4FAA6E9A67601A6
:1018E00029A53AA52E193F092F5F3F4F00E010E0D0
:1018F000A501B70186EC92E00E94D61239C1C6015B
:1019000069A57AA5861B970B94012A193B09D70173
:10191000A61BB70BBC83AB83A1014A195B0958878F
:101920004F83B7016C197D097C876B87D101A8199A
:10193000B909BC8BAB8B8214930431F0A4014150E4
:101940005109588F4F8B02C0988E8F8ABA82A98214
:10195000412C512C32011F86188A198A1A8AA90132
:10196000330F660B770B498F5A8F6B8F7C8F2F81CC
:101970003885032E000C440B550B2D8F3E8F4F8F57
:1019800058A3AC01990F660B770B49A35AA36BA31D
:101990007CA36B817C81072E000C880B990B6DA3B7
:1019A0007EA38FA398A789819A81AF89B88DA81744
:1019B000B9070CF44DC06F85788989899A89298D7A
:1019C0003A8D4B8D5C8D0E94FE19E9A4FAA4E20EBB
:1019D000F31EC301B2012D8D3E8D4F8D58A10E9483
:1019E000FE1969A57AA5260F371F8F859889A989C1
:1019F000BA8949A15AA16BA17CA1840F951FA61F8A
:101A0000B71F8F87988BA98BBA8B6DA17EA18FA1F1
:101A100098A5460E571E681E791E2E153F052CF4FC
:101A20009E2D8F2D7901292F382F2E193F092F5FD9
:101A30003F4F00E010E049815A81B70186EC92E007
:101A40000E94D61289819A8101969A838983ABCFAD
:101A500089819A8188199909AB85BC858A9F200163
:101A60008B9F500C9A9F500C1124052C000C66087B
:101A7000770889819A818A199B092B813C81829FF1
:101A80004001839F900C929F900C1124092C000C14
:101A9000AA08BB084B895C89052E000C660B770BE6
:101AA0004B8B5C8B6D8B7E8B6F817885072E000C4A
:101AB000880B990B6F83788789879A87CD01092EC8
:101AC000000CAA0BBB0B8B879C87AD87BE87032EB0
:101AD000000C440B550B2B833C834D835E83498163
:101AE0005A81241635060CF443C0C301B2012B8978
:101AF0003C894D895E890E94FE197601E20EF31E33
:101B0000C501B4012F81388549855A850E94FE1987
:101B100069A57AA5260F371F8B859C85AD85BE8567
:101B2000480E591E6A1E7B1E4B815C816D817E8131
:101B3000840E951EA61EB71E2E153F052CF49E2D55
:101B40008F2D7901292F382F2E193F092F5F3F4FF5
:101B500000E010E049815A81B70186EC92E00E94D2
:101B6000D61269817A816F5F7F4F7A836983B7CF9D
:101B700086EC92E0AA960FB6F894DEBF0FBECDBFFA
:101B8000DF91CF911F910F91FF90EF90DF90CF9059
:101B9000BF90AF909F908F907F906F905F904F908D
:101BA0003F902F900C94FD12780178CE2F923F92A7
:101BB0004F925F926F927F928F929F92AF92BF925D
:101BC000CF92DF92EF92FF920F931F93CF93DF9309
:101BD00000D000D000D0CDB7DEB76C015B015E83D2
:101BE0004D832801370181E090E04C01841A950A69
:101BF000CA01919581959109AC01440F551F5A83F3
:101C00004983180153E0250E311CEE24E394F12C96
:101C1000822F81708B8322702C83C70101974D81A5
:101C20005E81841795070CF064C097FC0BC041508F
:101C300051095E834D8389819A8102969A838983B3
:101C4000880E991EC701880F991F0196880E991E4C
:101C50009B81992309F12D813E81220F331F2F5F34
:101C60003F4F240D351D8301A5018D819E81481BA9
:101C7000590BB6016E0D7F1D86EC92E00E94E912B1
:101C80009101A5014E195F096D817E816C0D7D1D4D
:101C900086EC92E00E94E9129C81911107C09FEFAF
:101CA000E91AF90A22E0220E311CB7CF2D813E81BC
:101CB000220F331F2F5F3F4F240D351D8301A501D8
:101CC0008D819E81481B590BB6016E197F0986ECE8
:101CD00092E00E94E9129101A5014E195F09B60137
:101CE0008D819E81681B790B86EC92E00E94E9123F
:101CF000D6CF26960FB6F894DEBF0FBECDBFDF91CC
:101D0000CF911F910F91FF90EF90DF90CF90BF90F8
:101D1000AF909F908F907F906F905F904F903F908B
:101D20002F900895009769F0FC0101900020E9F7D9
:101D30003197AF01481B590BBC018DE192E00C9427
:101D4000A80A80E090E008958F929F92AF92BF9290
:101D50000F931F93CF93DF93CDB7DEB7A1970FB645
:101D6000F894DEBF0FBECDBF19A2423008F44AE09E
:101D70008E010F5D1F4F842E912CA12CB12CA5013B
:101D800094010E94DC19E62FB901CA010150110922
:101D9000EA3014F4E05D01C0E95CD801EC93232B38
:101DA000242B252B61F7C8010E94920EA1960FB635
:101DB000F894DEBF0FBECDBFDF91CF911F910F9181
:101DC000BF90AF909F908F9008952F923F924F9227
:101DD0005F926F927F928F929F92AF92BF92CF92BB
:101DE000DF92EF92FF920F931F93CF93DF93CDB7C4
:101DF000DEB76B970FB6F894DEBF0FBECDBF9B8FDB
:101E00008A8F5B011A01D22E1F830E833701C9828C
:101E1000DC0158962D913C9159972115310509F017
:101E2000E6C018968D919C911997681779070CF068
:101E3000CDC11A968D919C911B97481759070CF0AC
:101E4000C5C18C2C912CFB0126E0C29EE00DF11D3A
:101E50001124FB87EA871E161F060CF0B7C1A401E8
:101E600083E0440F551F8A95E1F75D874C87CA01CF
:101E7000820D931D181619060CF0A8C157968C9167
:101E8000811104C05FEA5D1508F4D394AA8DBB8D5F
:101E9000ED91FC9111970284F385E02DCD01099518
:101EA000B5E0DB9EC0011124F5013596FF87EE8772
:101EB000BB82AA8225019C012A193B09398B288BF8
:101EC000A101485F5F4F5B8B4A8BE889F989E40D7C
:101ED000F51DEB50FF4F5491588761013D822C82D4
:101EE000888580FF13C0AA8DBB8DED91FC91B981CF
:101EF000B13031F40484F585E02D2E813F8116C088
:101F00000684F785E02DEE80FF801AC0EE81FF8108
:101F1000E615F705F1F0AA8DBB8DED91FC91B98125
:101F2000B13051F40484F585E02D9301A601B2018E
:101F30008A8D9B8D09950DC00684F785E02D730170
:101F4000840194014C815D816A817B818A8D9B8DA6
:101F50000995E885E695E887FFEFCF1ADF0A2C811F
:101F60003D81280D391D3D832C834A895B89C41628
:101F7000D50609F0B5CF5FEF451A550A8A819B81D6
:101F8000880D991D9B838A83AE85BF854A165B06A3
:101F900009F09BCFEE81FF81E615F70509F4F4C047
:101FA000EA8DFB8DA081B181F981F13079F4B50121
:101FB0006B5F7F4F5096ED91FC915197830128E024
:101FC00030E0A1018A8D9B8D0995DEC06A857B85F5
:101FD000681979091E96ED91FC911F9773010C8584
:101FE0001D859401A1018A8D9B8D0995CDC0F901B4
:101FF0003496E491DE1AF901329685919491B7E016
:10200000DB9E800D911D1124F901259134913B8BAC
:102010002A8BFC01259134912901FC013296C49050
:10202000319634913E87329614913196D4904981FD
:10203000423058F0612E012E000C77088D2D0D2CAA
:10204000000C990B9987888704C019861886612C23
:10205000712CAA8DBB8DED91FC9111970284F385B3
:10206000E02DCD010995B9818B2E912C689CC00182
:10207000699C900D789C900D1124FC01EA0DFB1DCC
:10208000FD87EC871A82712C612CE12F110FFF0B59
:1020900095012E0F3F1F3B872A87AC0CB11CA50171
:1020A0004E0F5F1F5F8B4E8BC1018D0D911DD7FCB5
:1020B0009A95998F888F9E85691608F065C0862D40
:1020C00090E048855985480F591F489D9001499DCA
:1020D000300D589D300D1124D101A20FB31FB98BC3
:1020E000A88BEC85FD85FD83EC83AA84BB84DA8014
:1020F000FA85DF1A288D398D280F391F3D8B2C8BDF
:102100008D2D8A0D4E895F89A416B506C1F18770A1
:1021100041F4C2010196EA89FB89E40DF51D749032
:102120002C0177FE21C0AA8DBB8DED91FC91B98168
:10213000B13061F40484F585E02D2E813F814C8916
:102140005D89B5018A8D9B8D09950EC00684F78542
:10215000E02DEE80FF8084019401488959896C81CB
:102160007D818A8D9B8D0995770CEFEFAE1ABE0AA3
:102170002C813D81280D391D3D832C83C1CF3A81AF
:102180003C0D3A83639497CFAA8DBB8DED91FC9162
:1021900011970688F789E02DCD016B960FB6F8945C
:1021A000DEBF0FBECDBFDF91CF911F910F91FF908A
:1021B000EF90DF90CF90BF90AF909F908F907F90E7
:1021C0006F905F904F903F902F9009946B960FB651
:1021D000F894DEBF0FBECDBFDF91CF911F910F915D
:1021E000FF90EF90DF90CF90BF90AF909F908F9037
:1021F0007F906F905F904F903F902F9008951F9227
:102200000F920FB60F9211242F933F934F935F932A
:102210006F937F938F939F93AF93BF93EF93FF93AE
:102220008DE192E00E940F0BFF91EF91BF91AF9172
:102230009F918F917F916F915F914F913F912F91DE
:102240000F900FBE0F901F9018951F920F920FB610
:102250000F9211242F938F939F93EF93FF93E0910D
:102260002D02F0912E028081E0913302F091340230
:1022700082FD12C09081809136028F5F8F73209112
:102280003702821751F0E0913602F0E0E35EFD4F35
:10229000958F8093360201C08081FF91EF919F91CD
:1022A0008F912F910F900FBE0F901F90189590E077
:1022B000FC01EF51FF4F2491FC01EB50FA4F349198
:1022C000FC01ED5EF94FE491EE2309F43CC02223BA
:1022D00039F1233091F038F42130A9F0223001F5A2
:1022E00084B58F7D12C0273091F02830A1F02430C2
:1022F000B9F4809180008F7D03C0809180008F773A
:10230000809380000DC084B58F7784BD09C0809113
:10231000B0008F7703C08091B0008F7D8093B000B4
:10232000F0E0EE0FFF1FE75FF94FA591B4919FB763
:10233000F894611104C08C913095382302C0EC915F
:102340003E2B3C939FBF0895CF93DF9390E0FC0119
:10235000EB50FA4F2491FC01ED5EF94F84918823F4
:1023600061F190E0880F991FFC01E952FF4FC59180
:10237000D491FC01E75FF94FA591B491611109C0B7
:102380009FB7F8948881209582238883EC912E232F
:102390000BC0623061F49FB7F8948881322F30957A
:1023A00083238883EC912E2B2C939FBF06C08FB77D
:1023B000F894E8812E2B28838FBFDF91CF91089569
:1023C0008F929F92AF92BF92CF92DF92EF92FF9245
:1023D0006B017C010E94BD154B015C01C114D1044D
:1023E000E104F104F1F00E94BD15DC01CB01881974
:1023F0009909AA09BB09883E9340A105B10570F36C
:1024000021E0C21AD108E108F10888EE880E83E0C5
:10241000981EA11CB11CC114D104E104F10419F7E8
:10242000DDCFFF90EF90DF90CF90BF90AF909F9067
:102430008F9008958F929F92AF92BF92CF92DF922A
:10244000EF92FF920F931F93CF93DF93EC016B01F9
:102450005A014901E881F9810284F385E02D09954B
:10246000E881F9810684F785E02D9401A501B60184
:10247000CE010995E881F9810688F789E02DCE0122
:10248000DF91CF911F910F91FF90EF90DF90CF9050
:10249000BF90AF909F908F900994AF92BF92CF92D0
:1024A000DF92EF92FF920F931F93CF93DF93EC0194
:1024B0007B016A015901E881F9810284F385E02DED
:1024C0000995E881F9810288F389E02D9501A6013B
:1024D000B701CE010995E881F9810688F789E02DD9
:1024E000CE01DF91CF911F910F91FF90EF90DF9080
:1024F000CF90BF90AF900994AF92BF92CF92DF92EE
:10250000EF92FF920F931F93CF93DF93EC017B0128
:102510006A015901E881F9810284F385E02D09956A
:10252000E881F9810088F189E02D9501A601B701C4
:10253000CE010995E881F9810688F789E02DCE0161
:10254000DF91CF911F910F91FF90EF90DF90CF908F
:10255000BF90AF900994CF92DF92EF92FF920F93CA
:102560001F93CF93DF93EC018B017A016901E8811E
:10257000F9810284F385E02D0995E881F9810484CD
:10258000F585E02D9601A701B801CE010995E881F6
:10259000F9810688F789E02DCE01DF91CF911F9157
:1025A0000F91FF90EF90DF90CF900994EF92FF9200
:1025B0000F931F93DC01ED91FC910684F785E02DCC
:1025C000780101E010E009951F910F91FF90EF90C5
:1025D0000895EF92FF920F931F93DC01ED91FC9110
:1025E0000684F785E02D7801890121E030E0099526
:1025F0001F910F91FF90EF900895FC0191A904A401
:10260000F5A5E02D8081892B808308950895FC0134
:102610006370658B8481958126813781613039F0C3
:10262000633029F091878087338722870895318727
:1026300020879387828708956F927F928F929F92CF
:10264000AF92BF92CF92DF92EF92FF920F931F93C0
:10265000CF93DF93EC014B015A0169013801E88106
:10266000F9810284F385E02D0995E881F9810288DA
:10267000F389E02D87019601A501B401CE010995EA
:10268000A501460D571D41505109E881F981028885
:10269000F389E02D9601B401CE010995E881F98115
:1026A0000088F189E02D9301A501B401CE010995BF
:1026B000C80CD91CB60161507109E881F981008804
:1026C000F189E02D9301A501CE010995E881F981F9
:1026D0000688F789E02DCE01DF91CF911F910F91F0
:1026E000FF90EF90DF90CF90BF90AF909F908F9032
:1026F0007F906F9009948F929F92AF92BF92CF92EA
:10270000DF92EF92FF920F931F93CF93DF934C01D1
:102710006B015A01E901DC01ED91FC91621773072D
:1027200081F40417150724F48B2D5801042F182F5A
:102730000A191B0998012F5F3F4F048CF58DE02D7E
:1027400012C04017510709F52617370724F48D2DBD
:102750006901C62FD82F9E012C193D092F5F3F4FCD
:10276000068CF78DE02D8701A501B601C4010995FE
:10277000DF91CF911F910F91FF90EF90DF90CF905D
:10278000BF90AF909F908F9008950284F385E02DC5
:102790000995D401ED91FC910488F589E02D9E0105
:1027A000A501B601C4010995D401ED91FC910688FB
:1027B000F789E02DC401DF91CF911F910F91FF9018
:1027C000EF90DF90CF90BF90AF909F908F90099443
:1027D000EF92FF920F931F93DC011A960D911C91BB
:1027E0001B9718962D913C911997ED91FC9100A0A3
:1027F000F1A1E02D7B0140E050E060E070E0099540
:102800001F910F91FF90EF9008954F925F926F92FA
:102810007F928F929F92AF92BF92CF92DF92EF9270
:10282000FF920F931F93CF93DF936C012B015A01FB
:1028300039014801DC01ED91FC910284F385E02D22
:102840000995E201640C751CD601ED91FC91C61549
:10285000D7055CF40088F189E02D87019401A5017A
:10286000BE01C60109952196EFCF0688F789E02DB4
:10287000C601DF91CF911F910F91FF90EF90DF90F4
:10288000CF90BF90AF909F908F907F906F905F9010
:102890004F9009948F929F92AF92BF92CF92DF9206
:1028A000EF92FF920F931F93CF93DF93EC015B01A5
:1028B0004A016901E881F9810284F385E02D0995D7
:1028C00095012C0D3D1D21503109E881F9810488C5
:1028D000F589E02D78018401A401B501CE010995A7
:1028E000E881F9810688F789E02DCE01DF91CF914B
:1028F0001F910F91FF90EF90DF90CF90BF90AF901E
:102900009F908F9009948F929F92AF92BF92CF9297
:10291000DF92EF92FF920F931F93CF93DF93EC011F
:102920005B014A0169017801E881F9810284F3853C
:10293000E02D0995C80CD91C860101501109E881C8
:10294000F9810488F589E02D9501A401B501CE0136
:102950000995E881F9810688F789E02DCE01DF919C
:10296000CF911F910F91FF90EF90DF90CF90BF908C
:10297000AF909F908F900994FC0181A187FF1EC0AA
:10298000428D538D648D758D80E092E1AAE7B0E0B1
:1029900020E0481759076A077B0740F4B695A795CA
:1029A000979587952F5F2630A1F727E091E0922732
:1029B000892F806A869591708CBD9DBD81A904A4E4
:1029C000F5A5E02D90818095892380830895AF92AD
:1029D000BF92CF92EF92FF920F931F93CF93DF930B
:1029E000EC01262F888D998D009709F040C06A3040
:1029F00059F41D861C862C898E859F8538E0239F7F
:102A0000800D911D112441C06D3009F4AAC08E893A
:102A10008823C1F03C898C859D8546E0349F800DDC
:102A2000911D112448855985481759075CF41D8666
:102A30001C868E859F8548E0349F800D911D112452
:102A40009F878E87EA88FB88088919894E855F856C
:102A50006C857D85CC88CE010E94E50E2C898C8505
:102A60009D8536E0239F800D911D112442C06A3060
:102A700079F41D861C862C89FC013696E4918E859E
:102A80009F852E9F800D911D11249F878E8769C081
:102A90006D3009F466C0FC0134963491631708F474
:102AA00060C03196E491E61708F45BC0FC013296F1
:102AB00065917491422F50E0431B510937E0349FD8
:102AC0005001359FB00C1124A60EB71EF5013296A9
:102AD00034913196E491332311F0E1110DC0F501E9
:102AE0003496E4912C898C859D85E29F800D911D03
:102AF00011249D878C8735C0F501359644915E89F8
:102B0000552311F16C89E32FF0E0E40FF11D47FD2F
:102B1000FA956E9FD0016F9FB00D11244C855D8595
:102B20004A0F5B1FE885F985E417F5076CF41D86ED
:102B30001C86FC013696E4918E859F856E9F800DE4
:102B4000911D11249F878E87EA88FB88088919893F
:102B50004E855F856C857D85CC88CE010E94E50E13
:102B6000BECF81E090E0DF91CF911F910F91FF9058
:102B7000EF90CF90BF90AF9008953FB7F8948091B9
:102B8000040390910503A0910603B091070326B5B5
:102B9000A89B05C02F3F19F00196A11DB11D3FBF95
:102BA000BA2FA92F982F8827820F911DA11DB11D23
:102BB000BC01CD0142E0660F771F881F991F4A951F
:102BC000D1F708951F920F920FB60F9211242F93F1
:102BD0003F938F939F93AF93BF9380910003909106
:102BE0000103A0910203B09103033091FF0223E09F
:102BF000230F2D3720F40196A11DB11D05C026E835
:102C0000230F0296A11DB11D2093FF0280930003A4
:102C100090930103A0930203B093030380910403F4
:102C200090910503A0910603B09107030196A11DA1
:102C3000B11D8093040390930503A0930603B09302
:102C40000703BF91AF919F918F913F912F910F906B
:102C50000FBE0F901F901895FC0181A187FF05C042
:102C60006EBD0DB407FEFDCF089588E090E020E82A
:102C7000A4A1B5A1362F322321F046A53C91342BD7
:102C800004C036A54C91309534233C9330A9A0A5BF
:102C9000B1A54C91309534233C9340A9A0A5B1A592
:102CA0003C91342B3C932695019711F708954F9250
:102CB0005F926F927F928F929F92AF92BF92CF92CC
:102CC000DF92EF92FF920F931F93CF93DF93EC016C
:102CD0006B015901480128853985621773070CF08B
:102CE00067C08A859B85481759070CF061C08B0126
:102CF0000A0D1B1DF8013197DA01A80DB91DBD01A0
:102D000061507109F7FD54C077FD52C0D7FE03C072
:102D10005801C12CD12C57FF03C04D0140E050E0B9
:102D2000E217F3071CF05901AC18BD0868177907C2
:102D30001CF04C01841A950A9501D4010E941D1AB9
:102D40003B01582E492EE881F98102A4F3A5E02D1C
:102D50008401B601CE0109954301A52CB42C89A1AB
:102D600087FF13C081149104A104B10409F1FEBCD2
:102D70000DB407FEFDCFEEBC0DB407FEFDCF81E024
:102D8000881A9108A108B108EDCF81149104A1041B
:102D9000B10471F06F2DCE010E942C166E2DCE0164
:102DA0000E942C1681E0881A9108A108B108EDCF85
:102DB000DF91CF911F910F91FF90EF90DF90CF9017
:102DC000BF90AF909F908F907F906F905F904F904B
:102DD0000895EF92FF920F931F93CF93DF93EC012F
:102DE00077FD33C0888599856817790774F557FD95
:102DF0002CC08A859B85481759073CF5E32EF22E97
:102E0000E881F98102A4F3A5E02D01E010E021E0C2
:102E100030E0CE01099589A187FF09C0EEBC0DB451
:102E200007FEFDCFFEBC0DB407FEFDCF0EC06E2D1C
:102E3000CE010E942C166F2DCE01DF91CF911F91F4
:102E40000F91FF90EF900C942C16DF91CF911F9172
:102E50000F91FF90EF900895CF93DF93EC018AA933
:102E6000EAA5FBA59081809589238083CE010E94ED
:102E70002C169AA9EAA5FBA58081892B8083DF9176
:102E8000CF9108951F93CF93DF93EC01162FE88124
:102E9000F9810284F385E02D0995112311F06BA9C6
:102EA00001C06CA9CE010E942C17E881F981068827
:102EB000F789E02DCE01DF91CF911F91099478948D
:102EC00084B5826084BD84B5816084BD85B582602F
:102ED00085BD85B5816085BD80916E0081608093E0
:102EE0006E00109281008091810082608093810049
:102EF0008091810081608093810080918000816059
:102F0000809380008091B10084608093B1008091B3
:102F1000B00081608093B00080917A0084608093DB
:102F20007A0080917A00826080937A0080917A00A2
:102F3000816080937A0080917A00806880937A0023
:102F40001092C10040E050E0BA0186EC92E00E948D
:102F5000FA0560E070E086EC92E00E94E81387B129
:102F60008C6087B94298439A64E670E080E090E014
:102F70000E94E01110928901109288011092FA01CA
:102F800010921C021092F801C1E0C093F701109258
:102F9000D20161E082E10E94571161E083E10E9469
:102FA00057118091B9008E7F8093B9008091B9004C
:102FB0008D7F8093B90088E48093B80085E4809386
:102FC000BC0083E594E09093AB018093AA0184E573
:102FD00094E09093AF018093AE01C093F90182E534
:102FE00080931B021092FA0110921C0260E48AEB9B
:102FF00092E00E94AD0460E08AEB92E00E94AD0492
:1030000081E00E94A20BE0912D02F0912E0282E05D
:103010008083E0912902F0912A021082E0912B0234
:10302000F0912C028FEC808310923502E0913102F6
:10303000F091320286E08083E0912F02F09130021D
:10304000808180618083E0912F02F0913002808145
:1030500088608083E0912F02F09130028081806847
:103060008083E0912F02F091300280818F7D8083F8
:10307000DFEF15E005EE25ECB22E37E1A32E42E599
:10308000942E8091F8018111FCCFC093F801C09378
:10309000F701D093F6011092F5011093F401C0935B
:1030A000D3018091D301846A8093D3018091D201AE
:1030B000813069F41092D2018091D3018093BB00DA
:1030C0008091BC0083FDF8CFB092BC0002C0009399
:1030D000BC008091F8018130E1F38091F5018630E8
:1030E00018F4D090F50102C096E0D92EA4EDB1E01D
:1030F000E8E6F1E080E08D1521F09D9191938F5FDE
:10310000FACF10928901D092880182E6E82E81E000
:10311000F82E80918901D81651F08AEB92E00E9436
:1031200064048A25895EF70181937F01F2CFC09301
:10313000F90190921B021092FA0110921C0260E0B9
:103140008AEB92E00E94AD0481E00E94A20B6091A4
:103150006201862F90E090936101809360018091DD
:10316000630190E090935F0180935E0170E080E0E6
:1031700090E04AE00E94A40E88E591E00E94920E41
:10318000C0905E01D0905F010D2C000CEE08FF088E
:10319000F7FE0EC06DE28DE192E00E94310B6627D2
:1031A0007727CB016C197D098E099F094AE003C07E
:1031B0004AE0C701B6010E94A40E8BE591E00E948F
:1031C000920E60915E0170915F014FE150E080913D
:1031D0006001909161010E94E40660915E0170912E
:1031E0005F016E51710940E058EF8091600190914C
:1031F00061010E94E40645CFEDE1F2E01382128204
:1032000088EE93E0A0E0B0E084839583A683B78343
:1032100028E031E03183208325EC30E035872487B6
:1032200024EC30E03787268720EC30E0318B208B90
:1032300021EC30E0338B228B22EC30E0358B248B79
:1032400026EC30E0378B268B118E128E138E148E67
:10325000EAEBF2E01382128284839583A683B7831C
:103260008AE191E091838083A6ECB2E013961C92F0
:103270001E92129720EF30E015963C932E931497F0
:1032800080E491E017969C938E93169719963C9341
:103290002E9318971B969C938E931A9755961C9273
:1032A00055971D961C921E921C971F961C921E925B
:1032B0001E9781E054968C9354972FEF3FEF5396CF
:1032C0003C932E93529751963C932E93509756963B
:1032D0008C93569757961C92579759961C921E920C
:1032E0005897D3961C92D397D4961C92D497D6967F
:1032F0001C921E92D597D8961C921E92D7978AE060
:103300005E968C935E9789E05F968C935F978FEFC4
:1033100090968C93909791968C93919792968C938C
:10332000929793968C9393975A961D921D921D9205
:103330001C925D9799961C921E929897D0961C921B
:10334000D09795961C921E9294979E961C929E974B
:1033500097961C921E9296979F961C929F97ECE1CF
:10336000F6E0E491F0E0EE0FFF1FE75FF94F859183
:1033700094919B969C938E939A97EEEFF5E0E4914F
:10338000D296EC93D297EDE1F6E0E491F0E0EE0F07
:10339000FF1FE75FF94F859194919D969C938E93C3
:1033A0009C97EFEFF5E0E491D196EC93D1978CE206
:1033B00091E08D939C930895A1E21A2EAA1BBB1B4A
:1033C000FD010DC0AA1FBB1FEE1FFF1FA217B307F1
:1033D000E407F50720F0A21BB30BE40BF50B661F07
:1033E000771F881F991F1A9469F7609570958095CB
:1033F00090959B01AC01BD01CF010895052E97FB6F
:103400001EF400940E94151A57FD07D00E94DC1983
:1034100007FC03D04EF40C94151A50954095309546
:1034200021953F4F4F4F5F4F089590958095709530
:1034300061957F4F8F4F9F4F08950E94251A332328
:1034400012F48A1B9B0B0C94361AA29FB001B39FF7
:10345000C001A39F700D811D1124911DB29F700D9D
:10346000811D1124911D08950E94251AB7FF08950A
:10347000821B930B0895EE0FFF1F0590F491E02D32
:10348000099481E090E0F8940C94461AF894FFCFE8
:103490001301730000000000310BA80AD20A7E0B52
:1034A000030BE10AF50A00000000AD048004DD040E
:1034B0003F0378046404550400000000E714A80AE0
:1034C000DD04DC04AB12BC14E9165716E912D6125F
:1034D0006F03FD12AE05E0047C124D121A12E813C0
:0E34E0007B131C13FA05FD042C20000D0A00BE
:00000001FF
