:100000000C9435000C945D000C945D000C945D0024
:100010000C945D000C945D000C945D000C945D00EC
:100020000C945D000C94AF010C945D000C945D0089
:100030000C945D000C945D000C945D000C945D00CC
:100040000C945D000C945D000C947D010C945701A0
:100050000C945D000C945D000C945D000C945D00AC
:100060000C945D000C945D00B90111241FBECFEF0C
:10007000D8E0DEBFCDBF11E0A0E0B1E0E8EFF6E0F0
:1000800002C005900D92A831B107D9F721E0A8E18F
:10009000B1E001C01D92AB3BB207E1F710E0C5E350
:1000A000D0E004C02197FE010E944202C433D10770
:1000B000C9F70E94F6010C947A030C940000CF92C9
:1000C000DF92EF92FF920F931F93CF93DF936C0118
:1000D0007A018B01C0E0D0E0CE15DF0589F0D801B0
:1000E0006D918D01D601ED91FC910190F081E02D93
:1000F000C6010995892B11F47E0102C02196ECCF2F
:10010000C701DF91CF911F910F91FF90EF90DF908A
:10011000CF900895089580E090E00895FC01538DFC
:10012000448D252F30E0842F90E0821B930B5417D1
:1001300010F0CF96089501970895FC01918D828D5E
:10014000981761F0828DDF01A80FB11D5D968C912B
:10015000928D9F5F9F73928F90E008958FEF9FEF36
:100160000895FC01918D828D981731F0828DE80FF2
:10017000F11D858D90E008958FEF9FEF0895FC01AC
:10018000918D228D892F90E0805C9F4F821B910979
:100190008F7399270895FC01848DDF01A80FB11D8D
:1001A000A35ABF4F2C91848D90E001968F739927AD
:1001B000848FA689B7892C93A089B1898C9180649A
:1001C0008C93938D848D981306C00288F389E02D5B
:1001D00080818F7D80830895EF92FF920F931F930C
:1001E000CF93DF93EC0181E0888F9B8D8C8D9813EA
:1001F00005C0E889F989808185FD24C0F62E0B8D24
:1002000010E00F5F1F4F0F731127E02E8C8DE81247
:100210000CC00FB607FCFACFE889F989808185FF09
:10022000F5CFCE010E94CB00F1CF8B8DFE01E80F00
:10023000F11DE35AFF4FF0820B8FEA89FB89808121
:10024000806207C0EE89FF896083E889F98980812F
:100250008064808381E090E0DF91CF911F910F91C6
:10026000FF90EF900895CF93DF93EC01888D882362
:10027000C9F0EA89FB89808185FD05C0A889B98913
:100280008C9186FD0FC00FB607FCF5CF808185FFEE
:10029000F2CFA889B9898C9185FFEDCFCE010E945C
:1002A000CB00E7CFDF91CF9108950E9475031F9295
:1002B0000F920FB60F9211242F933F934F935F939A
:1002C0006F937F938F939F93AF93BF93EF93FF931E
:1002D00088E191E00E94CB00FF91EF91BF91AF9137
:1002E0009F918F917F916F915F914F913F912F914E
:1002F0000F900FBE0F901F9018951F920F920FB680
:100300000F9211242F938F939F93EF93FF93E0917C
:100310002801F09129018081E0912E01F0912F01B7
:1003200082FD12C09081809131018F5F8F73209187
:100330003201821751F0E0913101F0E0E85EFE4FAA
:10034000958F8093310101C08081FF91EF919F9142
:100350008F912F910F900FBE0F901F9018951F92A5
:100360000F920FB60F9211240F900FBE0F901F9097
:100370001895E8E1F1E01382128288EE93E0A0E0A4
:10038000B0E084839583A683B7838AE091E091836C
:10039000808385EC90E09587848784EC90E0978754
:1003A000868780EC90E0918B808B81EC90E0938B42
:1003B000828B82EC90E0958B848B86EC90E0978B1F
:1003C000868B118E128E138E148E82E090E00E9426
:1003D0004802FC011182108223E22093B300209393
:1003E000B4009093B6018093B50108952D9A259A93
:1003F0002D9A259A5B9A539A8091B00083668093D8
:10040000B0008091B1008A608093B100809170004B
:100410008160809370007894E0912801F091290127
:1004200082E08083E0912401F09125011082E09127
:100430002601F09127018FEC808310923001E0912A
:100440002C01F0912D0186E08083E0912A01F0914A
:100450002B01808180618083E0912A01F0912B0142
:10046000808188608083E0912A01F0912B01808156
:1004700080688083E0912A01F0912B0180818F7D3B
:100480008083FFCFEE0FFF1F0590F491E02D0994BC
:10049000CF93DF938230910510F482E090E0E091F9
:1004A000B901F091BA0120E030E0C0E0D0E030972F
:1004B00011F14081518148175907C0F04817590779
:1004C00061F482819381209719F09B838A832BC0EA
:1004D0009093BA018093B90126C02115310519F016
:1004E0004217530718F49A01BE01DF01EF010280A1
:1004F000F381E02DDCCF2115310509F1281B390BE3
:100500002430310590F412968D919C9113976115CA
:10051000710521F0FB019383828304C09093BA019B
:100520008093B901FD01329644C0FD01E20FF31F33
:1005300081939193225031092D933C933AC020919D
:10054000B7013091B801232B41F420910201309181
:1005500003013093B8012093B7012091000130913D
:1005600001012115310541F42DB73EB74091040139
:1005700050910501241B350BE091B701F091B801B2
:10058000E217F307A0F42E1B3F0B2817390778F06A
:10059000AC014E5F5F4F2417350748F04E0F5F1FC9
:1005A0005093B8014093B7018193919302C0E0E06A
:1005B000F0E0CF01DF91CF9108950F931F93CF9378
:1005C000DF93009709F48CC0FC01329713821282EA
:1005D0000091B9011091BA010115110581F4208132
:1005E0003181820F931F2091B7013091B8012817F4
:1005F000390779F5F093B801E093B70171C0D801DC
:1006000040E050E0AE17BF0750F412962D913C9198
:100610001397AD012115310509F1D901F3CF9D01E2
:10062000DA013383228360817181860F971F8217DD
:10063000930769F4EC0128813981260F371F2E5F5B
:100640003F4F318320838A819B8193838283452B13
:1006500029F4F093BA01E093B90142C01396FC93D8
:10066000EE931297ED01499159919E01240F351F88
:10067000E217F30771F480819181840F951F029630
:1006800011969C938E938281938113969C938E9363
:100690001297E0E0F0E0D80112968D919C911397AB
:1006A000009719F0F8018C01F6CF8D919C9198017B
:1006B0002E5F3F4F820F931F2091B7013091B801F9
:1006C0002817390769F4309729F41092BA0110926B
:1006D000B90102C0138212821093B8010093B701CE
:1006E000DF91CF911F910F91089581E090E0F894F0
:0806F0000C947A03F894FFCF8B
:1006F8000000BB01800000000000EC005F008E00DD
:080708003301BF009D00B100A8
:107E0000112484B714BE81FFF0D085E080938100F7
:107E100082E08093C00088E18093C10086E0809377
:107E2000C20080E18093C4008EE0C9D0259A86E02C
:107E300020E33CEF91E0309385002093840096BBD3
:107E4000B09BFECF1D9AA8958150A9F7CC24DD24C4
:107E500088248394B5E0AB2EA1E19A2EF3E0BF2EE7
:107E6000A2D0813461F49FD0082FAFD0023811F036
:107E7000013811F484E001C083E08DD089C08234E0
:107E800011F484E103C0853419F485E0A6D080C0E4
:107E9000853579F488D0E82EFF2485D0082F10E0AE
:107EA000102F00270E291F29000F111F8ED06801E7
:107EB0006FC0863521F484E090D080E0DECF843638
:107EC00009F040C070D06FD0082F6DD080E0C81688
:107ED00080E7D80618F4F601B7BEE895C0E0D1E017
:107EE00062D089930C17E1F7F0E0CF16F0E7DF06D8
:107EF00018F0F601B7BEE89568D007B600FCFDCFD4
:107F0000A601A0E0B1E02C9130E011968C91119780
:107F100090E0982F8827822B932B1296FA010C0160
:107F200087BEE89511244E5F5F4FF1E0A038BF0790
:107F300051F7F601A7BEE89507B600FCFDCF97BE46
:107F4000E89526C08437B1F42ED02DD0F82E2BD052
:107F50003CD0F601EF2C8F010F5F1F4F84911BD097
:107F6000EA94F801C1F70894C11CD11CFA94CF0C13
:107F7000D11C0EC0853739F428D08EE10CD085E9AC
:107F80000AD08FE07ACF813511F488E018D01DD067
:107F900080E101D065CF982F8091C00085FFFCCF94
:107FA0009093C60008958091C00087FFFCCF809118
:107FB000C00084FD01C0A8958091C6000895E0E648
:107FC000F0E098E1908380830895EDDF803219F02E
:107FD00088E0F5DFFFCF84E1DECF1F93182FE3DFCA
:107FE0001150E9F7F2DF1F91089580E0E8DFEE27F6
:047FF000FF270994CA
:027FFE00040479
:0400000300007E007B
:00000001FF