:100000000C9435000C945D000C945D000C945D0024
:100010000C945D000C945D000C945D000C945D00EC
:100020000C945D000C94C1010C945D000C945D0077
:100030000C945D000C945D000C945D000C945D00CC
:100040000C945D000C945D000C948F010C9469017C
:100050000C945D000C945D000C945D000C945D00AC
:100060000C945D000C945D00460211241FBECFEF7E
:10007000D8E0DEBFCDBF11E0A0E0B1E0E4EEF5E0F6
:1000800002C005900D92A432B107D9F721E0A4E295
:10009000B1E001C01D92A33CB207E1F710E0C5E357
:1000A000D0E004C02197FE010E94E502C433D107CD
:1000B000C9F70E9473020C94F0020C940000CF92D6
:1000C000DF92EF92FF920F931F93CF93DF936C0118
:1000D0007A018B01C0E0D0E0CE15DF0589F0D801B0
:1000E0006D918D01D601ED91FC910190F081E02D93
:1000F000C6010995892B11F47E0102C02196ECCF2F
:10010000C701DF91CF911F910F91FF90EF90DF908A
:10011000CF900895089580E090E00895FC01538DFC
:10012000448D252F30E0842F90E0821B930B5417D1
:1001300010F0CF96089501970895FC01918D828D5E
:10014000981761F0828DDF01A80FB11D5D968C912B
:10015000928D9F5F9F73928F90E008958FEF9FEF36
:100160000895FC01918D828D981731F0828DE80FF2
:10017000F11D858D90E008958FEF9FEF0895FC01AC
:10018000918D228D892F90E0805C9F4F821B910979
:100190008F7399270895FC01848DDF01A80FB11D8D
:1001A000A35ABF4F2C91848D90E001968F739927AD
:1001B000848FA689B7892C93A089B1898C9180649A
:1001C0008C93938D848D981306C00288F389E02D5B
:1001D00080818F7D80830895EF92FF920F931F930C
:1001E000CF93DF93EC0181E0888F9B8D8C8D9813EA
:1001F00005C0E889F989808185FD24C0F62E0B8D24
:1002000010E00F5F1F4F0F731127E02E8C8DE81247
:100210000CC00FB607FCFACFE889F989808185FF09
:10022000F5CFCE010E94CB00F1CF8B8DFE01E80F00
:10023000F11DE35AFF4FF0820B8FEA89FB89808121
:10024000806207C0EE89FF896083E889F98980812F
:100250008064808381E090E0DF91CF911F910F91C6
:10026000FF90EF900895CF93DF93EC01888D882362
:10027000C9F0EA89FB89808185FD05C0A889B98913
:100280008C9186FD0FC00FB607FCF5CF808185FFEE
:10029000F2CFA889B9898C9185FFEDCFCE010E945C
:1002A000CB00E7CFDF91CF910895009769F0FC0173
:1002B00001900020E9F73197AF01481B590BBC01B1
:1002C00086E291E00C945F0080E090E008950E9447
:1002D000EB021F920F920FB60F9211242F933F93B0
:1002E0004F935F936F937F938F939F93AF93BF933E
:1002F000EF93FF9386E291E00E94CB00FF91EF9194
:10030000BF91AF919F918F917F916F915F914F912D
:100310003F912F910F900FBE0F901F9018951F9235
:100320000F920FB60F9211242F938F939F93EF93F9
:10033000FF93E0913601F09137018081E0913C011B
:10034000F0913D0182FD12C0908180913F018F5F4D
:100350008F7320914001821751F0E0913F01F0E04E
:10036000EA5DFE4F958F80933F0101C08081FF9130
:10037000EF919F918F912F910F900FBE0F901F9033
:1003800018951F920F920FB60F921124CF92DF9201
:10039000EF92FF920F931F932F933F934F935F938F
:1003A0006F937F938F939F93AF93BF93EF93FF933D
:1003B000CF93DF93CDB7DEB7A197DEBFCDBF8091DE
:1003C00024019091250101969093250180932401A9
:1003D00080912401909125010197A1F495B180E2CB
:1003E000892785B99BB188E089278BB982E191E0A3
:1003F0000E94550181E291E00E9455011092250171
:1004000010922401209124013091250140E050E018
:1004100019A28E010F5D1F4F8AE0C82ED12CE12C4E
:10042000F12CCA01B901A70196010E94C302605DC7
:10043000F80162938F01211531054105510589F7B6
:10044000CF010E94550181E291E00E945501A196E1
:100450000FB6F894DEBF0FBECDBFDF91CF91FF91F5
:10046000EF91BF91AF919F918F917F916F915F912C
:100470004F913F912F911F910F91FF90EF90DF903F
:10048000CF900F900FBE0F901F901895E6E2F1E00D
:100490001382128288EE93E0A0E0B0E0848395831B
:1004A000A683B78384E091E09183808385EC90E01C
:1004B0009587848784EC90E09787868780EC90E02E
:1004C000918B808B81EC90E0938B828B82EC90E01F
:1004D000958B848B86EC90E0978B868B118E128E99
:1004E000138E148E08952D9A259AE0913601F0917D
:1004F000370182E08083E0913201F0913301108274
:10050000E0913401F09135018FEC808310923E012F
:10051000E0913A01F0913B0186E08083E09138015F
:10052000F0913901808180618083E0913801F09100
:100530003901808188608083E0913801F091390130
:10054000808180688083E0913801F0913901808159
:100550008F7D808383E28093B30081E18093B40038
:100560005B9A539A8091B00083668093B00080912B
:10057000B1008A608093B1008091700081608093A7
:1005800070007894FFCFA1E21A2EAA1BBB1BFD01BD
:100590000DC0AA1FBB1FEE1FFF1FA217B307E40762
:1005A000F50720F0A21BB30BE40BF50B661F771FBA
:1005B000881F991F1A9469F760957095809590959A
:1005C0009B01AC01BD01CF010895EE0FFF1F059007
:1005D000F491E02D099481E090E0F8940C94F002FD
:0405E000F894FFCFBD
:1005E40000000000EC005F008E003301BF009D009E
:1005F400B1004368616E676566756E6374696F6E9A
:04060400000D0A00DB
:107E0000112484B714BE81FFF0D085E080938100F7
:107E100082E08093C00088E18093C10086E0809377
:107E2000C20080E18093C4008EE0C9D0259A86E02C
:107E300020E33CEF91E0309385002093840096BBD3
:107E4000B09BFECF1D9AA8958150A9F7CC24DD24C4
:107E500088248394B5E0AB2EA1E19A2EF3E0BF2EE7
:107E6000A2D0813461F49FD0082FAFD0023811F036
:107E7000013811F484E001C083E08DD089C08234E0
:107E800011F484E103C0853419F485E0A6D080C0E4
:107E9000853579F488D0E82EFF2485D0082F10E0AE
:107EA000102F00270E291F29000F111F8ED06801E7
:107EB0006FC0863521F484E090D080E0DECF843638
:107EC00009F040C070D06FD0082F6DD080E0C81688
:107ED00080E7D80618F4F601B7BEE895C0E0D1E017
:107EE00062D089930C17E1F7F0E0CF16F0E7DF06D8
:107EF00018F0F601B7BEE89568D007B600FCFDCFD4
:107F0000A601A0E0B1E02C9130E011968C91119780
:107F100090E0982F8827822B932B1296FA010C0160
:107F200087BEE89511244E5F5F4FF1E0A038BF0790
:107F300051F7F601A7BEE89507B600FCFDCF97BE46
:107F4000E89526C08437B1F42ED02DD0F82E2BD052
:107F50003CD0F601EF2C8F010F5F1F4F84911BD097
:107F6000EA94F801C1F70894C11CD11CFA94CF0C13
:107F7000D11C0EC0853739F428D08EE10CD085E9AC
:107F80000AD08FE07ACF813511F488E018D01DD067
:107F900080E101D065CF982F8091C00085FFFCCF94
:107FA0009093C60008958091C00087FFFCCF809118
:107FB000C00084FD01C0A8958091C6000895E0E648
:107FC000F0E098E1908380830895EDDF803219F02E
:107FD00088E0F5DFFFCF84E1DECF1F93182FE3DFCA
:107FE0001150E9F7F2DF1F91089580E0E8DFEE27F6
:047FF000FF270994CA
:027FFE00040479
:0400000300007E007B
:00000001FF