:100000000C9435000C945D000C945D000C945D0024
:100010000C945D000C945D000C945D000C945D00EC
:100020000C945D000C94DD010C945D000C945D005B
:100030000C945D000C945D000C945D000C945D00CC
:100040000C945D000C945D000C94AB010C94850144
:100050000C945D000C945D000C945D000C945D00AC
:100060000C945D000C945D00650211241FBECFEF5F
:10007000D8E0DEBFCDBF11E0A0E0B1E0E0EDF8E0F8
:1000800002C005900D92AE35B107D9F722E0AEE57A
:10009000B1E001C01D92A130B207E1F710E0C5E365
:1000A000D0E004C02197FE010E942E03C433D10783
:1000B000C9F70E94B7020C9466040C940000CF921A
:1000C000DF92EF92FF920F931F93CF93DF936C0118
:1000D0007A018B01C0E0D0E0CE15DF0589F0D801B0
:1000E0006D918D01D601ED91FC910190F081E02D93
:1000F000C6010995892B11F47E0102C02196ECCF2F
:10010000C701DF91CF911F910F91FF90EF90DF908A
:10011000CF900895089580E090E00895FC01538DFC
:10012000448D252F30E0842F90E0821B930B5417D1
:1001300010F0CF96089501970895FC01918D828D5E
:10014000981761F0828DDF01A80FB11D5D968C912B
:10015000928D9F5F9F73928F90E008958FEF9FEF36
:100160000895FC01918D828D981731F0828DE80FF2
:10017000F11D858D90E008958FEF9FEF0895FC01AC
:10018000918D228D892F90E0805C9F4F821B910979
:100190008F7399270895FC01848DDF01A80FB11D8D
:1001A000A35ABF4F2C91848D90E001968F739927AD
:1001B000848FA689B7892C93A089B1898C9180649A
:1001C0008C93938D848D981306C00288F389E02D5B
:1001D00080818F7D80830895EF92FF920F931F930C
:1001E000CF93DF93EC0181E0888F9B8D8C8D9813EA
:1001F00005C0E889F989808185FD24C0F62E0B8D24
:1002000010E00F5F1F4F0F731127E02E8C8DE81247
:100210000CC00FB607FCFACFE889F989808185FF09
:10022000F5CFCE010E94CB00F1CF8B8DFE01E80F00
:10023000F11DE35AFF4FF0820B8FEA89FB89808121
:10024000806207C0EE89FF896083E889F98980812F
:100250008064808381E090E0DF91CF911F910F91C6
:10026000FF90EF900895CF93DF93EC01888D882362
:10027000C9F0EA89FB89808185FD05C0A889B98913
:100280008C9186FD0FC00FB607FCF5CF808185FFEE
:10029000F2CFA889B9898C9185FFEDCFCE010E945C
:1002A000CB00E7CFDF91CF910895FC0184A1882393
:1002B00039F095B180E2892785B9118A108A14A294
:1002C0000895CF93DF93009779F0FC01019000200F
:1002D000E9F73197AF01481B590BBC018EE591E05E
:1002E0000E945F00EC0102C0C0E0D0E042E050E0BC
:1002F00068E271E08EE591E00E945F008C0F9D1F27
:10030000DF91CF9108950E9461041F920F920FB662
:100310000F9211242F933F934F935F936F937F938B
:100320008F939F93AF93BF93EF93FF938EE591E0ED
:100330000E94CB00FF91EF91BF91AF919F918F9160
:100340007F916F915F914F913F912F910F900FBED1
:100350000F901F9018951F920F920FB60F921124B5
:100360002F938F939F93EF93FF93E0916E01F09102
:100370006F018081E0917401F091750182FD12C0DE
:100380009081809177018F5F8F7320917801821720
:1003900051F0E0917701F0E0E25AFE4F958F8093A3
:1003A000770101C08081FF91EF919F918F912F91F3
:1003B0000F900FBE0F901F9018951F920F920FB6BF
:1003C0000F9211242F933F934F935F936F937F93DB
:1003D0008F939F93AF93BF93CF93DF93EF93FF934D
:1003E000C091FB01D091FC01888999890196998B74
:1003F000888B88A5882309F455C08DA19EA18823E8
:1004000089F091114BC08FA1811148C0CE010E948B
:10041000550188899989889709F044C081E08CA3A7
:100420001DA240C08FA1992379F0811137C0CE0160
:100430000E94550188899989C297A1F581E08CA312
:100440001EA28DA318A62EC0882361F0CE010E94A3
:100450005501888999894E9729F581E08CA31FA2BF
:100460008EA320C0CE010E9455018A899B89FC0180
:10047000EE0FFF1FEC0FFD1F488959892081318144
:100480004217530779F421E02CA301969B8B8A8BAA
:10049000089741F42FA31B8A1A8A04C085E491E0CF
:1004A0000E946101FF91EF91DF91CF91BF91AF91D8
:1004B0009F918F917F916F915F914F913F912F917C
:1004C0000F900FBE0F901F901895CF93DF93EEE51E
:1004D000F1E01382128288EE93E0A0E0B0E0848322
:1004E0009583A683B7838AE191E09183808385EC2D
:1004F00090E09587848784EC90E09787868780ECEE
:1005000090E0918B808B81EC90E0938B828B82ECDE
:1005100090E0958B848B86EC90E0978B868B118E88
:10052000128E138E148E89E290E00E943403EC0147
:10053000198A188A1B8A1A8A80E1E6E0F1E0DE0156
:10054000549601900D928A95E1F781E08CA38DA3DA
:100550001EA21FA283E28093B30081E18093B400C6
:10056000D093FC01C093FB01DF91CF910895E091FE
:100570006E01F0916F0182E08083E0916A01F09159
:100580006B011082E0916C01F0916D018FEC808322
:1005900010927601E0917201F091730186E0808300
:1005A000E0917001F0917101808180618083E09120
:1005B0007001F0917101808188608083E091700109
:1005C000F0917101808180688083E0917001F091E9
:1005D000710180818F7D80830091FB011091FC016E
:1005E0002D9A259A5B9A539A8091B00083668093E6
:1005F000B0008091B1008A608093B100809170005A
:10060000816080937000780184E1E80EF11CE801BC
:100610006801E0E1CE0ED11C8AE0A82EB12C94E155
:10062000892E912CF701819191917F018130910563
:1006300019F49982888209C0892B19F4B982A88299
:1006400004C08BE291E00E9461012296CC15DD0589
:1006500049F781E0F80180A77894FFCFEE0FFF1FE4
:100660000590F491E02D0994CF93DF9382309105AA
:1006700010F482E090E0E091FF01F091000220E0B0
:1006800030E0C0E0D0E0309711F14081518148174F
:100690005907C0F04817590761F482819381209768
:1006A00019F09B838A832BC0909300028093FF01F3
:1006B00026C02115310519F04217530718F49A0185
:1006C000BE01DF01EF010280F381E02DDCCF2115B7
:1006D000310509F1281B390B2430310590F41296AD
:1006E0008D919C9113976115710521F0FB01938306
:1006F000828304C0909300028093FF01FD01329633
:1007000044C0FD01E20FF31F819391932250310900
:100710002D933C933AC02091FD013091FE01232B93
:1007200041F420910201309103013093FE012093A6
:10073000FD0120910001309101012115310541F4A5
:100740002DB73EB74091040150910501241B350B94
:10075000E091FD01F091FE01E217F307A0F42E1BDA
:100760003F0B2817390778F0AC014E5F5F4F241715
:10077000350748F04E0F5F1F5093FE014093FD0177
:100780008193919302C0E0E0F0E0CF01DF91CF913F
:1007900008950F931F93CF93DF93009709F48CC0B4
:1007A000FC013297138212820091FF011091000226
:1007B0000115110581F420813181820F931F209151
:1007C000FD013091FE012817390779F5F093FE01FC
:1007D000E093FD0171C0D80140E050E0AE17BF07C3
:1007E00050F412962D913C911397AD0121153105CE
:1007F00009F1D901F3CF9D01DA01338322836081AE
:100800007181860F971F8217930769F4EC01288185
:100810003981260F371F2E5F3F4F318320838A8116
:100820009B8193838283452B29F4F0930002E0930C
:10083000FF0142C01396FC93EE931297ED0149918C
:1008400059919E01240F351FE217F30771F480813F
:100850009181840F951F029611969C938E938281AD
:10086000938113969C938E931297E0E0F0E0D80169
:1008700012968D919C911397009719F0F8018C01B5
:10088000F6CF8D919C9198012E5F3F4F820F931F61
:100890002091FD013091FE012817390769F4309746
:1008A00029F4109200021092FF0102C013821282FA
:1008B0001093FE010093FD01DF91CF911F910F91E5
:1008C000089581E090E0F8940C946604F894FFCFCA
:1008D0000000010280000100000001000000010092
:1008E00000000100000000000000EC005F008E002E
:1008F0003301BF009D00B1000D0A00536574746997
:100900006E672042495420746F2054494D4520653C
:1009100072726F7200536F6D657468696E672077CD
:0E092000656E742077726F6E672121212100B1
:00000001FF
