:100000000C9435000C945D000C945D000C945D0024
:100010000C945D000C9458020C945D000C945D00EF
:100020000C945D000C9495020C945D000C945D00A2
:100030000C945D000C945D000C945D000C945D00CC
:100040000C945D000C945D000C9426020C9400024C
:100050000C945D000C945D000C945D000C945D00AC
:100060000C945D000C945D00EB0311241FBECFEFD8
:10007000D8E0DEBFCDBF11E0A0E0B1E0ECEEFEE0E5
:1000800002C005900D92A436B107D9F722E0A4E68C
:10009000B1E001C01D92A232B207E1F710E0C5E362
:1000A000D0E004C02197FE010E944806C433D10766
:1000B000C9F70E9463040C9474070C940000CF925B
:1000C000DF92EF92FF920F931F93CF93DF936C0118
:1000D0007A018B01C0E0D0E0CE15DF0581F0D801B8
:1000E0006D918D01D601ED91FC910190F081E02D93
:1000F000C6010995892B11F02196EECF7E01C7012B
:10010000DF91CF911F910F91FF90EF90DF90CF90F3
:100110000895089580E090E00895FC01538D448D8A
:10012000252F30E0842F90E0821B930B541710F0A2
:10013000CF96089501970895FC01918D828D9817AF
:1001400061F0828DDF01A80FB11D5D968C91928DBB
:100150009F5F9F73928F90E008958FEF9FEF0895B8
:10016000FC01918D828D981731F0828DE80FF11D81
:10017000858D90E008958FEF9FEF0895FC01918D9C
:10018000228D892F90E0805C9F4F821B91098F7395
:1001900099270895FC01848DDF01A80FB11DA35A92
:1001A000BF4F2C91848D90E001968F739927848F97
:1001B000A689B7892C93A089B1898C9183708064BA
:1001C0008C93938D848D981306C00288F389E02D5B
:1001D00080818F7D80830895EF92FF920F931F930C
:1001E000CF93DF93EC0181E0888F9B8D8C8D9813EA
:1001F00005C0E889F989808185FD26C0F62E0B8D22
:1002000010E00F5F1F4F0F731127E02E8C8DE81247
:100210000CC00FB607FCFACFE889F989808185FF09
:10022000F5CFCE010E94CA00F1CF8B8DFE01E80F01
:10023000F11DE35AFF4FF0829FB7F8940B8FEA89C4
:10024000FB89808180620AC09FB7F894EE89FF899C
:100250006083E889F98980818370806480839FBF8F
:1002600081E090E0DF91CF911F910F91FF90EF908F
:100270000895CF93DF93EC01888D8823C9F0EA8934
:10028000FB89808185FD05C0A889B9898C9186FD8F
:100290000FC00FB607FCF5CF808185FFF2CFA8898C
:1002A000B9898C9185FFEDCFCE010E94CA00E7CFBE
:1002B000DF91CF910895DC01FC01EC5AFF4F808162
:1002C000882369F085B190E2982795B98AB198E0C2
:1002D00098279AB957961C921E92569710820895A5
:1002E000009769F0FC0101900020E9F73197AF0118
:1002F000481B590BBC018FE791E00C945F0080E034
:1003000090E008958F929F92AF92BF92CF92DF922A
:10031000EF92FF920F931F93CF93DF93CDB7DEB78A
:10032000A1970FB6F894DEBF0FBECDBF6C01990F39
:10033000EE08FF08F7FE2BC06DE28FE791E00E9408
:10034000EC008C0122273327A9012C193D094E0905
:100350005F0919A2CE0181967C019AE0892E912C29
:10036000A12CB12CCA01B901A50194010E94260655
:10037000605DF70162937F0121153105410551054B
:1003800089F7CF010E947001080F191F1EC0A70135
:10039000960119A28E010F5D1F4F8AE0C82ED12C45
:1003A000E12CF12CCA01B901A70196010E94260691
:1003B000605DF80162938F012115310541055105FA
:1003C00089F7CF010E9470018C018EE291E00E94BA
:1003D0007001800F911FA1960FB6F894DEBF0FBE7B
:1003E000CDBFDF91CF911F910F91FF90EF90DF90E4
:1003F000CF90BF90AF909F908F9008950E946F070D
:100400001F920F920FB60F9211242F933F934F9389
:100410005F936F937F938F939F93AF93BF93EF936C
:10042000FF938FE791E00E94CA00FF91EF91BF9187
:10043000AF919F918F917F916F915F914F913F917C
:100440002F910F900FBE0F901F9018951F920F9233
:100450000FB60F9211242F938F939F93EF93FF93D7
:10046000E0918F01F09190018081E0919501F091F0
:10047000960182FD12C09081809198018F5F8F73E9
:1004800020919901821751F0E0919801F0E0E15834
:10049000FE4F958F8093980101C08081FF91EF916D
:1004A0009F918F912F910F900FBE0F901F901895D5
:1004B0001F920F920FB60F9211242F933F934F93D9
:1004C0005F936F937F938F939F93AF93BF93EF93BC
:1004D000FF937894E0911C02F0911D02608D718D64
:1004E000072E000C880B990B0E949A052DEA31EA21
:1004F0004CEB5FE30E94F0040E946205CB010E9476
:10050000820181E080937E01FF91EF91BF91AF91D5
:100510009F918F917F916F915F914F913F912F911B
:100520000F900FBE0F901F9018951F920F920FB64D
:100530000F921124AF92BF92CF92DF92EF92FF926F
:100540000F931F932F933F934F935F936F937F93DB
:100550008F939F93AF93BF93CF93DF93EF93FF93CB
:10056000C0911C02D0911D028E899F8901969F8B9C
:100570008E8B888D998D0196998F888F5E0128E5E5
:10058000A20EB11CF5018081882309F48CC06E0194
:10059000F5E5CF0ED11CF60180819E012A5A3F4F0E
:1005A0007901F9018823E1F08081811174C03196CD
:1005B0008081811170C0CE010E945B012E893F892C
:1005C000FE01E25BFF4F808191812817390709F016
:1005D0006AC0CC5ADF4F81E08883F601108263C085
:1005E00080818E01095A1F4FF8018823D9F080813C
:1005F000811151C0CE010E945B012E893F89FE010D
:10060000E05BFF4F808191812817390709F04BC0CB
:10061000CC5ADF4F81E08883F7011082F601808396
:10062000F50117C080818823B1F0CE010E945B01E3
:100630002E893F89FE01EE5AFF4F80819181281754
:10064000390789F5CC5ADF4F81E08883F8011082A1
:10065000F701808328C0CE010E945B018A8D9B8DAB
:10066000FC01EE0FFF1FEC0FFD1F4E895F892081FB
:10067000318142175307B9F421E0FE01EC5AFF4FD4
:10068000208301969B8F8A8F0B9769F4F801208352
:100690001B8E1A8E08C08BE491E00E9470018EE2DE
:1006A00091E00E94700180917E01882309F478C056
:1006B00010927E01E0911C02F0911D02808D918DBF
:1006C00090937D0180937C01118E108E8233910571
:1006D0000CF45DC0863991055CF4E0917A01F091EB
:1006E0007B01EE0FFF1FEC59FE4F118210824FC0AD
:1006F0008A3F91055CF4E0917A01F0917B01EE0F65
:10070000FF1FEC59FE4F81E090E00EC08E35F1E006
:100710009F076CF4E0917A01F0917B01EE0FFF1FCF
:10072000EC59FE4F82E090E09183808330C0823CA0
:1007300021E092075CF410927B0110927A0183E031
:1007400090E0909365018093640121C086329240CD
:10075000F4F4E0917A01F0917B01EE0FFF1FEC5968
:10076000FE4F84E090E091838083809164019091BA
:1007700065010E94820180916601909167010E944B
:10078000820180916801909169010E9482018091AB
:100790007A0190917B01019690937B0180937A017D
:1007A000FF91EF91DF91CF91BF91AF919F918F9189
:1007B0007F916F915F914F913F912F911F910F9179
:1007C000FF90EF90DF90CF90BF90AF900F900FBE53
:1007D0000F901F901895CF93DF93EFE7F1E013820E
:1007E000128288EE93E0A0E0B0E084839583A68334
:1007F000B78380E291E09183808385EC90E09587D8
:10080000848784EC90E09787868780EC90E0918BDA
:10081000808B81EC90E0938B828B82EC90E0958BC7
:10082000848B86EC90E0978B868B118E128E138EC4
:10083000148E8AE590E00E944E06EC011F8A1E8A03
:10084000198E188E1B8E1A8E86E1E6E0F1E0DE012D
:100850005C9601900D928A95E1F7FE01E85BFF4FEF
:10086000118210823C9681E080833196808331969C
:100870001082319610823296108283E28093B30008
:1008800081E18093B4003F9784EF91E0918380836E
:10089000329688EE93E091838083329680ED97E0E4
:1008A00091838083329684EC99E0918380833296A1
:1008B0008CED95E091838083D0931D02C0931C0240
:1008C000DF91CF910895E0918F01F091900182E046
:1008D0008083E0918B01F0918C011082E0918D0179
:1008E000F0918E018FEC808310929701E09193013B
:1008F000F091940186E08083E0919101F091920162
:10090000808180618083E0919101F09192018081EA
:1009100088608083E0919101F091920180818068EC
:100920008083E0919101F091920180818F7D80839D
:10093000C0911C02D0911D022D9A259A5B9A539A60
:100940008091B00083668093B0008091B1008A608E
:100950008093B100809170008160809370005D9AF7
:100960008091680084608093680080916D0080624F
:1009700080936D004E018CE1880E911C8E017E01EA
:10098000E6E1EE0EF11C6E01FAE4CF0ED11C5E0121
:100990008CE4A80EB11CF401819191914F0181303A
:1009A000910511F4F50103C0892B39F4F60180811A
:1009B0009181F8019183808308C081E391E00E94D6
:1009C00070018EE291E00E9470010E5F1F4FE016F1
:1009D000F10609F7C85ADF4F81E088837894FFCF8A
:1009E0000E9404050C94EC050E94E50558F00E9455
:1009F000DE0540F029F45F3F29F00C94D505511134
:100A00000C9420060C94DB050E94FD0568F39923E5
:100A1000B1F3552391F3951B550BBB27AA276217FA
:100A20007307840738F09F5F5F4F220F331F441F07
:100A3000AA1FA9F335D00E2E3AF0E0E832D091503B
:100A40005040E695001CCAF72BD0FE2F29D0660F28
:100A5000771F881FBB1F261737074807AB07B0E86B
:100A600009F0BB0B802DBF01FF2793585F4F3AF071
:100A70009E3F510578F00C94D5050C9420065F3FFD
:100A8000E4F3983ED4F3869577956795B795F795F7
:100A90009F5FC9F7880F911D9695879597F90895DF
:100AA000E1E0660F771F881FBB1F6217730784077B
:100AB000BA0720F0621B730B840BBA0BEE1F88F78A
:100AC000E09508950E9469056894B1110C94200680
:100AD00008950E94050688F09F5798F0B92F99272E
:100AE000B751B0F0E1F0660F771F881F991F1AF019
:100AF000BA95C9F714C0B13091F00E941F06B1E059
:100B000008950C941F06672F782F8827B85F39F057
:100B1000B93FCCF3869577956795B395D9F73EF4B1
:100B200090958095709561957F4F8F4F9F4F089559
:100B3000E89409C097FB3EF4909580957095619577
:100B40007F4F8F4F9F4F9923A9F0F92F96E9BB272D
:100B50009395F695879577956795B795F111F8CFA9
:100B6000FAF4BB0F11F460FF1BC06F5F7F4F8F4F14
:100B70009F4F16C0882311F096E911C0772321F00A
:100B80009EE8872F762F05C0662371F096E8862FA2
:100B900070E060E02AF09A95660F771F881FDAF7F9
:100BA000880F9695879597F9089597F99F6780E83C
:100BB00070E060E008959FEF80EC089500240A94AF
:100BC0001616170618060906089500240A94121628
:100BD0001306140605060895092E0394000C11F45B
:100BE000882352F0BB0F40F4BF2B11F460FF04C008
:100BF0006F5F7F4F8F4F9F4F089557FD9058440F61
:100C0000551F59F05F3F71F04795880F97FB991F6B
:100C100061F09F3F79F08795089512161306140628
:100C2000551FF2CF4695F1DF08C0161617061806B5
:100C3000991FF1CF86957105610508940895E89490
:100C4000BB2766277727CB0197F90895A1E21A2ED3
:100C5000AA1BBB1BFD010DC0AA1FBB1FEE1FFF1F60
:100C6000A217B307E407F50720F0A21BB30BE40BB0
:100C7000F50B661F771F881F991F1A9469F76095F7
:100C80007095809590959B01AC01BD01CF010895B1
:100C9000EE0FFF1F0590F491E02D09940F931F9321
:100CA000CF93DF938230910510F482E090E0E091E1
:100CB0002002F091210220E030E0A0E0B0E0309787
:100CC00019F1408151810281138148175907C8F0F9
:100CD0008417950769F4109731F012960C931297C8
:100CE00013961C9327C0009320021093210222C068
:100CF0002115310519F04217530718F49A01BD0167
:100D0000EF01DF01F801DBCF21153105F9F0281BD8
:100D1000390B2430310580F48A819B81611571057E
:100D200021F0FB019383828304C09093210280937E
:100D30002002FE01329644C0FE01E20FF31F8193B0
:100D4000919322503109398328833AC020911E02A1
:100D500030911F02232B41F42091020130910301B5
:100D600030931F0220931E02209100013091010157
:100D70002115310541F42DB73EB740910401509142
:100D80000501241B350BE0911E02F0911F02E217B2
:100D9000F307A0F42E1B3F0B2817390778F0AC019E
:100DA0004E5F5F4F2417350748F04E0F5F1F50937B
:100DB0001F0240931E028193919302C0E0E0F0E095
:100DC000CF01DF91CF911F910F910895CF93DF93C2
:100DD000009709F481C0FC01329713821282A0911E
:100DE0002002B0912102109781F420813181820F7D
:100DF000931F20911E0230911F022817390751F5C9
:100E0000F0931F02E0931E0267C0ED0120E030E086
:100E1000CE17DF0740F44A815B819E0141155105E1
:100E2000F1F0EA01F5CFD383C28340815181840F71
:100E3000951FC817D90759F488819981840F951F88
:100E40000296918380838A819B819383828321157B
:100E5000310529F4F0932102E09320023DC0E9011D
:100E6000FB83EA8349915991C40FD51FEC17FD0705
:100E700061F480819181840F951F0296E901998325
:100E80008883828193819B838A83E0E0F0E01296DD
:100E90008D919C911397009719F0FD01DC01F7CF1C
:100EA0008D919C9111979D012E5F3F4F820F931F53
:100EB00020911E0230911F022817390769F43097DC
:100EC00029F4109221021092200202C01382128291
:100ED000B0931F02A0931E02DF91CF91089581E08D
:0C0EE00090E0F8940C947407F894FFCF95
:100EEC00000022028000010000000100000001004F
:100EFC0000000100000001000000010000000000E3
:100F0C00EC005F008D003901BE009C00B0000D0AA2
:100F1C000053657474696E672042495420746F20C5
:100F2C0054494D45206572726F7200536F6D657434
:100F3C0068696E672077656E742077726F6E6721B3
:040F4C00212121003E
:107E0000112484B714BE81FFF0D085E080938100F7
:107E100082E08093C00088E18093C10086E0809377
:107E2000C20080E18093C4008EE0C9D0259A86E02C
:107E300020E33CEF91E0309385002093840096BBD3
:107E4000B09BFECF1D9AA8958150A9F7CC24DD24C4
:107E500088248394B5E0AB2EA1E19A2EF3E0BF2EE7
:107E6000A2D0813461F49FD0082FAFD0023811F036
:107E7000013811F484E001C083E08DD089C08234E0
:107E800011F484E103C0853419F485E0A6D080C0E4
:107E9000853579F488D0E82EFF2485D0082F10E0AE
:107EA000102F00270E291F29000F111F8ED06801E7
:107EB0006FC0863521F484E090D080E0DECF843638
:107EC00009F040C070D06FD0082F6DD080E0C81688
:107ED00080E7D80618F4F601B7BEE895C0E0D1E017
:107EE00062D089930C17E1F7F0E0CF16F0E7DF06D8
:107EF00018F0F601B7BEE89568D007B600FCFDCFD4
:107F0000A601A0E0B1E02C9130E011968C91119780
:107F100090E0982F8827822B932B1296FA010C0160
:107F200087BEE89511244E5F5F4FF1E0A038BF0790
:107F300051F7F601A7BEE89507B600FCFDCF97BE46
:107F4000E89526C08437B1F42ED02DD0F82E2BD052
:107F50003CD0F601EF2C8F010F5F1F4F84911BD097
:107F6000EA94F801C1F70894C11CD11CFA94CF0C13
:107F7000D11C0EC0853739F428D08EE10CD085E9AC
:107F80000AD08FE07ACF813511F488E018D01DD067
:107F900080E101D065CF982F8091C00085FFFCCF94
:107FA0009093C60008958091C00087FFFCCF809118
:107FB000C00084FD01C0A8958091C6000895E0E648
:107FC000F0E098E1908380830895EDDF803219F02E
:107FD00088E0F5DFFFCF84E1DECF1F93182FE3DFCA
:107FE0001150E9F7F2DF1F91089580E0E8DFEE27F6
:047FF000FF270994CA
:027FFE00040479
:0400000300007E007B
:00000001FF