:100000000C9415030C943D030C943D030C943D0398
:100010000C943D030C943D030C943D030C943D0360
:100020000C943D030C943D030C943D030C943D0350
:100030000C943D030C94900A0C943D030C943D03E6
:100040000C94D3100C943D030C94DE0F0C94B80F59
:100050000C943D030C943D030C943D030C943D0320
:100060000C9466090C943D03EF03038002CF030058
:10007000C130ED0464031281E803850078CB0539B3
:100080002C003402F70120EA020000C00123C10164
:1000900010C5023E28C701863601483701003A01E3
:1000A00055B1020018B603088227F20100260101AB
:1000B000E00F0F312B0C0E084EF1370710030E091D
:1000C00000E10F000E1403110731C148080F0C3175
:1000D000360F118029800000000000240027002A2C
:1000E00000000000080002010000030407000000F7
:1000F000000000000000000000003E5B4F5B3E3E41
:100100006B4F6B3E1C3E7C3E1C183C7E3C181C57C3
:100110007D571C1C5E7F5E1C00183C1800FFE7C367
:10012000E7FF0018241800FFE7DBE7FF30483A0636
:100130000E2629792926407F050507407F05253FA2
:100140005A3CE73C5A7F3E1C1C08081C1C3E7F148E
:10015000227F22145F5F005F5F06097F017F0066D8
:1001600089956A606060606094A2FFA29408047E32
:10017000040810207E201008082A1C08081C2A08E1
:10018000081E101010100C1E0C1E0C30383E38309B
:10019000060E3E0E06000000000000005F0000009A
:1001A00007000700147F147F14242A7F2A122313C8
:1001B00008646236495620500008070300001C22DC
:1001C00041000041221C002A1C7F1C2A08083E080E
:1001D000080080703000080808080800006060000F
:1001E00020100804023E5149453E00427F40007203
:1001F000494949462141494D331814127F1027457A
:100200004545393C4A494931412111090736494997
:100210004936464949291E000014000000403400B8
:10022000000008142241141414141400412214086C
:1002300002015909063E415D594E7C1211127C7F24
:10024000494949363E414141227F4141413E7F4932
:100250004949417F090909013E414151737F08081D
:10026000087F00417F41002040413F017F08142268
:10027000417F404040407F021C027F7F0408107F86
:100280003E4141413E7F090909063E4151215E7FC1
:1002900009192946264949493203017F01033F4094
:1002A00040403F1F2040201F3F4038403F6314081C
:1002B000146303047804036159494D43007F4141AD
:1002C000410204081020004141417F040201020460
:1002D0004040404040000307080020545478407FCD
:1002E000284444383844444428384444287F385407
:1002F00054541800087E090218A4A49C787F0804AE
:10030000047800447D40002040403D007F10284498
:100310000000417F40007C047804787C0804047865
:100320003844444438FC1824241818242418FC7C2D
:1003300008040408485454542404043F44243C4012
:1003400040207C1C2040201C3C4030403C44281075
:1003500028444C9090907C4464544C4400083641AE
:10036000000000770000004136080002010204028C
:100370003C2623263C1EA1A161123A4040207A3837
:100380005454555921555579412254547842215598
:1003900054784020545579400C1E527212395555EC
:1003A0005559395454545939555454580000457CC2
:1003B000410002457D420001457C407D1211127DC5
:1003C000F0282528F07C545545002054547C547C5A
:1003D0000A097F4932494949323A4444443A324A47
:1003E0004848303A4141217A3A42402078009DA065
:1003F000A07D3D4242423D3D4040403D3C24FF24E3
:1004000024487E4943662B2FFC2F2BFF0929F62019
:10041000C0887E090320545479410000447D413056
:1004200048484A32384040227A007A0A0A727D0DE2
:1004300019317D2629292F28262929292630484D9A
:100440004020380808080808080808382F10C8ACE9
:10045000BA2F102834FA00007B000008142A142256
:1004600022142A14085500550055AA55AA55AAFF6A
:1004700055FF55FF000000FF00101010FF0014147E
:1004800014FF001010FF00FF1010F010F0141414EF
:10049000FC001414F700FF0000FF00FF1414F40424
:1004A000FC141417101F10101F101F1414141F0019
:1004B000101010F0000000001F101010101F10107E
:1004C0001010F010000000FF10101010101010108D
:1004D00010FF10000000FF140000FF00FF00001FCD
:1004E00010170000FC04F414141710171414F4046B
:1004F000F40000FF00F714141414141414F700F798
:10050000141414171410101F101F141414F41410C2
:1005100010F010F000001F101F0000001F1400005A
:1005200000FC140000F010F01010FF10FF14141461
:10053000FF141010101F00000000F010FFFFFFFF5D
:10054000FFF0F0F0F0F0FFFFFF0000000000FFFF01
:100550000F0F0F0F0F3844443844FC4A4A4A347E88
:1005600002020606027E027E026355494163384458
:10057000443C04407E201E2006027E020299A5E72C
:10058000A5991C2A492A1C4C7201724C304A4D4DC7
:10059000303048784830BC625A463D3E49494900AF
:1005A0007E0101017E2A2A2A2A2A44445F444440CB
:1005B000514A444040444A51400000FF0103E0805A
:1005C000FF000008086B6B083612362436060F0948
:1005D0000F06000018180000001010003040FF0146
:1005E00001001F01011E00191D1712003C3C3C3C7C
:1005F00000000000000102040810204080010204F5
:100600000810200102040810200000000025002826
:10061000002B000404040404040404020202020285
:1006200002030303030303005B1211241FBECFEF79
:10063000D8E0DEBFCDBF11E0A0E0B1E0ECE7F8E22A
:1006400002C005900D92AA35B107D9F723E0AAE5BB
:10065000B1E001C01D92A238B207E1F713E0C5E195
:10066000D3E004C02197FE010E943114C431D107A8
:10067000C9F70E9450110C943C140C94000008958A
:10068000FC016370658B848195812681378161309F
:1006900039F0633029F09187808733872287089566
:1006A000318720879387828708956F927F928F92F8
:1006B0009F92AF92BF92CF92DF92EF92FF920F93F1
:1006C0001F93CF93DF93EC014B015A01690138016D
:1006D000E881F9810284F385E02D0995E881F981AB
:1006E0000288F389E02D87019601A501B401CE01AE
:1006F0000995A501460D571D41505109E881F98121
:100700000288F389E02D9601B401CE010995E881B4
:10071000F9810088F189E02D9301A501B401CE0192
:100720000995C80CD91CB60161507109E881F9819D
:100730000088F189E02D9301A501CE010995E8819A
:10074000F9810688F789E02DCE01DF91CF911F91C5
:100750000F91FF90EF90DF90CF90BF90AF909F9060
:100760008F907F906F9009948F929F92AF92BF92DB
:10077000CF92DF92EF92FF920F931F93CF93DF936D
:100780004C016B015A01E901DC01ED91FC9162170A
:10079000730781F40417150724F48B2D5801042FD7
:1007A000182F0A191B0998012F5F3F4F048CF58DF4
:1007B000E02D12C04017510709F52617370724F41A
:1007C0008D2D6901C62FD82F9E012C193D092F5F51
:1007D0003F4F068CF78DE02D8701A501B601C401BE
:1007E0000995DF91CF911F910F91FF90EF90DF90CE
:1007F000CF90BF90AF909F908F9008950284F38523
:10080000E02D0995D401ED91FC910488F589E02D46
:100810009E01A501B601C4010995D401ED91FC9199
:100820000688F789E02DC401DF91CF911F910F91C8
:10083000FF90EF90DF90CF90BF90AF909F908F9000
:100840000994EF92FF920F931F93DC011A960D917A
:100850001C911B9718962D913C911997ED91FC9145
:1008600000A0F1A1E02D7B0140E050E060E070E0ED
:1008700009951F910F91FF90EF9008954F925F920D
:100880006F927F928F929F92AF92BF92CF92DF92A0
:10089000EF92FF920F931F93CF93DF936C012B0185
:1008A0005A0139014801DC01ED91FC910284F38584
:1008B000E02D0995E201640C751CD601ED91FC91C7
:1008C000C615D7055CF40088F189E02D87019401F5
:1008D000A501BE01C60109952196EFCF0688F789CB
:1008E000E02DC601DF91CF911F910F91FF90EF9006
:1008F000DF90CF90BF90AF909F908F907F906F9040
:100900005F904F9009948F929F92AF92BF92CF9237
:10091000DF92EF92FF920F931F93CF93DF93EC013F
:100920005B014A016901E881F9810284F385E02DC8
:10093000099595012C0D3D1D21503109E881F98162
:100940000488F589E02D78018401A401B501CE0168
:100950000995E881F9810688F789E02DCE01DF91BC
:10096000CF911F910F91FF90EF90DF90CF90BF90AC
:10097000AF909F908F9009948F929F92AF92BF9269
:10098000CF92DF92EF92FF920F931F93CF93DF935B
:10099000EC015B014A0169017801E881F981028477
:1009A000F385E02D0995C80CD91C86010150110969
:1009B000E881F9810488F589E02D9501A401B5014C
:1009C000CE010995E881F9810688F789E02DCE01ED
:1009D000DF91CF911F910F91FF90EF90DF90CF901B
:1009E000BF90AF909F908F9009940895EF92FF92DF
:1009F0000F931F93DC01ED91FC9100A0F1A1E02D7C
:100A000009951F910F91FF90EF9008950F931F93F9
:100A1000DC01ED91FC91068CF78DE02D09951F917D
:100A20000F9108950F931F93DC01ED91FC91048CBD
:100A3000F58DE02D09951F910F910895DC01ED9141
:100A4000FC910084F185E02D09942F923F924F9202
:100A50005F926F927F928F929F92AF92BF92CF924E
:100A6000DF92EF92FF920F931F93CF93DF9300D00B
:100A700000D000D0CDB7DEB72C017E836D836A0134
:100A80005901C801FC82EB824801841A950A97FE3D
:100A900003C091948194910835012D813E81621AA1
:100AA000730A77FE03C07194619471086814790425
:100AB0005CF43A2D2B2D5C01832F922F3D812E81EA
:100AC000DE82CD82C32ED22EAD81BE81AA16BB0698
:100AD0005CF43C2D2D2D6C01832F922F3D812E81B6
:100AE000BE82AD82A32EB22E85012D813E81021BD6
:100AF000130B1C012C183D0837FE03C031942194C0
:100B00003108780117FF03C03FEFE31AF30AF594A9
:100B1000E794C816D9062CF08FEF9FEF9A8389834C
:100B200004C0A1E0B0E0BA83A9832D813E81A21662
:100B3000B30624F1D201ED91FC910484F585E02DFA
:100B40002B813C816814790424F44D815E81B601C7
:100B500003C0A6016D817E81C2010995E218F308E8
:100B6000F7FE06C029813A81C20ED31EE00EF11EA7
:100B70008D819E8101969E838D83D7CF26960FB659
:100B8000F894DEBF0FBECDBFDF91CF911F910F91C3
:100B9000FF90EF90DF90CF90BF90AF909F908F909D
:100BA0007F906F905F904F903F902F90089585EDCC
:100BB0008093BC008091BC0084FDFCCF10926F023A
:100BC000089540914B02262F30E0240F311D213231
:100BD0003105DCF420916F022430C9F4FC0180E07F
:100BE00090E0861758F430914B022191DC01A55D0D
:100BF000BD4FA30FB11D2C930196F3CF80914B02F3
:100C0000680F60934B0280E0089581E0089582E0D0
:100C100008958FEF9FEF08958FEF9FEF08958091D4
:100C20002A0290E09195819591090895CF93DF93E1
:100C3000CB01EA01642F0E94E105CE01DF91CF9143
:100C40000895CF93DF931F92CDB7DEB7698361E03C
:100C5000CE0101960E94E10581E090E00F90DF91C6
:100C6000CF910895089580E090E00895FC0181A15E
:100C700087FF1EC0428D538D648D758D80E092E19B
:100C8000AAE7B0E020E0481759076A077B0740F45D
:100C9000B695A795979587952F5F2630A1F727E002
:100CA00091E09227892F806A869591708CBD9DBDB9
:100CB00081A904A4F5A5E02D9081809589238083E6
:100CC0000895AF92BF92CF92EF92FF920F931F932E
:100CD000CF93DF93EC01262F888D998D009709F033
:100CE00040C06A3059F41D861C862C898E859F85EC
:100CF00038E0239F800D911D112441C06D3009F40F
:100D0000AAC08E898823C1F03C898C859D8546E0E8
:100D1000349F800D911D1124488559854817590726
:100D20005CF41D861C868E859F8548E0349F800D6F
:100D3000911D11249F878E87EA88FB88088919896D
:100D40004E855F856C857D85CC88CE010E949E0D89
:100D50002C898C859D8536E0239F800D911D112463
:100D600042C06A3079F41D861C862C89FC013696B7
:100D7000E4918E859F852E9F800D911D11249F8764
:100D80008E8769C06D3009F466C0FC0134963491D9
:100D9000631708F460C03196E491E61708F45BC06D
:100DA000FC01329665917491422F50E0431B51092A
:100DB00037E0349F5001359FB00C1124A60EB71EAA
:100DC000F501329634913196E491332311F0E1111B
:100DD0000DC0F5013496E4912C898C859D85E29FA8
:100DE000800D911D11249D878C8735C0F5013596A6
:100DF00044915E89552311F16C89E32FF0E0E40FF3
:100E0000F11D47FDFA956E9FD0016F9FB00D112423
:100E10004C855D854A0F5B1FE885F985E417F5076A
:100E20006CF41D861C86FC013696E4918E859F85A8
:100E30006E9F800D911D11249F878E87EA88FB8805
:100E4000088919894E855F856C857D85CC88CE01A2
:100E50000E949E0DBECF81E090E0DF91CF911F9167
:100E60000F91FF90EF90CF90BF90AF9008951F9398
:100E7000CF93DF93EC01162FE881F9810284F3858B
:100E8000E02D0995111102C060E201C061E2CE01BE
:100E90000E941D11E881F9810688F789E02DCE01B5
:100EA000DF91CF911F910994FC0181A187FF05C0BB
:100EB0006EBD0DB407FEFDCF089588E090E020E8F8
:100EC000A4A1B5A1362F322321F046A53C91342BA5
:100ED00004C036A54C91309534233C9330A9A0A58D
:100EE000B1A54C91309534233C9340A9A0A5B1A560
:100EF0003C91342B3C932695019711F708958F92DE
:100F00009F92AF92BF92CF92DF92EF92FF920F9398
:100F10001F93CF93DF93EC01490181E0881A910878
:100F2000860E971EC401A0E0B0E04B01A12CB12CAD
:100F3000540199248824882A992AAA2ABB2A68015C
:100F400081E0C81AD108C40ED51EC601A0E0B0E0E9
:100F50006A01E12CF12C7601DD24CC24C82AD92A9F
:100F6000EA2AFB2A6AE2CE010E941D1129A16B2DFB
:100F700077278827992727FF18C06EBD0DB407FE75
:100F8000FDCFC501AA27BB278EBD0DB407FEFDCF3F
:100F9000BB27AB2D9A2D892D8EBD0DB407FEFDCF3D
:100FA0008EBC0DB407FEFDCF14C0CE010E945407C5
:100FB000B50188279927CE010E94540799278B2DC8
:100FC0007A2D692DCE010E945407682DCE010E9412
:100FD00054076BE2CE010E941D1129A16F2D7727C6
:100FE0008827992727FF18C06EBD0DB407FEFDCFD7
:100FF000C701AA27BB278EBD0DB407FEFDCFBB27B7
:10100000AF2D9E2D8D2D8EBD0DB407FEFDCFCEBC18
:101010000DB407FEFDCF14C0CE010E945407B701E6
:1010200088279927CE010E94540799278F2D7E2D5E
:101030006D2DCE010E9454076C2DCE010E945407E5
:101040006CE2CE01DF91CF911F910F91FF90EF9055
:10105000DF90CF90BF90AF909F908F900C941D1118
:101060001F93CF93DF93EC0163706D8B6230C1F0FF
:10107000633001F1613051F080EF90E0998788870B
:1010800080E491E09B878A8718E41DC080E491E0AA
:101090009987888780EF90E09B878A8718E213C042
:1010A00080EF90E09987888780E491E09B878A872A
:1010B00018E809C080E491E09987888780EF90E084
:1010C0009B878A8718EEE881F9810284F385E02DF9
:1010D000CE01099566E3CE010E941D11612FCE015C
:1010E0000E945407E881F9810688F789E02DCE0136
:1010F000DF91CF911F910994BF92CF92DF92EF922F
:10110000FF920F931F93CF93DF93EC01411551058D
:101110006105710521F440E052E16AE770E04A8F11
:101120005B8F6C8F7D8F8E8D87FD07C061E00E9485
:101130005D1061E08E8D0E94101061E08F8D0E9425
:101140005D1060E08F8D0E94101089A187FD19C08D
:1011500061E08AA10E945D1060E08AA10E941010E7
:1011600061E089A10E945D1061E089A10E941010D8
:101170008BA187FD03C060E00E945D1089A187FFFD
:1011800033C01FB7F89480919502811127C0EDE11B
:10119000F6E08491EFEFF5E09491E82FF0E0EE0FA8
:1011A000FF1FE952FF4FA591B491EC91E92321F47F
:1011B00061E08AE00E94101061E08AE00E945D1008
:1011C0008CB580618CBD8CB580648CBD61E08DE098
:1011D0000E945D1061E08BE00E945D10809195029D
:1011E0008F5F809395021FBF88A187FD21C061E0BA
:1011F0000E945D1061E088A10E94101064E670E01A
:1012000080E090E00E94991060E088A10E94101098
:1012100064E670E080E090E00E94991061E088A1AF
:101220000E94101068EC70E080E090E00E9499103D
:10123000E881F9810284F385E02DCE01099508E665
:1012400010E078018FEFE81AF80AF801649166233C
:1012500021F1CE010E941D110E5F1F4FF701E49096
:10126000FE2DFF77BF2E6801FF2EFA948FEFF81640
:1012700049F0F6016491CE010E945407FFEFCF1AA6
:10128000DF0AF3CF0B0D111DE7FEDBCF68E770E03F
:1012900080E090E00E949910D4CFE881F98106881F
:1012A000F789E02DCE01099580EF90E09987888736
:1012B00080E491E09B878A87DF91CF911F910F9106
:1012C000FF90EF90DF90CF90BF9008951F920F9204
:1012D0000FB60F9211242F933F934F935F936F9309
:1012E0007F938F939F93AF93BF93EF93FF938091DF
:1012F000B900887F803609F49CC068F5883209F40B
:101300005BC090F4803109F454C038F4882309F4A8
:10131000F2C0883009F44DC0F2C0883109F44CC0E5
:10132000803209F45DC0EBC0803409F468C048F431
:10133000803309F455C0883309F0E1C080936E0210
:10134000D4C0803509F44FC0883509F45DC08834B5
:1013500009F0D5C0D2C0883909F4C3C0A8F48837D1
:1013600009F467C038F4883609F463C0803709F49B
:1013700060C0C5C0883809F4B4C0803909F45FC0C2
:10138000803809F0BCC05BC0803B09F484C038F4ED
:10139000803A09F466C0883A09F47DC0B0C0803C48
:1013A00009F4A3C0883C09F4A0C0883B09F486C0B6
:1013B000A6C08091940210C09091930280919202F5
:1013C000981770F5E091930281E08E0F809393025D
:1013D000F0E0EE58FD4F80818093BB0085EC82C029
:1013E00080936E028AC0E091930281E08E0F809319
:1013F00093028091BB00F0E0EE58FD4F8083909106
:101400009302809192026AC0E091930281E08E0F74
:10141000809393028091BB00F0E0EE58FD4F8083F3
:1014200080917102811169C081E08093700284EA29
:101430005DC083E080936F0210926D02CFCF8091E8
:101440006D02803208F04DC0E0916D0281E08E0F98
:1014500080936D028091BB00F0E0E35BFD4F8083E1
:10146000BDCF85EC8093BC0010926F0280916D021D
:10147000803230F4E0916D02F0E0E35BFD4F1082CA
:1014800060916D0270E08DE492E0E0E0F0E009959B
:1014900010926D0234C084E080936F0210924C026F
:1014A00010924B02E0E0F0E0099580914B0281112F
:1014B00005C081E080934B0210922B02E0914C0218
:1014C00081E08E0F80934C02F0E0E55DFD4F80815E
:1014D0008093BB0090914C0280914B02981708F4C6
:1014E0007DCF85E88093BC000AC085EC8093BC006A
:1014F00010926F0204C010926E020E94D705FF91F5
:10150000EF91BF91AF919F918F917F916F915F917B
:101510004F913F912F910F900FBE0F901F901895F4
:101520001F920F920FB60F9211248F939F93809169
:1015300028029091290290938500809384008091E5
:10154000260290912702019690932702809326020B
:101550000B976CF080912402909125020196909354
:1015600025028093240210922702109226029F9156
:101570008F910F900FBE0F901F901895CF92DF9212
:10158000EF92FF920F931F93CF93DF936C017A0139
:101590008B01C0E0D0E0CE15DF0581F0D8016D9160
:1015A0008D01D601ED91FC910190F081E02DC601F5
:1015B0000995892B11F02196EECF7E01C701DF91AD
:1015C000CF911F910F91FF90EF90DF90CF900895F2
:1015D000FC01538D448D252F30E0842F90E0821B39
:1015E000930B541710F0CF96089501970895FC01BE
:1015F000918D828D981761F0828DDF01A80FB11D4A
:101600005D968C91928D9F5F9F73928F90E008956D
:101610008FEF9FEF0895FC01918D828D981731F027
:10162000828DE80FF11D858D90E008958FEF9FEF7B
:101630000895FC01918D228D892F90E0805C9F4F51
:10164000821B91098F7399270895FC01848DDF0116
:10165000A80FB11DA35ABF4F2C91848D90E0019625
:101660008F739927848FA689B7892C93A089B18914
:101670008C91837080648C93938D848D981306C0B5
:101680000288F389E02D80818F7D80830895EF9219
:10169000FF920F931F93CF93DF93EC0181E0888F2C
:1016A0009B8D8C8D981305C0E889F989808185FD13
:1016B00026C0F62E0B8D10E00F5F1F4F0F73112702
:1016C000E02E8C8DE8120CC00FB607FCFACFE8892B
:1016D000F989808185FFF5CFCE010E94250BF1CFDE
:1016E0008B8DFE01E80FF11DE35AFF4FF0829FB78B
:1016F000F8940B8FEA89FB89808180620AC09FB7CA
:10170000F894EE89FF896083E889F9898081837084
:10171000806480839FBF81E090E0DF91CF911F9133
:101720000F91FF90EF900895CF93DF93EC01888D98
:101730008823C9F0EA89FB89808185FD05C0A889D5
:10174000B9898C9186FD0FC00FB607FCF5CF80815B
:1017500085FFF2CFA889B9898C9185FFEDCFCE01A5
:101760000E94250BE7CFDF91CF9108953FB7F89402
:101770008091720390917303A0917403B0917503EB
:1017800026B5A89B05C02F3F19F00196A11DB11DDC
:101790003FBFBA2FA92F982F8827820F911DA11D17
:1017A000B11DBC01CD0142E0660F771F881F991F54
:1017B0004A95D1F708958F929F92AF92BF92CF92A0
:1017C000DF92EF92FF920F931F93CF93DF93EC0181
:1017D0006B015A014901E881F9810284F385E02D0A
:1017E0000995E881F9810684F785E02D9401A5012A
:1017F000B601CE010995E881F9810688F789E02DC7
:10180000CE01DF91CF911F910F91FF90EF90DF906C
:10181000CF90BF90AF909F908F900994AF92BF925E
:10182000CF92DF92EF92FF920F931F93CF93DF93AC
:10183000EC017B016A015901E881F9810284F38599
:10184000E02D0995E881F9810288F389E02D950161
:10185000A601B701CE010995E881F9810688F789CB
:10186000E02DCE01DF91CF911F910F91FF90EF906E
:10187000DF90CF90BF90AF900994AF92BF92CF927C
:10188000DF92EF92FF920F931F93CF93DF93EC01C0
:101890007B016A015901E881F9810284F385E02D19
:1018A0000995E881F9810088F189E02D9501A6016B
:1018B000B701CE010995E881F9810688F789E02D05
:1018C000CE01DF91CF911F910F91FF90EF90DF90AC
:1018D000CF90BF90AF900994CF92DF92EF92FF929A
:1018E0000F931F93CF93DF93EC018B017A01690172
:1018F000E881F9810284F385E02D0995E881F98179
:101900000484F585E02D9601A701B801CE01099563
:10191000E881F9810688F789E02DCE01DF91CF912A
:101920001F910F91FF90EF90DF90CF900994EF926D
:10193000FF920F931F93DC01ED91FC910684F785D4
:10194000E02D780101E010E009951F910F91FF90C3
:10195000EF900895EF92FF920F931F93DC01ED91AA
:10196000FC910684F785E02D7801890121E030E0C3
:1019700009951F910F91FF90EF900895FC0191A997
:1019800004A4F5A5E02D8081892B808308950E9411
:1019900037144F925F926F927F928F929F92AF9285
:1019A000BF92CF92DF92EF92FF920F931F93CF934C
:1019B000DF93EC016B0159014801288539856217D5
:1019C00073070CF067C08A859B85481759070CF090
:1019D00061C08B010A0D1B1DF8013197DA01A80DBA
:1019E000B91DBD0161507109F7FD54C077FD52C0AA
:1019F000D7FE03C05801C12CD12C57FF03C04D01A5
:101A000040E050E0E217F3071CF05901AC18BD08A4
:101A1000681779071CF04C01841A950A9501D401C6
:101A20000E940E143B01582E492EE881F98102A430
:101A3000F3A5E02D8401B601CE0109954301A52C43
:101A4000B42C89A187FF13C081149104A104B104AF
:101A500009F1FEBC0DB407FEFDCFEEBC0DB407FED0
:101A6000FDCF81E0881A9108A108B108EDCF81145B
:101A70009104A104B10471F06F2DCE010E945407AE
:101A80006E2DCE010E94540781E0881A9108A108AA
:101A9000B108EDCFDF91CF911F910F91FF90EF90A3
:101AA000DF90CF90BF90AF909F908F907F906F907E
:101AB0005F904F900895EF92FF920F931F93CF93F3
:101AC000DF93EC0177FD33C0888599856817790726
:101AD00074F557FD2CC08A859B85481759073CF53E
:101AE000E32EF22EE881F98102A4F3A5E02D01E0B6
:101AF00010E021E030E0CE01099589A187FF09C0FF
:101B0000EEBC0DB407FEFDCFFEBC0DB407FEFDCF4D
:101B10000EC06E2DCE010E9454076F2DCE01DF91B5
:101B2000CF911F910F91FF90EF900C945407DF918C
:101B3000CF911F910F91FF90EF9008952F923F92B8
:101B40004F925F926F927F928F929F92AF92BF92CD
:101B5000CF92DF92EF92FF920F931F93CF93DF9379
:101B6000CDB7DEB76B970FB6F894DEBF0FBECDBF13
:101B70009B8F8A8F5B011A01D22E1F830E83370140
:101B8000C982DC0158962D913C9159972115310558
:101B900009F0E6C018968D919C91199768177907FE
:101BA0000CF0CDC11A968D919C911B97481759073F
:101BB0000CF0C5C18C2C912CFB0126E0C29EE00DDF
:101BC000F11D1124FB87EA871E161F060CF0B7C112
:101BD000A40183E0440F551F8A95E1F75D874C8788
:101BE000CA01820D931D181619060CF0A8C157964C
:101BF0008C91811104C05FEA5D1508F4D394AA8D1D
:101C0000BB8DED91FC9111970284F385E02DCD0100
:101C10000995B5E0DB9EC0011124F5013596FF87DB
:101C2000EE87BB82AA8225019C012A193B09398BC8
:101C3000288BA101485F5F4F5B8B4A8BE889F9894C
:101C4000E40DF51DEB50FF4F5491588761013D8223
:101C50002C82888580FF13C0AA8DBB8DED91FC91ED
:101C6000B981B13031F40484F585E02D2E813F81B6
:101C700016C00684F785E02DEE80FF801AC0EE8145
:101C8000FF81E615F705F1F0AA8DBB8DED91FC9172
:101C9000B981B13051F40484F585E02D9301A6019A
:101CA000B2018A8D9B8D09950DC00684F785E02DC4
:101CB0007301840194014C815D816A817B818A8DED
:101CC0009B8D0995E885E695E887FFEFCF1ADF0A37
:101CD0002C813D81280D391D3D832C834A895B89E8
:101CE000C416D50609F0B5CF5FEF451A550A8A81AB
:101CF0009B81880D991D9B838A83AE85BF854A167B
:101D00005B0609F09BCFEE81FF81E615F70509F42C
:101D1000F4C0EA8DFB8DA081B181F981F13079F4B5
:101D2000B5016B5F7F4F5096ED91FC915197830108
:101D300028E030E0A1018A8D9B8D0995DEC06A857F
:101D40007B85681979091E96ED91FC911F977301A7
:101D50000C851D859401A1018A8D9B8D0995CDC0AF
:101D6000F9013496E491DE1AF90132968591949145
:101D7000B7E0DB9E800D911D1124F901259134916E
:101D80003B8B2A8BFC01259134912901FC01329671
:101D9000C490319634913E87329614913196D49006
:101DA0004981423058F0612E012E000C77088D2DAC
:101DB0000D2C000C990B9987888704C0198618860A
:101DC000612C712CAA8DBB8DED91FC911197028431
:101DD000F385E02DCD010995B9818B2E912C689C5E
:101DE000C001699C900D789C900D1124FC01EA0DB6
:101DF000FB1DFD87EC871A82712C612CE12F110FDE
:101E0000FF0B95012E0F3F1F3B872A87AC0CB11C9F
:101E1000A5014E0F5F1F5F8B4E8BC1018D0D911D74
:101E2000D7FC9A95998F888F9E85691608F065C0B2
:101E3000862D90E048855985480F591F489D90018F
:101E4000499D300D589D300D1124D101A20FB31FB3
:101E5000B98BA88BEC85FD85FD83EC83AA84BB84BC
:101E6000DA80FA85DF1A288D398D280F391F3D8BCE
:101E70002C8B8D2D8A0D4E895F89A416B506C1F174
:101E8000877041F4C2010196EA89FB89E40DF51DD2
:101E900074902C0177FE21C0AA8DBB8DED91FC9131
:101EA000B981B13061F40484F585E02D2E813F8144
:101EB0004C895D89B5018A8D9B8D09950EC006847C
:101EC000F785E02DEE80FF808401940148895989CF
:101ED0006C817D818A8D9B8D0995770CEFEFAE1A11
:101EE000BE0A2C813D81280D391D3D832C83C1CF35
:101EF0003A813C0D3A83639497CFAA8DBB8DED91C7
:101F0000FC9111970688F789E02DCD016B960FB6ED
:101F1000F894DEBF0FBECDBFDF91CF911F910F911F
:101F2000FF90EF90DF90CF90BF90AF909F908F90F9
:101F30007F906F905F904F903F902F9009946B9699
:101F40000FB6F894DEBF0FBECDBFDF91CF911F91CA
:101F50000F91FF90EF90DF90CF90BF90AF909F9048
:101F60008F907F906F905F904F903F902F9008954B
:101F70001F920F920FB60F9211242F933F934F93FE
:101F80005F936F937F938F939F93AF93BF93EF93E1
:101F9000FF9387E992E00E94250BFF91EF91BF919B
:101FA000AF919F918F917F916F915F914F913F91F1
:101FB0002F910F900FBE0F901F9018951F920F92A8
:101FC0000FB60F9211242F938F939F93EF93FF934C
:101FD000E091A702F091A8028081E091AD02F0911A
:101FE000AE0282FD12C090818091B0028F5F8F732C
:101FF0002091B102821751F0E091B002F0E0E95671
:10200000FD4F958F8093B00201C08081FF91EF91C9
:102010009F918F912F910F900FBE0F901F90189549
:1020200090E0FC01EF51FF4F2491FC01EB50FA4F7F
:102030003491FC01ED5EF94FE491EE2309F43CC0CC
:10204000222339F1233091F038F42130A9F02230E5
:1020500001F584B58F7D12C0273091F02830A1F0B2
:102060002430B9F4809180008F7D03C0809180007E
:102070008F77809380000DC084B58F7784BD09C0B1
:102080008091B0008F7703C08091B0008F7D8093E6
:10209000B000F0E0EE0FFF1FE75FF94FA591B4919C
:1020A0009FB7F894611104C08C913095382302C019
:1020B000EC913E2B3C939FBF0895CF93DF9390E02C
:1020C000FC01EB50FA4F2491FC01ED5EF94F849135
:1020D000882361F190E0880F991FFC01E952FF4FBE
:1020E000C591D491FC01E75FF94FA591B4916111BD
:1020F00009C09FB7F8948881209582238883EC914A
:102100002E230BC0623061F49FB7F8948881322F80
:10211000309583238883EC912E2B2C939FBF06C090
:102120008FB7F894E8812E2B28838FBFDF91CF9152
:1021300008958F929F92AF92BF92CF92DF92EF92CB
:10214000FF926B017C010E94B60B4B015C01C11434
:10215000D104E104F104F1F00E94B60BDC01CB01E3
:1021600088199909AA09BB09883E9340A105B105C0
:1021700070F321E0C21AD108E108F10888EE880E58
:1021800083E0981EA11CB11CC114D104E104F10428
:1021900019F7DDCFFF90EF90DF90CF90BF90AF9019
:1021A0009F908F9008951F920F920FB60F92112457
:1021B0002F933F938F939F93AF93BF9380916E0321
:1021C00090916F03A0917003B091710330916D03F2
:1021D00023E0230F2D3720F40196A11DB11D05C06A
:1021E00026E8230F0296A11DB11D20936D03809355
:1021F0006E0390936F03A0937003B093710380916B
:10220000720390917303A0917403B09175030196CA
:10221000A11DB11D8093720390937303A093740367
:10222000B0937503BF91AF919F918F913F912F9183
:102230000F900FBE0F901F901895CF93DF93EC0176
:102240008AA9EAA5FBA59081809589238083CE0188
:102250000E9454079AA9EAA5FBA58081892B808357
:10226000DF91CF9108951F93CF93DF93EC01162F49
:10227000E881F9810284F385E02D0995112311F09D
:102280006BA901C06CA9CE010E941D11E881F981E2
:102290000688F789E02DCE01DF91CF911F91099437
:1022A000F89410928000109281008EEE95E8909341
:1022B0002902809328029093850080938400809166
:1022C000810084608093810080916F0081608093A1
:1022D0006F007894789484B5826084BD84B5816001
:1022E00084BD85B5826085BD85B5816085BD8091E1
:1022F0006E00816080936E00109281008091810059
:102300008260809381008091810081608093810050
:10231000809180008160809380008091B100846012
:102320008093B1008091B00081608093B000809173
:102330007A00846080937A0080917A008260809332
:102340007A0080917A00816080937A0080917A008F
:10235000806880937A001092C10040E050E0BA019A
:1023600084E393E00E947C0860E070E084E393E003
:102370000E942104E091A702F091A80282E08083EC
:10238000E091A302F091A4021082E091A502F091E5
:10239000A60287E680831092AF02E091AB02F09133
:1023A000AC0286E08083E091A902F091AA028081CC
:1023B00080618083E091A902F091AA028081886007
:1023C0008083E091A902F091AA02808180688083D5
:1023D000E091A902F091AA0280818F7D808300E0C4
:1023E00010E0E801CC0FDD1FCE01865A9E4F7C0124
:1023F000C254DE4F52EDA52EB12C64E6C62ED12C70
:10240000023311050CF50E948713B5010E94FA13DF
:10241000F701819391937F010E948713B6010E9477
:10242000FA13C296899399930F5F1F4FE9CF80915A
:10243000220290912302019690932302809322021C
:102440001092250210922402809122029091230280
:10245000880F991FFC01E254FE4FC081D181FC011D
:10246000E65AFE4FC080D18040912402509125024F
:102470003AEBE32E36EDF32E8E019E01B60184E396
:1024800093E00E94DB0B40912402509125024A50B8
:102490005109E12CF12C0AE010E09E01B60184E321
:1024A00093E00E94DB0B80912402909125028134FD
:1024B000914054F2BCCFE7E9F2E01382128288EE39
:1024C00093E0A0E0B0E084839583A683B78329E0FE
:1024D00031E03183208325EC30E03587248724ECFC
:1024E00030E03787268720EC30E0318B208B21ECE1
:1024F00030E0338B228B22EC30E0358B248B26ECC2
:1025000030E0378B268B118E128E138E148EE6E7F9
:10251000F3E01382128284839583A683B7838BE1D1
:1025200091E091838083A4E3B3E013961C921E9202
:10253000129720EF30E015963C932E93149780E489
:1025400091E017969C938E93169719963C932E9331
:1025500018971B969C938E931A9755961C92559795
:102560001D961C921E921C971F961C921E921E97DF
:1025700081E054968C9354972FEF3FEF53963C9302
:102580002E93529751963C932E93509756968C9338
:10259000569757961C92579759961C921E92589789
:1025A000D3961C92D397D4961C92D497D6961C920D
:1025B0001E92D597D8961C921E92D7978AE05E9667
:1025C0008C935E9789E05F968C935F978FEF9096E0
:1025D0008C93909791968C93919792968C939297D7
:1025E00093968C9393975A961D921D921D921C92CE
:1025F0005D9799961C921E929897D0961C92D097B0
:1026000095961C921E9294979E961C929E979796D2
:102610001C921E9296979F961C929F97ECE1F6E073
:10262000E491F0E0EE0FFF1FE75FF94F8591949181
:102630009B969C938E939A97EEEFF5E0E491D29659
:10264000EC93D297EDE1F6E0E491F0E0EE0FFF1F9E
:10265000E75FF94F859194919D969C938E939C97FB
:10266000EFEFF5E0E491D196EC93D1978DE291E014
:102670008D939C9308958F929F92AF92BF92CF9229
:10268000DF92EF92FF92CF93DF93EC016881798123
:102690008A819B81611571058105910521F464E2B0
:1026A00079ED8BE597E02DE133EF41E050E00E94BA
:1026B000971349015A019B01AC01A7EAB1E40E94BA
:1026C000B6136B017C01ACEEB4EFA50194010E943E
:1026D000C413DC01CB018C0D9D1DAE1DBF1DB7FFCA
:1026E00003C00197A109B04888839983AA83BB835B
:1026F0009F77DF91CF91FF90EF90DF90CF90BF90C9
:10270000AF909F908F9008950E943B13089580E0B2
:1027100091E00E943B130895A0E0B0E08093000197
:1027200090930101A0930201B09303010895052E37
:1027300097FB1EF400940E94AE1357FD07D00E9431
:10274000C91307FC03D04EF40C94AE13509540957A
:10275000309521953F4F4F4F5F4F0895909580954D
:10276000709561957F4F8F4F9F4F08950E94EB1397
:10277000A59F900DB49F900DA49F800D911D1124D5
:102780000895B7FF0C94B6130E94B613821B930BE7
:102790000895A1E21A2EAA1BBB1BFD010DC0AA1FA2
:1027A000BB1FEE1FFF1FA217B307E407F50720F0BA
:1027B000A21BB30BE40BF50B661F771F881F991F35
:1027C0001A9469F760957095809590959B01AC017E
:1027D000BD01CF010895A29FB001B39FC001A39F87
:1027E000700D811D1124911DB29F700D811D11244A
:1027F000911D089597FB072E16F4009407D077FDDE
:1028000009D00E941D1407FC05D03EF490958195D7
:102810009F4F0895709561957F4F08950E94EB1327
:10282000332312F48A1B9B0B0C9418140E94EB1395
:10283000B7FF0895821B930B0895AA1BBB1B51E1A0
:1028400007C0AA1FBB1FA617B70710F0A61BB70B20
:10285000881F991F5A95A9F780959095BC01CD01C5
:102860000895EE0FFF1F0590F491E02D099481E08B
:0C28700090E0F8940C943C14F894FFCF16
:10287C00010000000000000000470BBE0AE80A94AB
:10288C000B190BF70A0B0B00000000210616063380
:10289C0006F5040F060C060906000000006106BED2
:1028AC000A330632066C0C36065B0DC90CAA0C9763
:1028BC000C2505BE0C300837073D0C0E0CDB0B212C
:0A28CC0004B40355037C087F0700E5
:107E0000112484B714BE81FFF0D085E080938100F7
:107E100082E08093C00088E18093C10086E0809377
:107E2000C20080E18093C4008EE0C9D0259A86E02C
:107E300020E33CEF91E0309385002093840096BBD3
:107E4000B09BFECF1D9AA8958150A9F7CC24DD24C4
:107E500088248394B5E0AB2EA1E19A2EF3E0BF2EE7
:107E6000A2D0813461F49FD0082FAFD0023811F036
:107E7000013811F484E001C083E08DD089C08234E0
:107E800011F484E103C0853419F485E0A6D080C0E4
:107E9000853579F488D0E82EFF2485D0082F10E0AE
:107EA000102F00270E291F29000F111F8ED06801E7
:107EB0006FC0863521F484E090D080E0DECF843638
:107EC00009F040C070D06FD0082F6DD080E0C81688
:107ED00080E7D80618F4F601B7BEE895C0E0D1E017
:107EE00062D089930C17E1F7F0E0CF16F0E7DF06D8
:107EF00018F0F601B7BEE89568D007B600FCFDCFD4
:107F0000A601A0E0B1E02C9130E011968C91119780
:107F100090E0982F8827822B932B1296FA010C0160
:107F200087BEE89511244E5F5F4FF1E0A038BF0790
:107F300051F7F601A7BEE89507B600FCFDCF97BE46
:107F4000E89526C08437B1F42ED02DD0F82E2BD052
:107F50003CD0F601EF2C8F010F5F1F4F84911BD097
:107F6000EA94F801C1F70894C11CD11CFA94CF0C13
:107F7000D11C0EC0853739F428D08EE10CD085E9AC
:107F80000AD08FE07ACF813511F488E018D01DD067
:107F900080E101D065CF982F8091C00085FFFCCF94
:107FA0009093C60008958091C00087FFFCCF809118
:107FB000C00084FD01C0A8958091C6000895E0E648
:107FC000F0E098E1908380830895EDDF803219F02E
:107FD00088E0F5DFFFCF84E1DECF1F93182FE3DFCA
:107FE0001150E9F7F2DF1F91089580E0E8DFEE27F6
:047FF000FF270994CA
:027FFE00040479
:0400000300007E007B
:00000001FF